{
  "contracts/MemeBuilder.sol": {
    "MemeBuilder": {
      "abi": [
        {
          "inputs": [],
          "stateMutability": "nonpayable",
          "type": "constructor"
        },
        {
          "inputs": [],
          "name": "AccessControlBadConfirmation",
          "type": "error"
        },
        {
          "inputs": [
            {
              "internalType": "address",
              "name": "account",
              "type": "address"
            },
            {
              "internalType": "bytes32",
              "name": "neededRole",
              "type": "bytes32"
            }
          ],
          "name": "AccessControlUnauthorizedAccount",
          "type": "error"
        },
        {
          "anonymous": false,
          "inputs": [
            {
              "indexed": true,
              "internalType": "uint256",
              "name": "tokenId",
              "type": "uint256"
            },
            {
              "indexed": false,
              "internalType": "uint128",
              "name": "liquidity",
              "type": "uint128"
            },
            {
              "indexed": false,
              "internalType": "uint256",
              "name": "amount0",
              "type": "uint256"
            },
            {
              "indexed": false,
              "internalType": "uint256",
              "name": "amount1",
              "type": "uint256"
            }
          ],
          "name": "LiquidityProvided",
          "type": "event"
        },
        {
          "anonymous": false,
          "inputs": [
            {
              "indexed": true,
              "internalType": "address",
              "name": "user",
              "type": "address"
            },
            {
              "indexed": true,
              "internalType": "uint256",
              "name": "index",
              "type": "uint256"
            }
          ],
          "name": "NewMemeProposal",
          "type": "event"
        },
        {
          "anonymous": false,
          "inputs": [
            {
              "indexed": true,
              "internalType": "bytes32",
              "name": "role",
              "type": "bytes32"
            },
            {
              "indexed": true,
              "internalType": "bytes32",
              "name": "previousAdminRole",
              "type": "bytes32"
            },
            {
              "indexed": true,
              "internalType": "bytes32",
              "name": "newAdminRole",
              "type": "bytes32"
            }
          ],
          "name": "RoleAdminChanged",
          "type": "event"
        },
        {
          "anonymous": false,
          "inputs": [
            {
              "indexed": true,
              "internalType": "bytes32",
              "name": "role",
              "type": "bytes32"
            },
            {
              "indexed": true,
              "internalType": "address",
              "name": "account",
              "type": "address"
            },
            {
              "indexed": true,
              "internalType": "address",
              "name": "sender",
              "type": "address"
            }
          ],
          "name": "RoleGranted",
          "type": "event"
        },
        {
          "anonymous": false,
          "inputs": [
            {
              "indexed": true,
              "internalType": "bytes32",
              "name": "role",
              "type": "bytes32"
            },
            {
              "indexed": true,
              "internalType": "address",
              "name": "account",
              "type": "address"
            },
            {
              "indexed": true,
              "internalType": "address",
              "name": "sender",
              "type": "address"
            }
          ],
          "name": "RoleRevoked",
          "type": "event"
        },
        {
          "anonymous": false,
          "inputs": [
            {
              "indexed": true,
              "internalType": "uint256",
              "name": "id",
              "type": "uint256"
            }
          ],
          "name": "SetFailed",
          "type": "event"
        },
        {
          "anonymous": false,
          "inputs": [
            {
              "indexed": true,
              "internalType": "address",
              "name": "tokenAddress",
              "type": "address"
            },
            {
              "indexed": true,
              "internalType": "address",
              "name": "owner",
              "type": "address"
            },
            {
              "indexed": false,
              "internalType": "uint256",
              "name": "initialSupply",
              "type": "uint256"
            }
          ],
          "name": "TokenCreated",
          "type": "event"
        },
        {
          "anonymous": false,
          "inputs": [
            {
              "indexed": true,
              "internalType": "address",
              "name": "voter",
              "type": "address"
            },
            {
              "indexed": false,
              "internalType": "string",
              "name": "result",
              "type": "string"
            },
            {
              "indexed": true,
              "internalType": "uint256",
              "name": "id",
              "type": "uint256"
            }
          ],
          "name": "Vote",
          "type": "event"
        },
        {
          "inputs": [],
          "name": "DEFAULT_ADMIN_ROLE",
          "outputs": [
            {
              "internalType": "bytes32",
              "name": "",
              "type": "bytes32"
            }
          ],
          "stateMutability": "view",
          "type": "function"
        },
        {
          "inputs": [],
          "name": "EXECUTOR_ROLE",
          "outputs": [
            {
              "internalType": "bytes32",
              "name": "",
              "type": "bytes32"
            }
          ],
          "stateMutability": "view",
          "type": "function"
        },
        {
          "inputs": [
            {
              "internalType": "uint256[]",
              "name": "ids",
              "type": "uint256[]"
            }
          ],
          "name": "cleanMeme",
          "outputs": [],
          "stateMutability": "nonpayable",
          "type": "function"
        },
        {
          "inputs": [],
          "name": "communityDropAddress",
          "outputs": [
            {
              "internalType": "address",
              "name": "",
              "type": "address"
            }
          ],
          "stateMutability": "view",
          "type": "function"
        },
        {
          "inputs": [],
          "name": "communityTreasuryAddress",
          "outputs": [
            {
              "internalType": "address",
              "name": "",
              "type": "address"
            }
          ],
          "stateMutability": "view",
          "type": "function"
        },
        {
          "inputs": [
            {
              "internalType": "string",
              "name": "_name",
              "type": "string"
            },
            {
              "internalType": "string",
              "name": "_symbol",
              "type": "string"
            },
            {
              "internalType": "uint256",
              "name": "_supply",
              "type": "uint256"
            },
            {
              "internalType": "string",
              "name": "_memeStory",
              "type": "string"
            },
            {
              "internalType": "string",
              "name": "_logo",
              "type": "string"
            },
            {
              "components": [
                {
                  "internalType": "string",
                  "name": "X",
                  "type": "string"
                },
                {
                  "internalType": "string",
                  "name": "website",
                  "type": "string"
                }
              ],
              "internalType": "struct MemeBuilder.SocialChannel",
              "name": "_socialChannel",
              "type": "tuple"
            },
            {
              "components": [
                {
                  "internalType": "address",
                  "name": "token",
                  "type": "address"
                },
                {
                  "internalType": "uint256",
                  "name": "amount",
                  "type": "uint256"
                },
                {
                  "internalType": "uint256",
                  "name": "platformFeeRate",
                  "type": "uint256"
                },
                {
                  "internalType": "uint256",
                  "name": "communityDropRate",
                  "type": "uint256"
                },
                {
                  "internalType": "uint256",
                  "name": "liquidityRate",
                  "type": "uint256"
                },
                {
                  "internalType": "uint256",
                  "name": "investorRate",
                  "type": "uint256"
                },
                {
                  "internalType": "uint256",
                  "name": "ownerRate",
                  "type": "uint256"
                },
                {
                  "internalType": "uint256",
                  "name": "communityTreasuryRate",
                  "type": "uint256"
                }
              ],
              "internalType": "struct MemeBuilder.MemeRequirement",
              "name": "_memeRequirement",
              "type": "tuple"
            }
          ],
          "name": "createMemeProposal",
          "outputs": [],
          "stateMutability": "nonpayable",
          "type": "function"
        },
        {
          "inputs": [],
          "name": "factoryAddress",
          "outputs": [
            {
              "internalType": "address",
              "name": "",
              "type": "address"
            }
          ],
          "stateMutability": "view",
          "type": "function"
        },
        {
          "inputs": [
            {
              "internalType": "string",
              "name": "status",
              "type": "string"
            }
          ],
          "name": "getMemeProposalsByStatus",
          "outputs": [
            {
              "components": [
                {
                  "internalType": "uint256",
                  "name": "id",
                  "type": "uint256"
                },
                {
                  "internalType": "address",
                  "name": "owner",
                  "type": "address"
                },
                {
                  "internalType": "string",
                  "name": "name",
                  "type": "string"
                },
                {
                  "internalType": "string",
                  "name": "symbol",
                  "type": "string"
                },
                {
                  "internalType": "uint256",
                  "name": "supply",
                  "type": "uint256"
                },
                {
                  "internalType": "string",
                  "name": "memeStory",
                  "type": "string"
                },
                {
                  "internalType": "string",
                  "name": "logo",
                  "type": "string"
                },
                {
                  "internalType": "string",
                  "name": "status",
                  "type": "string"
                },
                {
                  "components": [
                    {
                      "internalType": "string",
                      "name": "X",
                      "type": "string"
                    },
                    {
                      "internalType": "string",
                      "name": "website",
                      "type": "string"
                    }
                  ],
                  "internalType": "struct MemeBuilder.SocialChannel",
                  "name": "socialChannel",
                  "type": "tuple"
                },
                {
                  "components": [
                    {
                      "internalType": "address",
                      "name": "token",
                      "type": "address"
                    },
                    {
                      "internalType": "uint256",
                      "name": "amount",
                      "type": "uint256"
                    },
                    {
                      "internalType": "uint256",
                      "name": "platformFeeRate",
                      "type": "uint256"
                    },
                    {
                      "internalType": "uint256",
                      "name": "communityDropRate",
                      "type": "uint256"
                    },
                    {
                      "internalType": "uint256",
                      "name": "liquidityRate",
                      "type": "uint256"
                    },
                    {
                      "internalType": "uint256",
                      "name": "investorRate",
                      "type": "uint256"
                    },
                    {
                      "internalType": "uint256",
                      "name": "ownerRate",
                      "type": "uint256"
                    },
                    {
                      "internalType": "uint256",
                      "name": "communityTreasuryRate",
                      "type": "uint256"
                    }
                  ],
                  "internalType": "struct MemeBuilder.MemeRequirement",
                  "name": "memeRequirement",
                  "type": "tuple"
                },
                {
                  "internalType": "uint256",
                  "name": "startVotingAt",
                  "type": "uint256"
                },
                {
                  "internalType": "uint256",
                  "name": "startInvestmentAt",
                  "type": "uint256"
                },
                {
                  "internalType": "uint256",
                  "name": "startVestingAt",
                  "type": "uint256"
                },
                {
                  "internalType": "uint256",
                  "name": "voteYes",
                  "type": "uint256"
                },
                {
                  "internalType": "uint256",
                  "name": "voteNo",
                  "type": "uint256"
                },
                {
                  "internalType": "uint256",
                  "name": "risedAmount",
                  "type": "uint256"
                }
              ],
              "internalType": "struct MemeBuilder.MemeProposal[]",
              "name": "",
              "type": "tuple[]"
            }
          ],
          "stateMutability": "view",
          "type": "function"
        },
        {
          "inputs": [
            {
              "internalType": "bytes32",
              "name": "role",
              "type": "bytes32"
            }
          ],
          "name": "getRoleAdmin",
          "outputs": [
            {
              "internalType": "bytes32",
              "name": "",
              "type": "bytes32"
            }
          ],
          "stateMutability": "view",
          "type": "function"
        },
        {
          "inputs": [
            {
              "internalType": "bytes32",
              "name": "role",
              "type": "bytes32"
            },
            {
              "internalType": "address",
              "name": "account",
              "type": "address"
            }
          ],
          "name": "grantRole",
          "outputs": [],
          "stateMutability": "nonpayable",
          "type": "function"
        },
        {
          "inputs": [
            {
              "internalType": "bytes32",
              "name": "role",
              "type": "bytes32"
            },
            {
              "internalType": "address",
              "name": "account",
              "type": "address"
            }
          ],
          "name": "hasRole",
          "outputs": [
            {
              "internalType": "bool",
              "name": "",
              "type": "bool"
            }
          ],
          "stateMutability": "view",
          "type": "function"
        },
        {
          "inputs": [
            {
              "internalType": "uint256",
              "name": "id",
              "type": "uint256"
            },
            {
              "internalType": "address",
              "name": "token",
              "type": "address"
            },
            {
              "internalType": "uint256",
              "name": "amount",
              "type": "uint256"
            }
          ],
          "name": "invest",
          "outputs": [],
          "stateMutability": "nonpayable",
          "type": "function"
        },
        {
          "inputs": [],
          "name": "investorAddress",
          "outputs": [
            {
              "internalType": "address",
              "name": "",
              "type": "address"
            }
          ],
          "stateMutability": "view",
          "type": "function"
        },
        {
          "inputs": [],
          "name": "lpVaultAddress",
          "outputs": [
            {
              "internalType": "address",
              "name": "",
              "type": "address"
            }
          ],
          "stateMutability": "view",
          "type": "function"
        },
        {
          "inputs": [
            {
              "internalType": "uint256[]",
              "name": "ids",
              "type": "uint256[]"
            }
          ],
          "name": "mintMeme",
          "outputs": [],
          "stateMutability": "nonpayable",
          "type": "function"
        },
        {
          "inputs": [],
          "name": "ownerAddress",
          "outputs": [
            {
              "internalType": "address",
              "name": "",
              "type": "address"
            }
          ],
          "stateMutability": "view",
          "type": "function"
        },
        {
          "inputs": [],
          "name": "platformFeeAddress",
          "outputs": [
            {
              "internalType": "address",
              "name": "",
              "type": "address"
            }
          ],
          "stateMutability": "view",
          "type": "function"
        },
        {
          "inputs": [],
          "name": "positionManagerAddress",
          "outputs": [
            {
              "internalType": "address",
              "name": "",
              "type": "address"
            }
          ],
          "stateMutability": "view",
          "type": "function"
        },
        {
          "inputs": [
            {
              "internalType": "address",
              "name": "tokenA",
              "type": "address"
            },
            {
              "internalType": "address",
              "name": "tokenB",
              "type": "address"
            },
            {
              "internalType": "uint24",
              "name": "fee",
              "type": "uint24"
            },
            {
              "internalType": "uint256",
              "name": "amountADesired",
              "type": "uint256"
            },
            {
              "internalType": "uint256",
              "name": "amountBDesired",
              "type": "uint256"
            }
          ],
          "name": "provideLP",
          "outputs": [],
          "stateMutability": "nonpayable",
          "type": "function"
        },
        {
          "inputs": [
            {
              "internalType": "bytes32",
              "name": "role",
              "type": "bytes32"
            },
            {
              "internalType": "address",
              "name": "callerConfirmation",
              "type": "address"
            }
          ],
          "name": "renounceRole",
          "outputs": [],
          "stateMutability": "nonpayable",
          "type": "function"
        },
        {
          "inputs": [
            {
              "internalType": "bytes32",
              "name": "role",
              "type": "bytes32"
            },
            {
              "internalType": "address",
              "name": "account",
              "type": "address"
            }
          ],
          "name": "revokeRole",
          "outputs": [],
          "stateMutability": "nonpayable",
          "type": "function"
        },
        {
          "inputs": [
            {
              "internalType": "uint256",
              "name": "period",
              "type": "uint256"
            }
          ],
          "name": "setInvestPeriod",
          "outputs": [],
          "stateMutability": "nonpayable",
          "type": "function"
        },
        {
          "inputs": [
            {
              "internalType": "uint256",
              "name": "voter",
              "type": "uint256"
            }
          ],
          "name": "setMinimumVoter",
          "outputs": [],
          "stateMutability": "nonpayable",
          "type": "function"
        },
        {
          "inputs": [
            {
              "internalType": "uint256",
              "name": "period",
              "type": "uint256"
            }
          ],
          "name": "setVotePeriod",
          "outputs": [],
          "stateMutability": "nonpayable",
          "type": "function"
        },
        {
          "inputs": [
            {
              "internalType": "bytes4",
              "name": "interfaceId",
              "type": "bytes4"
            }
          ],
          "name": "supportsInterface",
          "outputs": [
            {
              "internalType": "bool",
              "name": "",
              "type": "bool"
            }
          ],
          "stateMutability": "view",
          "type": "function"
        },
        {
          "inputs": [
            {
              "internalType": "uint256",
              "name": "id",
              "type": "uint256"
            },
            {
              "internalType": "enum MemeBuilder.VoteResult",
              "name": "result",
              "type": "uint8"
            }
          ],
          "name": "vote",
          "outputs": [],
          "stateMutability": "nonpayable",
          "type": "function"
        },
        {
          "inputs": [
            {
              "internalType": "uint256",
              "name": "id",
              "type": "uint256"
            }
          ],
          "name": "voteResult",
          "outputs": [
            {
              "internalType": "bool",
              "name": "",
              "type": "bool"
            }
          ],
          "stateMutability": "view",
          "type": "function"
        }
      ],
      "evm": {
        "bytecode": {
          "linkReferences": {},
          "object": "6080604052346100cd57600780546001600160a01b031990811673427bf5b37357632377ecbec9de3626c71a5396c11790915560088054909116730bfbcf9fa4f9c56b0f40a671ad40e0805a0918651790556078600b819055600c556001600d55610069336100d2565b506100733361014e565b5060018054336001600160a01b03199182168117909255600280548216831790556003805482168317905560048054821683179055600580548216831790556006805490911690911790556040516131cd90816101e78239f35b600080fd5b6001600160a01b03811660009081526000805160206133f4833981519152602052604090205460ff16610148576001600160a01b031660008181526000805160206133f483398151915260205260408120805460ff191660011790553391906000805160206133b48339815191528180a4600190565b50600090565b6001600160a01b03811660009081526000805160206133d4833981519152602052604090205460ff16610148576001600160a01b031660008181526000805160206133d483398151915260205260408120805460ff191660011790553391907fd8aa0f3194971a2a116679f7c2090f6939c8d4e01a2a8d7e41d55e5351469e63906000805160206133b48339815191529080a460019056fe608080604052600436101561001357600080fd5b60003560e01c90816301ffc9a714611e7f5750806307bd026514611e4457806312e228fd14611e1b578063248a9ca314611de65780632f2ff15d14611da657806336568abe14611d605780634c8d7e5814611d3f57806350187f96146118875780635b9e98b81461185e57806363a3dafe1461167257806367b11630146116515780637a8a11131461162857806380d506b714610d2957806381c6588414610d0157806382f85c3f14610cd85780638f84aa0914610caf57806391d1485414610c62578063943e821614610a84578063966dae0e14610a5b578063a217fddf14610a3f578063b15c401314610a1e578063d547741f146109d9578063e0b3baef146108e2578063e8ca9212146108b9578063ed14834f14610890578063f24a5576146103235763fecba3a51461014857600080fd5b3461031e57606036600319011261031e57600435610164611ed2565b90604435906013610174826120d7565b50015442101580610308575b156102c35761018e81612274565b156102855761019c816120d7565b50600a01546001600160a01b03938416931683900361024e5760009260209260176101c9610208946120d7565b50016101d68282546120a0565b90556040516323b872dd60e01b8152336004820152306024820152604481019190915293849283919082906064820190565b03925af180156102425761021857005b6102399060203d60201161023b575b6102318183611f3b565b810190612088565b005b503d610227565b6040513d6000823e3d90fd5b60405162461bcd60e51b815260206004820152600f60248201526e496e76616c6964206164647265737360881b6044820152606490fd5b60405162461bcd60e51b8152602060048201526016602482015275159bdd19481c995cdd5b1d081b9bdd081c185cdcd95960521b6044820152606490fd5b60405162461bcd60e51b815260206004820152601b60248201527f496e766573746d656e7420706572696f642068617320656e64656400000000006044820152606490fd5b506014610314826120d7565b5001544210610180565b600080fd5b3461031e57602036600319011261031e576004356001600160401b03811161031e57610353903690600401611ff1565b600a546000916020810190835b838110610855575061037184611f5c565b9361037f6040519586611f3b565b80855261038e601f1991611f5c565b0160005b81811061077557505060009160005b84811061057257856040518091602082016020835281518091526040830190602060408260051b8601019301916000905b8282106103e157505050500390f35b919360019193955060208091603f1989820301855287519081518152848060a01b038383015116838201526102c06101e06104c261048e61047c61046a61044e61043c60408a01516102e060408b01526102e08a0190612047565b60608a015189820360608b0152612047565b6080890151608089015260a089015188820360a08a0152612047565b60c088015187820360c0890152612047565b60e087015186820360e0880152612047565b61010086015190858103610100870152876104b28351604084526040840190612047565b9201519088818403910152612047565b9360e0610120820151898060a01b03815116610120870152878101516101408701526040810151610160870152606081015161018087015260808101516101a087015260a08101516101c087015260c08101518487015201516102008501526101408101516102208501526101608101516102408501526101808101516102608501526101a08101516102808501526101c08101516102a0850152015191015296019201920185949391926103d2565b6007610598610580836120d7565b506105916040518094819301612130565b0382611f3b565b6020815191012083518320146105b1575b6001016103a1565b9261076d6001916105c1866120d7565b506017604051916105d183611f1f565b80548352858060a01b03868201541660208401526040516105f9816105918160028601612130565b6040840152604051610612816105918160038601612130565b606084015260048101546080840152604051610635816105918160058601612130565b60a084015260405161064e816105918160068601612130565b60c0840152604051610667816105918160078601612130565b60e084015260405161067881611ee8565b60405161068c816105918160088701612130565b81526040516106a2816105918160098701612130565b60208201526101008401526040516106b981611f03565b868060a01b03600a830154168152600b8201546020820152600c8201546040820152600d8201546060820152600e8201546080820152600f82015460a0820152601082015460c0820152601182015460e082015261012084015260128101546101408401526013810154610160840152601481015461018084015260158101546101a084015260168101546101c084015201546101e082015261075c828a6120ad565b5261076781896120ad565b506122ca565b9390506105a9565b60209060405161078481611f1f565b600081526000838201526060604082015260608082015260006080820152606060a0820152606060c0820152606060e08201526040516107c381611ee8565b606081526060848201526101008201526040516107df81611f03565b60008152600084820152600060408201526000606082015260006080820152600060a0820152600060c0820152600060e082015261012082015260006101408201526000610160820152600061018082015260006101a082015260006101c082015260006101e082015282828901015201610392565b6007610863610580836120d7565b60208151910120825184201461087c575b600101610360565b936108886001916122ca565b949050610874565b3461031e57600036600319011261031e576001546040516001600160a01b039091168152602090f35b3461031e57600036600319011261031e576006546040516001600160a01b039091168152602090f35b3461031e576108f036611f73565b6108f861232c565b60005b81518110156102395780600761091f610580610919600195876120ad565b516120d7565b6020815191012061092e61224c565b6020815191012014610941575b016108fb565b601361095061091983866120ad565b50015442111561093b5761096d61096782856120ad565b51612274565b61093b57600761098061091983866120ad565b500161099561098f82546120f6565b826121dd565b600c6511905253115160d21b0190556109ae81846120ad565b517f9968c7f52fd00a2108f0bb8fe431303663edc67cc15a995d07aad3d83d031d60600080a261093b565b3461031e57604036600319011261031e576102396004356109f8611ed2565b90610a19610a1482600052600060205260016040600020015490565b61239e565b612464565b3461031e57602036600319011261031e57610a376122d9565b600435600d55005b3461031e57600036600319011261031e57602060405160008152f35b3461031e57600036600319011261031e576008546040516001600160a01b039091168152602090f35b3461031e57604036600319011261031e57600435602435600281101561031e576012610aaf836120d7565b50015442101580610c4c575b15610c0757600082815260096020908152604080832033845290915290205460ff16610bcc571560008115610bae576015610af5846120d7565b5001610b0181546122ca565b90555b8281526009602090815260408083203384529091529020805460ff1916600117905560009015610b8b5750604051610b3d604082611f3b565b600381526259455360e81b60208201525b7ff872c9dd43e62509c7276e545b258673a25292dbeb9756e834227c8a838186556040516020815280610b8633946020830190612047565b0390a3005b50604051610b9a604082611f3b565b60028152614e4f60f01b6020820152610b4e565b6016610bb9846120d7565b5001610bc581546122ca565b9055610b04565b60405162461bcd60e51b8152602060048201526013602482015272566f74696e6720616c726561647920646f6e6560681b6044820152606490fd5b60405162461bcd60e51b815260206004820152601760248201527f566f74696e6720706572696f642068617320656e6465640000000000000000006044820152606490fd5b506013610c58836120d7565b5001544210610abb565b3461031e57604036600319011261031e57610c7b611ed2565b600435600052600060205260406000209060018060a01b0316600052602052602060ff604060002054166040519015158152f35b3461031e57600036600319011261031e576004546040516001600160a01b039091168152602090f35b3461031e57600036600319011261031e576005546040516001600160a01b039091168152602090f35b3461031e57602036600319011261031e576020610d1f600435612274565b6040519015158152f35b3461031e576101c036600319011261031e576004356001600160401b03811161031e57610d5a903690600401611ff1565b6024356001600160401b03811161031e57610d79903690600401611ff1565b6064356001600160401b03811161031e57610d98903690600401611ff1565b916084356001600160401b03811161031e57610db8903690600401611ff1565b60a435936001600160401b03851161031e576040600319863603011261031e5760405194610de586611ee8565b80600401356001600160401b03811161031e57610e089060043691840101611ff1565b86526024810135906001600160401b03821161031e576004610e2d9236920101611ff1565b60208601526101003660c319011261031e57604051610e4b81611f03565b60c4356001600160a01b038116810361031e57815260e43560208201526101043560408201526101243560608201526101443560808201526101643560a08201526101843560c08201526101a43560e0820152600a54600b549094610eb082426120a0565b91610ebb90426120a0565b600c54610ec7916120a0565b92604051978896610ed788611f1f565b8888526020880196338852604089019485526060890192835260808901604435815260a08a0191825260c08a01928352610f0f61224c565b9360e08b019485526101008b019d8e526101208b019586526101408b01964288526101608c019889526101808c01998a526101a08c019a60008c526101c08d019c60008e526101e0019d60008f526801000000000000000081101561135c57806001610f7e9201600a556120d7565b9f909f61161257518f555160018f0180546001600160a01b0319166001600160a01b039290921691909117905551805160028f01916001600160401b03821161135c578190610fd782610fd186546120f6565b86612207565b602090601f83116001146115ad576000926115a2575b50508160011b916000199060031b1c19161790555b51805160038e01916001600160401b03821161135c57819061102882610fd186546120f6565b602090601f831160011461153d57600092611532575b50508160011b916000199060031b1c19161790555b5160048c015551805160058c01916001600160401b03821161135c57819061107f82610fd186546120f6565b602090601f83116001146114cd576000926114c2575b50508160011b916000199060031b1c19161790555b51805160068b01916001600160401b03821161135c5781906110d082610fd186546120f6565b602090601f831160011461145d57600092611452575b50508160011b916000199060031b1c19161790555b51805160078a01916001600160401b03821161135c57819061112182610fd186546120f6565b602090601f83116001146113ed576000926113e2575b50508160011b916000199060031b1c19161790555b6008880198519889518051906001600160401b03821161135c57819061117682610fd186546120f6565b602090601f831160011461137d57600092611372575b50508160011b916000199060031b1c19161790555b6020600989019901519889516001600160401b03811161135c576111cf816111c984546120f6565b84612207565b6020601f82116001146112ef57908060e094939260179c9d6000926112e4575b50508160011b916000199060031b1c19161790555b5160018060a01b03815116600a8b019060018060a01b03166bffffffffffffffffffffffff60a01b8254161790556020810151600b8b01556040810151600c8b01556060810151600d8b01556080810151600e8b015560a0810151600f8b015560c081015160108b01550151601189015551601288015551601387015551601486015551601585015551601684015551910155600a5460001981019081116112ce57337fb0d4fb8322e1c826818f956c2bb5192f545c5df3ca526655ceb58d07ab3aa19e600080a3005b634e487b7160e01b600052601160045260246000fd5b015190508d806111ef565b601f1982169083600052806000209160005b818110611344575091839160179d9e60e09796956001951061132b575b505050811b019055611204565b015160001960f88460031b161c191690558d808061131e565b8e830151845560019093019260209283019201611301565b634e487b7160e01b600052604160045260246000fd5b015190508c8061118c565b60008581528281209350601f198516905b8181106113ca57509084600195949392106113b1575b505050811b0190556111a1565b015160001960f88460031b161c191690558c80806113a4565b9293602060018192878601518155019501930161138e565b015190508c80611137565b60008581528281209350601f198516905b81811061143a5750908460019594939210611421575b505050811b01905561114c565b015160001960f88460031b161c191690558c8080611414565b929360206001819287860151815501950193016113fe565b015190508d806110e6565b60008581528281209350601f198516905b8181106114aa5750908460019594939210611491575b505050811b0190556110fb565b015160001960f88460031b161c191690558d8080611484565b9293602060018192878601518155019501930161146e565b015190508e80611095565b60008581528281209350601f198516905b81811061151a5750908460019594939210611501575b505050811b0190556110aa565b015160001960f88460031b161c191690558e80806114f4565b929360206001819287860151815501950193016114de565b01519050388061103e565b60008581528281209350601f198516905b81811061158a5750908460019594939210611571575b505050811b019055611053565b015160001960f88460031b161c19169055388080611564565b9293602060018192878601518155019501930161154e565b015190503880610fed565b60008581528281209350601f198516905b8181106115fa57509084600195949392106115e1575b505050811b019055611002565b015160001960f88460031b161c191690553880806115d4565b929360206001819287860151815501950193016115be565b634e487b7160e01b600052600060045260246000fd5b3461031e57600036600319011261031e576007546040516001600160a01b039091168152602090f35b3461031e57602036600319011261031e5761166a6122d9565b600435600b55005b3461031e5761168036611f73565b61168861232c565b610cb1600c6513525395115160d21b016124e760005b84518110156102395760076116b961058061091984896120ad565b602081519101206040906006602083516116d38582611f3b565b828152016513525395115160d21b815220146118255760046116f861091984896120ad565b500154611716600c61170d610919868b6120ad565b500154826121b3565b50611729600d61170d610919868b6120ad565b5061173c600e61170d610919868b6120ad565b5061174f600f61170d610919868b6120ad565b50611762601061170d610919868b6120ad565b50611775601161170d610919868b6120ad565b5061178361091984896120ad565b5090611792610919858a6120ad565b5090835192888401908482106001600160401b0383111761135c5784936117d86003926117e7958d8c893930865260208601526080898601526002608086019101612130565b92606081850391015201612130565b03906000f01561181b5750808360076118056109196001958a6120ad565b500161181461098f82546120f6565b550161169e565b513d6000823e3d90fd5b5162461bcd60e51b815260206004820152601360248201527213595b5948185b1c9958591e481b5a5b9d1959606a1b6044820152606490fd5b3461031e57600036600319011261031e576002546040516001600160a01b039091168152602090f35b3461031e5760a036600319011261031e576004356001600160a01b0381169081900361031e576118b5611ed2565b6044359162ffffff831680930361031e576064356084356000602060018060a01b03600854169560646040518094819363a167129560e01b835289600484015260018060a01b0316998a60248401528b60448401525af1801561024257611d00575b506040516323b872dd60e01b8152336004820152306024820152604481018390526020816064816000885af190811561024257600091611ce1575b5015611c9c576040516323b872dd60e01b8152336004820152306024820152604481018290526020816064816000895af190811561024257600091611c7d575b5015611c385760075460405163095ea7b360e01b81526001600160a01b039091166004820152602481018390526020816044816000885af1801561024257611c1b575b5060075460405163095ea7b360e01b81526001600160a01b039091166004820152602481018290526020816044816000895af1801561024257611bfe575b50610e104201908142116112ce576040519361016085018581106001600160401b0382111761135c57604090815290855260208501958652848101968752620d89b31960608601908152620d89b46080870190815260a0870195865260c08701938452600060e088018181526101008901918252336101208a019081526101408a019788526007549551634418b22b60e11b815299516001600160a01b0390811660048c01529a518b1660248b01529a5162ffffff1660448a01529251600290810b60648a0152915190910b6084880152945160a4870152915160c4860152905160e485015291516101048401529351831661012483015292516101448201529182918291165a92600061016492608095f190811561024257600091829183908492611b7d575b50916060917ff932bec3f0086aed14ace0a396941a083546fd1a3497ed66cc5b9856c890db0a936001600160801b036040519316835260208301526040820152a2005b925050506080813d608011611bf6575b81611b9a60809383611f3b565b81010312611bf25780516020820151926001600160801b0384168403611bef575060408201516060909201519092917ff932bec3f0086aed14ace0a396941a083546fd1a3497ed66cc5b9856c890db0a611b3a565b80fd5b5080fd5b3d9150611b8d565b611c169060203d60201161023b576102318183611f3b565b611a13565b611c339060203d60201161023b576102318183611f3b565b6119d5565b60405162461bcd60e51b815260206004820152601960248201527f5472616e73666572206f6620746f6b656e42206661696c6564000000000000006044820152606490fd5b611c96915060203d60201161023b576102318183611f3b565b86611992565b60405162461bcd60e51b815260206004820152601960248201527f5472616e73666572206f6620746f6b656e41206661696c6564000000000000006044820152606490fd5b611cfa915060203d60201161023b576102318183611f3b565b86611952565b6020813d602011611d37575b81611d1960209383611f3b565b8101031261031e57516001600160a01b038116811461191757600080fd5b3d9150611d0c565b3461031e57602036600319011261031e57611d586122d9565b600435600c55005b3461031e57604036600319011261031e57611d79611ed2565b336001600160a01b03821603611d955761023990600435612464565b63334bd91960e11b60005260046000fd5b3461031e57604036600319011261031e57610239600435611dc5611ed2565b90611de1610a1482600052600060205260016040600020015490565b6123d9565b3461031e57602036600319011261031e576020611e13600435600052600060205260016040600020015490565b604051908152f35b3461031e57600036600319011261031e576003546040516001600160a01b039091168152602090f35b3461031e57600036600319011261031e5760206040517fd8aa0f3194971a2a116679f7c2090f6939c8d4e01a2a8d7e41d55e5351469e638152f35b3461031e57602036600319011261031e576004359063ffffffff60e01b821680920361031e57602091637965db0b60e01b8114908115611ec1575b5015158152f35b6301ffc9a760e01b14905083611eba565b602435906001600160a01b038216820361031e57565b604081019081106001600160401b0382111761135c57604052565b61010081019081106001600160401b0382111761135c57604052565b61020081019081106001600160401b0382111761135c57604052565b90601f801991011681019081106001600160401b0382111761135c57604052565b6001600160401b03811161135c5760051b60200190565b602060031982011261031e57600435906001600160401b03821161031e578060238301121561031e578160040135611faa81611f5c565b92611fb86040519485611f3b565b8184526024602085019260051b82010192831161031e57602401905b828210611fe15750505090565b8135815260209182019101611fd4565b81601f8201121561031e578035906001600160401b03821161135c5760405192612025601f8401601f191660200185611f3b565b8284526020838301011161031e57816000926020809301838601378301015290565b919082519283825260005b848110612073575050826000602080949584010152601f8019910116010190565b80602080928401015182828601015201612052565b9081602091031261031e5751801515810361031e5790565b919082018092116112ce57565b80518210156120c15760209160051b010190565b634e487b7160e01b600052603260045260246000fd5b600a548110156120c157600a6000526018602060002091020190600090565b90600182811c92168015612126575b602083101461211057565b634e487b7160e01b600052602260045260246000fd5b91607f1691612105565b60009291815491612140836120f6565b8083529260018116908115612196575060011461215c57505050565b60009081526020812093945091925b83831061217c575060209250010190565b60018160209294939454838587010152019101919061216b565b915050602093945060ff929192191683830152151560051b010190565b818102929181159184041417156112ce57565b8181106121d1575050565b600081556001016121c6565b90601f81116121ea575050565b61220591600052601f6020600020910160051c8101906121c6565b565b9190601f811161221657505050565b612205926000526020600020906020601f840160051c83019310612242575b601f0160051c01906121c6565b9091508190612235565b6040519061225b604083611f3b565b600a825269494e2d50524f4345535360b01b6020830152565b6122996015612282836120d7565b5001546016612290846120d7565b500154906120a0565b600d5411159060166122b860156122af846120d7565b500154926120d7565b50015410816122c5575090565b905090565b60001981146112ce5760010190565b3360009081527fad3228b676f7d3cd4284a5443f17f1962b36e491b30a40b2405849e597ba5fb5602052604090205460ff161561231257565b63e2517d3f60e01b60005233600452600060245260446000fd5b3360009081527fdae2aa361dfd1ca020a396615627d436107c35eff9fe7738a3512819782d7069602052604090205460ff161561236557565b63e2517d3f60e01b600052336004527fd8aa0f3194971a2a116679f7c2090f6939c8d4e01a2a8d7e41d55e5351469e6360245260446000fd5b60008181526020818152604080832033845290915290205460ff16156123c15750565b63e2517d3f60e01b6000523360045260245260446000fd5b6000818152602081815260408083206001600160a01b038616845290915290205460ff1661245d576000818152602081815260408083206001600160a01b0395909516808452949091528120805460ff19166001179055339291907f2f8788117e7eff1d82e926ec794901d17c78024a50270940304540a733656f0d9080a4600190565b5050600090565b6000818152602081815260408083206001600160a01b038616845290915290205460ff161561245d576000818152602081815260408083206001600160a01b0395909516808452949091528120805460ff19169055339291907ff6391f5c32d9c69d2a47ea670b442974b53935d1edc7fd64eb21e047a839171b9080a460019056fe60806040523461042457610cb18038038061001981610429565b9283398101906080818303126104245780516001600160a01b038116919082810361042457602082015160408301519092906001600160401b038111610424578561006591830161044e565b60608201519095906001600160401b03811161042457610085920161044e565b845190946001600160401b0382116103215760035490600182811c9216801561041a575b60208310146103015781601f8493116103aa575b50602090601f831160011461034257600092610337575b50508160011b916000199060031b1c1916176003555b83516001600160401b03811161032157600454600181811c91168015610317575b602082101461030157601f811161029c575b50602094601f82116001146102355794819293949560009261022a575b50508160011b916000199060031b1c1916176004555b82156102145780610163610168926104b9565b6104b9565b670de0b6b3a7640000810290808204670de0b6b3a764000014901517156101fe5760006002548281018091116101ea576000927fddf252ad1be2c89b69c2b068fc378daa952ba7f163c4a11628f55a4df523b3ef926020926002555084845283825260408420818154019055604051908152a36040516107ae90816105038239f35b634e487b7160e01b82526011600452602482fd5b634e487b7160e01b600052601160045260246000fd5b631e4fbdf760e01b600052600060045260246000fd5b01519050388061013a565b601f198216956004600052806000209160005b8881106102845750836001959697981061026b575b505050811b01600455610150565b015160001960f88460031b161c1916905538808061025d565b91926020600181928685015181550194019201610248565b60046000527f8a35acfbc15ff81a39ae7d344fd709f28e8600b4aa8c65c6b64bfe7fe36bd19b601f830160051c810191602084106102f7575b601f0160051c01905b8181106102eb575061011d565b600081556001016102de565b90915081906102d5565b634e487b7160e01b600052602260045260246000fd5b90607f169061010b565b634e487b7160e01b600052604160045260246000fd5b0151905038806100d4565b600360009081528281209350601f198516905b8181106103925750908460019594939210610379575b505050811b016003556100ea565b015160001960f88460031b161c1916905538808061036b565b92936020600181928786015181550195019301610355565b60036000529091507fc2575a0e9e593c00f959f8c92f12db2869c3395a3b0502d05e2516446f71f85b601f840160051c81019160208510610410575b90601f859493920160051c01905b81811061040157506100bd565b600081558493506001016103f4565b90915081906103e6565b91607f16916100a9565b600080fd5b6040519190601f01601f191682016001600160401b0381118382101761032157604052565b81601f82011215610424578051906001600160401b0382116103215761047d601f8301601f1916602001610429565b92828452602083830101116104245760005b8281106104a457505060206000918301015290565b8060208092840101518282870101520161048f565b600580546001600160a01b039283166001600160a01b0319821681179092559091167f8be0079c531659141344cd1fd0a4f28419497f9722a3daafe3b4186f6b6457e0600080a356fe608080604052600436101561001357600080fd5b60003560e01c90816306fdde031461054257508063095ea7b3146104bc57806318160ddd1461049e57806323b872dd146103b1578063313ce5671461039557806370a082311461035b578063715018a6146102fe5780638da5cb5b146102d557806395d89b41146101b4578063a9059cbb14610183578063dd62ed3e146101325763f2fde38b146100a357600080fd5b3461012d57602036600319011261012d576100bc61065e565b6100c461074f565b6001600160a01b0316801561011757600580546001600160a01b0319811683179091556001600160a01b03167f8be0079c531659141344cd1fd0a4f28419497f9722a3daafe3b4186f6b6457e0600080a3005b631e4fbdf760e01b600052600060045260246000fd5b600080fd5b3461012d57604036600319011261012d5761014b61065e565b610153610674565b6001600160a01b039182166000908152600160209081526040808320949093168252928352819020549051908152f35b3461012d57604036600319011261012d576101a961019f61065e565b602435903361068a565b602060405160018152f35b3461012d57600036600319011261012d5760405160006004548060011c906001811680156102cb575b6020831081146102b75782855290811561029b5750600114610244575b50819003601f01601f191681019067ffffffffffffffff82118183101761022e5761022a82918260405282610615565b0390f35b634e487b7160e01b600052604160045260246000fd5b905060046000527f8a35acfbc15ff81a39ae7d344fd709f28e8600b4aa8c65c6b64bfe7fe36bd19b6000905b828210610285575060209150820101826101fa565b6001816020925483858801015201910190610270565b90506020925060ff191682840152151560051b820101826101fa565b634e487b7160e01b84526022600452602484fd5b91607f16916101dd565b3461012d57600036600319011261012d576005546040516001600160a01b039091168152602090f35b3461012d57600036600319011261012d5761031761074f565b600580546001600160a01b031981169091556000906001600160a01b03167f8be0079c531659141344cd1fd0a4f28419497f9722a3daafe3b4186f6b6457e08280a3005b3461012d57602036600319011261012d576001600160a01b0361037c61065e565b1660005260006020526020604060002054604051908152f35b3461012d57600036600319011261012d57602060405160128152f35b3461012d57606036600319011261012d576103ca61065e565b6103d2610674565b6001600160a01b0382166000818152600160208181526040808420338552909152909120549193604435939290918101610412575b506101a9935061068a565b83811061048157841561046b573315610455576101a9946000526001602052604060002060018060a01b0333166000526020528360406000209103905584610407565b634a1406b160e11b600052600060045260246000fd5b63e602df0560e01b600052600060045260246000fd5b8390637dc7a0d960e11b6000523360045260245260445260646000fd5b3461012d57600036600319011261012d576020600254604051908152f35b3461012d57604036600319011261012d576104d561065e565b60243590331561046b576001600160a01b031690811561045557336000526001602052604060002082600052602052806040600020556040519081527f8c5be1e5ebec7d5bd14f71427d1e84f3dd0314c0f7b2291e5b200ac8c7c3b92560203392a3602060405160018152f35b3461012d57600036600319011261012d5760006003548060011c9060018116801561060b575b6020831081146102b75782855290811561029b57506001146105b45750819003601f01601f191681019067ffffffffffffffff82118183101761022e5761022a82918260405282610615565b905060036000527fc2575a0e9e593c00f959f8c92f12db2869c3395a3b0502d05e2516446f71f85b6000905b8282106105f5575060209150820101826101fa565b60018160209254838588010152019101906105e0565b91607f1691610568565b91909160208152825180602083015260005b818110610648575060409293506000838284010152601f8019910116010190565b8060208092870101516040828601015201610627565b600435906001600160a01b038216820361012d57565b602435906001600160a01b038216820361012d57565b6001600160a01b0316908115610739576001600160a01b03169182156107235760008281528060205260408120548281106107095791604082827fddf252ad1be2c89b69c2b068fc378daa952ba7f163c4a11628f55a4df523b3ef958760209652828652038282205586815280845220818154019055604051908152a3565b916064928463391434e360e21b8452600452602452604452fd5b63ec442f0560e01b600052600060045260246000fd5b634b637e8f60e11b600052600060045260246000fd5b6005546001600160a01b0316330361076357565b63118cdaa760e01b6000523360045260246000fdfea2646970667358221220f4e3154817bc6315e7cbdab2691b908aade2dce29ebc780e0606b7766a8abbc364736f6c634300081b0033a264697066735822122093b9377fe5cd2720a715e4e56e817f0a530f080467fef9967f54ed84e53f122464736f6c634300081b00332f8788117e7eff1d82e926ec794901d17c78024a50270940304540a733656f0ddae2aa361dfd1ca020a396615627d436107c35eff9fe7738a3512819782d7069ad3228b676f7d3cd4284a5443f17f1962b36e491b30a40b2405849e597ba5fb5",
          "opcodes": "PUSH1 0x80 PUSH1 0x40 MSTORE CALLVALUE PUSH2 0xCD JUMPI PUSH1 0x7 DUP1 SLOAD PUSH1 0x1 PUSH1 0x1 PUSH1 0xA0 SHL SUB NOT SWAP1 DUP2 AND PUSH20 0x427BF5B37357632377ECBEC9DE3626C71A5396C1 OR SWAP1 SWAP2 SSTORE PUSH1 0x8 DUP1 SLOAD SWAP1 SWAP2 AND PUSH20 0xBFBCF9FA4F9C56B0F40A671AD40E0805A091865 OR SWAP1 SSTORE PUSH1 0x78 PUSH1 0xB DUP2 SWAP1 SSTORE PUSH1 0xC SSTORE PUSH1 0x1 PUSH1 0xD SSTORE PUSH2 0x69 CALLER PUSH2 0xD2 JUMP JUMPDEST POP PUSH2 0x73 CALLER PUSH2 0x14E JUMP JUMPDEST POP PUSH1 0x1 DUP1 SLOAD CALLER PUSH1 0x1 PUSH1 0x1 PUSH1 0xA0 SHL SUB NOT SWAP2 DUP3 AND DUP2 OR SWAP1 SWAP3 SSTORE PUSH1 0x2 DUP1 SLOAD DUP3 AND DUP4 OR SWAP1 SSTORE PUSH1 0x3 DUP1 SLOAD DUP3 AND DUP4 OR SWAP1 SSTORE PUSH1 0x4 DUP1 SLOAD DUP3 AND DUP4 OR SWAP1 SSTORE PUSH1 0x5 DUP1 SLOAD DUP3 AND DUP4 OR SWAP1 SSTORE PUSH1 0x6 DUP1 SLOAD SWAP1 SWAP2 AND SWAP1 SWAP2 OR SWAP1 SSTORE PUSH1 0x40 MLOAD PUSH2 0x31CD SWAP1 DUP2 PUSH2 0x1E7 DUP3 CODECOPY RETURN JUMPDEST PUSH1 0x0 DUP1 REVERT JUMPDEST PUSH1 0x1 PUSH1 0x1 PUSH1 0xA0 SHL SUB DUP2 AND PUSH1 0x0 SWAP1 DUP2 MSTORE PUSH1 0x0 DUP1 MLOAD PUSH1 0x20 PUSH2 0x33F4 DUP4 CODECOPY DUP2 MLOAD SWAP2 MSTORE PUSH1 0x20 MSTORE PUSH1 0x40 SWAP1 KECCAK256 SLOAD PUSH1 0xFF AND PUSH2 0x148 JUMPI PUSH1 0x1 PUSH1 0x1 PUSH1 0xA0 SHL SUB AND PUSH1 0x0 DUP2 DUP2 MSTORE PUSH1 0x0 DUP1 MLOAD PUSH1 0x20 PUSH2 0x33F4 DUP4 CODECOPY DUP2 MLOAD SWAP2 MSTORE PUSH1 0x20 MSTORE PUSH1 0x40 DUP2 KECCAK256 DUP1 SLOAD PUSH1 0xFF NOT AND PUSH1 0x1 OR SWAP1 SSTORE CALLER SWAP2 SWAP1 PUSH1 0x0 DUP1 MLOAD PUSH1 0x20 PUSH2 0x33B4 DUP4 CODECOPY DUP2 MLOAD SWAP2 MSTORE DUP2 DUP1 LOG4 PUSH1 0x1 SWAP1 JUMP JUMPDEST POP PUSH1 0x0 SWAP1 JUMP JUMPDEST PUSH1 0x1 PUSH1 0x1 PUSH1 0xA0 SHL SUB DUP2 AND PUSH1 0x0 SWAP1 DUP2 MSTORE PUSH1 0x0 DUP1 MLOAD PUSH1 0x20 PUSH2 0x33D4 DUP4 CODECOPY DUP2 MLOAD SWAP2 MSTORE PUSH1 0x20 MSTORE PUSH1 0x40 SWAP1 KECCAK256 SLOAD PUSH1 0xFF AND PUSH2 0x148 JUMPI PUSH1 0x1 PUSH1 0x1 PUSH1 0xA0 SHL SUB AND PUSH1 0x0 DUP2 DUP2 MSTORE PUSH1 0x0 DUP1 MLOAD PUSH1 0x20 PUSH2 0x33D4 DUP4 CODECOPY DUP2 MLOAD SWAP2 MSTORE PUSH1 0x20 MSTORE PUSH1 0x40 DUP2 KECCAK256 DUP1 SLOAD PUSH1 0xFF NOT AND PUSH1 0x1 OR SWAP1 SSTORE CALLER SWAP2 SWAP1 PUSH32 0xD8AA0F3194971A2A116679F7C2090F6939C8D4E01A2A8D7E41D55E5351469E63 SWAP1 PUSH1 0x0 DUP1 MLOAD PUSH1 0x20 PUSH2 0x33B4 DUP4 CODECOPY DUP2 MLOAD SWAP2 MSTORE SWAP1 DUP1 LOG4 PUSH1 0x1 SWAP1 JUMP INVALID PUSH1 0x80 DUP1 PUSH1 0x40 MSTORE PUSH1 0x4 CALLDATASIZE LT ISZERO PUSH2 0x13 JUMPI PUSH1 0x0 DUP1 REVERT JUMPDEST PUSH1 0x0 CALLDATALOAD PUSH1 0xE0 SHR SWAP1 DUP2 PUSH4 0x1FFC9A7 EQ PUSH2 0x1E7F JUMPI POP DUP1 PUSH4 0x7BD0265 EQ PUSH2 0x1E44 JUMPI DUP1 PUSH4 0x12E228FD EQ PUSH2 0x1E1B JUMPI DUP1 PUSH4 0x248A9CA3 EQ PUSH2 0x1DE6 JUMPI DUP1 PUSH4 0x2F2FF15D EQ PUSH2 0x1DA6 JUMPI DUP1 PUSH4 0x36568ABE EQ PUSH2 0x1D60 JUMPI DUP1 PUSH4 0x4C8D7E58 EQ PUSH2 0x1D3F JUMPI DUP1 PUSH4 0x50187F96 EQ PUSH2 0x1887 JUMPI DUP1 PUSH4 0x5B9E98B8 EQ PUSH2 0x185E JUMPI DUP1 PUSH4 0x63A3DAFE EQ PUSH2 0x1672 JUMPI DUP1 PUSH4 0x67B11630 EQ PUSH2 0x1651 JUMPI DUP1 PUSH4 0x7A8A1113 EQ PUSH2 0x1628 JUMPI DUP1 PUSH4 0x80D506B7 EQ PUSH2 0xD29 JUMPI DUP1 PUSH4 0x81C65884 EQ PUSH2 0xD01 JUMPI DUP1 PUSH4 0x82F85C3F EQ PUSH2 0xCD8 JUMPI DUP1 PUSH4 0x8F84AA09 EQ PUSH2 0xCAF JUMPI DUP1 PUSH4 0x91D14854 EQ PUSH2 0xC62 JUMPI DUP1 PUSH4 0x943E8216 EQ PUSH2 0xA84 JUMPI DUP1 PUSH4 0x966DAE0E EQ PUSH2 0xA5B JUMPI DUP1 PUSH4 0xA217FDDF EQ PUSH2 0xA3F JUMPI DUP1 PUSH4 0xB15C4013 EQ PUSH2 0xA1E JUMPI DUP1 PUSH4 0xD547741F EQ PUSH2 0x9D9 JUMPI DUP1 PUSH4 0xE0B3BAEF EQ PUSH2 0x8E2 JUMPI DUP1 PUSH4 0xE8CA9212 EQ PUSH2 0x8B9 JUMPI DUP1 PUSH4 0xED14834F EQ PUSH2 0x890 JUMPI DUP1 PUSH4 0xF24A5576 EQ PUSH2 0x323 JUMPI PUSH4 0xFECBA3A5 EQ PUSH2 0x148 JUMPI PUSH1 0x0 DUP1 REVERT JUMPDEST CALLVALUE PUSH2 0x31E JUMPI PUSH1 0x60 CALLDATASIZE PUSH1 0x3 NOT ADD SLT PUSH2 0x31E JUMPI PUSH1 0x4 CALLDATALOAD PUSH2 0x164 PUSH2 0x1ED2 JUMP JUMPDEST SWAP1 PUSH1 0x44 CALLDATALOAD SWAP1 PUSH1 0x13 PUSH2 0x174 DUP3 PUSH2 0x20D7 JUMP JUMPDEST POP ADD SLOAD TIMESTAMP LT ISZERO DUP1 PUSH2 0x308 JUMPI JUMPDEST ISZERO PUSH2 0x2C3 JUMPI PUSH2 0x18E DUP2 PUSH2 0x2274 JUMP JUMPDEST ISZERO PUSH2 0x285 JUMPI PUSH2 0x19C DUP2 PUSH2 0x20D7 JUMP JUMPDEST POP PUSH1 0xA ADD SLOAD PUSH1 0x1 PUSH1 0x1 PUSH1 0xA0 SHL SUB SWAP4 DUP5 AND SWAP4 AND DUP4 SWAP1 SUB PUSH2 0x24E JUMPI PUSH1 0x0 SWAP3 PUSH1 0x20 SWAP3 PUSH1 0x17 PUSH2 0x1C9 PUSH2 0x208 SWAP5 PUSH2 0x20D7 JUMP JUMPDEST POP ADD PUSH2 0x1D6 DUP3 DUP3 SLOAD PUSH2 0x20A0 JUMP JUMPDEST SWAP1 SSTORE PUSH1 0x40 MLOAD PUSH4 0x23B872DD PUSH1 0xE0 SHL DUP2 MSTORE CALLER PUSH1 0x4 DUP3 ADD MSTORE ADDRESS PUSH1 0x24 DUP3 ADD MSTORE PUSH1 0x44 DUP2 ADD SWAP2 SWAP1 SWAP2 MSTORE SWAP4 DUP5 SWAP3 DUP4 SWAP2 SWAP1 DUP3 SWAP1 PUSH1 0x64 DUP3 ADD SWAP1 JUMP JUMPDEST SUB SWAP3 GAS CALL DUP1 ISZERO PUSH2 0x242 JUMPI PUSH2 0x218 JUMPI STOP JUMPDEST PUSH2 0x239 SWAP1 PUSH1 0x20 RETURNDATASIZE PUSH1 0x20 GT PUSH2 0x23B JUMPI JUMPDEST PUSH2 0x231 DUP2 DUP4 PUSH2 0x1F3B JUMP JUMPDEST DUP2 ADD SWAP1 PUSH2 0x2088 JUMP JUMPDEST STOP JUMPDEST POP RETURNDATASIZE PUSH2 0x227 JUMP JUMPDEST PUSH1 0x40 MLOAD RETURNDATASIZE PUSH1 0x0 DUP3 RETURNDATACOPY RETURNDATASIZE SWAP1 REVERT JUMPDEST PUSH1 0x40 MLOAD PUSH3 0x461BCD PUSH1 0xE5 SHL DUP2 MSTORE PUSH1 0x20 PUSH1 0x4 DUP3 ADD MSTORE PUSH1 0xF PUSH1 0x24 DUP3 ADD MSTORE PUSH15 0x496E76616C69642061646472657373 PUSH1 0x88 SHL PUSH1 0x44 DUP3 ADD MSTORE PUSH1 0x64 SWAP1 REVERT JUMPDEST PUSH1 0x40 MLOAD PUSH3 0x461BCD PUSH1 0xE5 SHL DUP2 MSTORE PUSH1 0x20 PUSH1 0x4 DUP3 ADD MSTORE PUSH1 0x16 PUSH1 0x24 DUP3 ADD MSTORE PUSH22 0x159BDD19481C995CDD5B1D081B9BDD081C185CDCD959 PUSH1 0x52 SHL PUSH1 0x44 DUP3 ADD MSTORE PUSH1 0x64 SWAP1 REVERT JUMPDEST PUSH1 0x40 MLOAD PUSH3 0x461BCD PUSH1 0xE5 SHL DUP2 MSTORE PUSH1 0x20 PUSH1 0x4 DUP3 ADD MSTORE PUSH1 0x1B PUSH1 0x24 DUP3 ADD MSTORE PUSH32 0x496E766573746D656E7420706572696F642068617320656E6465640000000000 PUSH1 0x44 DUP3 ADD MSTORE PUSH1 0x64 SWAP1 REVERT JUMPDEST POP PUSH1 0x14 PUSH2 0x314 DUP3 PUSH2 0x20D7 JUMP JUMPDEST POP ADD SLOAD TIMESTAMP LT PUSH2 0x180 JUMP JUMPDEST PUSH1 0x0 DUP1 REVERT JUMPDEST CALLVALUE PUSH2 0x31E JUMPI PUSH1 0x20 CALLDATASIZE PUSH1 0x3 NOT ADD SLT PUSH2 0x31E JUMPI PUSH1 0x4 CALLDATALOAD PUSH1 0x1 PUSH1 0x1 PUSH1 0x40 SHL SUB DUP2 GT PUSH2 0x31E JUMPI PUSH2 0x353 SWAP1 CALLDATASIZE SWAP1 PUSH1 0x4 ADD PUSH2 0x1FF1 JUMP JUMPDEST PUSH1 0xA SLOAD PUSH1 0x0 SWAP2 PUSH1 0x20 DUP2 ADD SWAP1 DUP4 JUMPDEST DUP4 DUP2 LT PUSH2 0x855 JUMPI POP PUSH2 0x371 DUP5 PUSH2 0x1F5C JUMP JUMPDEST SWAP4 PUSH2 0x37F PUSH1 0x40 MLOAD SWAP6 DUP7 PUSH2 0x1F3B JUMP JUMPDEST DUP1 DUP6 MSTORE PUSH2 0x38E PUSH1 0x1F NOT SWAP2 PUSH2 0x1F5C JUMP JUMPDEST ADD PUSH1 0x0 JUMPDEST DUP2 DUP2 LT PUSH2 0x775 JUMPI POP POP PUSH1 0x0 SWAP2 PUSH1 0x0 JUMPDEST DUP5 DUP2 LT PUSH2 0x572 JUMPI DUP6 PUSH1 0x40 MLOAD DUP1 SWAP2 PUSH1 0x20 DUP3 ADD PUSH1 0x20 DUP4 MSTORE DUP2 MLOAD DUP1 SWAP2 MSTORE PUSH1 0x40 DUP4 ADD SWAP1 PUSH1 0x20 PUSH1 0x40 DUP3 PUSH1 0x5 SHL DUP7 ADD ADD SWAP4 ADD SWAP2 PUSH1 0x0 SWAP1 JUMPDEST DUP3 DUP3 LT PUSH2 0x3E1 JUMPI POP POP POP POP SUB SWAP1 RETURN JUMPDEST SWAP2 SWAP4 PUSH1 0x1 SWAP2 SWAP4 SWAP6 POP PUSH1 0x20 DUP1 SWAP2 PUSH1 0x3F NOT DUP10 DUP3 SUB ADD DUP6 MSTORE DUP8 MLOAD SWAP1 DUP2 MLOAD DUP2 MSTORE DUP5 DUP1 PUSH1 0xA0 SHL SUB DUP4 DUP4 ADD MLOAD AND DUP4 DUP3 ADD MSTORE PUSH2 0x2C0 PUSH2 0x1E0 PUSH2 0x4C2 PUSH2 0x48E PUSH2 0x47C PUSH2 0x46A PUSH2 0x44E PUSH2 0x43C PUSH1 0x40 DUP11 ADD MLOAD PUSH2 0x2E0 PUSH1 0x40 DUP12 ADD MSTORE PUSH2 0x2E0 DUP11 ADD SWAP1 PUSH2 0x2047 JUMP JUMPDEST PUSH1 0x60 DUP11 ADD MLOAD DUP10 DUP3 SUB PUSH1 0x60 DUP12 ADD MSTORE PUSH2 0x2047 JUMP JUMPDEST PUSH1 0x80 DUP10 ADD MLOAD PUSH1 0x80 DUP10 ADD MSTORE PUSH1 0xA0 DUP10 ADD MLOAD DUP9 DUP3 SUB PUSH1 0xA0 DUP11 ADD MSTORE PUSH2 0x2047 JUMP JUMPDEST PUSH1 0xC0 DUP9 ADD MLOAD DUP8 DUP3 SUB PUSH1 0xC0 DUP10 ADD MSTORE PUSH2 0x2047 JUMP JUMPDEST PUSH1 0xE0 DUP8 ADD MLOAD DUP7 DUP3 SUB PUSH1 0xE0 DUP9 ADD MSTORE PUSH2 0x2047 JUMP JUMPDEST PUSH2 0x100 DUP7 ADD MLOAD SWAP1 DUP6 DUP2 SUB PUSH2 0x100 DUP8 ADD MSTORE DUP8 PUSH2 0x4B2 DUP4 MLOAD PUSH1 0x40 DUP5 MSTORE PUSH1 0x40 DUP5 ADD SWAP1 PUSH2 0x2047 JUMP JUMPDEST SWAP3 ADD MLOAD SWAP1 DUP9 DUP2 DUP5 SUB SWAP2 ADD MSTORE PUSH2 0x2047 JUMP JUMPDEST SWAP4 PUSH1 0xE0 PUSH2 0x120 DUP3 ADD MLOAD DUP10 DUP1 PUSH1 0xA0 SHL SUB DUP2 MLOAD AND PUSH2 0x120 DUP8 ADD MSTORE DUP8 DUP2 ADD MLOAD PUSH2 0x140 DUP8 ADD MSTORE PUSH1 0x40 DUP2 ADD MLOAD PUSH2 0x160 DUP8 ADD MSTORE PUSH1 0x60 DUP2 ADD MLOAD PUSH2 0x180 DUP8 ADD MSTORE PUSH1 0x80 DUP2 ADD MLOAD PUSH2 0x1A0 DUP8 ADD MSTORE PUSH1 0xA0 DUP2 ADD MLOAD PUSH2 0x1C0 DUP8 ADD MSTORE PUSH1 0xC0 DUP2 ADD MLOAD DUP5 DUP8 ADD MSTORE ADD MLOAD PUSH2 0x200 DUP6 ADD MSTORE PUSH2 0x140 DUP2 ADD MLOAD PUSH2 0x220 DUP6 ADD MSTORE PUSH2 0x160 DUP2 ADD MLOAD PUSH2 0x240 DUP6 ADD MSTORE PUSH2 0x180 DUP2 ADD MLOAD PUSH2 0x260 DUP6 ADD MSTORE PUSH2 0x1A0 DUP2 ADD MLOAD PUSH2 0x280 DUP6 ADD MSTORE PUSH2 0x1C0 DUP2 ADD MLOAD PUSH2 0x2A0 DUP6 ADD MSTORE ADD MLOAD SWAP2 ADD MSTORE SWAP7 ADD SWAP3 ADD SWAP3 ADD DUP6 SWAP5 SWAP4 SWAP2 SWAP3 PUSH2 0x3D2 JUMP JUMPDEST PUSH1 0x7 PUSH2 0x598 PUSH2 0x580 DUP4 PUSH2 0x20D7 JUMP JUMPDEST POP PUSH2 0x591 PUSH1 0x40 MLOAD DUP1 SWAP5 DUP2 SWAP4 ADD PUSH2 0x2130 JUMP JUMPDEST SUB DUP3 PUSH2 0x1F3B JUMP JUMPDEST PUSH1 0x20 DUP2 MLOAD SWAP2 ADD KECCAK256 DUP4 MLOAD DUP4 KECCAK256 EQ PUSH2 0x5B1 JUMPI JUMPDEST PUSH1 0x1 ADD PUSH2 0x3A1 JUMP JUMPDEST SWAP3 PUSH2 0x76D PUSH1 0x1 SWAP2 PUSH2 0x5C1 DUP7 PUSH2 0x20D7 JUMP JUMPDEST POP PUSH1 0x17 PUSH1 0x40 MLOAD SWAP2 PUSH2 0x5D1 DUP4 PUSH2 0x1F1F JUMP JUMPDEST DUP1 SLOAD DUP4 MSTORE DUP6 DUP1 PUSH1 0xA0 SHL SUB DUP7 DUP3 ADD SLOAD AND PUSH1 0x20 DUP5 ADD MSTORE PUSH1 0x40 MLOAD PUSH2 0x5F9 DUP2 PUSH2 0x591 DUP2 PUSH1 0x2 DUP7 ADD PUSH2 0x2130 JUMP JUMPDEST PUSH1 0x40 DUP5 ADD MSTORE PUSH1 0x40 MLOAD PUSH2 0x612 DUP2 PUSH2 0x591 DUP2 PUSH1 0x3 DUP7 ADD PUSH2 0x2130 JUMP JUMPDEST PUSH1 0x60 DUP5 ADD MSTORE PUSH1 0x4 DUP2 ADD SLOAD PUSH1 0x80 DUP5 ADD MSTORE PUSH1 0x40 MLOAD PUSH2 0x635 DUP2 PUSH2 0x591 DUP2 PUSH1 0x5 DUP7 ADD PUSH2 0x2130 JUMP JUMPDEST PUSH1 0xA0 DUP5 ADD MSTORE PUSH1 0x40 MLOAD PUSH2 0x64E DUP2 PUSH2 0x591 DUP2 PUSH1 0x6 DUP7 ADD PUSH2 0x2130 JUMP JUMPDEST PUSH1 0xC0 DUP5 ADD MSTORE PUSH1 0x40 MLOAD PUSH2 0x667 DUP2 PUSH2 0x591 DUP2 PUSH1 0x7 DUP7 ADD PUSH2 0x2130 JUMP JUMPDEST PUSH1 0xE0 DUP5 ADD MSTORE PUSH1 0x40 MLOAD PUSH2 0x678 DUP2 PUSH2 0x1EE8 JUMP JUMPDEST PUSH1 0x40 MLOAD PUSH2 0x68C DUP2 PUSH2 0x591 DUP2 PUSH1 0x8 DUP8 ADD PUSH2 0x2130 JUMP JUMPDEST DUP2 MSTORE PUSH1 0x40 MLOAD PUSH2 0x6A2 DUP2 PUSH2 0x591 DUP2 PUSH1 0x9 DUP8 ADD PUSH2 0x2130 JUMP JUMPDEST PUSH1 0x20 DUP3 ADD MSTORE PUSH2 0x100 DUP5 ADD MSTORE PUSH1 0x40 MLOAD PUSH2 0x6B9 DUP2 PUSH2 0x1F03 JUMP JUMPDEST DUP7 DUP1 PUSH1 0xA0 SHL SUB PUSH1 0xA DUP4 ADD SLOAD AND DUP2 MSTORE PUSH1 0xB DUP3 ADD SLOAD PUSH1 0x20 DUP3 ADD MSTORE PUSH1 0xC DUP3 ADD SLOAD PUSH1 0x40 DUP3 ADD MSTORE PUSH1 0xD DUP3 ADD SLOAD PUSH1 0x60 DUP3 ADD MSTORE PUSH1 0xE DUP3 ADD SLOAD PUSH1 0x80 DUP3 ADD MSTORE PUSH1 0xF DUP3 ADD SLOAD PUSH1 0xA0 DUP3 ADD MSTORE PUSH1 0x10 DUP3 ADD SLOAD PUSH1 0xC0 DUP3 ADD MSTORE PUSH1 0x11 DUP3 ADD SLOAD PUSH1 0xE0 DUP3 ADD MSTORE PUSH2 0x120 DUP5 ADD MSTORE PUSH1 0x12 DUP2 ADD SLOAD PUSH2 0x140 DUP5 ADD MSTORE PUSH1 0x13 DUP2 ADD SLOAD PUSH2 0x160 DUP5 ADD MSTORE PUSH1 0x14 DUP2 ADD SLOAD PUSH2 0x180 DUP5 ADD MSTORE PUSH1 0x15 DUP2 ADD SLOAD PUSH2 0x1A0 DUP5 ADD MSTORE PUSH1 0x16 DUP2 ADD SLOAD PUSH2 0x1C0 DUP5 ADD MSTORE ADD SLOAD PUSH2 0x1E0 DUP3 ADD MSTORE PUSH2 0x75C DUP3 DUP11 PUSH2 0x20AD JUMP JUMPDEST MSTORE PUSH2 0x767 DUP2 DUP10 PUSH2 0x20AD JUMP JUMPDEST POP PUSH2 0x22CA JUMP JUMPDEST SWAP4 SWAP1 POP PUSH2 0x5A9 JUMP JUMPDEST PUSH1 0x20 SWAP1 PUSH1 0x40 MLOAD PUSH2 0x784 DUP2 PUSH2 0x1F1F JUMP JUMPDEST PUSH1 0x0 DUP2 MSTORE PUSH1 0x0 DUP4 DUP3 ADD MSTORE PUSH1 0x60 PUSH1 0x40 DUP3 ADD MSTORE PUSH1 0x60 DUP1 DUP3 ADD MSTORE PUSH1 0x0 PUSH1 0x80 DUP3 ADD MSTORE PUSH1 0x60 PUSH1 0xA0 DUP3 ADD MSTORE PUSH1 0x60 PUSH1 0xC0 DUP3 ADD MSTORE PUSH1 0x60 PUSH1 0xE0 DUP3 ADD MSTORE PUSH1 0x40 MLOAD PUSH2 0x7C3 DUP2 PUSH2 0x1EE8 JUMP JUMPDEST PUSH1 0x60 DUP2 MSTORE PUSH1 0x60 DUP5 DUP3 ADD MSTORE PUSH2 0x100 DUP3 ADD MSTORE PUSH1 0x40 MLOAD PUSH2 0x7DF DUP2 PUSH2 0x1F03 JUMP JUMPDEST PUSH1 0x0 DUP2 MSTORE PUSH1 0x0 DUP5 DUP3 ADD MSTORE PUSH1 0x0 PUSH1 0x40 DUP3 ADD MSTORE PUSH1 0x0 PUSH1 0x60 DUP3 ADD MSTORE PUSH1 0x0 PUSH1 0x80 DUP3 ADD MSTORE PUSH1 0x0 PUSH1 0xA0 DUP3 ADD MSTORE PUSH1 0x0 PUSH1 0xC0 DUP3 ADD MSTORE PUSH1 0x0 PUSH1 0xE0 DUP3 ADD MSTORE PUSH2 0x120 DUP3 ADD MSTORE PUSH1 0x0 PUSH2 0x140 DUP3 ADD MSTORE PUSH1 0x0 PUSH2 0x160 DUP3 ADD MSTORE PUSH1 0x0 PUSH2 0x180 DUP3 ADD MSTORE PUSH1 0x0 PUSH2 0x1A0 DUP3 ADD MSTORE PUSH1 0x0 PUSH2 0x1C0 DUP3 ADD MSTORE PUSH1 0x0 PUSH2 0x1E0 DUP3 ADD MSTORE DUP3 DUP3 DUP10 ADD ADD MSTORE ADD PUSH2 0x392 JUMP JUMPDEST PUSH1 0x7 PUSH2 0x863 PUSH2 0x580 DUP4 PUSH2 0x20D7 JUMP JUMPDEST PUSH1 0x20 DUP2 MLOAD SWAP2 ADD KECCAK256 DUP3 MLOAD DUP5 KECCAK256 EQ PUSH2 0x87C JUMPI JUMPDEST PUSH1 0x1 ADD PUSH2 0x360 JUMP JUMPDEST SWAP4 PUSH2 0x888 PUSH1 0x1 SWAP2 PUSH2 0x22CA JUMP JUMPDEST SWAP5 SWAP1 POP PUSH2 0x874 JUMP JUMPDEST CALLVALUE PUSH2 0x31E JUMPI PUSH1 0x0 CALLDATASIZE PUSH1 0x3 NOT ADD SLT PUSH2 0x31E JUMPI PUSH1 0x1 SLOAD PUSH1 0x40 MLOAD PUSH1 0x1 PUSH1 0x1 PUSH1 0xA0 SHL SUB SWAP1 SWAP2 AND DUP2 MSTORE PUSH1 0x20 SWAP1 RETURN JUMPDEST CALLVALUE PUSH2 0x31E JUMPI PUSH1 0x0 CALLDATASIZE PUSH1 0x3 NOT ADD SLT PUSH2 0x31E JUMPI PUSH1 0x6 SLOAD PUSH1 0x40 MLOAD PUSH1 0x1 PUSH1 0x1 PUSH1 0xA0 SHL SUB SWAP1 SWAP2 AND DUP2 MSTORE PUSH1 0x20 SWAP1 RETURN JUMPDEST CALLVALUE PUSH2 0x31E JUMPI PUSH2 0x8F0 CALLDATASIZE PUSH2 0x1F73 JUMP JUMPDEST PUSH2 0x8F8 PUSH2 0x232C JUMP JUMPDEST PUSH1 0x0 JUMPDEST DUP2 MLOAD DUP2 LT ISZERO PUSH2 0x239 JUMPI DUP1 PUSH1 0x7 PUSH2 0x91F PUSH2 0x580 PUSH2 0x919 PUSH1 0x1 SWAP6 DUP8 PUSH2 0x20AD JUMP JUMPDEST MLOAD PUSH2 0x20D7 JUMP JUMPDEST PUSH1 0x20 DUP2 MLOAD SWAP2 ADD KECCAK256 PUSH2 0x92E PUSH2 0x224C JUMP JUMPDEST PUSH1 0x20 DUP2 MLOAD SWAP2 ADD KECCAK256 EQ PUSH2 0x941 JUMPI JUMPDEST ADD PUSH2 0x8FB JUMP JUMPDEST PUSH1 0x13 PUSH2 0x950 PUSH2 0x919 DUP4 DUP7 PUSH2 0x20AD JUMP JUMPDEST POP ADD SLOAD TIMESTAMP GT ISZERO PUSH2 0x93B JUMPI PUSH2 0x96D PUSH2 0x967 DUP3 DUP6 PUSH2 0x20AD JUMP JUMPDEST MLOAD PUSH2 0x2274 JUMP JUMPDEST PUSH2 0x93B JUMPI PUSH1 0x7 PUSH2 0x980 PUSH2 0x919 DUP4 DUP7 PUSH2 0x20AD JUMP JUMPDEST POP ADD PUSH2 0x995 PUSH2 0x98F DUP3 SLOAD PUSH2 0x20F6 JUMP JUMPDEST DUP3 PUSH2 0x21DD JUMP JUMPDEST PUSH1 0xC PUSH6 0x119052531151 PUSH1 0xD2 SHL ADD SWAP1 SSTORE PUSH2 0x9AE DUP2 DUP5 PUSH2 0x20AD JUMP JUMPDEST MLOAD PUSH32 0x9968C7F52FD00A2108F0BB8FE431303663EDC67CC15A995D07AAD3D83D031D60 PUSH1 0x0 DUP1 LOG2 PUSH2 0x93B JUMP JUMPDEST CALLVALUE PUSH2 0x31E JUMPI PUSH1 0x40 CALLDATASIZE PUSH1 0x3 NOT ADD SLT PUSH2 0x31E JUMPI PUSH2 0x239 PUSH1 0x4 CALLDATALOAD PUSH2 0x9F8 PUSH2 0x1ED2 JUMP JUMPDEST SWAP1 PUSH2 0xA19 PUSH2 0xA14 DUP3 PUSH1 0x0 MSTORE PUSH1 0x0 PUSH1 0x20 MSTORE PUSH1 0x1 PUSH1 0x40 PUSH1 0x0 KECCAK256 ADD SLOAD SWAP1 JUMP JUMPDEST PUSH2 0x239E JUMP JUMPDEST PUSH2 0x2464 JUMP JUMPDEST CALLVALUE PUSH2 0x31E JUMPI PUSH1 0x20 CALLDATASIZE PUSH1 0x3 NOT ADD SLT PUSH2 0x31E JUMPI PUSH2 0xA37 PUSH2 0x22D9 JUMP JUMPDEST PUSH1 0x4 CALLDATALOAD PUSH1 0xD SSTORE STOP JUMPDEST CALLVALUE PUSH2 0x31E JUMPI PUSH1 0x0 CALLDATASIZE PUSH1 0x3 NOT ADD SLT PUSH2 0x31E JUMPI PUSH1 0x20 PUSH1 0x40 MLOAD PUSH1 0x0 DUP2 MSTORE RETURN JUMPDEST CALLVALUE PUSH2 0x31E JUMPI PUSH1 0x0 CALLDATASIZE PUSH1 0x3 NOT ADD SLT PUSH2 0x31E JUMPI PUSH1 0x8 SLOAD PUSH1 0x40 MLOAD PUSH1 0x1 PUSH1 0x1 PUSH1 0xA0 SHL SUB SWAP1 SWAP2 AND DUP2 MSTORE PUSH1 0x20 SWAP1 RETURN JUMPDEST CALLVALUE PUSH2 0x31E JUMPI PUSH1 0x40 CALLDATASIZE PUSH1 0x3 NOT ADD SLT PUSH2 0x31E JUMPI PUSH1 0x4 CALLDATALOAD PUSH1 0x24 CALLDATALOAD PUSH1 0x2 DUP2 LT ISZERO PUSH2 0x31E JUMPI PUSH1 0x12 PUSH2 0xAAF DUP4 PUSH2 0x20D7 JUMP JUMPDEST POP ADD SLOAD TIMESTAMP LT ISZERO DUP1 PUSH2 0xC4C JUMPI JUMPDEST ISZERO PUSH2 0xC07 JUMPI PUSH1 0x0 DUP3 DUP2 MSTORE PUSH1 0x9 PUSH1 0x20 SWAP1 DUP2 MSTORE PUSH1 0x40 DUP1 DUP4 KECCAK256 CALLER DUP5 MSTORE SWAP1 SWAP2 MSTORE SWAP1 KECCAK256 SLOAD PUSH1 0xFF AND PUSH2 0xBCC JUMPI ISZERO PUSH1 0x0 DUP2 ISZERO PUSH2 0xBAE JUMPI PUSH1 0x15 PUSH2 0xAF5 DUP5 PUSH2 0x20D7 JUMP JUMPDEST POP ADD PUSH2 0xB01 DUP2 SLOAD PUSH2 0x22CA JUMP JUMPDEST SWAP1 SSTORE JUMPDEST DUP3 DUP2 MSTORE PUSH1 0x9 PUSH1 0x20 SWAP1 DUP2 MSTORE PUSH1 0x40 DUP1 DUP4 KECCAK256 CALLER DUP5 MSTORE SWAP1 SWAP2 MSTORE SWAP1 KECCAK256 DUP1 SLOAD PUSH1 0xFF NOT AND PUSH1 0x1 OR SWAP1 SSTORE PUSH1 0x0 SWAP1 ISZERO PUSH2 0xB8B JUMPI POP PUSH1 0x40 MLOAD PUSH2 0xB3D PUSH1 0x40 DUP3 PUSH2 0x1F3B JUMP JUMPDEST PUSH1 0x3 DUP2 MSTORE PUSH3 0x594553 PUSH1 0xE8 SHL PUSH1 0x20 DUP3 ADD MSTORE JUMPDEST PUSH32 0xF872C9DD43E62509C7276E545B258673A25292DBEB9756E834227C8A83818655 PUSH1 0x40 MLOAD PUSH1 0x20 DUP2 MSTORE DUP1 PUSH2 0xB86 CALLER SWAP5 PUSH1 0x20 DUP4 ADD SWAP1 PUSH2 0x2047 JUMP JUMPDEST SUB SWAP1 LOG3 STOP JUMPDEST POP PUSH1 0x40 MLOAD PUSH2 0xB9A PUSH1 0x40 DUP3 PUSH2 0x1F3B JUMP JUMPDEST PUSH1 0x2 DUP2 MSTORE PUSH2 0x4E4F PUSH1 0xF0 SHL PUSH1 0x20 DUP3 ADD MSTORE PUSH2 0xB4E JUMP JUMPDEST PUSH1 0x16 PUSH2 0xBB9 DUP5 PUSH2 0x20D7 JUMP JUMPDEST POP ADD PUSH2 0xBC5 DUP2 SLOAD PUSH2 0x22CA JUMP JUMPDEST SWAP1 SSTORE PUSH2 0xB04 JUMP JUMPDEST PUSH1 0x40 MLOAD PUSH3 0x461BCD PUSH1 0xE5 SHL DUP2 MSTORE PUSH1 0x20 PUSH1 0x4 DUP3 ADD MSTORE PUSH1 0x13 PUSH1 0x24 DUP3 ADD MSTORE PUSH19 0x566F74696E6720616C726561647920646F6E65 PUSH1 0x68 SHL PUSH1 0x44 DUP3 ADD MSTORE PUSH1 0x64 SWAP1 REVERT JUMPDEST PUSH1 0x40 MLOAD PUSH3 0x461BCD PUSH1 0xE5 SHL DUP2 MSTORE PUSH1 0x20 PUSH1 0x4 DUP3 ADD MSTORE PUSH1 0x17 PUSH1 0x24 DUP3 ADD MSTORE PUSH32 0x566F74696E6720706572696F642068617320656E646564000000000000000000 PUSH1 0x44 DUP3 ADD MSTORE PUSH1 0x64 SWAP1 REVERT JUMPDEST POP PUSH1 0x13 PUSH2 0xC58 DUP4 PUSH2 0x20D7 JUMP JUMPDEST POP ADD SLOAD TIMESTAMP LT PUSH2 0xABB JUMP JUMPDEST CALLVALUE PUSH2 0x31E JUMPI PUSH1 0x40 CALLDATASIZE PUSH1 0x3 NOT ADD SLT PUSH2 0x31E JUMPI PUSH2 0xC7B PUSH2 0x1ED2 JUMP JUMPDEST PUSH1 0x4 CALLDATALOAD PUSH1 0x0 MSTORE PUSH1 0x0 PUSH1 0x20 MSTORE PUSH1 0x40 PUSH1 0x0 KECCAK256 SWAP1 PUSH1 0x1 DUP1 PUSH1 0xA0 SHL SUB AND PUSH1 0x0 MSTORE PUSH1 0x20 MSTORE PUSH1 0x20 PUSH1 0xFF PUSH1 0x40 PUSH1 0x0 KECCAK256 SLOAD AND PUSH1 0x40 MLOAD SWAP1 ISZERO ISZERO DUP2 MSTORE RETURN JUMPDEST CALLVALUE PUSH2 0x31E JUMPI PUSH1 0x0 CALLDATASIZE PUSH1 0x3 NOT ADD SLT PUSH2 0x31E JUMPI PUSH1 0x4 SLOAD PUSH1 0x40 MLOAD PUSH1 0x1 PUSH1 0x1 PUSH1 0xA0 SHL SUB SWAP1 SWAP2 AND DUP2 MSTORE PUSH1 0x20 SWAP1 RETURN JUMPDEST CALLVALUE PUSH2 0x31E JUMPI PUSH1 0x0 CALLDATASIZE PUSH1 0x3 NOT ADD SLT PUSH2 0x31E JUMPI PUSH1 0x5 SLOAD PUSH1 0x40 MLOAD PUSH1 0x1 PUSH1 0x1 PUSH1 0xA0 SHL SUB SWAP1 SWAP2 AND DUP2 MSTORE PUSH1 0x20 SWAP1 RETURN JUMPDEST CALLVALUE PUSH2 0x31E JUMPI PUSH1 0x20 CALLDATASIZE PUSH1 0x3 NOT ADD SLT PUSH2 0x31E JUMPI PUSH1 0x20 PUSH2 0xD1F PUSH1 0x4 CALLDATALOAD PUSH2 0x2274 JUMP JUMPDEST PUSH1 0x40 MLOAD SWAP1 ISZERO ISZERO DUP2 MSTORE RETURN JUMPDEST CALLVALUE PUSH2 0x31E JUMPI PUSH2 0x1C0 CALLDATASIZE PUSH1 0x3 NOT ADD SLT PUSH2 0x31E JUMPI PUSH1 0x4 CALLDATALOAD PUSH1 0x1 PUSH1 0x1 PUSH1 0x40 SHL SUB DUP2 GT PUSH2 0x31E JUMPI PUSH2 0xD5A SWAP1 CALLDATASIZE SWAP1 PUSH1 0x4 ADD PUSH2 0x1FF1 JUMP JUMPDEST PUSH1 0x24 CALLDATALOAD PUSH1 0x1 PUSH1 0x1 PUSH1 0x40 SHL SUB DUP2 GT PUSH2 0x31E JUMPI PUSH2 0xD79 SWAP1 CALLDATASIZE SWAP1 PUSH1 0x4 ADD PUSH2 0x1FF1 JUMP JUMPDEST PUSH1 0x64 CALLDATALOAD PUSH1 0x1 PUSH1 0x1 PUSH1 0x40 SHL SUB DUP2 GT PUSH2 0x31E JUMPI PUSH2 0xD98 SWAP1 CALLDATASIZE SWAP1 PUSH1 0x4 ADD PUSH2 0x1FF1 JUMP JUMPDEST SWAP2 PUSH1 0x84 CALLDATALOAD PUSH1 0x1 PUSH1 0x1 PUSH1 0x40 SHL SUB DUP2 GT PUSH2 0x31E JUMPI PUSH2 0xDB8 SWAP1 CALLDATASIZE SWAP1 PUSH1 0x4 ADD PUSH2 0x1FF1 JUMP JUMPDEST PUSH1 0xA4 CALLDATALOAD SWAP4 PUSH1 0x1 PUSH1 0x1 PUSH1 0x40 SHL SUB DUP6 GT PUSH2 0x31E JUMPI PUSH1 0x40 PUSH1 0x3 NOT DUP7 CALLDATASIZE SUB ADD SLT PUSH2 0x31E JUMPI PUSH1 0x40 MLOAD SWAP5 PUSH2 0xDE5 DUP7 PUSH2 0x1EE8 JUMP JUMPDEST DUP1 PUSH1 0x4 ADD CALLDATALOAD PUSH1 0x1 PUSH1 0x1 PUSH1 0x40 SHL SUB DUP2 GT PUSH2 0x31E JUMPI PUSH2 0xE08 SWAP1 PUSH1 0x4 CALLDATASIZE SWAP2 DUP5 ADD ADD PUSH2 0x1FF1 JUMP JUMPDEST DUP7 MSTORE PUSH1 0x24 DUP2 ADD CALLDATALOAD SWAP1 PUSH1 0x1 PUSH1 0x1 PUSH1 0x40 SHL SUB DUP3 GT PUSH2 0x31E JUMPI PUSH1 0x4 PUSH2 0xE2D SWAP3 CALLDATASIZE SWAP3 ADD ADD PUSH2 0x1FF1 JUMP JUMPDEST PUSH1 0x20 DUP7 ADD MSTORE PUSH2 0x100 CALLDATASIZE PUSH1 0xC3 NOT ADD SLT PUSH2 0x31E JUMPI PUSH1 0x40 MLOAD PUSH2 0xE4B DUP2 PUSH2 0x1F03 JUMP JUMPDEST PUSH1 0xC4 CALLDATALOAD PUSH1 0x1 PUSH1 0x1 PUSH1 0xA0 SHL SUB DUP2 AND DUP2 SUB PUSH2 0x31E JUMPI DUP2 MSTORE PUSH1 0xE4 CALLDATALOAD PUSH1 0x20 DUP3 ADD MSTORE PUSH2 0x104 CALLDATALOAD PUSH1 0x40 DUP3 ADD MSTORE PUSH2 0x124 CALLDATALOAD PUSH1 0x60 DUP3 ADD MSTORE PUSH2 0x144 CALLDATALOAD PUSH1 0x80 DUP3 ADD MSTORE PUSH2 0x164 CALLDATALOAD PUSH1 0xA0 DUP3 ADD MSTORE PUSH2 0x184 CALLDATALOAD PUSH1 0xC0 DUP3 ADD MSTORE PUSH2 0x1A4 CALLDATALOAD PUSH1 0xE0 DUP3 ADD MSTORE PUSH1 0xA SLOAD PUSH1 0xB SLOAD SWAP1 SWAP5 PUSH2 0xEB0 DUP3 TIMESTAMP PUSH2 0x20A0 JUMP JUMPDEST SWAP2 PUSH2 0xEBB SWAP1 TIMESTAMP PUSH2 0x20A0 JUMP JUMPDEST PUSH1 0xC SLOAD PUSH2 0xEC7 SWAP2 PUSH2 0x20A0 JUMP JUMPDEST SWAP3 PUSH1 0x40 MLOAD SWAP8 DUP9 SWAP7 PUSH2 0xED7 DUP9 PUSH2 0x1F1F JUMP JUMPDEST DUP9 DUP9 MSTORE PUSH1 0x20 DUP9 ADD SWAP7 CALLER DUP9 MSTORE PUSH1 0x40 DUP10 ADD SWAP5 DUP6 MSTORE PUSH1 0x60 DUP10 ADD SWAP3 DUP4 MSTORE PUSH1 0x80 DUP10 ADD PUSH1 0x44 CALLDATALOAD DUP2 MSTORE PUSH1 0xA0 DUP11 ADD SWAP2 DUP3 MSTORE PUSH1 0xC0 DUP11 ADD SWAP3 DUP4 MSTORE PUSH2 0xF0F PUSH2 0x224C JUMP JUMPDEST SWAP4 PUSH1 0xE0 DUP12 ADD SWAP5 DUP6 MSTORE PUSH2 0x100 DUP12 ADD SWAP14 DUP15 MSTORE PUSH2 0x120 DUP12 ADD SWAP6 DUP7 MSTORE PUSH2 0x140 DUP12 ADD SWAP7 TIMESTAMP DUP9 MSTORE PUSH2 0x160 DUP13 ADD SWAP9 DUP10 MSTORE PUSH2 0x180 DUP13 ADD SWAP10 DUP11 MSTORE PUSH2 0x1A0 DUP13 ADD SWAP11 PUSH1 0x0 DUP13 MSTORE PUSH2 0x1C0 DUP14 ADD SWAP13 PUSH1 0x0 DUP15 MSTORE PUSH2 0x1E0 ADD SWAP14 PUSH1 0x0 DUP16 MSTORE PUSH9 0x10000000000000000 DUP2 LT ISZERO PUSH2 0x135C JUMPI DUP1 PUSH1 0x1 PUSH2 0xF7E SWAP3 ADD PUSH1 0xA SSTORE PUSH2 0x20D7 JUMP JUMPDEST SWAP16 SWAP1 SWAP16 PUSH2 0x1612 JUMPI MLOAD DUP16 SSTORE MLOAD PUSH1 0x1 DUP16 ADD DUP1 SLOAD PUSH1 0x1 PUSH1 0x1 PUSH1 0xA0 SHL SUB NOT AND PUSH1 0x1 PUSH1 0x1 PUSH1 0xA0 SHL SUB SWAP3 SWAP1 SWAP3 AND SWAP2 SWAP1 SWAP2 OR SWAP1 SSTORE MLOAD DUP1 MLOAD PUSH1 0x2 DUP16 ADD SWAP2 PUSH1 0x1 PUSH1 0x1 PUSH1 0x40 SHL SUB DUP3 GT PUSH2 0x135C JUMPI DUP2 SWAP1 PUSH2 0xFD7 DUP3 PUSH2 0xFD1 DUP7 SLOAD PUSH2 0x20F6 JUMP JUMPDEST DUP7 PUSH2 0x2207 JUMP JUMPDEST PUSH1 0x20 SWAP1 PUSH1 0x1F DUP4 GT PUSH1 0x1 EQ PUSH2 0x15AD JUMPI PUSH1 0x0 SWAP3 PUSH2 0x15A2 JUMPI JUMPDEST POP POP DUP2 PUSH1 0x1 SHL SWAP2 PUSH1 0x0 NOT SWAP1 PUSH1 0x3 SHL SHR NOT AND OR SWAP1 SSTORE JUMPDEST MLOAD DUP1 MLOAD PUSH1 0x3 DUP15 ADD SWAP2 PUSH1 0x1 PUSH1 0x1 PUSH1 0x40 SHL SUB DUP3 GT PUSH2 0x135C JUMPI DUP2 SWAP1 PUSH2 0x1028 DUP3 PUSH2 0xFD1 DUP7 SLOAD PUSH2 0x20F6 JUMP JUMPDEST PUSH1 0x20 SWAP1 PUSH1 0x1F DUP4 GT PUSH1 0x1 EQ PUSH2 0x153D JUMPI PUSH1 0x0 SWAP3 PUSH2 0x1532 JUMPI JUMPDEST POP POP DUP2 PUSH1 0x1 SHL SWAP2 PUSH1 0x0 NOT SWAP1 PUSH1 0x3 SHL SHR NOT AND OR SWAP1 SSTORE JUMPDEST MLOAD PUSH1 0x4 DUP13 ADD SSTORE MLOAD DUP1 MLOAD PUSH1 0x5 DUP13 ADD SWAP2 PUSH1 0x1 PUSH1 0x1 PUSH1 0x40 SHL SUB DUP3 GT PUSH2 0x135C JUMPI DUP2 SWAP1 PUSH2 0x107F DUP3 PUSH2 0xFD1 DUP7 SLOAD PUSH2 0x20F6 JUMP JUMPDEST PUSH1 0x20 SWAP1 PUSH1 0x1F DUP4 GT PUSH1 0x1 EQ PUSH2 0x14CD JUMPI PUSH1 0x0 SWAP3 PUSH2 0x14C2 JUMPI JUMPDEST POP POP DUP2 PUSH1 0x1 SHL SWAP2 PUSH1 0x0 NOT SWAP1 PUSH1 0x3 SHL SHR NOT AND OR SWAP1 SSTORE JUMPDEST MLOAD DUP1 MLOAD PUSH1 0x6 DUP12 ADD SWAP2 PUSH1 0x1 PUSH1 0x1 PUSH1 0x40 SHL SUB DUP3 GT PUSH2 0x135C JUMPI DUP2 SWAP1 PUSH2 0x10D0 DUP3 PUSH2 0xFD1 DUP7 SLOAD PUSH2 0x20F6 JUMP JUMPDEST PUSH1 0x20 SWAP1 PUSH1 0x1F DUP4 GT PUSH1 0x1 EQ PUSH2 0x145D JUMPI PUSH1 0x0 SWAP3 PUSH2 0x1452 JUMPI JUMPDEST POP POP DUP2 PUSH1 0x1 SHL SWAP2 PUSH1 0x0 NOT SWAP1 PUSH1 0x3 SHL SHR NOT AND OR SWAP1 SSTORE JUMPDEST MLOAD DUP1 MLOAD PUSH1 0x7 DUP11 ADD SWAP2 PUSH1 0x1 PUSH1 0x1 PUSH1 0x40 SHL SUB DUP3 GT PUSH2 0x135C JUMPI DUP2 SWAP1 PUSH2 0x1121 DUP3 PUSH2 0xFD1 DUP7 SLOAD PUSH2 0x20F6 JUMP JUMPDEST PUSH1 0x20 SWAP1 PUSH1 0x1F DUP4 GT PUSH1 0x1 EQ PUSH2 0x13ED JUMPI PUSH1 0x0 SWAP3 PUSH2 0x13E2 JUMPI JUMPDEST POP POP DUP2 PUSH1 0x1 SHL SWAP2 PUSH1 0x0 NOT SWAP1 PUSH1 0x3 SHL SHR NOT AND OR SWAP1 SSTORE JUMPDEST PUSH1 0x8 DUP9 ADD SWAP9 MLOAD SWAP9 DUP10 MLOAD DUP1 MLOAD SWAP1 PUSH1 0x1 PUSH1 0x1 PUSH1 0x40 SHL SUB DUP3 GT PUSH2 0x135C JUMPI DUP2 SWAP1 PUSH2 0x1176 DUP3 PUSH2 0xFD1 DUP7 SLOAD PUSH2 0x20F6 JUMP JUMPDEST PUSH1 0x20 SWAP1 PUSH1 0x1F DUP4 GT PUSH1 0x1 EQ PUSH2 0x137D JUMPI PUSH1 0x0 SWAP3 PUSH2 0x1372 JUMPI JUMPDEST POP POP DUP2 PUSH1 0x1 SHL SWAP2 PUSH1 0x0 NOT SWAP1 PUSH1 0x3 SHL SHR NOT AND OR SWAP1 SSTORE JUMPDEST PUSH1 0x20 PUSH1 0x9 DUP10 ADD SWAP10 ADD MLOAD SWAP9 DUP10 MLOAD PUSH1 0x1 PUSH1 0x1 PUSH1 0x40 SHL SUB DUP2 GT PUSH2 0x135C JUMPI PUSH2 0x11CF DUP2 PUSH2 0x11C9 DUP5 SLOAD PUSH2 0x20F6 JUMP JUMPDEST DUP5 PUSH2 0x2207 JUMP JUMPDEST PUSH1 0x20 PUSH1 0x1F DUP3 GT PUSH1 0x1 EQ PUSH2 0x12EF JUMPI SWAP1 DUP1 PUSH1 0xE0 SWAP5 SWAP4 SWAP3 PUSH1 0x17 SWAP13 SWAP14 PUSH1 0x0 SWAP3 PUSH2 0x12E4 JUMPI JUMPDEST POP POP DUP2 PUSH1 0x1 SHL SWAP2 PUSH1 0x0 NOT SWAP1 PUSH1 0x3 SHL SHR NOT AND OR SWAP1 SSTORE JUMPDEST MLOAD PUSH1 0x1 DUP1 PUSH1 0xA0 SHL SUB DUP2 MLOAD AND PUSH1 0xA DUP12 ADD SWAP1 PUSH1 0x1 DUP1 PUSH1 0xA0 SHL SUB AND PUSH12 0xFFFFFFFFFFFFFFFFFFFFFFFF PUSH1 0xA0 SHL DUP3 SLOAD AND OR SWAP1 SSTORE PUSH1 0x20 DUP2 ADD MLOAD PUSH1 0xB DUP12 ADD SSTORE PUSH1 0x40 DUP2 ADD MLOAD PUSH1 0xC DUP12 ADD SSTORE PUSH1 0x60 DUP2 ADD MLOAD PUSH1 0xD DUP12 ADD SSTORE PUSH1 0x80 DUP2 ADD MLOAD PUSH1 0xE DUP12 ADD SSTORE PUSH1 0xA0 DUP2 ADD MLOAD PUSH1 0xF DUP12 ADD SSTORE PUSH1 0xC0 DUP2 ADD MLOAD PUSH1 0x10 DUP12 ADD SSTORE ADD MLOAD PUSH1 0x11 DUP10 ADD SSTORE MLOAD PUSH1 0x12 DUP9 ADD SSTORE MLOAD PUSH1 0x13 DUP8 ADD SSTORE MLOAD PUSH1 0x14 DUP7 ADD SSTORE MLOAD PUSH1 0x15 DUP6 ADD SSTORE MLOAD PUSH1 0x16 DUP5 ADD SSTORE MLOAD SWAP2 ADD SSTORE PUSH1 0xA SLOAD PUSH1 0x0 NOT DUP2 ADD SWAP1 DUP2 GT PUSH2 0x12CE JUMPI CALLER PUSH32 0xB0D4FB8322E1C826818F956C2BB5192F545C5DF3CA526655CEB58D07AB3AA19E PUSH1 0x0 DUP1 LOG3 STOP JUMPDEST PUSH4 0x4E487B71 PUSH1 0xE0 SHL PUSH1 0x0 MSTORE PUSH1 0x11 PUSH1 0x4 MSTORE PUSH1 0x24 PUSH1 0x0 REVERT JUMPDEST ADD MLOAD SWAP1 POP DUP14 DUP1 PUSH2 0x11EF JUMP JUMPDEST PUSH1 0x1F NOT DUP3 AND SWAP1 DUP4 PUSH1 0x0 MSTORE DUP1 PUSH1 0x0 KECCAK256 SWAP2 PUSH1 0x0 JUMPDEST DUP2 DUP2 LT PUSH2 0x1344 JUMPI POP SWAP2 DUP4 SWAP2 PUSH1 0x17 SWAP14 SWAP15 PUSH1 0xE0 SWAP8 SWAP7 SWAP6 PUSH1 0x1 SWAP6 LT PUSH2 0x132B JUMPI JUMPDEST POP POP POP DUP2 SHL ADD SWAP1 SSTORE PUSH2 0x1204 JUMP JUMPDEST ADD MLOAD PUSH1 0x0 NOT PUSH1 0xF8 DUP5 PUSH1 0x3 SHL AND SHR NOT AND SWAP1 SSTORE DUP14 DUP1 DUP1 PUSH2 0x131E JUMP JUMPDEST DUP15 DUP4 ADD MLOAD DUP5 SSTORE PUSH1 0x1 SWAP1 SWAP4 ADD SWAP3 PUSH1 0x20 SWAP3 DUP4 ADD SWAP3 ADD PUSH2 0x1301 JUMP JUMPDEST PUSH4 0x4E487B71 PUSH1 0xE0 SHL PUSH1 0x0 MSTORE PUSH1 0x41 PUSH1 0x4 MSTORE PUSH1 0x24 PUSH1 0x0 REVERT JUMPDEST ADD MLOAD SWAP1 POP DUP13 DUP1 PUSH2 0x118C JUMP JUMPDEST PUSH1 0x0 DUP6 DUP2 MSTORE DUP3 DUP2 KECCAK256 SWAP4 POP PUSH1 0x1F NOT DUP6 AND SWAP1 JUMPDEST DUP2 DUP2 LT PUSH2 0x13CA JUMPI POP SWAP1 DUP5 PUSH1 0x1 SWAP6 SWAP5 SWAP4 SWAP3 LT PUSH2 0x13B1 JUMPI JUMPDEST POP POP POP DUP2 SHL ADD SWAP1 SSTORE PUSH2 0x11A1 JUMP JUMPDEST ADD MLOAD PUSH1 0x0 NOT PUSH1 0xF8 DUP5 PUSH1 0x3 SHL AND SHR NOT AND SWAP1 SSTORE DUP13 DUP1 DUP1 PUSH2 0x13A4 JUMP JUMPDEST SWAP3 SWAP4 PUSH1 0x20 PUSH1 0x1 DUP2 SWAP3 DUP8 DUP7 ADD MLOAD DUP2 SSTORE ADD SWAP6 ADD SWAP4 ADD PUSH2 0x138E JUMP JUMPDEST ADD MLOAD SWAP1 POP DUP13 DUP1 PUSH2 0x1137 JUMP JUMPDEST PUSH1 0x0 DUP6 DUP2 MSTORE DUP3 DUP2 KECCAK256 SWAP4 POP PUSH1 0x1F NOT DUP6 AND SWAP1 JUMPDEST DUP2 DUP2 LT PUSH2 0x143A JUMPI POP SWAP1 DUP5 PUSH1 0x1 SWAP6 SWAP5 SWAP4 SWAP3 LT PUSH2 0x1421 JUMPI JUMPDEST POP POP POP DUP2 SHL ADD SWAP1 SSTORE PUSH2 0x114C JUMP JUMPDEST ADD MLOAD PUSH1 0x0 NOT PUSH1 0xF8 DUP5 PUSH1 0x3 SHL AND SHR NOT AND SWAP1 SSTORE DUP13 DUP1 DUP1 PUSH2 0x1414 JUMP JUMPDEST SWAP3 SWAP4 PUSH1 0x20 PUSH1 0x1 DUP2 SWAP3 DUP8 DUP7 ADD MLOAD DUP2 SSTORE ADD SWAP6 ADD SWAP4 ADD PUSH2 0x13FE JUMP JUMPDEST ADD MLOAD SWAP1 POP DUP14 DUP1 PUSH2 0x10E6 JUMP JUMPDEST PUSH1 0x0 DUP6 DUP2 MSTORE DUP3 DUP2 KECCAK256 SWAP4 POP PUSH1 0x1F NOT DUP6 AND SWAP1 JUMPDEST DUP2 DUP2 LT PUSH2 0x14AA JUMPI POP SWAP1 DUP5 PUSH1 0x1 SWAP6 SWAP5 SWAP4 SWAP3 LT PUSH2 0x1491 JUMPI JUMPDEST POP POP POP DUP2 SHL ADD SWAP1 SSTORE PUSH2 0x10FB JUMP JUMPDEST ADD MLOAD PUSH1 0x0 NOT PUSH1 0xF8 DUP5 PUSH1 0x3 SHL AND SHR NOT AND SWAP1 SSTORE DUP14 DUP1 DUP1 PUSH2 0x1484 JUMP JUMPDEST SWAP3 SWAP4 PUSH1 0x20 PUSH1 0x1 DUP2 SWAP3 DUP8 DUP7 ADD MLOAD DUP2 SSTORE ADD SWAP6 ADD SWAP4 ADD PUSH2 0x146E JUMP JUMPDEST ADD MLOAD SWAP1 POP DUP15 DUP1 PUSH2 0x1095 JUMP JUMPDEST PUSH1 0x0 DUP6 DUP2 MSTORE DUP3 DUP2 KECCAK256 SWAP4 POP PUSH1 0x1F NOT DUP6 AND SWAP1 JUMPDEST DUP2 DUP2 LT PUSH2 0x151A JUMPI POP SWAP1 DUP5 PUSH1 0x1 SWAP6 SWAP5 SWAP4 SWAP3 LT PUSH2 0x1501 JUMPI JUMPDEST POP POP POP DUP2 SHL ADD SWAP1 SSTORE PUSH2 0x10AA JUMP JUMPDEST ADD MLOAD PUSH1 0x0 NOT PUSH1 0xF8 DUP5 PUSH1 0x3 SHL AND SHR NOT AND SWAP1 SSTORE DUP15 DUP1 DUP1 PUSH2 0x14F4 JUMP JUMPDEST SWAP3 SWAP4 PUSH1 0x20 PUSH1 0x1 DUP2 SWAP3 DUP8 DUP7 ADD MLOAD DUP2 SSTORE ADD SWAP6 ADD SWAP4 ADD PUSH2 0x14DE JUMP JUMPDEST ADD MLOAD SWAP1 POP CODESIZE DUP1 PUSH2 0x103E JUMP JUMPDEST PUSH1 0x0 DUP6 DUP2 MSTORE DUP3 DUP2 KECCAK256 SWAP4 POP PUSH1 0x1F NOT DUP6 AND SWAP1 JUMPDEST DUP2 DUP2 LT PUSH2 0x158A JUMPI POP SWAP1 DUP5 PUSH1 0x1 SWAP6 SWAP5 SWAP4 SWAP3 LT PUSH2 0x1571 JUMPI JUMPDEST POP POP POP DUP2 SHL ADD SWAP1 SSTORE PUSH2 0x1053 JUMP JUMPDEST ADD MLOAD PUSH1 0x0 NOT PUSH1 0xF8 DUP5 PUSH1 0x3 SHL AND SHR NOT AND SWAP1 SSTORE CODESIZE DUP1 DUP1 PUSH2 0x1564 JUMP JUMPDEST SWAP3 SWAP4 PUSH1 0x20 PUSH1 0x1 DUP2 SWAP3 DUP8 DUP7 ADD MLOAD DUP2 SSTORE ADD SWAP6 ADD SWAP4 ADD PUSH2 0x154E JUMP JUMPDEST ADD MLOAD SWAP1 POP CODESIZE DUP1 PUSH2 0xFED JUMP JUMPDEST PUSH1 0x0 DUP6 DUP2 MSTORE DUP3 DUP2 KECCAK256 SWAP4 POP PUSH1 0x1F NOT DUP6 AND SWAP1 JUMPDEST DUP2 DUP2 LT PUSH2 0x15FA JUMPI POP SWAP1 DUP5 PUSH1 0x1 SWAP6 SWAP5 SWAP4 SWAP3 LT PUSH2 0x15E1 JUMPI JUMPDEST POP POP POP DUP2 SHL ADD SWAP1 SSTORE PUSH2 0x1002 JUMP JUMPDEST ADD MLOAD PUSH1 0x0 NOT PUSH1 0xF8 DUP5 PUSH1 0x3 SHL AND SHR NOT AND SWAP1 SSTORE CODESIZE DUP1 DUP1 PUSH2 0x15D4 JUMP JUMPDEST SWAP3 SWAP4 PUSH1 0x20 PUSH1 0x1 DUP2 SWAP3 DUP8 DUP7 ADD MLOAD DUP2 SSTORE ADD SWAP6 ADD SWAP4 ADD PUSH2 0x15BE JUMP JUMPDEST PUSH4 0x4E487B71 PUSH1 0xE0 SHL PUSH1 0x0 MSTORE PUSH1 0x0 PUSH1 0x4 MSTORE PUSH1 0x24 PUSH1 0x0 REVERT JUMPDEST CALLVALUE PUSH2 0x31E JUMPI PUSH1 0x0 CALLDATASIZE PUSH1 0x3 NOT ADD SLT PUSH2 0x31E JUMPI PUSH1 0x7 SLOAD PUSH1 0x40 MLOAD PUSH1 0x1 PUSH1 0x1 PUSH1 0xA0 SHL SUB SWAP1 SWAP2 AND DUP2 MSTORE PUSH1 0x20 SWAP1 RETURN JUMPDEST CALLVALUE PUSH2 0x31E JUMPI PUSH1 0x20 CALLDATASIZE PUSH1 0x3 NOT ADD SLT PUSH2 0x31E JUMPI PUSH2 0x166A PUSH2 0x22D9 JUMP JUMPDEST PUSH1 0x4 CALLDATALOAD PUSH1 0xB SSTORE STOP JUMPDEST CALLVALUE PUSH2 0x31E JUMPI PUSH2 0x1680 CALLDATASIZE PUSH2 0x1F73 JUMP JUMPDEST PUSH2 0x1688 PUSH2 0x232C JUMP JUMPDEST PUSH2 0xCB1 PUSH1 0xC PUSH6 0x135253951151 PUSH1 0xD2 SHL ADD PUSH2 0x24E7 PUSH1 0x0 JUMPDEST DUP5 MLOAD DUP2 LT ISZERO PUSH2 0x239 JUMPI PUSH1 0x7 PUSH2 0x16B9 PUSH2 0x580 PUSH2 0x919 DUP5 DUP10 PUSH2 0x20AD JUMP JUMPDEST PUSH1 0x20 DUP2 MLOAD SWAP2 ADD KECCAK256 PUSH1 0x40 SWAP1 PUSH1 0x6 PUSH1 0x20 DUP4 MLOAD PUSH2 0x16D3 DUP6 DUP3 PUSH2 0x1F3B JUMP JUMPDEST DUP3 DUP2 MSTORE ADD PUSH6 0x135253951151 PUSH1 0xD2 SHL DUP2 MSTORE KECCAK256 EQ PUSH2 0x1825 JUMPI PUSH1 0x4 PUSH2 0x16F8 PUSH2 0x919 DUP5 DUP10 PUSH2 0x20AD JUMP JUMPDEST POP ADD SLOAD PUSH2 0x1716 PUSH1 0xC PUSH2 0x170D PUSH2 0x919 DUP7 DUP12 PUSH2 0x20AD JUMP JUMPDEST POP ADD SLOAD DUP3 PUSH2 0x21B3 JUMP JUMPDEST POP PUSH2 0x1729 PUSH1 0xD PUSH2 0x170D PUSH2 0x919 DUP7 DUP12 PUSH2 0x20AD JUMP JUMPDEST POP PUSH2 0x173C PUSH1 0xE PUSH2 0x170D PUSH2 0x919 DUP7 DUP12 PUSH2 0x20AD JUMP JUMPDEST POP PUSH2 0x174F PUSH1 0xF PUSH2 0x170D PUSH2 0x919 DUP7 DUP12 PUSH2 0x20AD JUMP JUMPDEST POP PUSH2 0x1762 PUSH1 0x10 PUSH2 0x170D PUSH2 0x919 DUP7 DUP12 PUSH2 0x20AD JUMP JUMPDEST POP PUSH2 0x1775 PUSH1 0x11 PUSH2 0x170D PUSH2 0x919 DUP7 DUP12 PUSH2 0x20AD JUMP JUMPDEST POP PUSH2 0x1783 PUSH2 0x919 DUP5 DUP10 PUSH2 0x20AD JUMP JUMPDEST POP SWAP1 PUSH2 0x1792 PUSH2 0x919 DUP6 DUP11 PUSH2 0x20AD JUMP JUMPDEST POP SWAP1 DUP4 MLOAD SWAP3 DUP9 DUP5 ADD SWAP1 DUP5 DUP3 LT PUSH1 0x1 PUSH1 0x1 PUSH1 0x40 SHL SUB DUP4 GT OR PUSH2 0x135C JUMPI DUP5 SWAP4 PUSH2 0x17D8 PUSH1 0x3 SWAP3 PUSH2 0x17E7 SWAP6 DUP14 DUP13 DUP10 CODECOPY ADDRESS DUP7 MSTORE PUSH1 0x20 DUP7 ADD MSTORE PUSH1 0x80 DUP10 DUP7 ADD MSTORE PUSH1 0x2 PUSH1 0x80 DUP7 ADD SWAP2 ADD PUSH2 0x2130 JUMP JUMPDEST SWAP3 PUSH1 0x60 DUP2 DUP6 SUB SWAP2 ADD MSTORE ADD PUSH2 0x2130 JUMP JUMPDEST SUB SWAP1 PUSH1 0x0 CREATE ISZERO PUSH2 0x181B JUMPI POP DUP1 DUP4 PUSH1 0x7 PUSH2 0x1805 PUSH2 0x919 PUSH1 0x1 SWAP6 DUP11 PUSH2 0x20AD JUMP JUMPDEST POP ADD PUSH2 0x1814 PUSH2 0x98F DUP3 SLOAD PUSH2 0x20F6 JUMP JUMPDEST SSTORE ADD PUSH2 0x169E JUMP JUMPDEST MLOAD RETURNDATASIZE PUSH1 0x0 DUP3 RETURNDATACOPY RETURNDATASIZE SWAP1 REVERT JUMPDEST MLOAD PUSH3 0x461BCD PUSH1 0xE5 SHL DUP2 MSTORE PUSH1 0x20 PUSH1 0x4 DUP3 ADD MSTORE PUSH1 0x13 PUSH1 0x24 DUP3 ADD MSTORE PUSH19 0x13595B5948185B1C9958591E481B5A5B9D1959 PUSH1 0x6A SHL PUSH1 0x44 DUP3 ADD MSTORE PUSH1 0x64 SWAP1 REVERT JUMPDEST CALLVALUE PUSH2 0x31E JUMPI PUSH1 0x0 CALLDATASIZE PUSH1 0x3 NOT ADD SLT PUSH2 0x31E JUMPI PUSH1 0x2 SLOAD PUSH1 0x40 MLOAD PUSH1 0x1 PUSH1 0x1 PUSH1 0xA0 SHL SUB SWAP1 SWAP2 AND DUP2 MSTORE PUSH1 0x20 SWAP1 RETURN JUMPDEST CALLVALUE PUSH2 0x31E JUMPI PUSH1 0xA0 CALLDATASIZE PUSH1 0x3 NOT ADD SLT PUSH2 0x31E JUMPI PUSH1 0x4 CALLDATALOAD PUSH1 0x1 PUSH1 0x1 PUSH1 0xA0 SHL SUB DUP2 AND SWAP1 DUP2 SWAP1 SUB PUSH2 0x31E JUMPI PUSH2 0x18B5 PUSH2 0x1ED2 JUMP JUMPDEST PUSH1 0x44 CALLDATALOAD SWAP2 PUSH3 0xFFFFFF DUP4 AND DUP1 SWAP4 SUB PUSH2 0x31E JUMPI PUSH1 0x64 CALLDATALOAD PUSH1 0x84 CALLDATALOAD PUSH1 0x0 PUSH1 0x20 PUSH1 0x1 DUP1 PUSH1 0xA0 SHL SUB PUSH1 0x8 SLOAD AND SWAP6 PUSH1 0x64 PUSH1 0x40 MLOAD DUP1 SWAP5 DUP2 SWAP4 PUSH4 0xA1671295 PUSH1 0xE0 SHL DUP4 MSTORE DUP10 PUSH1 0x4 DUP5 ADD MSTORE PUSH1 0x1 DUP1 PUSH1 0xA0 SHL SUB AND SWAP10 DUP11 PUSH1 0x24 DUP5 ADD MSTORE DUP12 PUSH1 0x44 DUP5 ADD MSTORE GAS CALL DUP1 ISZERO PUSH2 0x242 JUMPI PUSH2 0x1D00 JUMPI JUMPDEST POP PUSH1 0x40 MLOAD PUSH4 0x23B872DD PUSH1 0xE0 SHL DUP2 MSTORE CALLER PUSH1 0x4 DUP3 ADD MSTORE ADDRESS PUSH1 0x24 DUP3 ADD MSTORE PUSH1 0x44 DUP2 ADD DUP4 SWAP1 MSTORE PUSH1 0x20 DUP2 PUSH1 0x64 DUP2 PUSH1 0x0 DUP9 GAS CALL SWAP1 DUP2 ISZERO PUSH2 0x242 JUMPI PUSH1 0x0 SWAP2 PUSH2 0x1CE1 JUMPI JUMPDEST POP ISZERO PUSH2 0x1C9C JUMPI PUSH1 0x40 MLOAD PUSH4 0x23B872DD PUSH1 0xE0 SHL DUP2 MSTORE CALLER PUSH1 0x4 DUP3 ADD MSTORE ADDRESS PUSH1 0x24 DUP3 ADD MSTORE PUSH1 0x44 DUP2 ADD DUP3 SWAP1 MSTORE PUSH1 0x20 DUP2 PUSH1 0x64 DUP2 PUSH1 0x0 DUP10 GAS CALL SWAP1 DUP2 ISZERO PUSH2 0x242 JUMPI PUSH1 0x0 SWAP2 PUSH2 0x1C7D JUMPI JUMPDEST POP ISZERO PUSH2 0x1C38 JUMPI PUSH1 0x7 SLOAD PUSH1 0x40 MLOAD PUSH4 0x95EA7B3 PUSH1 0xE0 SHL DUP2 MSTORE PUSH1 0x1 PUSH1 0x1 PUSH1 0xA0 SHL SUB SWAP1 SWAP2 AND PUSH1 0x4 DUP3 ADD MSTORE PUSH1 0x24 DUP2 ADD DUP4 SWAP1 MSTORE PUSH1 0x20 DUP2 PUSH1 0x44 DUP2 PUSH1 0x0 DUP9 GAS CALL DUP1 ISZERO PUSH2 0x242 JUMPI PUSH2 0x1C1B JUMPI JUMPDEST POP PUSH1 0x7 SLOAD PUSH1 0x40 MLOAD PUSH4 0x95EA7B3 PUSH1 0xE0 SHL DUP2 MSTORE PUSH1 0x1 PUSH1 0x1 PUSH1 0xA0 SHL SUB SWAP1 SWAP2 AND PUSH1 0x4 DUP3 ADD MSTORE PUSH1 0x24 DUP2 ADD DUP3 SWAP1 MSTORE PUSH1 0x20 DUP2 PUSH1 0x44 DUP2 PUSH1 0x0 DUP10 GAS CALL DUP1 ISZERO PUSH2 0x242 JUMPI PUSH2 0x1BFE JUMPI JUMPDEST POP PUSH2 0xE10 TIMESTAMP ADD SWAP1 DUP2 TIMESTAMP GT PUSH2 0x12CE JUMPI PUSH1 0x40 MLOAD SWAP4 PUSH2 0x160 DUP6 ADD DUP6 DUP2 LT PUSH1 0x1 PUSH1 0x1 PUSH1 0x40 SHL SUB DUP3 GT OR PUSH2 0x135C JUMPI PUSH1 0x40 SWAP1 DUP2 MSTORE SWAP1 DUP6 MSTORE PUSH1 0x20 DUP6 ADD SWAP6 DUP7 MSTORE DUP5 DUP2 ADD SWAP7 DUP8 MSTORE PUSH3 0xD89B3 NOT PUSH1 0x60 DUP7 ADD SWAP1 DUP2 MSTORE PUSH3 0xD89B4 PUSH1 0x80 DUP8 ADD SWAP1 DUP2 MSTORE PUSH1 0xA0 DUP8 ADD SWAP6 DUP7 MSTORE PUSH1 0xC0 DUP8 ADD SWAP4 DUP5 MSTORE PUSH1 0x0 PUSH1 0xE0 DUP9 ADD DUP2 DUP2 MSTORE PUSH2 0x100 DUP10 ADD SWAP2 DUP3 MSTORE CALLER PUSH2 0x120 DUP11 ADD SWAP1 DUP2 MSTORE PUSH2 0x140 DUP11 ADD SWAP8 DUP9 MSTORE PUSH1 0x7 SLOAD SWAP6 MLOAD PUSH4 0x4418B22B PUSH1 0xE1 SHL DUP2 MSTORE SWAP10 MLOAD PUSH1 0x1 PUSH1 0x1 PUSH1 0xA0 SHL SUB SWAP1 DUP2 AND PUSH1 0x4 DUP13 ADD MSTORE SWAP11 MLOAD DUP12 AND PUSH1 0x24 DUP12 ADD MSTORE SWAP11 MLOAD PUSH3 0xFFFFFF AND PUSH1 0x44 DUP11 ADD MSTORE SWAP3 MLOAD PUSH1 0x2 SWAP1 DUP2 SIGNEXTEND PUSH1 0x64 DUP11 ADD MSTORE SWAP2 MLOAD SWAP1 SWAP2 SIGNEXTEND PUSH1 0x84 DUP9 ADD MSTORE SWAP5 MLOAD PUSH1 0xA4 DUP8 ADD MSTORE SWAP2 MLOAD PUSH1 0xC4 DUP7 ADD MSTORE SWAP1 MLOAD PUSH1 0xE4 DUP6 ADD MSTORE SWAP2 MLOAD PUSH2 0x104 DUP5 ADD MSTORE SWAP4 MLOAD DUP4 AND PUSH2 0x124 DUP4 ADD MSTORE SWAP3 MLOAD PUSH2 0x144 DUP3 ADD MSTORE SWAP2 DUP3 SWAP2 DUP3 SWAP2 AND GAS SWAP3 PUSH1 0x0 PUSH2 0x164 SWAP3 PUSH1 0x80 SWAP6 CALL SWAP1 DUP2 ISZERO PUSH2 0x242 JUMPI PUSH1 0x0 SWAP2 DUP3 SWAP2 DUP4 SWAP1 DUP5 SWAP3 PUSH2 0x1B7D JUMPI JUMPDEST POP SWAP2 PUSH1 0x60 SWAP2 PUSH32 0xF932BEC3F0086AED14ACE0A396941A083546FD1A3497ED66CC5B9856C890DB0A SWAP4 PUSH1 0x1 PUSH1 0x1 PUSH1 0x80 SHL SUB PUSH1 0x40 MLOAD SWAP4 AND DUP4 MSTORE PUSH1 0x20 DUP4 ADD MSTORE PUSH1 0x40 DUP3 ADD MSTORE LOG2 STOP JUMPDEST SWAP3 POP POP POP PUSH1 0x80 DUP2 RETURNDATASIZE PUSH1 0x80 GT PUSH2 0x1BF6 JUMPI JUMPDEST DUP2 PUSH2 0x1B9A PUSH1 0x80 SWAP4 DUP4 PUSH2 0x1F3B JUMP JUMPDEST DUP2 ADD SUB SLT PUSH2 0x1BF2 JUMPI DUP1 MLOAD PUSH1 0x20 DUP3 ADD MLOAD SWAP3 PUSH1 0x1 PUSH1 0x1 PUSH1 0x80 SHL SUB DUP5 AND DUP5 SUB PUSH2 0x1BEF JUMPI POP PUSH1 0x40 DUP3 ADD MLOAD PUSH1 0x60 SWAP1 SWAP3 ADD MLOAD SWAP1 SWAP3 SWAP2 PUSH32 0xF932BEC3F0086AED14ACE0A396941A083546FD1A3497ED66CC5B9856C890DB0A PUSH2 0x1B3A JUMP JUMPDEST DUP1 REVERT JUMPDEST POP DUP1 REVERT JUMPDEST RETURNDATASIZE SWAP2 POP PUSH2 0x1B8D JUMP JUMPDEST PUSH2 0x1C16 SWAP1 PUSH1 0x20 RETURNDATASIZE PUSH1 0x20 GT PUSH2 0x23B JUMPI PUSH2 0x231 DUP2 DUP4 PUSH2 0x1F3B JUMP JUMPDEST PUSH2 0x1A13 JUMP JUMPDEST PUSH2 0x1C33 SWAP1 PUSH1 0x20 RETURNDATASIZE PUSH1 0x20 GT PUSH2 0x23B JUMPI PUSH2 0x231 DUP2 DUP4 PUSH2 0x1F3B JUMP JUMPDEST PUSH2 0x19D5 JUMP JUMPDEST PUSH1 0x40 MLOAD PUSH3 0x461BCD PUSH1 0xE5 SHL DUP2 MSTORE PUSH1 0x20 PUSH1 0x4 DUP3 ADD MSTORE PUSH1 0x19 PUSH1 0x24 DUP3 ADD MSTORE PUSH32 0x5472616E73666572206F6620746F6B656E42206661696C656400000000000000 PUSH1 0x44 DUP3 ADD MSTORE PUSH1 0x64 SWAP1 REVERT JUMPDEST PUSH2 0x1C96 SWAP2 POP PUSH1 0x20 RETURNDATASIZE PUSH1 0x20 GT PUSH2 0x23B JUMPI PUSH2 0x231 DUP2 DUP4 PUSH2 0x1F3B JUMP JUMPDEST DUP7 PUSH2 0x1992 JUMP JUMPDEST PUSH1 0x40 MLOAD PUSH3 0x461BCD PUSH1 0xE5 SHL DUP2 MSTORE PUSH1 0x20 PUSH1 0x4 DUP3 ADD MSTORE PUSH1 0x19 PUSH1 0x24 DUP3 ADD MSTORE PUSH32 0x5472616E73666572206F6620746F6B656E41206661696C656400000000000000 PUSH1 0x44 DUP3 ADD MSTORE PUSH1 0x64 SWAP1 REVERT JUMPDEST PUSH2 0x1CFA SWAP2 POP PUSH1 0x20 RETURNDATASIZE PUSH1 0x20 GT PUSH2 0x23B JUMPI PUSH2 0x231 DUP2 DUP4 PUSH2 0x1F3B JUMP JUMPDEST DUP7 PUSH2 0x1952 JUMP JUMPDEST PUSH1 0x20 DUP2 RETURNDATASIZE PUSH1 0x20 GT PUSH2 0x1D37 JUMPI JUMPDEST DUP2 PUSH2 0x1D19 PUSH1 0x20 SWAP4 DUP4 PUSH2 0x1F3B JUMP JUMPDEST DUP2 ADD SUB SLT PUSH2 0x31E JUMPI MLOAD PUSH1 0x1 PUSH1 0x1 PUSH1 0xA0 SHL SUB DUP2 AND DUP2 EQ PUSH2 0x1917 JUMPI PUSH1 0x0 DUP1 REVERT JUMPDEST RETURNDATASIZE SWAP2 POP PUSH2 0x1D0C JUMP JUMPDEST CALLVALUE PUSH2 0x31E JUMPI PUSH1 0x20 CALLDATASIZE PUSH1 0x3 NOT ADD SLT PUSH2 0x31E JUMPI PUSH2 0x1D58 PUSH2 0x22D9 JUMP JUMPDEST PUSH1 0x4 CALLDATALOAD PUSH1 0xC SSTORE STOP JUMPDEST CALLVALUE PUSH2 0x31E JUMPI PUSH1 0x40 CALLDATASIZE PUSH1 0x3 NOT ADD SLT PUSH2 0x31E JUMPI PUSH2 0x1D79 PUSH2 0x1ED2 JUMP JUMPDEST CALLER PUSH1 0x1 PUSH1 0x1 PUSH1 0xA0 SHL SUB DUP3 AND SUB PUSH2 0x1D95 JUMPI PUSH2 0x239 SWAP1 PUSH1 0x4 CALLDATALOAD PUSH2 0x2464 JUMP JUMPDEST PUSH4 0x334BD919 PUSH1 0xE1 SHL PUSH1 0x0 MSTORE PUSH1 0x4 PUSH1 0x0 REVERT JUMPDEST CALLVALUE PUSH2 0x31E JUMPI PUSH1 0x40 CALLDATASIZE PUSH1 0x3 NOT ADD SLT PUSH2 0x31E JUMPI PUSH2 0x239 PUSH1 0x4 CALLDATALOAD PUSH2 0x1DC5 PUSH2 0x1ED2 JUMP JUMPDEST SWAP1 PUSH2 0x1DE1 PUSH2 0xA14 DUP3 PUSH1 0x0 MSTORE PUSH1 0x0 PUSH1 0x20 MSTORE PUSH1 0x1 PUSH1 0x40 PUSH1 0x0 KECCAK256 ADD SLOAD SWAP1 JUMP JUMPDEST PUSH2 0x23D9 JUMP JUMPDEST CALLVALUE PUSH2 0x31E JUMPI PUSH1 0x20 CALLDATASIZE PUSH1 0x3 NOT ADD SLT PUSH2 0x31E JUMPI PUSH1 0x20 PUSH2 0x1E13 PUSH1 0x4 CALLDATALOAD PUSH1 0x0 MSTORE PUSH1 0x0 PUSH1 0x20 MSTORE PUSH1 0x1 PUSH1 0x40 PUSH1 0x0 KECCAK256 ADD SLOAD SWAP1 JUMP JUMPDEST PUSH1 0x40 MLOAD SWAP1 DUP2 MSTORE RETURN JUMPDEST CALLVALUE PUSH2 0x31E JUMPI PUSH1 0x0 CALLDATASIZE PUSH1 0x3 NOT ADD SLT PUSH2 0x31E JUMPI PUSH1 0x3 SLOAD PUSH1 0x40 MLOAD PUSH1 0x1 PUSH1 0x1 PUSH1 0xA0 SHL SUB SWAP1 SWAP2 AND DUP2 MSTORE PUSH1 0x20 SWAP1 RETURN JUMPDEST CALLVALUE PUSH2 0x31E JUMPI PUSH1 0x0 CALLDATASIZE PUSH1 0x3 NOT ADD SLT PUSH2 0x31E JUMPI PUSH1 0x20 PUSH1 0x40 MLOAD PUSH32 0xD8AA0F3194971A2A116679F7C2090F6939C8D4E01A2A8D7E41D55E5351469E63 DUP2 MSTORE RETURN JUMPDEST CALLVALUE PUSH2 0x31E JUMPI PUSH1 0x20 CALLDATASIZE PUSH1 0x3 NOT ADD SLT PUSH2 0x31E JUMPI PUSH1 0x4 CALLDATALOAD SWAP1 PUSH4 0xFFFFFFFF PUSH1 0xE0 SHL DUP3 AND DUP1 SWAP3 SUB PUSH2 0x31E JUMPI PUSH1 0x20 SWAP2 PUSH4 0x7965DB0B PUSH1 0xE0 SHL DUP2 EQ SWAP1 DUP2 ISZERO PUSH2 0x1EC1 JUMPI JUMPDEST POP ISZERO ISZERO DUP2 MSTORE RETURN JUMPDEST PUSH4 0x1FFC9A7 PUSH1 0xE0 SHL EQ SWAP1 POP DUP4 PUSH2 0x1EBA JUMP JUMPDEST PUSH1 0x24 CALLDATALOAD SWAP1 PUSH1 0x1 PUSH1 0x1 PUSH1 0xA0 SHL SUB DUP3 AND DUP3 SUB PUSH2 0x31E JUMPI JUMP JUMPDEST PUSH1 0x40 DUP2 ADD SWAP1 DUP2 LT PUSH1 0x1 PUSH1 0x1 PUSH1 0x40 SHL SUB DUP3 GT OR PUSH2 0x135C JUMPI PUSH1 0x40 MSTORE JUMP JUMPDEST PUSH2 0x100 DUP2 ADD SWAP1 DUP2 LT PUSH1 0x1 PUSH1 0x1 PUSH1 0x40 SHL SUB DUP3 GT OR PUSH2 0x135C JUMPI PUSH1 0x40 MSTORE JUMP JUMPDEST PUSH2 0x200 DUP2 ADD SWAP1 DUP2 LT PUSH1 0x1 PUSH1 0x1 PUSH1 0x40 SHL SUB DUP3 GT OR PUSH2 0x135C JUMPI PUSH1 0x40 MSTORE JUMP JUMPDEST SWAP1 PUSH1 0x1F DUP1 NOT SWAP2 ADD AND DUP2 ADD SWAP1 DUP2 LT PUSH1 0x1 PUSH1 0x1 PUSH1 0x40 SHL SUB DUP3 GT OR PUSH2 0x135C JUMPI PUSH1 0x40 MSTORE JUMP JUMPDEST PUSH1 0x1 PUSH1 0x1 PUSH1 0x40 SHL SUB DUP2 GT PUSH2 0x135C JUMPI PUSH1 0x5 SHL PUSH1 0x20 ADD SWAP1 JUMP JUMPDEST PUSH1 0x20 PUSH1 0x3 NOT DUP3 ADD SLT PUSH2 0x31E JUMPI PUSH1 0x4 CALLDATALOAD SWAP1 PUSH1 0x1 PUSH1 0x1 PUSH1 0x40 SHL SUB DUP3 GT PUSH2 0x31E JUMPI DUP1 PUSH1 0x23 DUP4 ADD SLT ISZERO PUSH2 0x31E JUMPI DUP2 PUSH1 0x4 ADD CALLDATALOAD PUSH2 0x1FAA DUP2 PUSH2 0x1F5C JUMP JUMPDEST SWAP3 PUSH2 0x1FB8 PUSH1 0x40 MLOAD SWAP5 DUP6 PUSH2 0x1F3B JUMP JUMPDEST DUP2 DUP5 MSTORE PUSH1 0x24 PUSH1 0x20 DUP6 ADD SWAP3 PUSH1 0x5 SHL DUP3 ADD ADD SWAP3 DUP4 GT PUSH2 0x31E JUMPI PUSH1 0x24 ADD SWAP1 JUMPDEST DUP3 DUP3 LT PUSH2 0x1FE1 JUMPI POP POP POP SWAP1 JUMP JUMPDEST DUP2 CALLDATALOAD DUP2 MSTORE PUSH1 0x20 SWAP2 DUP3 ADD SWAP2 ADD PUSH2 0x1FD4 JUMP JUMPDEST DUP2 PUSH1 0x1F DUP3 ADD SLT ISZERO PUSH2 0x31E JUMPI DUP1 CALLDATALOAD SWAP1 PUSH1 0x1 PUSH1 0x1 PUSH1 0x40 SHL SUB DUP3 GT PUSH2 0x135C JUMPI PUSH1 0x40 MLOAD SWAP3 PUSH2 0x2025 PUSH1 0x1F DUP5 ADD PUSH1 0x1F NOT AND PUSH1 0x20 ADD DUP6 PUSH2 0x1F3B JUMP JUMPDEST DUP3 DUP5 MSTORE PUSH1 0x20 DUP4 DUP4 ADD ADD GT PUSH2 0x31E JUMPI DUP2 PUSH1 0x0 SWAP3 PUSH1 0x20 DUP1 SWAP4 ADD DUP4 DUP7 ADD CALLDATACOPY DUP4 ADD ADD MSTORE SWAP1 JUMP JUMPDEST SWAP2 SWAP1 DUP3 MLOAD SWAP3 DUP4 DUP3 MSTORE PUSH1 0x0 JUMPDEST DUP5 DUP2 LT PUSH2 0x2073 JUMPI POP POP DUP3 PUSH1 0x0 PUSH1 0x20 DUP1 SWAP5 SWAP6 DUP5 ADD ADD MSTORE PUSH1 0x1F DUP1 NOT SWAP2 ADD AND ADD ADD SWAP1 JUMP JUMPDEST DUP1 PUSH1 0x20 DUP1 SWAP3 DUP5 ADD ADD MLOAD DUP3 DUP3 DUP7 ADD ADD MSTORE ADD PUSH2 0x2052 JUMP JUMPDEST SWAP1 DUP2 PUSH1 0x20 SWAP2 SUB SLT PUSH2 0x31E JUMPI MLOAD DUP1 ISZERO ISZERO DUP2 SUB PUSH2 0x31E JUMPI SWAP1 JUMP JUMPDEST SWAP2 SWAP1 DUP3 ADD DUP1 SWAP3 GT PUSH2 0x12CE JUMPI JUMP JUMPDEST DUP1 MLOAD DUP3 LT ISZERO PUSH2 0x20C1 JUMPI PUSH1 0x20 SWAP2 PUSH1 0x5 SHL ADD ADD SWAP1 JUMP JUMPDEST PUSH4 0x4E487B71 PUSH1 0xE0 SHL PUSH1 0x0 MSTORE PUSH1 0x32 PUSH1 0x4 MSTORE PUSH1 0x24 PUSH1 0x0 REVERT JUMPDEST PUSH1 0xA SLOAD DUP2 LT ISZERO PUSH2 0x20C1 JUMPI PUSH1 0xA PUSH1 0x0 MSTORE PUSH1 0x18 PUSH1 0x20 PUSH1 0x0 KECCAK256 SWAP2 MUL ADD SWAP1 PUSH1 0x0 SWAP1 JUMP JUMPDEST SWAP1 PUSH1 0x1 DUP3 DUP2 SHR SWAP3 AND DUP1 ISZERO PUSH2 0x2126 JUMPI JUMPDEST PUSH1 0x20 DUP4 LT EQ PUSH2 0x2110 JUMPI JUMP JUMPDEST PUSH4 0x4E487B71 PUSH1 0xE0 SHL PUSH1 0x0 MSTORE PUSH1 0x22 PUSH1 0x4 MSTORE PUSH1 0x24 PUSH1 0x0 REVERT JUMPDEST SWAP2 PUSH1 0x7F AND SWAP2 PUSH2 0x2105 JUMP JUMPDEST PUSH1 0x0 SWAP3 SWAP2 DUP2 SLOAD SWAP2 PUSH2 0x2140 DUP4 PUSH2 0x20F6 JUMP JUMPDEST DUP1 DUP4 MSTORE SWAP3 PUSH1 0x1 DUP2 AND SWAP1 DUP2 ISZERO PUSH2 0x2196 JUMPI POP PUSH1 0x1 EQ PUSH2 0x215C JUMPI POP POP POP JUMP JUMPDEST PUSH1 0x0 SWAP1 DUP2 MSTORE PUSH1 0x20 DUP2 KECCAK256 SWAP4 SWAP5 POP SWAP2 SWAP3 JUMPDEST DUP4 DUP4 LT PUSH2 0x217C JUMPI POP PUSH1 0x20 SWAP3 POP ADD ADD SWAP1 JUMP JUMPDEST PUSH1 0x1 DUP2 PUSH1 0x20 SWAP3 SWAP5 SWAP4 SWAP5 SLOAD DUP4 DUP6 DUP8 ADD ADD MSTORE ADD SWAP2 ADD SWAP2 SWAP1 PUSH2 0x216B JUMP JUMPDEST SWAP2 POP POP PUSH1 0x20 SWAP4 SWAP5 POP PUSH1 0xFF SWAP3 SWAP2 SWAP3 NOT AND DUP4 DUP4 ADD MSTORE ISZERO ISZERO PUSH1 0x5 SHL ADD ADD SWAP1 JUMP JUMPDEST DUP2 DUP2 MUL SWAP3 SWAP2 DUP2 ISZERO SWAP2 DUP5 DIV EQ OR ISZERO PUSH2 0x12CE JUMPI JUMP JUMPDEST DUP2 DUP2 LT PUSH2 0x21D1 JUMPI POP POP JUMP JUMPDEST PUSH1 0x0 DUP2 SSTORE PUSH1 0x1 ADD PUSH2 0x21C6 JUMP JUMPDEST SWAP1 PUSH1 0x1F DUP2 GT PUSH2 0x21EA JUMPI POP POP JUMP JUMPDEST PUSH2 0x2205 SWAP2 PUSH1 0x0 MSTORE PUSH1 0x1F PUSH1 0x20 PUSH1 0x0 KECCAK256 SWAP2 ADD PUSH1 0x5 SHR DUP2 ADD SWAP1 PUSH2 0x21C6 JUMP JUMPDEST JUMP JUMPDEST SWAP2 SWAP1 PUSH1 0x1F DUP2 GT PUSH2 0x2216 JUMPI POP POP POP JUMP JUMPDEST PUSH2 0x2205 SWAP3 PUSH1 0x0 MSTORE PUSH1 0x20 PUSH1 0x0 KECCAK256 SWAP1 PUSH1 0x20 PUSH1 0x1F DUP5 ADD PUSH1 0x5 SHR DUP4 ADD SWAP4 LT PUSH2 0x2242 JUMPI JUMPDEST PUSH1 0x1F ADD PUSH1 0x5 SHR ADD SWAP1 PUSH2 0x21C6 JUMP JUMPDEST SWAP1 SWAP2 POP DUP2 SWAP1 PUSH2 0x2235 JUMP JUMPDEST PUSH1 0x40 MLOAD SWAP1 PUSH2 0x225B PUSH1 0x40 DUP4 PUSH2 0x1F3B JUMP JUMPDEST PUSH1 0xA DUP3 MSTORE PUSH10 0x494E2D50524F43455353 PUSH1 0xB0 SHL PUSH1 0x20 DUP4 ADD MSTORE JUMP JUMPDEST PUSH2 0x2299 PUSH1 0x15 PUSH2 0x2282 DUP4 PUSH2 0x20D7 JUMP JUMPDEST POP ADD SLOAD PUSH1 0x16 PUSH2 0x2290 DUP5 PUSH2 0x20D7 JUMP JUMPDEST POP ADD SLOAD SWAP1 PUSH2 0x20A0 JUMP JUMPDEST PUSH1 0xD SLOAD GT ISZERO SWAP1 PUSH1 0x16 PUSH2 0x22B8 PUSH1 0x15 PUSH2 0x22AF DUP5 PUSH2 0x20D7 JUMP JUMPDEST POP ADD SLOAD SWAP3 PUSH2 0x20D7 JUMP JUMPDEST POP ADD SLOAD LT DUP2 PUSH2 0x22C5 JUMPI POP SWAP1 JUMP JUMPDEST SWAP1 POP SWAP1 JUMP JUMPDEST PUSH1 0x0 NOT DUP2 EQ PUSH2 0x12CE JUMPI PUSH1 0x1 ADD SWAP1 JUMP JUMPDEST CALLER PUSH1 0x0 SWAP1 DUP2 MSTORE PUSH32 0xAD3228B676F7D3CD4284A5443F17F1962B36E491B30A40B2405849E597BA5FB5 PUSH1 0x20 MSTORE PUSH1 0x40 SWAP1 KECCAK256 SLOAD PUSH1 0xFF AND ISZERO PUSH2 0x2312 JUMPI JUMP JUMPDEST PUSH4 0xE2517D3F PUSH1 0xE0 SHL PUSH1 0x0 MSTORE CALLER PUSH1 0x4 MSTORE PUSH1 0x0 PUSH1 0x24 MSTORE PUSH1 0x44 PUSH1 0x0 REVERT JUMPDEST CALLER PUSH1 0x0 SWAP1 DUP2 MSTORE PUSH32 0xDAE2AA361DFD1CA020A396615627D436107C35EFF9FE7738A3512819782D7069 PUSH1 0x20 MSTORE PUSH1 0x40 SWAP1 KECCAK256 SLOAD PUSH1 0xFF AND ISZERO PUSH2 0x2365 JUMPI JUMP JUMPDEST PUSH4 0xE2517D3F PUSH1 0xE0 SHL PUSH1 0x0 MSTORE CALLER PUSH1 0x4 MSTORE PUSH32 0xD8AA0F3194971A2A116679F7C2090F6939C8D4E01A2A8D7E41D55E5351469E63 PUSH1 0x24 MSTORE PUSH1 0x44 PUSH1 0x0 REVERT JUMPDEST PUSH1 0x0 DUP2 DUP2 MSTORE PUSH1 0x20 DUP2 DUP2 MSTORE PUSH1 0x40 DUP1 DUP4 KECCAK256 CALLER DUP5 MSTORE SWAP1 SWAP2 MSTORE SWAP1 KECCAK256 SLOAD PUSH1 0xFF AND ISZERO PUSH2 0x23C1 JUMPI POP JUMP JUMPDEST PUSH4 0xE2517D3F PUSH1 0xE0 SHL PUSH1 0x0 MSTORE CALLER PUSH1 0x4 MSTORE PUSH1 0x24 MSTORE PUSH1 0x44 PUSH1 0x0 REVERT JUMPDEST PUSH1 0x0 DUP2 DUP2 MSTORE PUSH1 0x20 DUP2 DUP2 MSTORE PUSH1 0x40 DUP1 DUP4 KECCAK256 PUSH1 0x1 PUSH1 0x1 PUSH1 0xA0 SHL SUB DUP7 AND DUP5 MSTORE SWAP1 SWAP2 MSTORE SWAP1 KECCAK256 SLOAD PUSH1 0xFF AND PUSH2 0x245D JUMPI PUSH1 0x0 DUP2 DUP2 MSTORE PUSH1 0x20 DUP2 DUP2 MSTORE PUSH1 0x40 DUP1 DUP4 KECCAK256 PUSH1 0x1 PUSH1 0x1 PUSH1 0xA0 SHL SUB SWAP6 SWAP1 SWAP6 AND DUP1 DUP5 MSTORE SWAP5 SWAP1 SWAP2 MSTORE DUP2 KECCAK256 DUP1 SLOAD PUSH1 0xFF NOT AND PUSH1 0x1 OR SWAP1 SSTORE CALLER SWAP3 SWAP2 SWAP1 PUSH32 0x2F8788117E7EFF1D82E926EC794901D17C78024A50270940304540A733656F0D SWAP1 DUP1 LOG4 PUSH1 0x1 SWAP1 JUMP JUMPDEST POP POP PUSH1 0x0 SWAP1 JUMP JUMPDEST PUSH1 0x0 DUP2 DUP2 MSTORE PUSH1 0x20 DUP2 DUP2 MSTORE PUSH1 0x40 DUP1 DUP4 KECCAK256 PUSH1 0x1 PUSH1 0x1 PUSH1 0xA0 SHL SUB DUP7 AND DUP5 MSTORE SWAP1 SWAP2 MSTORE SWAP1 KECCAK256 SLOAD PUSH1 0xFF AND ISZERO PUSH2 0x245D JUMPI PUSH1 0x0 DUP2 DUP2 MSTORE PUSH1 0x20 DUP2 DUP2 MSTORE PUSH1 0x40 DUP1 DUP4 KECCAK256 PUSH1 0x1 PUSH1 0x1 PUSH1 0xA0 SHL SUB SWAP6 SWAP1 SWAP6 AND DUP1 DUP5 MSTORE SWAP5 SWAP1 SWAP2 MSTORE DUP2 KECCAK256 DUP1 SLOAD PUSH1 0xFF NOT AND SWAP1 SSTORE CALLER SWAP3 SWAP2 SWAP1 PUSH32 0xF6391F5C32D9C69D2A47EA670B442974B53935D1EDC7FD64EB21E047A839171B SWAP1 DUP1 LOG4 PUSH1 0x1 SWAP1 JUMP INVALID PUSH1 0x80 PUSH1 0x40 MSTORE CALLVALUE PUSH2 0x424 JUMPI PUSH2 0xCB1 DUP1 CODESIZE SUB DUP1 PUSH2 0x19 DUP2 PUSH2 0x429 JUMP JUMPDEST SWAP3 DUP4 CODECOPY DUP2 ADD SWAP1 PUSH1 0x80 DUP2 DUP4 SUB SLT PUSH2 0x424 JUMPI DUP1 MLOAD PUSH1 0x1 PUSH1 0x1 PUSH1 0xA0 SHL SUB DUP2 AND SWAP2 SWAP1 DUP3 DUP2 SUB PUSH2 0x424 JUMPI PUSH1 0x20 DUP3 ADD MLOAD PUSH1 0x40 DUP4 ADD MLOAD SWAP1 SWAP3 SWAP1 PUSH1 0x1 PUSH1 0x1 PUSH1 0x40 SHL SUB DUP2 GT PUSH2 0x424 JUMPI DUP6 PUSH2 0x65 SWAP2 DUP4 ADD PUSH2 0x44E JUMP JUMPDEST PUSH1 0x60 DUP3 ADD MLOAD SWAP1 SWAP6 SWAP1 PUSH1 0x1 PUSH1 0x1 PUSH1 0x40 SHL SUB DUP2 GT PUSH2 0x424 JUMPI PUSH2 0x85 SWAP3 ADD PUSH2 0x44E JUMP JUMPDEST DUP5 MLOAD SWAP1 SWAP5 PUSH1 0x1 PUSH1 0x1 PUSH1 0x40 SHL SUB DUP3 GT PUSH2 0x321 JUMPI PUSH1 0x3 SLOAD SWAP1 PUSH1 0x1 DUP3 DUP2 SHR SWAP3 AND DUP1 ISZERO PUSH2 0x41A JUMPI JUMPDEST PUSH1 0x20 DUP4 LT EQ PUSH2 0x301 JUMPI DUP2 PUSH1 0x1F DUP5 SWAP4 GT PUSH2 0x3AA JUMPI JUMPDEST POP PUSH1 0x20 SWAP1 PUSH1 0x1F DUP4 GT PUSH1 0x1 EQ PUSH2 0x342 JUMPI PUSH1 0x0 SWAP3 PUSH2 0x337 JUMPI JUMPDEST POP POP DUP2 PUSH1 0x1 SHL SWAP2 PUSH1 0x0 NOT SWAP1 PUSH1 0x3 SHL SHR NOT AND OR PUSH1 0x3 SSTORE JUMPDEST DUP4 MLOAD PUSH1 0x1 PUSH1 0x1 PUSH1 0x40 SHL SUB DUP2 GT PUSH2 0x321 JUMPI PUSH1 0x4 SLOAD PUSH1 0x1 DUP2 DUP2 SHR SWAP2 AND DUP1 ISZERO PUSH2 0x317 JUMPI JUMPDEST PUSH1 0x20 DUP3 LT EQ PUSH2 0x301 JUMPI PUSH1 0x1F DUP2 GT PUSH2 0x29C JUMPI JUMPDEST POP PUSH1 0x20 SWAP5 PUSH1 0x1F DUP3 GT PUSH1 0x1 EQ PUSH2 0x235 JUMPI SWAP5 DUP2 SWAP3 SWAP4 SWAP5 SWAP6 PUSH1 0x0 SWAP3 PUSH2 0x22A JUMPI JUMPDEST POP POP DUP2 PUSH1 0x1 SHL SWAP2 PUSH1 0x0 NOT SWAP1 PUSH1 0x3 SHL SHR NOT AND OR PUSH1 0x4 SSTORE JUMPDEST DUP3 ISZERO PUSH2 0x214 JUMPI DUP1 PUSH2 0x163 PUSH2 0x168 SWAP3 PUSH2 0x4B9 JUMP JUMPDEST PUSH2 0x4B9 JUMP JUMPDEST PUSH8 0xDE0B6B3A7640000 DUP2 MUL SWAP1 DUP1 DUP3 DIV PUSH8 0xDE0B6B3A7640000 EQ SWAP1 ISZERO OR ISZERO PUSH2 0x1FE JUMPI PUSH1 0x0 PUSH1 0x2 SLOAD DUP3 DUP2 ADD DUP1 SWAP2 GT PUSH2 0x1EA JUMPI PUSH1 0x0 SWAP3 PUSH32 0xDDF252AD1BE2C89B69C2B068FC378DAA952BA7F163C4A11628F55A4DF523B3EF SWAP3 PUSH1 0x20 SWAP3 PUSH1 0x2 SSTORE POP DUP5 DUP5 MSTORE DUP4 DUP3 MSTORE PUSH1 0x40 DUP5 KECCAK256 DUP2 DUP2 SLOAD ADD SWAP1 SSTORE PUSH1 0x40 MLOAD SWAP1 DUP2 MSTORE LOG3 PUSH1 0x40 MLOAD PUSH2 0x7AE SWAP1 DUP2 PUSH2 0x503 DUP3 CODECOPY RETURN JUMPDEST PUSH4 0x4E487B71 PUSH1 0xE0 SHL DUP3 MSTORE PUSH1 0x11 PUSH1 0x4 MSTORE PUSH1 0x24 DUP3 REVERT JUMPDEST PUSH4 0x4E487B71 PUSH1 0xE0 SHL PUSH1 0x0 MSTORE PUSH1 0x11 PUSH1 0x4 MSTORE PUSH1 0x24 PUSH1 0x0 REVERT JUMPDEST PUSH4 0x1E4FBDF7 PUSH1 0xE0 SHL PUSH1 0x0 MSTORE PUSH1 0x0 PUSH1 0x4 MSTORE PUSH1 0x24 PUSH1 0x0 REVERT JUMPDEST ADD MLOAD SWAP1 POP CODESIZE DUP1 PUSH2 0x13A JUMP JUMPDEST PUSH1 0x1F NOT DUP3 AND SWAP6 PUSH1 0x4 PUSH1 0x0 MSTORE DUP1 PUSH1 0x0 KECCAK256 SWAP2 PUSH1 0x0 JUMPDEST DUP9 DUP2 LT PUSH2 0x284 JUMPI POP DUP4 PUSH1 0x1 SWAP6 SWAP7 SWAP8 SWAP9 LT PUSH2 0x26B JUMPI JUMPDEST POP POP POP DUP2 SHL ADD PUSH1 0x4 SSTORE PUSH2 0x150 JUMP JUMPDEST ADD MLOAD PUSH1 0x0 NOT PUSH1 0xF8 DUP5 PUSH1 0x3 SHL AND SHR NOT AND SWAP1 SSTORE CODESIZE DUP1 DUP1 PUSH2 0x25D JUMP JUMPDEST SWAP2 SWAP3 PUSH1 0x20 PUSH1 0x1 DUP2 SWAP3 DUP7 DUP6 ADD MLOAD DUP2 SSTORE ADD SWAP5 ADD SWAP3 ADD PUSH2 0x248 JUMP JUMPDEST PUSH1 0x4 PUSH1 0x0 MSTORE PUSH32 0x8A35ACFBC15FF81A39AE7D344FD709F28E8600B4AA8C65C6B64BFE7FE36BD19B PUSH1 0x1F DUP4 ADD PUSH1 0x5 SHR DUP2 ADD SWAP2 PUSH1 0x20 DUP5 LT PUSH2 0x2F7 JUMPI JUMPDEST PUSH1 0x1F ADD PUSH1 0x5 SHR ADD SWAP1 JUMPDEST DUP2 DUP2 LT PUSH2 0x2EB JUMPI POP PUSH2 0x11D JUMP JUMPDEST PUSH1 0x0 DUP2 SSTORE PUSH1 0x1 ADD PUSH2 0x2DE JUMP JUMPDEST SWAP1 SWAP2 POP DUP2 SWAP1 PUSH2 0x2D5 JUMP JUMPDEST PUSH4 0x4E487B71 PUSH1 0xE0 SHL PUSH1 0x0 MSTORE PUSH1 0x22 PUSH1 0x4 MSTORE PUSH1 0x24 PUSH1 0x0 REVERT JUMPDEST SWAP1 PUSH1 0x7F AND SWAP1 PUSH2 0x10B JUMP JUMPDEST PUSH4 0x4E487B71 PUSH1 0xE0 SHL PUSH1 0x0 MSTORE PUSH1 0x41 PUSH1 0x4 MSTORE PUSH1 0x24 PUSH1 0x0 REVERT JUMPDEST ADD MLOAD SWAP1 POP CODESIZE DUP1 PUSH2 0xD4 JUMP JUMPDEST PUSH1 0x3 PUSH1 0x0 SWAP1 DUP2 MSTORE DUP3 DUP2 KECCAK256 SWAP4 POP PUSH1 0x1F NOT DUP6 AND SWAP1 JUMPDEST DUP2 DUP2 LT PUSH2 0x392 JUMPI POP SWAP1 DUP5 PUSH1 0x1 SWAP6 SWAP5 SWAP4 SWAP3 LT PUSH2 0x379 JUMPI JUMPDEST POP POP POP DUP2 SHL ADD PUSH1 0x3 SSTORE PUSH2 0xEA JUMP JUMPDEST ADD MLOAD PUSH1 0x0 NOT PUSH1 0xF8 DUP5 PUSH1 0x3 SHL AND SHR NOT AND SWAP1 SSTORE CODESIZE DUP1 DUP1 PUSH2 0x36B JUMP JUMPDEST SWAP3 SWAP4 PUSH1 0x20 PUSH1 0x1 DUP2 SWAP3 DUP8 DUP7 ADD MLOAD DUP2 SSTORE ADD SWAP6 ADD SWAP4 ADD PUSH2 0x355 JUMP JUMPDEST PUSH1 0x3 PUSH1 0x0 MSTORE SWAP1 SWAP2 POP PUSH32 0xC2575A0E9E593C00F959F8C92F12DB2869C3395A3B0502D05E2516446F71F85B PUSH1 0x1F DUP5 ADD PUSH1 0x5 SHR DUP2 ADD SWAP2 PUSH1 0x20 DUP6 LT PUSH2 0x410 JUMPI JUMPDEST SWAP1 PUSH1 0x1F DUP6 SWAP5 SWAP4 SWAP3 ADD PUSH1 0x5 SHR ADD SWAP1 JUMPDEST DUP2 DUP2 LT PUSH2 0x401 JUMPI POP PUSH2 0xBD JUMP JUMPDEST PUSH1 0x0 DUP2 SSTORE DUP5 SWAP4 POP PUSH1 0x1 ADD PUSH2 0x3F4 JUMP JUMPDEST SWAP1 SWAP2 POP DUP2 SWAP1 PUSH2 0x3E6 JUMP JUMPDEST SWAP2 PUSH1 0x7F AND SWAP2 PUSH2 0xA9 JUMP JUMPDEST PUSH1 0x0 DUP1 REVERT JUMPDEST PUSH1 0x40 MLOAD SWAP2 SWAP1 PUSH1 0x1F ADD PUSH1 0x1F NOT AND DUP3 ADD PUSH1 0x1 PUSH1 0x1 PUSH1 0x40 SHL SUB DUP2 GT DUP4 DUP3 LT OR PUSH2 0x321 JUMPI PUSH1 0x40 MSTORE JUMP JUMPDEST DUP2 PUSH1 0x1F DUP3 ADD SLT ISZERO PUSH2 0x424 JUMPI DUP1 MLOAD SWAP1 PUSH1 0x1 PUSH1 0x1 PUSH1 0x40 SHL SUB DUP3 GT PUSH2 0x321 JUMPI PUSH2 0x47D PUSH1 0x1F DUP4 ADD PUSH1 0x1F NOT AND PUSH1 0x20 ADD PUSH2 0x429 JUMP JUMPDEST SWAP3 DUP3 DUP5 MSTORE PUSH1 0x20 DUP4 DUP4 ADD ADD GT PUSH2 0x424 JUMPI PUSH1 0x0 JUMPDEST DUP3 DUP2 LT PUSH2 0x4A4 JUMPI POP POP PUSH1 0x20 PUSH1 0x0 SWAP2 DUP4 ADD ADD MSTORE SWAP1 JUMP JUMPDEST DUP1 PUSH1 0x20 DUP1 SWAP3 DUP5 ADD ADD MLOAD DUP3 DUP3 DUP8 ADD ADD MSTORE ADD PUSH2 0x48F JUMP JUMPDEST PUSH1 0x5 DUP1 SLOAD PUSH1 0x1 PUSH1 0x1 PUSH1 0xA0 SHL SUB SWAP3 DUP4 AND PUSH1 0x1 PUSH1 0x1 PUSH1 0xA0 SHL SUB NOT DUP3 AND DUP2 OR SWAP1 SWAP3 SSTORE SWAP1 SWAP2 AND PUSH32 0x8BE0079C531659141344CD1FD0A4F28419497F9722A3DAAFE3B4186F6B6457E0 PUSH1 0x0 DUP1 LOG3 JUMP INVALID PUSH1 0x80 DUP1 PUSH1 0x40 MSTORE PUSH1 0x4 CALLDATASIZE LT ISZERO PUSH2 0x13 JUMPI PUSH1 0x0 DUP1 REVERT JUMPDEST PUSH1 0x0 CALLDATALOAD PUSH1 0xE0 SHR SWAP1 DUP2 PUSH4 0x6FDDE03 EQ PUSH2 0x542 JUMPI POP DUP1 PUSH4 0x95EA7B3 EQ PUSH2 0x4BC JUMPI DUP1 PUSH4 0x18160DDD EQ PUSH2 0x49E JUMPI DUP1 PUSH4 0x23B872DD EQ PUSH2 0x3B1 JUMPI DUP1 PUSH4 0x313CE567 EQ PUSH2 0x395 JUMPI DUP1 PUSH4 0x70A08231 EQ PUSH2 0x35B JUMPI DUP1 PUSH4 0x715018A6 EQ PUSH2 0x2FE JUMPI DUP1 PUSH4 0x8DA5CB5B EQ PUSH2 0x2D5 JUMPI DUP1 PUSH4 0x95D89B41 EQ PUSH2 0x1B4 JUMPI DUP1 PUSH4 0xA9059CBB EQ PUSH2 0x183 JUMPI DUP1 PUSH4 0xDD62ED3E EQ PUSH2 0x132 JUMPI PUSH4 0xF2FDE38B EQ PUSH2 0xA3 JUMPI PUSH1 0x0 DUP1 REVERT JUMPDEST CALLVALUE PUSH2 0x12D JUMPI PUSH1 0x20 CALLDATASIZE PUSH1 0x3 NOT ADD SLT PUSH2 0x12D JUMPI PUSH2 0xBC PUSH2 0x65E JUMP JUMPDEST PUSH2 0xC4 PUSH2 0x74F JUMP JUMPDEST PUSH1 0x1 PUSH1 0x1 PUSH1 0xA0 SHL SUB AND DUP1 ISZERO PUSH2 0x117 JUMPI PUSH1 0x5 DUP1 SLOAD PUSH1 0x1 PUSH1 0x1 PUSH1 0xA0 SHL SUB NOT DUP2 AND DUP4 OR SWAP1 SWAP2 SSTORE PUSH1 0x1 PUSH1 0x1 PUSH1 0xA0 SHL SUB AND PUSH32 0x8BE0079C531659141344CD1FD0A4F28419497F9722A3DAAFE3B4186F6B6457E0 PUSH1 0x0 DUP1 LOG3 STOP JUMPDEST PUSH4 0x1E4FBDF7 PUSH1 0xE0 SHL PUSH1 0x0 MSTORE PUSH1 0x0 PUSH1 0x4 MSTORE PUSH1 0x24 PUSH1 0x0 REVERT JUMPDEST PUSH1 0x0 DUP1 REVERT JUMPDEST CALLVALUE PUSH2 0x12D JUMPI PUSH1 0x40 CALLDATASIZE PUSH1 0x3 NOT ADD SLT PUSH2 0x12D JUMPI PUSH2 0x14B PUSH2 0x65E JUMP JUMPDEST PUSH2 0x153 PUSH2 0x674 JUMP JUMPDEST PUSH1 0x1 PUSH1 0x1 PUSH1 0xA0 SHL SUB SWAP2 DUP3 AND PUSH1 0x0 SWAP1 DUP2 MSTORE PUSH1 0x1 PUSH1 0x20 SWAP1 DUP2 MSTORE PUSH1 0x40 DUP1 DUP4 KECCAK256 SWAP5 SWAP1 SWAP4 AND DUP3 MSTORE SWAP3 DUP4 MSTORE DUP2 SWAP1 KECCAK256 SLOAD SWAP1 MLOAD SWAP1 DUP2 MSTORE RETURN JUMPDEST CALLVALUE PUSH2 0x12D JUMPI PUSH1 0x40 CALLDATASIZE PUSH1 0x3 NOT ADD SLT PUSH2 0x12D JUMPI PUSH2 0x1A9 PUSH2 0x19F PUSH2 0x65E JUMP JUMPDEST PUSH1 0x24 CALLDATALOAD SWAP1 CALLER PUSH2 0x68A JUMP JUMPDEST PUSH1 0x20 PUSH1 0x40 MLOAD PUSH1 0x1 DUP2 MSTORE RETURN JUMPDEST CALLVALUE PUSH2 0x12D JUMPI PUSH1 0x0 CALLDATASIZE PUSH1 0x3 NOT ADD SLT PUSH2 0x12D JUMPI PUSH1 0x40 MLOAD PUSH1 0x0 PUSH1 0x4 SLOAD DUP1 PUSH1 0x1 SHR SWAP1 PUSH1 0x1 DUP2 AND DUP1 ISZERO PUSH2 0x2CB JUMPI JUMPDEST PUSH1 0x20 DUP4 LT DUP2 EQ PUSH2 0x2B7 JUMPI DUP3 DUP6 MSTORE SWAP1 DUP2 ISZERO PUSH2 0x29B JUMPI POP PUSH1 0x1 EQ PUSH2 0x244 JUMPI JUMPDEST POP DUP2 SWAP1 SUB PUSH1 0x1F ADD PUSH1 0x1F NOT AND DUP2 ADD SWAP1 PUSH8 0xFFFFFFFFFFFFFFFF DUP3 GT DUP2 DUP4 LT OR PUSH2 0x22E JUMPI PUSH2 0x22A DUP3 SWAP2 DUP3 PUSH1 0x40 MSTORE DUP3 PUSH2 0x615 JUMP JUMPDEST SUB SWAP1 RETURN JUMPDEST PUSH4 0x4E487B71 PUSH1 0xE0 SHL PUSH1 0x0 MSTORE PUSH1 0x41 PUSH1 0x4 MSTORE PUSH1 0x24 PUSH1 0x0 REVERT JUMPDEST SWAP1 POP PUSH1 0x4 PUSH1 0x0 MSTORE PUSH32 0x8A35ACFBC15FF81A39AE7D344FD709F28E8600B4AA8C65C6B64BFE7FE36BD19B PUSH1 0x0 SWAP1 JUMPDEST DUP3 DUP3 LT PUSH2 0x285 JUMPI POP PUSH1 0x20 SWAP2 POP DUP3 ADD ADD DUP3 PUSH2 0x1FA JUMP JUMPDEST PUSH1 0x1 DUP2 PUSH1 0x20 SWAP3 SLOAD DUP4 DUP6 DUP9 ADD ADD MSTORE ADD SWAP2 ADD SWAP1 PUSH2 0x270 JUMP JUMPDEST SWAP1 POP PUSH1 0x20 SWAP3 POP PUSH1 0xFF NOT AND DUP3 DUP5 ADD MSTORE ISZERO ISZERO PUSH1 0x5 SHL DUP3 ADD ADD DUP3 PUSH2 0x1FA JUMP JUMPDEST PUSH4 0x4E487B71 PUSH1 0xE0 SHL DUP5 MSTORE PUSH1 0x22 PUSH1 0x4 MSTORE PUSH1 0x24 DUP5 REVERT JUMPDEST SWAP2 PUSH1 0x7F AND SWAP2 PUSH2 0x1DD JUMP JUMPDEST CALLVALUE PUSH2 0x12D JUMPI PUSH1 0x0 CALLDATASIZE PUSH1 0x3 NOT ADD SLT PUSH2 0x12D JUMPI PUSH1 0x5 SLOAD PUSH1 0x40 MLOAD PUSH1 0x1 PUSH1 0x1 PUSH1 0xA0 SHL SUB SWAP1 SWAP2 AND DUP2 MSTORE PUSH1 0x20 SWAP1 RETURN JUMPDEST CALLVALUE PUSH2 0x12D JUMPI PUSH1 0x0 CALLDATASIZE PUSH1 0x3 NOT ADD SLT PUSH2 0x12D JUMPI PUSH2 0x317 PUSH2 0x74F JUMP JUMPDEST PUSH1 0x5 DUP1 SLOAD PUSH1 0x1 PUSH1 0x1 PUSH1 0xA0 SHL SUB NOT DUP2 AND SWAP1 SWAP2 SSTORE PUSH1 0x0 SWAP1 PUSH1 0x1 PUSH1 0x1 PUSH1 0xA0 SHL SUB AND PUSH32 0x8BE0079C531659141344CD1FD0A4F28419497F9722A3DAAFE3B4186F6B6457E0 DUP3 DUP1 LOG3 STOP JUMPDEST CALLVALUE PUSH2 0x12D JUMPI PUSH1 0x20 CALLDATASIZE PUSH1 0x3 NOT ADD SLT PUSH2 0x12D JUMPI PUSH1 0x1 PUSH1 0x1 PUSH1 0xA0 SHL SUB PUSH2 0x37C PUSH2 0x65E JUMP JUMPDEST AND PUSH1 0x0 MSTORE PUSH1 0x0 PUSH1 0x20 MSTORE PUSH1 0x20 PUSH1 0x40 PUSH1 0x0 KECCAK256 SLOAD PUSH1 0x40 MLOAD SWAP1 DUP2 MSTORE RETURN JUMPDEST CALLVALUE PUSH2 0x12D JUMPI PUSH1 0x0 CALLDATASIZE PUSH1 0x3 NOT ADD SLT PUSH2 0x12D JUMPI PUSH1 0x20 PUSH1 0x40 MLOAD PUSH1 0x12 DUP2 MSTORE RETURN JUMPDEST CALLVALUE PUSH2 0x12D JUMPI PUSH1 0x60 CALLDATASIZE PUSH1 0x3 NOT ADD SLT PUSH2 0x12D JUMPI PUSH2 0x3CA PUSH2 0x65E JUMP JUMPDEST PUSH2 0x3D2 PUSH2 0x674 JUMP JUMPDEST PUSH1 0x1 PUSH1 0x1 PUSH1 0xA0 SHL SUB DUP3 AND PUSH1 0x0 DUP2 DUP2 MSTORE PUSH1 0x1 PUSH1 0x20 DUP2 DUP2 MSTORE PUSH1 0x40 DUP1 DUP5 KECCAK256 CALLER DUP6 MSTORE SWAP1 SWAP2 MSTORE SWAP1 SWAP2 KECCAK256 SLOAD SWAP2 SWAP4 PUSH1 0x44 CALLDATALOAD SWAP4 SWAP3 SWAP1 SWAP2 DUP2 ADD PUSH2 0x412 JUMPI JUMPDEST POP PUSH2 0x1A9 SWAP4 POP PUSH2 0x68A JUMP JUMPDEST DUP4 DUP2 LT PUSH2 0x481 JUMPI DUP5 ISZERO PUSH2 0x46B JUMPI CALLER ISZERO PUSH2 0x455 JUMPI PUSH2 0x1A9 SWAP5 PUSH1 0x0 MSTORE PUSH1 0x1 PUSH1 0x20 MSTORE PUSH1 0x40 PUSH1 0x0 KECCAK256 PUSH1 0x1 DUP1 PUSH1 0xA0 SHL SUB CALLER AND PUSH1 0x0 MSTORE PUSH1 0x20 MSTORE DUP4 PUSH1 0x40 PUSH1 0x0 KECCAK256 SWAP2 SUB SWAP1 SSTORE DUP5 PUSH2 0x407 JUMP JUMPDEST PUSH4 0x4A1406B1 PUSH1 0xE1 SHL PUSH1 0x0 MSTORE PUSH1 0x0 PUSH1 0x4 MSTORE PUSH1 0x24 PUSH1 0x0 REVERT JUMPDEST PUSH4 0xE602DF05 PUSH1 0xE0 SHL PUSH1 0x0 MSTORE PUSH1 0x0 PUSH1 0x4 MSTORE PUSH1 0x24 PUSH1 0x0 REVERT JUMPDEST DUP4 SWAP1 PUSH4 0x7DC7A0D9 PUSH1 0xE1 SHL PUSH1 0x0 MSTORE CALLER PUSH1 0x4 MSTORE PUSH1 0x24 MSTORE PUSH1 0x44 MSTORE PUSH1 0x64 PUSH1 0x0 REVERT JUMPDEST CALLVALUE PUSH2 0x12D JUMPI PUSH1 0x0 CALLDATASIZE PUSH1 0x3 NOT ADD SLT PUSH2 0x12D JUMPI PUSH1 0x20 PUSH1 0x2 SLOAD PUSH1 0x40 MLOAD SWAP1 DUP2 MSTORE RETURN JUMPDEST CALLVALUE PUSH2 0x12D JUMPI PUSH1 0x40 CALLDATASIZE PUSH1 0x3 NOT ADD SLT PUSH2 0x12D JUMPI PUSH2 0x4D5 PUSH2 0x65E JUMP JUMPDEST PUSH1 0x24 CALLDATALOAD SWAP1 CALLER ISZERO PUSH2 0x46B JUMPI PUSH1 0x1 PUSH1 0x1 PUSH1 0xA0 SHL SUB AND SWAP1 DUP2 ISZERO PUSH2 0x455 JUMPI CALLER PUSH1 0x0 MSTORE PUSH1 0x1 PUSH1 0x20 MSTORE PUSH1 0x40 PUSH1 0x0 KECCAK256 DUP3 PUSH1 0x0 MSTORE PUSH1 0x20 MSTORE DUP1 PUSH1 0x40 PUSH1 0x0 KECCAK256 SSTORE PUSH1 0x40 MLOAD SWAP1 DUP2 MSTORE PUSH32 0x8C5BE1E5EBEC7D5BD14F71427D1E84F3DD0314C0F7B2291E5B200AC8C7C3B925 PUSH1 0x20 CALLER SWAP3 LOG3 PUSH1 0x20 PUSH1 0x40 MLOAD PUSH1 0x1 DUP2 MSTORE RETURN JUMPDEST CALLVALUE PUSH2 0x12D JUMPI PUSH1 0x0 CALLDATASIZE PUSH1 0x3 NOT ADD SLT PUSH2 0x12D JUMPI PUSH1 0x0 PUSH1 0x3 SLOAD DUP1 PUSH1 0x1 SHR SWAP1 PUSH1 0x1 DUP2 AND DUP1 ISZERO PUSH2 0x60B JUMPI JUMPDEST PUSH1 0x20 DUP4 LT DUP2 EQ PUSH2 0x2B7 JUMPI DUP3 DUP6 MSTORE SWAP1 DUP2 ISZERO PUSH2 0x29B JUMPI POP PUSH1 0x1 EQ PUSH2 0x5B4 JUMPI POP DUP2 SWAP1 SUB PUSH1 0x1F ADD PUSH1 0x1F NOT AND DUP2 ADD SWAP1 PUSH8 0xFFFFFFFFFFFFFFFF DUP3 GT DUP2 DUP4 LT OR PUSH2 0x22E JUMPI PUSH2 0x22A DUP3 SWAP2 DUP3 PUSH1 0x40 MSTORE DUP3 PUSH2 0x615 JUMP JUMPDEST SWAP1 POP PUSH1 0x3 PUSH1 0x0 MSTORE PUSH32 0xC2575A0E9E593C00F959F8C92F12DB2869C3395A3B0502D05E2516446F71F85B PUSH1 0x0 SWAP1 JUMPDEST DUP3 DUP3 LT PUSH2 0x5F5 JUMPI POP PUSH1 0x20 SWAP2 POP DUP3 ADD ADD DUP3 PUSH2 0x1FA JUMP JUMPDEST PUSH1 0x1 DUP2 PUSH1 0x20 SWAP3 SLOAD DUP4 DUP6 DUP9 ADD ADD MSTORE ADD SWAP2 ADD SWAP1 PUSH2 0x5E0 JUMP JUMPDEST SWAP2 PUSH1 0x7F AND SWAP2 PUSH2 0x568 JUMP JUMPDEST SWAP2 SWAP1 SWAP2 PUSH1 0x20 DUP2 MSTORE DUP3 MLOAD DUP1 PUSH1 0x20 DUP4 ADD MSTORE PUSH1 0x0 JUMPDEST DUP2 DUP2 LT PUSH2 0x648 JUMPI POP PUSH1 0x40 SWAP3 SWAP4 POP PUSH1 0x0 DUP4 DUP3 DUP5 ADD ADD MSTORE PUSH1 0x1F DUP1 NOT SWAP2 ADD AND ADD ADD SWAP1 JUMP JUMPDEST DUP1 PUSH1 0x20 DUP1 SWAP3 DUP8 ADD ADD MLOAD PUSH1 0x40 DUP3 DUP7 ADD ADD MSTORE ADD PUSH2 0x627 JUMP JUMPDEST PUSH1 0x4 CALLDATALOAD SWAP1 PUSH1 0x1 PUSH1 0x1 PUSH1 0xA0 SHL SUB DUP3 AND DUP3 SUB PUSH2 0x12D JUMPI JUMP JUMPDEST PUSH1 0x24 CALLDATALOAD SWAP1 PUSH1 0x1 PUSH1 0x1 PUSH1 0xA0 SHL SUB DUP3 AND DUP3 SUB PUSH2 0x12D JUMPI JUMP JUMPDEST PUSH1 0x1 PUSH1 0x1 PUSH1 0xA0 SHL SUB AND SWAP1 DUP2 ISZERO PUSH2 0x739 JUMPI PUSH1 0x1 PUSH1 0x1 PUSH1 0xA0 SHL SUB AND SWAP2 DUP3 ISZERO PUSH2 0x723 JUMPI PUSH1 0x0 DUP3 DUP2 MSTORE DUP1 PUSH1 0x20 MSTORE PUSH1 0x40 DUP2 KECCAK256 SLOAD DUP3 DUP2 LT PUSH2 0x709 JUMPI SWAP2 PUSH1 0x40 DUP3 DUP3 PUSH32 0xDDF252AD1BE2C89B69C2B068FC378DAA952BA7F163C4A11628F55A4DF523B3EF SWAP6 DUP8 PUSH1 0x20 SWAP7 MSTORE DUP3 DUP7 MSTORE SUB DUP3 DUP3 KECCAK256 SSTORE DUP7 DUP2 MSTORE DUP1 DUP5 MSTORE KECCAK256 DUP2 DUP2 SLOAD ADD SWAP1 SSTORE PUSH1 0x40 MLOAD SWAP1 DUP2 MSTORE LOG3 JUMP JUMPDEST SWAP2 PUSH1 0x64 SWAP3 DUP5 PUSH4 0x391434E3 PUSH1 0xE2 SHL DUP5 MSTORE PUSH1 0x4 MSTORE PUSH1 0x24 MSTORE PUSH1 0x44 MSTORE REVERT JUMPDEST PUSH4 0xEC442F05 PUSH1 0xE0 SHL PUSH1 0x0 MSTORE PUSH1 0x0 PUSH1 0x4 MSTORE PUSH1 0x24 PUSH1 0x0 REVERT JUMPDEST PUSH4 0x4B637E8F PUSH1 0xE1 SHL PUSH1 0x0 MSTORE PUSH1 0x0 PUSH1 0x4 MSTORE PUSH1 0x24 PUSH1 0x0 REVERT JUMPDEST PUSH1 0x5 SLOAD PUSH1 0x1 PUSH1 0x1 PUSH1 0xA0 SHL SUB AND CALLER SUB PUSH2 0x763 JUMPI JUMP JUMPDEST PUSH4 0x118CDAA7 PUSH1 0xE0 SHL PUSH1 0x0 MSTORE CALLER PUSH1 0x4 MSTORE PUSH1 0x24 PUSH1 0x0 REVERT INVALID LOG2 PUSH5 0x6970667358 0x22 SLT KECCAK256 DELEGATECALL 0xE3 ISZERO BASEFEE OR 0xBC PUSH4 0x15E7CBDA 0xB2 PUSH10 0x1B908AADE2DCE29EBC78 0xE MOD MOD 0xB7 PUSH23 0x6A8ABBC364736F6C634300081B0033A264697066735822 SLT KECCAK256 SWAP4 0xB9 CALLDATACOPY PUSH32 0xE5CD2720A715E4E56E817F0A530F080467FEF9967F54ED84E53F122464736F6C PUSH4 0x4300081B STOP CALLER 0x2F DUP8 DUP9 GT PUSH31 0x7EFF1D82E926EC794901D17C78024A50270940304540A733656F0DDAE2AA36 SAR REVERT SHR LOG0 KECCAK256 LOG3 SWAP7 PUSH2 0x5627 0xD4 CALLDATASIZE LT PUSH29 0x35EFF9FE7738A3512819782D7069AD3228B676F7D3CD4284A5443F17F1 SWAP7 0x2B CALLDATASIZE 0xE4 SWAP2 0xB3 EXP BLOCKHASH 0xB2 BLOCKHASH PC BLOBHASH 0xE5 SWAP8 0xBA PUSH0 0xB5 "
        },
        "methodIdentifiers": {
          "DEFAULT_ADMIN_ROLE()": "a217fddf",
          "EXECUTOR_ROLE()": "07bd0265",
          "cleanMeme(uint256[])": "e0b3baef",
          "communityDropAddress()": "5b9e98b8",
          "communityTreasuryAddress()": "82f85c3f",
          "createMemeProposal(string,string,uint256,string,string,(string,string),(address,uint256,uint256,uint256,uint256,uint256,uint256,uint256))": "80d506b7",
          "factoryAddress()": "966dae0e",
          "getMemeProposalsByStatus(string)": "f24a5576",
          "getRoleAdmin(bytes32)": "248a9ca3",
          "grantRole(bytes32,address)": "2f2ff15d",
          "hasRole(bytes32,address)": "91d14854",
          "invest(uint256,address,uint256)": "fecba3a5",
          "investorAddress()": "12e228fd",
          "lpVaultAddress()": "e8ca9212",
          "mintMeme(uint256[])": "63a3dafe",
          "ownerAddress()": "8f84aa09",
          "platformFeeAddress()": "ed14834f",
          "positionManagerAddress()": "7a8a1113",
          "provideLP(address,address,uint24,uint256,uint256)": "50187f96",
          "renounceRole(bytes32,address)": "36568abe",
          "revokeRole(bytes32,address)": "d547741f",
          "setInvestPeriod(uint256)": "4c8d7e58",
          "setMinimumVoter(uint256)": "b15c4013",
          "setVotePeriod(uint256)": "67b11630",
          "supportsInterface(bytes4)": "01ffc9a7",
          "vote(uint256,uint8)": "943e8216",
          "voteResult(uint256)": "81c65884"
        }
      }
    }
  }
}