{
  "contracts/MemeToken.sol": {
    "MemeToken": {
      "abi": [
        {
          "inputs": [
            {
              "internalType": "address",
              "name": "initialOwner",
              "type": "address"
            },
            {
              "internalType": "uint256",
              "name": "initialSupply",
              "type": "uint256"
            },
            {
              "internalType": "string",
              "name": "name",
              "type": "string"
            },
            {
              "internalType": "string",
              "name": "symbol",
              "type": "string"
            }
          ],
          "stateMutability": "nonpayable",
          "type": "constructor"
        },
        {
          "inputs": [
            {
              "internalType": "address",
              "name": "spender",
              "type": "address"
            },
            {
              "internalType": "uint256",
              "name": "allowance",
              "type": "uint256"
            },
            {
              "internalType": "uint256",
              "name": "needed",
              "type": "uint256"
            }
          ],
          "name": "ERC20InsufficientAllowance",
          "type": "error"
        },
        {
          "inputs": [
            {
              "internalType": "address",
              "name": "sender",
              "type": "address"
            },
            {
              "internalType": "uint256",
              "name": "balance",
              "type": "uint256"
            },
            {
              "internalType": "uint256",
              "name": "needed",
              "type": "uint256"
            }
          ],
          "name": "ERC20InsufficientBalance",
          "type": "error"
        },
        {
          "inputs": [
            {
              "internalType": "address",
              "name": "approver",
              "type": "address"
            }
          ],
          "name": "ERC20InvalidApprover",
          "type": "error"
        },
        {
          "inputs": [
            {
              "internalType": "address",
              "name": "receiver",
              "type": "address"
            }
          ],
          "name": "ERC20InvalidReceiver",
          "type": "error"
        },
        {
          "inputs": [
            {
              "internalType": "address",
              "name": "sender",
              "type": "address"
            }
          ],
          "name": "ERC20InvalidSender",
          "type": "error"
        },
        {
          "inputs": [
            {
              "internalType": "address",
              "name": "spender",
              "type": "address"
            }
          ],
          "name": "ERC20InvalidSpender",
          "type": "error"
        },
        {
          "inputs": [
            {
              "internalType": "address",
              "name": "owner",
              "type": "address"
            }
          ],
          "name": "OwnableInvalidOwner",
          "type": "error"
        },
        {
          "inputs": [
            {
              "internalType": "address",
              "name": "account",
              "type": "address"
            }
          ],
          "name": "OwnableUnauthorizedAccount",
          "type": "error"
        },
        {
          "anonymous": false,
          "inputs": [
            {
              "indexed": true,
              "internalType": "address",
              "name": "owner",
              "type": "address"
            },
            {
              "indexed": true,
              "internalType": "address",
              "name": "spender",
              "type": "address"
            },
            {
              "indexed": false,
              "internalType": "uint256",
              "name": "value",
              "type": "uint256"
            }
          ],
          "name": "Approval",
          "type": "event"
        },
        {
          "anonymous": false,
          "inputs": [
            {
              "indexed": true,
              "internalType": "address",
              "name": "previousOwner",
              "type": "address"
            },
            {
              "indexed": true,
              "internalType": "address",
              "name": "newOwner",
              "type": "address"
            }
          ],
          "name": "OwnershipTransferred",
          "type": "event"
        },
        {
          "anonymous": false,
          "inputs": [
            {
              "indexed": true,
              "internalType": "address",
              "name": "from",
              "type": "address"
            },
            {
              "indexed": true,
              "internalType": "address",
              "name": "to",
              "type": "address"
            },
            {
              "indexed": false,
              "internalType": "uint256",
              "name": "value",
              "type": "uint256"
            }
          ],
          "name": "Transfer",
          "type": "event"
        },
        {
          "inputs": [
            {
              "internalType": "address",
              "name": "owner",
              "type": "address"
            },
            {
              "internalType": "address",
              "name": "spender",
              "type": "address"
            }
          ],
          "name": "allowance",
          "outputs": [
            {
              "internalType": "uint256",
              "name": "",
              "type": "uint256"
            }
          ],
          "stateMutability": "view",
          "type": "function"
        },
        {
          "inputs": [
            {
              "internalType": "address",
              "name": "spender",
              "type": "address"
            },
            {
              "internalType": "uint256",
              "name": "value",
              "type": "uint256"
            }
          ],
          "name": "approve",
          "outputs": [
            {
              "internalType": "bool",
              "name": "",
              "type": "bool"
            }
          ],
          "stateMutability": "nonpayable",
          "type": "function"
        },
        {
          "inputs": [
            {
              "internalType": "address",
              "name": "account",
              "type": "address"
            }
          ],
          "name": "balanceOf",
          "outputs": [
            {
              "internalType": "uint256",
              "name": "",
              "type": "uint256"
            }
          ],
          "stateMutability": "view",
          "type": "function"
        },
        {
          "inputs": [],
          "name": "decimals",
          "outputs": [
            {
              "internalType": "uint8",
              "name": "",
              "type": "uint8"
            }
          ],
          "stateMutability": "view",
          "type": "function"
        },
        {
          "inputs": [],
          "name": "name",
          "outputs": [
            {
              "internalType": "string",
              "name": "",
              "type": "string"
            }
          ],
          "stateMutability": "view",
          "type": "function"
        },
        {
          "inputs": [],
          "name": "owner",
          "outputs": [
            {
              "internalType": "address",
              "name": "",
              "type": "address"
            }
          ],
          "stateMutability": "view",
          "type": "function"
        },
        {
          "inputs": [],
          "name": "renounceOwnership",
          "outputs": [],
          "stateMutability": "nonpayable",
          "type": "function"
        },
        {
          "inputs": [],
          "name": "symbol",
          "outputs": [
            {
              "internalType": "string",
              "name": "",
              "type": "string"
            }
          ],
          "stateMutability": "view",
          "type": "function"
        },
        {
          "inputs": [],
          "name": "totalSupply",
          "outputs": [
            {
              "internalType": "uint256",
              "name": "",
              "type": "uint256"
            }
          ],
          "stateMutability": "view",
          "type": "function"
        },
        {
          "inputs": [
            {
              "internalType": "address",
              "name": "to",
              "type": "address"
            },
            {
              "internalType": "uint256",
              "name": "value",
              "type": "uint256"
            }
          ],
          "name": "transfer",
          "outputs": [
            {
              "internalType": "bool",
              "name": "",
              "type": "bool"
            }
          ],
          "stateMutability": "nonpayable",
          "type": "function"
        },
        {
          "inputs": [
            {
              "internalType": "address",
              "name": "from",
              "type": "address"
            },
            {
              "internalType": "address",
              "name": "to",
              "type": "address"
            },
            {
              "internalType": "uint256",
              "name": "value",
              "type": "uint256"
            }
          ],
          "name": "transferFrom",
          "outputs": [
            {
              "internalType": "bool",
              "name": "",
              "type": "bool"
            }
          ],
          "stateMutability": "nonpayable",
          "type": "function"
        },
        {
          "inputs": [
            {
              "internalType": "address",
              "name": "newOwner",
              "type": "address"
            }
          ],
          "name": "transferOwnership",
          "outputs": [],
          "stateMutability": "nonpayable",
          "type": "function"
        }
      ],
      "evm": {
        "bytecode": {
          "linkReferences": {},
          "object": "60806040523461042457610e3f8038038061001981610429565b9283398101906080818303126104245780516001600160a01b038116919082810361042457602082015160408301519092906001600160401b038111610424578561006591830161044e565b60608201519095906001600160401b03811161042457610085920161044e565b845190946001600160401b0382116103215760035490600182811c9216801561041a575b60208310146103015781601f8493116103aa575b50602090601f831160011461034257600092610337575b50508160011b916000199060031b1c1916176003555b83516001600160401b03811161032157600454600181811c91168015610317575b602082101461030157601f811161029c575b50602094601f82116001146102355794819293949560009261022a575b50508160011b916000199060031b1c1916176004555b82156102145780610163610168926104b9565b6104b9565b670de0b6b3a7640000810290808204670de0b6b3a764000014901517156101fe5760006002548281018091116101ea576000927fddf252ad1be2c89b69c2b068fc378daa952ba7f163c4a11628f55a4df523b3ef926020926002555084845283825260408420818154019055604051908152a360405161093c90816105038239f35b634e487b7160e01b82526011600452602482fd5b634e487b7160e01b600052601160045260246000fd5b631e4fbdf760e01b600052600060045260246000fd5b01519050388061013a565b601f198216956004600052806000209160005b8881106102845750836001959697981061026b575b505050811b01600455610150565b015160001960f88460031b161c1916905538808061025d565b91926020600181928685015181550194019201610248565b60046000527f8a35acfbc15ff81a39ae7d344fd709f28e8600b4aa8c65c6b64bfe7fe36bd19b601f830160051c810191602084106102f7575b601f0160051c01905b8181106102eb575061011d565b600081556001016102de565b90915081906102d5565b634e487b7160e01b600052602260045260246000fd5b90607f169061010b565b634e487b7160e01b600052604160045260246000fd5b0151905038806100d4565b600360009081528281209350601f198516905b8181106103925750908460019594939210610379575b505050811b016003556100ea565b015160001960f88460031b161c1916905538808061036b565b92936020600181928786015181550195019301610355565b60036000529091507fc2575a0e9e593c00f959f8c92f12db2869c3395a3b0502d05e2516446f71f85b601f840160051c81019160208510610410575b90601f859493920160051c01905b81811061040157506100bd565b600081558493506001016103f4565b90915081906103e6565b91607f16916100a9565b600080fd5b6040519190601f01601f191682016001600160401b0381118382101761032157604052565b81601f82011215610424578051906001600160401b0382116103215761047d601f8301601f1916602001610429565b92828452602083830101116104245760005b8281106104a457505060206000918301015290565b8060208092840101518282870101520161048f565b600580546001600160a01b039283166001600160a01b0319821681179092559091167f8be0079c531659141344cd1fd0a4f28419497f9722a3daafe3b4186f6b6457e0600080a356fe608080604052600436101561001357600080fd5b60003560e01c90816306fdde031461066157508063095ea7b3146105db57806318160ddd146105bd57806323b872dd1461045e578063313ce5671461044257806370a0823114610408578063715018a6146103955780638da5cb5b1461036e57806395d89b41146101eb578063a9059cbb146101ba578063dd62ed3e146101625763f2fde38b146100a357600080fd5b3461015d57602060031936011261015d576001600160a01b036100c4610788565b6100cc6108c4565b16801561012e576001600160a01b03600554827fffffffffffffffffffffffff0000000000000000000000000000000000000000821617600555167f8be0079c531659141344cd1fd0a4f28419497f9722a3daafe3b4186f6b6457e0600080a3005b7f1e4fbdf700000000000000000000000000000000000000000000000000000000600052600060045260246000fd5b600080fd5b3461015d57604060031936011261015d5761017b610788565b6001600160a01b0361018b61079e565b911660005260016020526001600160a01b03604060002091166000526020526020604060002054604051908152f35b3461015d57604060031936011261015d576101e06101d6610788565b60243590336107b4565b602060405160018152f35b3461015d57600060031936011261015d57604051600090600454918260011c60018416938415610364575b60208210851461033757839482855290816000146102f55750600114610298575b5003601f01601f191681019067ffffffffffffffff821181831017610269576102658291826040528261073e565b0390f35b7f4e487b7100000000000000000000000000000000000000000000000000000000600052604160045260246000fd5b6004600090815291507f8a35acfbc15ff81a39ae7d344fd709f28e8600b4aa8c65c6b64bfe7fe36bd19b5b8183106102d95750508101602001601f19610237565b60209193508060019154838588010152019101909183926102c3565b7fffffffffffffffffffffffffffffffffffffffffffffffffffffffffffffff001660208581019190915291151560051b84019091019150601f199050610237565b6024837f4e487b710000000000000000000000000000000000000000000000000000000081526022600452fd5b90607f1690610216565b3461015d57600060031936011261015d5760206001600160a01b0360055416604051908152f35b3461015d57600060031936011261015d576103ae6108c4565b60006001600160a01b036005547fffffffffffffffffffffffff00000000000000000000000000000000000000008116600555167f8be0079c531659141344cd1fd0a4f28419497f9722a3daafe3b4186f6b6457e08280a3005b3461015d57602060031936011261015d576001600160a01b03610429610788565b1660005260006020526020604060002054604051908152f35b3461015d57600060031936011261015d57602060405160128152f35b3461015d57606060031936011261015d57610477610788565b61047f61079e565b604435906001600160a01b0383169283600052600160205260406000206001600160a01b0333166000526020526040600020547fffffffffffffffffffffffffffffffffffffffffffffffffffffffffffffffff81036104e5575b506101e093506107b4565b838110610587578415610558573315610529576101e094600052600160205260406000206001600160a01b03331660005260205283604060002091039055846104da565b7f94280d6200000000000000000000000000000000000000000000000000000000600052600060045260246000fd5b7fe602df0500000000000000000000000000000000000000000000000000000000600052600060045260246000fd5b83907ffb8f41b2000000000000000000000000000000000000000000000000000000006000523360045260245260445260646000fd5b3461015d57600060031936011261015d576020600254604051908152f35b3461015d57604060031936011261015d576105f4610788565b602435903315610558576001600160a01b031690811561052957336000526001602052604060002082600052602052806040600020556040519081527f8c5be1e5ebec7d5bd14f71427d1e84f3dd0314c0f7b2291e5b200ac8c7c3b92560203392a3602060405160018152f35b3461015d57600060031936011261015d57600090600354918260011c60018416938415610734575b60208210851461033757839482855290816000146102f557506001146106d7575003601f01601f191681019067ffffffffffffffff821181831017610269576102658291826040528261073e565b6003600090815291507fc2575a0e9e593c00f959f8c92f12db2869c3395a3b0502d05e2516446f71f85b5b8183106107185750508101602001601f19610237565b6020919350806001915483858801015201910190918392610702565b90607f1690610689565b9190916020815282519283602083015260005b848110610772575050601f19601f8460006040809697860101520116010190565b8060208092840101516040828601015201610751565b600435906001600160a01b038216820361015d57565b602435906001600160a01b038216820361015d57565b6001600160a01b0316908115610895576001600160a01b03169182156108665760008281528060205260408120548281106108335791604082827fddf252ad1be2c89b69c2b068fc378daa952ba7f163c4a11628f55a4df523b3ef958760209652828652038282205586815280845220818154019055604051908152a3565b6064937fe450d38c0000000000000000000000000000000000000000000000000000000083949352600452602452604452fd5b7fec442f0500000000000000000000000000000000000000000000000000000000600052600060045260246000fd5b7f96c6fd1e00000000000000000000000000000000000000000000000000000000600052600060045260246000fd5b6001600160a01b036005541633036108d857565b7f118cdaa7000000000000000000000000000000000000000000000000000000006000523360045260246000fdfea2646970667358221220e2ea0ca5423200e80d603ef6d7294954cba3573327aeb647ccca59f5ce5aeb4264736f6c634300081b0033",
          "opcodes": "PUSH1 0x80 PUSH1 0x40 MSTORE CALLVALUE PUSH2 0x424 JUMPI PUSH2 0xE3F DUP1 CODESIZE SUB DUP1 PUSH2 0x19 DUP2 PUSH2 0x429 JUMP JUMPDEST SWAP3 DUP4 CODECOPY DUP2 ADD SWAP1 PUSH1 0x80 DUP2 DUP4 SUB SLT PUSH2 0x424 JUMPI DUP1 MLOAD PUSH1 0x1 PUSH1 0x1 PUSH1 0xA0 SHL SUB DUP2 AND SWAP2 SWAP1 DUP3 DUP2 SUB PUSH2 0x424 JUMPI PUSH1 0x20 DUP3 ADD MLOAD PUSH1 0x40 DUP4 ADD MLOAD SWAP1 SWAP3 SWAP1 PUSH1 0x1 PUSH1 0x1 PUSH1 0x40 SHL SUB DUP2 GT PUSH2 0x424 JUMPI DUP6 PUSH2 0x65 SWAP2 DUP4 ADD PUSH2 0x44E JUMP JUMPDEST PUSH1 0x60 DUP3 ADD MLOAD SWAP1 SWAP6 SWAP1 PUSH1 0x1 PUSH1 0x1 PUSH1 0x40 SHL SUB DUP2 GT PUSH2 0x424 JUMPI PUSH2 0x85 SWAP3 ADD PUSH2 0x44E JUMP JUMPDEST DUP5 MLOAD SWAP1 SWAP5 PUSH1 0x1 PUSH1 0x1 PUSH1 0x40 SHL SUB DUP3 GT PUSH2 0x321 JUMPI PUSH1 0x3 SLOAD SWAP1 PUSH1 0x1 DUP3 DUP2 SHR SWAP3 AND DUP1 ISZERO PUSH2 0x41A JUMPI JUMPDEST PUSH1 0x20 DUP4 LT EQ PUSH2 0x301 JUMPI DUP2 PUSH1 0x1F DUP5 SWAP4 GT PUSH2 0x3AA JUMPI JUMPDEST POP PUSH1 0x20 SWAP1 PUSH1 0x1F DUP4 GT PUSH1 0x1 EQ PUSH2 0x342 JUMPI PUSH1 0x0 SWAP3 PUSH2 0x337 JUMPI JUMPDEST POP POP DUP2 PUSH1 0x1 SHL SWAP2 PUSH1 0x0 NOT SWAP1 PUSH1 0x3 SHL SHR NOT AND OR PUSH1 0x3 SSTORE JUMPDEST DUP4 MLOAD PUSH1 0x1 PUSH1 0x1 PUSH1 0x40 SHL SUB DUP2 GT PUSH2 0x321 JUMPI PUSH1 0x4 SLOAD PUSH1 0x1 DUP2 DUP2 SHR SWAP2 AND DUP1 ISZERO PUSH2 0x317 JUMPI JUMPDEST PUSH1 0x20 DUP3 LT EQ PUSH2 0x301 JUMPI PUSH1 0x1F DUP2 GT PUSH2 0x29C JUMPI JUMPDEST POP PUSH1 0x20 SWAP5 PUSH1 0x1F DUP3 GT PUSH1 0x1 EQ PUSH2 0x235 JUMPI SWAP5 DUP2 SWAP3 SWAP4 SWAP5 SWAP6 PUSH1 0x0 SWAP3 PUSH2 0x22A JUMPI JUMPDEST POP POP DUP2 PUSH1 0x1 SHL SWAP2 PUSH1 0x0 NOT SWAP1 PUSH1 0x3 SHL SHR NOT AND OR PUSH1 0x4 SSTORE JUMPDEST DUP3 ISZERO PUSH2 0x214 JUMPI DUP1 PUSH2 0x163 PUSH2 0x168 SWAP3 PUSH2 0x4B9 JUMP JUMPDEST PUSH2 0x4B9 JUMP JUMPDEST PUSH8 0xDE0B6B3A7640000 DUP2 MUL SWAP1 DUP1 DUP3 DIV PUSH8 0xDE0B6B3A7640000 EQ SWAP1 ISZERO OR ISZERO PUSH2 0x1FE JUMPI PUSH1 0x0 PUSH1 0x2 SLOAD DUP3 DUP2 ADD DUP1 SWAP2 GT PUSH2 0x1EA JUMPI PUSH1 0x0 SWAP3 PUSH32 0xDDF252AD1BE2C89B69C2B068FC378DAA952BA7F163C4A11628F55A4DF523B3EF SWAP3 PUSH1 0x20 SWAP3 PUSH1 0x2 SSTORE POP DUP5 DUP5 MSTORE DUP4 DUP3 MSTORE PUSH1 0x40 DUP5 KECCAK256 DUP2 DUP2 SLOAD ADD SWAP1 SSTORE PUSH1 0x40 MLOAD SWAP1 DUP2 MSTORE LOG3 PUSH1 0x40 MLOAD PUSH2 0x93C SWAP1 DUP2 PUSH2 0x503 DUP3 CODECOPY RETURN JUMPDEST PUSH4 0x4E487B71 PUSH1 0xE0 SHL DUP3 MSTORE PUSH1 0x11 PUSH1 0x4 MSTORE PUSH1 0x24 DUP3 REVERT JUMPDEST PUSH4 0x4E487B71 PUSH1 0xE0 SHL PUSH1 0x0 MSTORE PUSH1 0x11 PUSH1 0x4 MSTORE PUSH1 0x24 PUSH1 0x0 REVERT JUMPDEST PUSH4 0x1E4FBDF7 PUSH1 0xE0 SHL PUSH1 0x0 MSTORE PUSH1 0x0 PUSH1 0x4 MSTORE PUSH1 0x24 PUSH1 0x0 REVERT JUMPDEST ADD MLOAD SWAP1 POP CODESIZE DUP1 PUSH2 0x13A JUMP JUMPDEST PUSH1 0x1F NOT DUP3 AND SWAP6 PUSH1 0x4 PUSH1 0x0 MSTORE DUP1 PUSH1 0x0 KECCAK256 SWAP2 PUSH1 0x0 JUMPDEST DUP9 DUP2 LT PUSH2 0x284 JUMPI POP DUP4 PUSH1 0x1 SWAP6 SWAP7 SWAP8 SWAP9 LT PUSH2 0x26B JUMPI JUMPDEST POP POP POP DUP2 SHL ADD PUSH1 0x4 SSTORE PUSH2 0x150 JUMP JUMPDEST ADD MLOAD PUSH1 0x0 NOT PUSH1 0xF8 DUP5 PUSH1 0x3 SHL AND SHR NOT AND SWAP1 SSTORE CODESIZE DUP1 DUP1 PUSH2 0x25D JUMP JUMPDEST SWAP2 SWAP3 PUSH1 0x20 PUSH1 0x1 DUP2 SWAP3 DUP7 DUP6 ADD MLOAD DUP2 SSTORE ADD SWAP5 ADD SWAP3 ADD PUSH2 0x248 JUMP JUMPDEST PUSH1 0x4 PUSH1 0x0 MSTORE PUSH32 0x8A35ACFBC15FF81A39AE7D344FD709F28E8600B4AA8C65C6B64BFE7FE36BD19B PUSH1 0x1F DUP4 ADD PUSH1 0x5 SHR DUP2 ADD SWAP2 PUSH1 0x20 DUP5 LT PUSH2 0x2F7 JUMPI JUMPDEST PUSH1 0x1F ADD PUSH1 0x5 SHR ADD SWAP1 JUMPDEST DUP2 DUP2 LT PUSH2 0x2EB JUMPI POP PUSH2 0x11D JUMP JUMPDEST PUSH1 0x0 DUP2 SSTORE PUSH1 0x1 ADD PUSH2 0x2DE JUMP JUMPDEST SWAP1 SWAP2 POP DUP2 SWAP1 PUSH2 0x2D5 JUMP JUMPDEST PUSH4 0x4E487B71 PUSH1 0xE0 SHL PUSH1 0x0 MSTORE PUSH1 0x22 PUSH1 0x4 MSTORE PUSH1 0x24 PUSH1 0x0 REVERT JUMPDEST SWAP1 PUSH1 0x7F AND SWAP1 PUSH2 0x10B JUMP JUMPDEST PUSH4 0x4E487B71 PUSH1 0xE0 SHL PUSH1 0x0 MSTORE PUSH1 0x41 PUSH1 0x4 MSTORE PUSH1 0x24 PUSH1 0x0 REVERT JUMPDEST ADD MLOAD SWAP1 POP CODESIZE DUP1 PUSH2 0xD4 JUMP JUMPDEST PUSH1 0x3 PUSH1 0x0 SWAP1 DUP2 MSTORE DUP3 DUP2 KECCAK256 SWAP4 POP PUSH1 0x1F NOT DUP6 AND SWAP1 JUMPDEST DUP2 DUP2 LT PUSH2 0x392 JUMPI POP SWAP1 DUP5 PUSH1 0x1 SWAP6 SWAP5 SWAP4 SWAP3 LT PUSH2 0x379 JUMPI JUMPDEST POP POP POP DUP2 SHL ADD PUSH1 0x3 SSTORE PUSH2 0xEA JUMP JUMPDEST ADD MLOAD PUSH1 0x0 NOT PUSH1 0xF8 DUP5 PUSH1 0x3 SHL AND SHR NOT AND SWAP1 SSTORE CODESIZE DUP1 DUP1 PUSH2 0x36B JUMP JUMPDEST SWAP3 SWAP4 PUSH1 0x20 PUSH1 0x1 DUP2 SWAP3 DUP8 DUP7 ADD MLOAD DUP2 SSTORE ADD SWAP6 ADD SWAP4 ADD PUSH2 0x355 JUMP JUMPDEST PUSH1 0x3 PUSH1 0x0 MSTORE SWAP1 SWAP2 POP PUSH32 0xC2575A0E9E593C00F959F8C92F12DB2869C3395A3B0502D05E2516446F71F85B PUSH1 0x1F DUP5 ADD PUSH1 0x5 SHR DUP2 ADD SWAP2 PUSH1 0x20 DUP6 LT PUSH2 0x410 JUMPI JUMPDEST SWAP1 PUSH1 0x1F DUP6 SWAP5 SWAP4 SWAP3 ADD PUSH1 0x5 SHR ADD SWAP1 JUMPDEST DUP2 DUP2 LT PUSH2 0x401 JUMPI POP PUSH2 0xBD JUMP JUMPDEST PUSH1 0x0 DUP2 SSTORE DUP5 SWAP4 POP PUSH1 0x1 ADD PUSH2 0x3F4 JUMP JUMPDEST SWAP1 SWAP2 POP DUP2 SWAP1 PUSH2 0x3E6 JUMP JUMPDEST SWAP2 PUSH1 0x7F AND SWAP2 PUSH2 0xA9 JUMP JUMPDEST PUSH1 0x0 DUP1 REVERT JUMPDEST PUSH1 0x40 MLOAD SWAP2 SWAP1 PUSH1 0x1F ADD PUSH1 0x1F NOT AND DUP3 ADD PUSH1 0x1 PUSH1 0x1 PUSH1 0x40 SHL SUB DUP2 GT DUP4 DUP3 LT OR PUSH2 0x321 JUMPI PUSH1 0x40 MSTORE JUMP JUMPDEST DUP2 PUSH1 0x1F DUP3 ADD SLT ISZERO PUSH2 0x424 JUMPI DUP1 MLOAD SWAP1 PUSH1 0x1 PUSH1 0x1 PUSH1 0x40 SHL SUB DUP3 GT PUSH2 0x321 JUMPI PUSH2 0x47D PUSH1 0x1F DUP4 ADD PUSH1 0x1F NOT AND PUSH1 0x20 ADD PUSH2 0x429 JUMP JUMPDEST SWAP3 DUP3 DUP5 MSTORE PUSH1 0x20 DUP4 DUP4 ADD ADD GT PUSH2 0x424 JUMPI PUSH1 0x0 JUMPDEST DUP3 DUP2 LT PUSH2 0x4A4 JUMPI POP POP PUSH1 0x20 PUSH1 0x0 SWAP2 DUP4 ADD ADD MSTORE SWAP1 JUMP JUMPDEST DUP1 PUSH1 0x20 DUP1 SWAP3 DUP5 ADD ADD MLOAD DUP3 DUP3 DUP8 ADD ADD MSTORE ADD PUSH2 0x48F JUMP JUMPDEST PUSH1 0x5 DUP1 SLOAD PUSH1 0x1 PUSH1 0x1 PUSH1 0xA0 SHL SUB SWAP3 DUP4 AND PUSH1 0x1 PUSH1 0x1 PUSH1 0xA0 SHL SUB NOT DUP3 AND DUP2 OR SWAP1 SWAP3 SSTORE SWAP1 SWAP2 AND PUSH32 0x8BE0079C531659141344CD1FD0A4F28419497F9722A3DAAFE3B4186F6B6457E0 PUSH1 0x0 DUP1 LOG3 JUMP INVALID PUSH1 0x80 DUP1 PUSH1 0x40 MSTORE PUSH1 0x4 CALLDATASIZE LT ISZERO PUSH2 0x13 JUMPI PUSH1 0x0 DUP1 REVERT JUMPDEST PUSH1 0x0 CALLDATALOAD PUSH1 0xE0 SHR SWAP1 DUP2 PUSH4 0x6FDDE03 EQ PUSH2 0x661 JUMPI POP DUP1 PUSH4 0x95EA7B3 EQ PUSH2 0x5DB JUMPI DUP1 PUSH4 0x18160DDD EQ PUSH2 0x5BD JUMPI DUP1 PUSH4 0x23B872DD EQ PUSH2 0x45E JUMPI DUP1 PUSH4 0x313CE567 EQ PUSH2 0x442 JUMPI DUP1 PUSH4 0x70A08231 EQ PUSH2 0x408 JUMPI DUP1 PUSH4 0x715018A6 EQ PUSH2 0x395 JUMPI DUP1 PUSH4 0x8DA5CB5B EQ PUSH2 0x36E JUMPI DUP1 PUSH4 0x95D89B41 EQ PUSH2 0x1EB JUMPI DUP1 PUSH4 0xA9059CBB EQ PUSH2 0x1BA JUMPI DUP1 PUSH4 0xDD62ED3E EQ PUSH2 0x162 JUMPI PUSH4 0xF2FDE38B EQ PUSH2 0xA3 JUMPI PUSH1 0x0 DUP1 REVERT JUMPDEST CALLVALUE PUSH2 0x15D JUMPI PUSH1 0x20 PUSH1 0x3 NOT CALLDATASIZE ADD SLT PUSH2 0x15D JUMPI PUSH1 0x1 PUSH1 0x1 PUSH1 0xA0 SHL SUB PUSH2 0xC4 PUSH2 0x788 JUMP JUMPDEST PUSH2 0xCC PUSH2 0x8C4 JUMP JUMPDEST AND DUP1 ISZERO PUSH2 0x12E JUMPI PUSH1 0x1 PUSH1 0x1 PUSH1 0xA0 SHL SUB PUSH1 0x5 SLOAD DUP3 PUSH32 0xFFFFFFFFFFFFFFFFFFFFFFFF0000000000000000000000000000000000000000 DUP3 AND OR PUSH1 0x5 SSTORE AND PUSH32 0x8BE0079C531659141344CD1FD0A4F28419497F9722A3DAAFE3B4186F6B6457E0 PUSH1 0x0 DUP1 LOG3 STOP JUMPDEST PUSH32 0x1E4FBDF700000000000000000000000000000000000000000000000000000000 PUSH1 0x0 MSTORE PUSH1 0x0 PUSH1 0x4 MSTORE PUSH1 0x24 PUSH1 0x0 REVERT JUMPDEST PUSH1 0x0 DUP1 REVERT JUMPDEST CALLVALUE PUSH2 0x15D JUMPI PUSH1 0x40 PUSH1 0x3 NOT CALLDATASIZE ADD SLT PUSH2 0x15D JUMPI PUSH2 0x17B PUSH2 0x788 JUMP JUMPDEST PUSH1 0x1 PUSH1 0x1 PUSH1 0xA0 SHL SUB PUSH2 0x18B PUSH2 0x79E JUMP JUMPDEST SWAP2 AND PUSH1 0x0 MSTORE PUSH1 0x1 PUSH1 0x20 MSTORE PUSH1 0x1 PUSH1 0x1 PUSH1 0xA0 SHL SUB PUSH1 0x40 PUSH1 0x0 KECCAK256 SWAP2 AND PUSH1 0x0 MSTORE PUSH1 0x20 MSTORE PUSH1 0x20 PUSH1 0x40 PUSH1 0x0 KECCAK256 SLOAD PUSH1 0x40 MLOAD SWAP1 DUP2 MSTORE RETURN JUMPDEST CALLVALUE PUSH2 0x15D JUMPI PUSH1 0x40 PUSH1 0x3 NOT CALLDATASIZE ADD SLT PUSH2 0x15D JUMPI PUSH2 0x1E0 PUSH2 0x1D6 PUSH2 0x788 JUMP JUMPDEST PUSH1 0x24 CALLDATALOAD SWAP1 CALLER PUSH2 0x7B4 JUMP JUMPDEST PUSH1 0x20 PUSH1 0x40 MLOAD PUSH1 0x1 DUP2 MSTORE RETURN JUMPDEST CALLVALUE PUSH2 0x15D JUMPI PUSH1 0x0 PUSH1 0x3 NOT CALLDATASIZE ADD SLT PUSH2 0x15D JUMPI PUSH1 0x40 MLOAD PUSH1 0x0 SWAP1 PUSH1 0x4 SLOAD SWAP2 DUP3 PUSH1 0x1 SHR PUSH1 0x1 DUP5 AND SWAP4 DUP5 ISZERO PUSH2 0x364 JUMPI JUMPDEST PUSH1 0x20 DUP3 LT DUP6 EQ PUSH2 0x337 JUMPI DUP4 SWAP5 DUP3 DUP6 MSTORE SWAP1 DUP2 PUSH1 0x0 EQ PUSH2 0x2F5 JUMPI POP PUSH1 0x1 EQ PUSH2 0x298 JUMPI JUMPDEST POP SUB PUSH1 0x1F ADD PUSH1 0x1F NOT AND DUP2 ADD SWAP1 PUSH8 0xFFFFFFFFFFFFFFFF DUP3 GT DUP2 DUP4 LT OR PUSH2 0x269 JUMPI PUSH2 0x265 DUP3 SWAP2 DUP3 PUSH1 0x40 MSTORE DUP3 PUSH2 0x73E JUMP JUMPDEST SUB SWAP1 RETURN JUMPDEST PUSH32 0x4E487B7100000000000000000000000000000000000000000000000000000000 PUSH1 0x0 MSTORE PUSH1 0x41 PUSH1 0x4 MSTORE PUSH1 0x24 PUSH1 0x0 REVERT JUMPDEST PUSH1 0x4 PUSH1 0x0 SWAP1 DUP2 MSTORE SWAP2 POP PUSH32 0x8A35ACFBC15FF81A39AE7D344FD709F28E8600B4AA8C65C6B64BFE7FE36BD19B JUMPDEST DUP2 DUP4 LT PUSH2 0x2D9 JUMPI POP POP DUP2 ADD PUSH1 0x20 ADD PUSH1 0x1F NOT PUSH2 0x237 JUMP JUMPDEST PUSH1 0x20 SWAP2 SWAP4 POP DUP1 PUSH1 0x1 SWAP2 SLOAD DUP4 DUP6 DUP9 ADD ADD MSTORE ADD SWAP2 ADD SWAP1 SWAP2 DUP4 SWAP3 PUSH2 0x2C3 JUMP JUMPDEST PUSH32 0xFFFFFFFFFFFFFFFFFFFFFFFFFFFFFFFFFFFFFFFFFFFFFFFFFFFFFFFFFFFFFF00 AND PUSH1 0x20 DUP6 DUP2 ADD SWAP2 SWAP1 SWAP2 MSTORE SWAP2 ISZERO ISZERO PUSH1 0x5 SHL DUP5 ADD SWAP1 SWAP2 ADD SWAP2 POP PUSH1 0x1F NOT SWAP1 POP PUSH2 0x237 JUMP JUMPDEST PUSH1 0x24 DUP4 PUSH32 0x4E487B7100000000000000000000000000000000000000000000000000000000 DUP2 MSTORE PUSH1 0x22 PUSH1 0x4 MSTORE REVERT JUMPDEST SWAP1 PUSH1 0x7F AND SWAP1 PUSH2 0x216 JUMP JUMPDEST CALLVALUE PUSH2 0x15D JUMPI PUSH1 0x0 PUSH1 0x3 NOT CALLDATASIZE ADD SLT PUSH2 0x15D JUMPI PUSH1 0x20 PUSH1 0x1 PUSH1 0x1 PUSH1 0xA0 SHL SUB PUSH1 0x5 SLOAD AND PUSH1 0x40 MLOAD SWAP1 DUP2 MSTORE RETURN JUMPDEST CALLVALUE PUSH2 0x15D JUMPI PUSH1 0x0 PUSH1 0x3 NOT CALLDATASIZE ADD SLT PUSH2 0x15D JUMPI PUSH2 0x3AE PUSH2 0x8C4 JUMP JUMPDEST PUSH1 0x0 PUSH1 0x1 PUSH1 0x1 PUSH1 0xA0 SHL SUB PUSH1 0x5 SLOAD PUSH32 0xFFFFFFFFFFFFFFFFFFFFFFFF0000000000000000000000000000000000000000 DUP2 AND PUSH1 0x5 SSTORE AND PUSH32 0x8BE0079C531659141344CD1FD0A4F28419497F9722A3DAAFE3B4186F6B6457E0 DUP3 DUP1 LOG3 STOP JUMPDEST CALLVALUE PUSH2 0x15D JUMPI PUSH1 0x20 PUSH1 0x3 NOT CALLDATASIZE ADD SLT PUSH2 0x15D JUMPI PUSH1 0x1 PUSH1 0x1 PUSH1 0xA0 SHL SUB PUSH2 0x429 PUSH2 0x788 JUMP JUMPDEST AND PUSH1 0x0 MSTORE PUSH1 0x0 PUSH1 0x20 MSTORE PUSH1 0x20 PUSH1 0x40 PUSH1 0x0 KECCAK256 SLOAD PUSH1 0x40 MLOAD SWAP1 DUP2 MSTORE RETURN JUMPDEST CALLVALUE PUSH2 0x15D JUMPI PUSH1 0x0 PUSH1 0x3 NOT CALLDATASIZE ADD SLT PUSH2 0x15D JUMPI PUSH1 0x20 PUSH1 0x40 MLOAD PUSH1 0x12 DUP2 MSTORE RETURN JUMPDEST CALLVALUE PUSH2 0x15D JUMPI PUSH1 0x60 PUSH1 0x3 NOT CALLDATASIZE ADD SLT PUSH2 0x15D JUMPI PUSH2 0x477 PUSH2 0x788 JUMP JUMPDEST PUSH2 0x47F PUSH2 0x79E JUMP JUMPDEST PUSH1 0x44 CALLDATALOAD SWAP1 PUSH1 0x1 PUSH1 0x1 PUSH1 0xA0 SHL SUB DUP4 AND SWAP3 DUP4 PUSH1 0x0 MSTORE PUSH1 0x1 PUSH1 0x20 MSTORE PUSH1 0x40 PUSH1 0x0 KECCAK256 PUSH1 0x1 PUSH1 0x1 PUSH1 0xA0 SHL SUB CALLER AND PUSH1 0x0 MSTORE PUSH1 0x20 MSTORE PUSH1 0x40 PUSH1 0x0 KECCAK256 SLOAD PUSH32 0xFFFFFFFFFFFFFFFFFFFFFFFFFFFFFFFFFFFFFFFFFFFFFFFFFFFFFFFFFFFFFFFF DUP2 SUB PUSH2 0x4E5 JUMPI JUMPDEST POP PUSH2 0x1E0 SWAP4 POP PUSH2 0x7B4 JUMP JUMPDEST DUP4 DUP2 LT PUSH2 0x587 JUMPI DUP5 ISZERO PUSH2 0x558 JUMPI CALLER ISZERO PUSH2 0x529 JUMPI PUSH2 0x1E0 SWAP5 PUSH1 0x0 MSTORE PUSH1 0x1 PUSH1 0x20 MSTORE PUSH1 0x40 PUSH1 0x0 KECCAK256 PUSH1 0x1 PUSH1 0x1 PUSH1 0xA0 SHL SUB CALLER AND PUSH1 0x0 MSTORE PUSH1 0x20 MSTORE DUP4 PUSH1 0x40 PUSH1 0x0 KECCAK256 SWAP2 SUB SWAP1 SSTORE DUP5 PUSH2 0x4DA JUMP JUMPDEST PUSH32 0x94280D6200000000000000000000000000000000000000000000000000000000 PUSH1 0x0 MSTORE PUSH1 0x0 PUSH1 0x4 MSTORE PUSH1 0x24 PUSH1 0x0 REVERT JUMPDEST PUSH32 0xE602DF0500000000000000000000000000000000000000000000000000000000 PUSH1 0x0 MSTORE PUSH1 0x0 PUSH1 0x4 MSTORE PUSH1 0x24 PUSH1 0x0 REVERT JUMPDEST DUP4 SWAP1 PUSH32 0xFB8F41B200000000000000000000000000000000000000000000000000000000 PUSH1 0x0 MSTORE CALLER PUSH1 0x4 MSTORE PUSH1 0x24 MSTORE PUSH1 0x44 MSTORE PUSH1 0x64 PUSH1 0x0 REVERT JUMPDEST CALLVALUE PUSH2 0x15D JUMPI PUSH1 0x0 PUSH1 0x3 NOT CALLDATASIZE ADD SLT PUSH2 0x15D JUMPI PUSH1 0x20 PUSH1 0x2 SLOAD PUSH1 0x40 MLOAD SWAP1 DUP2 MSTORE RETURN JUMPDEST CALLVALUE PUSH2 0x15D JUMPI PUSH1 0x40 PUSH1 0x3 NOT CALLDATASIZE ADD SLT PUSH2 0x15D JUMPI PUSH2 0x5F4 PUSH2 0x788 JUMP JUMPDEST PUSH1 0x24 CALLDATALOAD SWAP1 CALLER ISZERO PUSH2 0x558 JUMPI PUSH1 0x1 PUSH1 0x1 PUSH1 0xA0 SHL SUB AND SWAP1 DUP2 ISZERO PUSH2 0x529 JUMPI CALLER PUSH1 0x0 MSTORE PUSH1 0x1 PUSH1 0x20 MSTORE PUSH1 0x40 PUSH1 0x0 KECCAK256 DUP3 PUSH1 0x0 MSTORE PUSH1 0x20 MSTORE DUP1 PUSH1 0x40 PUSH1 0x0 KECCAK256 SSTORE PUSH1 0x40 MLOAD SWAP1 DUP2 MSTORE PUSH32 0x8C5BE1E5EBEC7D5BD14F71427D1E84F3DD0314C0F7B2291E5B200AC8C7C3B925 PUSH1 0x20 CALLER SWAP3 LOG3 PUSH1 0x20 PUSH1 0x40 MLOAD PUSH1 0x1 DUP2 MSTORE RETURN JUMPDEST CALLVALUE PUSH2 0x15D JUMPI PUSH1 0x0 PUSH1 0x3 NOT CALLDATASIZE ADD SLT PUSH2 0x15D JUMPI PUSH1 0x0 SWAP1 PUSH1 0x3 SLOAD SWAP2 DUP3 PUSH1 0x1 SHR PUSH1 0x1 DUP5 AND SWAP4 DUP5 ISZERO PUSH2 0x734 JUMPI JUMPDEST PUSH1 0x20 DUP3 LT DUP6 EQ PUSH2 0x337 JUMPI DUP4 SWAP5 DUP3 DUP6 MSTORE SWAP1 DUP2 PUSH1 0x0 EQ PUSH2 0x2F5 JUMPI POP PUSH1 0x1 EQ PUSH2 0x6D7 JUMPI POP SUB PUSH1 0x1F ADD PUSH1 0x1F NOT AND DUP2 ADD SWAP1 PUSH8 0xFFFFFFFFFFFFFFFF DUP3 GT DUP2 DUP4 LT OR PUSH2 0x269 JUMPI PUSH2 0x265 DUP3 SWAP2 DUP3 PUSH1 0x40 MSTORE DUP3 PUSH2 0x73E JUMP JUMPDEST PUSH1 0x3 PUSH1 0x0 SWAP1 DUP2 MSTORE SWAP2 POP PUSH32 0xC2575A0E9E593C00F959F8C92F12DB2869C3395A3B0502D05E2516446F71F85B JUMPDEST DUP2 DUP4 LT PUSH2 0x718 JUMPI POP POP DUP2 ADD PUSH1 0x20 ADD PUSH1 0x1F NOT PUSH2 0x237 JUMP JUMPDEST PUSH1 0x20 SWAP2 SWAP4 POP DUP1 PUSH1 0x1 SWAP2 SLOAD DUP4 DUP6 DUP9 ADD ADD MSTORE ADD SWAP2 ADD SWAP1 SWAP2 DUP4 SWAP3 PUSH2 0x702 JUMP JUMPDEST SWAP1 PUSH1 0x7F AND SWAP1 PUSH2 0x689 JUMP JUMPDEST SWAP2 SWAP1 SWAP2 PUSH1 0x20 DUP2 MSTORE DUP3 MLOAD SWAP3 DUP4 PUSH1 0x20 DUP4 ADD MSTORE PUSH1 0x0 JUMPDEST DUP5 DUP2 LT PUSH2 0x772 JUMPI POP POP PUSH1 0x1F NOT PUSH1 0x1F DUP5 PUSH1 0x0 PUSH1 0x40 DUP1 SWAP7 SWAP8 DUP7 ADD ADD MSTORE ADD AND ADD ADD SWAP1 JUMP JUMPDEST DUP1 PUSH1 0x20 DUP1 SWAP3 DUP5 ADD ADD MLOAD PUSH1 0x40 DUP3 DUP7 ADD ADD MSTORE ADD PUSH2 0x751 JUMP JUMPDEST PUSH1 0x4 CALLDATALOAD SWAP1 PUSH1 0x1 PUSH1 0x1 PUSH1 0xA0 SHL SUB DUP3 AND DUP3 SUB PUSH2 0x15D JUMPI JUMP JUMPDEST PUSH1 0x24 CALLDATALOAD SWAP1 PUSH1 0x1 PUSH1 0x1 PUSH1 0xA0 SHL SUB DUP3 AND DUP3 SUB PUSH2 0x15D JUMPI JUMP JUMPDEST PUSH1 0x1 PUSH1 0x1 PUSH1 0xA0 SHL SUB AND SWAP1 DUP2 ISZERO PUSH2 0x895 JUMPI PUSH1 0x1 PUSH1 0x1 PUSH1 0xA0 SHL SUB AND SWAP2 DUP3 ISZERO PUSH2 0x866 JUMPI PUSH1 0x0 DUP3 DUP2 MSTORE DUP1 PUSH1 0x20 MSTORE PUSH1 0x40 DUP2 KECCAK256 SLOAD DUP3 DUP2 LT PUSH2 0x833 JUMPI SWAP2 PUSH1 0x40 DUP3 DUP3 PUSH32 0xDDF252AD1BE2C89B69C2B068FC378DAA952BA7F163C4A11628F55A4DF523B3EF SWAP6 DUP8 PUSH1 0x20 SWAP7 MSTORE DUP3 DUP7 MSTORE SUB DUP3 DUP3 KECCAK256 SSTORE DUP7 DUP2 MSTORE DUP1 DUP5 MSTORE KECCAK256 DUP2 DUP2 SLOAD ADD SWAP1 SSTORE PUSH1 0x40 MLOAD SWAP1 DUP2 MSTORE LOG3 JUMP JUMPDEST PUSH1 0x64 SWAP4 PUSH32 0xE450D38C00000000000000000000000000000000000000000000000000000000 DUP4 SWAP5 SWAP4 MSTORE PUSH1 0x4 MSTORE PUSH1 0x24 MSTORE PUSH1 0x44 MSTORE REVERT JUMPDEST PUSH32 0xEC442F0500000000000000000000000000000000000000000000000000000000 PUSH1 0x0 MSTORE PUSH1 0x0 PUSH1 0x4 MSTORE PUSH1 0x24 PUSH1 0x0 REVERT JUMPDEST PUSH32 0x96C6FD1E00000000000000000000000000000000000000000000000000000000 PUSH1 0x0 MSTORE PUSH1 0x0 PUSH1 0x4 MSTORE PUSH1 0x24 PUSH1 0x0 REVERT JUMPDEST PUSH1 0x1 PUSH1 0x1 PUSH1 0xA0 SHL SUB PUSH1 0x5 SLOAD AND CALLER SUB PUSH2 0x8D8 JUMPI JUMP JUMPDEST PUSH32 0x118CDAA700000000000000000000000000000000000000000000000000000000 PUSH1 0x0 MSTORE CALLER PUSH1 0x4 MSTORE PUSH1 0x24 PUSH1 0x0 REVERT INVALID LOG2 PUSH5 0x6970667358 0x22 SLT KECCAK256 0xE2 0xEA 0xC 0xA5 TIMESTAMP ORIGIN STOP 0xE8 0xD PUSH1 0x3E 0xF6 0xD7 0x29 BLOBHASH SLOAD 0xCB LOG3 JUMPI CALLER 0x27 0xAE 0xB6 SELFBALANCE 0xCC 0xCA MSIZE CREATE2 0xCE GAS 0xEB TIMESTAMP PUSH5 0x736F6C6343 STOP ADDMOD SHL STOP CALLER "
        },
        "methodIdentifiers": {
          "allowance(address,address)": "dd62ed3e",
          "approve(address,uint256)": "095ea7b3",
          "balanceOf(address)": "70a08231",
          "decimals()": "313ce567",
          "name()": "06fdde03",
          "owner()": "8da5cb5b",
          "renounceOwnership()": "715018a6",
          "symbol()": "95d89b41",
          "totalSupply()": "18160ddd",
          "transfer(address,uint256)": "a9059cbb",
          "transferFrom(address,address,uint256)": "23b872dd",
          "transferOwnership(address)": "f2fde38b"
        }
      }
    }
  }
}