{
  "contracts/TestLP.sol": {
    "TestLP": {
      "abi": [
        {
          "inputs": [],
          "stateMutability": "nonpayable",
          "type": "constructor"
        },
        {
          "inputs": [],
          "name": "AccessControlBadConfirmation",
          "type": "error"
        },
        {
          "inputs": [
            {
              "internalType": "address",
              "name": "account",
              "type": "address"
            },
            {
              "internalType": "bytes32",
              "name": "neededRole",
              "type": "bytes32"
            }
          ],
          "name": "AccessControlUnauthorizedAccount",
          "type": "error"
        },
        {
          "anonymous": false,
          "inputs": [
            {
              "indexed": false,
              "internalType": "address",
              "name": "token0",
              "type": "address"
            },
            {
              "indexed": false,
              "internalType": "address",
              "name": "token1",
              "type": "address"
            },
            {
              "indexed": false,
              "internalType": "uint24",
              "name": "fee",
              "type": "uint24"
            },
            {
              "indexed": false,
              "internalType": "int24",
              "name": "tickLower",
              "type": "int24"
            },
            {
              "indexed": false,
              "internalType": "int24",
              "name": "tickUpper",
              "type": "int24"
            }
          ],
          "name": "MintAttempt",
          "type": "event"
        },
        {
          "anonymous": false,
          "inputs": [
            {
              "indexed": true,
              "internalType": "bytes32",
              "name": "role",
              "type": "bytes32"
            },
            {
              "indexed": true,
              "internalType": "bytes32",
              "name": "previousAdminRole",
              "type": "bytes32"
            },
            {
              "indexed": true,
              "internalType": "bytes32",
              "name": "newAdminRole",
              "type": "bytes32"
            }
          ],
          "name": "RoleAdminChanged",
          "type": "event"
        },
        {
          "anonymous": false,
          "inputs": [
            {
              "indexed": true,
              "internalType": "bytes32",
              "name": "role",
              "type": "bytes32"
            },
            {
              "indexed": true,
              "internalType": "address",
              "name": "account",
              "type": "address"
            },
            {
              "indexed": true,
              "internalType": "address",
              "name": "sender",
              "type": "address"
            }
          ],
          "name": "RoleGranted",
          "type": "event"
        },
        {
          "anonymous": false,
          "inputs": [
            {
              "indexed": true,
              "internalType": "bytes32",
              "name": "role",
              "type": "bytes32"
            },
            {
              "indexed": true,
              "internalType": "address",
              "name": "account",
              "type": "address"
            },
            {
              "indexed": true,
              "internalType": "address",
              "name": "sender",
              "type": "address"
            }
          ],
          "name": "RoleRevoked",
          "type": "event"
        },
        {
          "inputs": [],
          "name": "DEFAULT_ADMIN_ROLE",
          "outputs": [
            {
              "internalType": "bytes32",
              "name": "",
              "type": "bytes32"
            }
          ],
          "stateMutability": "view",
          "type": "function"
        },
        {
          "inputs": [],
          "name": "createLP",
          "outputs": [],
          "stateMutability": "nonpayable",
          "type": "function"
        },
        {
          "inputs": [],
          "name": "createPool",
          "outputs": [],
          "stateMutability": "nonpayable",
          "type": "function"
        },
        {
          "inputs": [],
          "name": "createToken",
          "outputs": [],
          "stateMutability": "nonpayable",
          "type": "function"
        },
        {
          "inputs": [],
          "name": "factoryAddress",
          "outputs": [
            {
              "internalType": "address",
              "name": "",
              "type": "address"
            }
          ],
          "stateMutability": "view",
          "type": "function"
        },
        {
          "inputs": [
            {
              "internalType": "bytes32",
              "name": "role",
              "type": "bytes32"
            }
          ],
          "name": "getRoleAdmin",
          "outputs": [
            {
              "internalType": "bytes32",
              "name": "",
              "type": "bytes32"
            }
          ],
          "stateMutability": "view",
          "type": "function"
        },
        {
          "inputs": [
            {
              "internalType": "bytes32",
              "name": "role",
              "type": "bytes32"
            },
            {
              "internalType": "address",
              "name": "account",
              "type": "address"
            }
          ],
          "name": "grantRole",
          "outputs": [],
          "stateMutability": "nonpayable",
          "type": "function"
        },
        {
          "inputs": [
            {
              "internalType": "bytes32",
              "name": "role",
              "type": "bytes32"
            },
            {
              "internalType": "address",
              "name": "account",
              "type": "address"
            }
          ],
          "name": "hasRole",
          "outputs": [
            {
              "internalType": "bool",
              "name": "",
              "type": "bool"
            }
          ],
          "stateMutability": "view",
          "type": "function"
        },
        {
          "inputs": [
            {
              "internalType": "address",
              "name": "",
              "type": "address"
            },
            {
              "internalType": "address",
              "name": "",
              "type": "address"
            },
            {
              "internalType": "uint256",
              "name": "",
              "type": "uint256"
            },
            {
              "internalType": "bytes",
              "name": "",
              "type": "bytes"
            }
          ],
          "name": "onERC721Received",
          "outputs": [
            {
              "internalType": "bytes4",
              "name": "",
              "type": "bytes4"
            }
          ],
          "stateMutability": "nonpayable",
          "type": "function"
        },
        {
          "inputs": [],
          "name": "positionManagerAddress",
          "outputs": [
            {
              "internalType": "address",
              "name": "",
              "type": "address"
            }
          ],
          "stateMutability": "view",
          "type": "function"
        },
        {
          "inputs": [
            {
              "internalType": "bytes32",
              "name": "role",
              "type": "bytes32"
            },
            {
              "internalType": "address",
              "name": "callerConfirmation",
              "type": "address"
            }
          ],
          "name": "renounceRole",
          "outputs": [],
          "stateMutability": "nonpayable",
          "type": "function"
        },
        {
          "inputs": [
            {
              "internalType": "bytes32",
              "name": "role",
              "type": "bytes32"
            },
            {
              "internalType": "address",
              "name": "account",
              "type": "address"
            }
          ],
          "name": "revokeRole",
          "outputs": [],
          "stateMutability": "nonpayable",
          "type": "function"
        },
        {
          "inputs": [
            {
              "internalType": "bytes4",
              "name": "interfaceId",
              "type": "bytes4"
            }
          ],
          "name": "supportsInterface",
          "outputs": [
            {
              "internalType": "bool",
              "name": "",
              "type": "bool"
            }
          ],
          "stateMutability": "view",
          "type": "function"
        },
        {
          "inputs": [],
          "name": "tokenA",
          "outputs": [
            {
              "internalType": "address",
              "name": "",
              "type": "address"
            }
          ],
          "stateMutability": "view",
          "type": "function"
        },
        {
          "inputs": [],
          "name": "tokenB",
          "outputs": [
            {
              "internalType": "address",
              "name": "",
              "type": "address"
            }
          ],
          "stateMutability": "view",
          "type": "function"
        }
      ],
      "evm": {
        "bytecode": {
          "linkReferences": {},
          "object": "60808060405234605d57600180546001600160a01b031990811673427bf5b37357632377ecbec9de3626c71a5396c11790915560028054909116730bfbcf9fa4f9c56b0f40a671ad40e0805a091865179055611ec890816100638239f35b600080fdfe608080604052600436101561001357600080fd5b600090813560e01c90816301ffc9a714610c29575080630fc63d1014610c02578063150b7a0214610b3b578063248a9ca314610b055780632f2ff15d14610ac457806336568abe14610a665780635f64b55b14610a3f5780637a8a111314610a1857806391d14854146109d1578063966dae0e146109aa5780639a06b113146106bb5780639cbf9e36146104b8578063a217fddf1461049c578063d547741f146104525763f7f23a0c146100c657600080fd5b346103a257806003193601126103a2578060206001600160a01b036003541660446001600160a01b036001541660405194859384927f095ea7b30000000000000000000000000000000000000000000000000000000084526004840152683635c9adc5dea0000060248401525af180156103b15761041b575b508060206001600160a01b036004541660446001600160a01b036001541660405194859384927f095ea7b30000000000000000000000000000000000000000000000000000000084526004840152686c6b935b8bbd40000060248401525af180156103b1576103e4575b506001600160a01b03600354166001600160a01b0360045416907f743bc0759a0c01a2a0e0773f41f2e5a19d4f8f8fea40b7aede3a810ed9f3a0f060a06040518381528460208201526101f46040820152620d89b3196060820152620d89b46080820152a161012c42018042116103d05760405191610160830183811067ffffffffffffffff8211176103bc57908593929160405282526020820193845260408201906101f4825260608301620d89b319815260808401620d89b4815260a08501683635c9adc5dea00000815260c08601686c6b935b8bbd400000815260e08701918883526101008801938985526101208901953087526101408a019788526001546001600160a01b0316986040519c8d9b7f88316456000000000000000000000000000000000000000000000000000000008d52516001600160a01b031660048d0152516001600160a01b031660248c01525162ffffff1660448b01525160020b60648a01525160020b60848901525160a48801525160c48701525160e486015251610104850152516001600160a01b031661012484015251610144830152815a9361016492608095f180156103b157610362575080f35b6080813d6080116103a9575b8161037b60809383610cfa565b810103126103a557602001516fffffffffffffffffffffffffffffffff8116036103a25780f35b80fd5b5080fd5b3d915061036e565b6040513d84823e3d90fd5b602486634e487b7160e01b81526041600452fd5b602484634e487b7160e01b81526011600452fd5b6020813d602011610413575b816103fd60209383610cfa565b810103126103a55761040e90610d81565b6101a9565b3d91506103f0565b6020813d60201161044a575b8161043460209383610cfa565b810103126103a55761044590610d81565b61013f565b3d9150610427565b50346103a25760406003193601126103a257610498600435610472610ce4565b9061049361048e82600052600060205260016040600020015490565b610d8e565b610e88565b5080f35b50346103a257806003193601126103a257602090604051908152f35b50346103a257806003193601126103a257604051610e3f8082019180831067ffffffffffffffff8411176106a75761010081611054948486833930815269d3c21bcecceda1000000602082015260806040820152600660808201527f544f4b454e30000000000000000000000000000000000000000000000000000060a082015260c06060820152600260c08201527f543000000000000000000000000000000000000000000000000000000000000060e082015203019084f091821561069c57604051918083019183831067ffffffffffffffff8411176103bc5791839161010093833930815269d3c21bcecceda1000000602082015260806040820152600660808201527f544f4b454e31000000000000000000000000000000000000000000000000000060a082015260c06060820152600260c08201527f543100000000000000000000000000000000000000000000000000000000000060e082015203019083f080156103b1576001600160a01b039190821690821681811015610695578290915b167fffffffffffffffffffffffff00000000000000000000000000000000000000006004541617600455167fffffffffffffffffffffffff0000000000000000000000000000000000000000600354161760035580f35b829061063e565b6040513d85823e3d90fd5b602484634e487b7160e01b81526041600452fd5b50346103a257806003193601126103a257600254600354600480546040517fa16712950000000000000000000000000000000000000000000000000000000081526001600160a01b0393841692810192909252821660248201526101f4604482015291602091839160649183918791165af180156103b15761098d575b50600254600354600480546040517f1698ee820000000000000000000000000000000000000000000000000000000081526001600160a01b0393841692810192909252821660248201526101f460448201529160209183916064918391165afa9081156103b157829161095e575b506107b8671bc16d674ec80000610f17565b908160601b918083046c01000000000000000000000000149015171561094a576001600160a01b038391166040517f3850c7bd00000000000000000000000000000000000000000000000000000000815260e081600481855afa801561069c5783906108a9575b6001600160a01b0391501615610833575080f35b803b156103a557633b9aca0060246001600160a01b039484809460405197889586947ff637731d000000000000000000000000000000000000000000000000000000008652041660048401525af1801561089c5761088e5780f35b61089791610cfa565b388180f35b50604051903d90823e3d90fd5b5060e0813d60e011610942575b816108c360e09383610cfa565b8101031261093e5780516001600160a01b038116810361093a5760208201518060020b0361093a576108f760408301610d72565b5061090460608301610d72565b5061091160808301610d72565b5060a082015160ff81160361093a5761093460c06001600160a01b039301610d81565b5061081f565b8380fd5b8280fd5b3d91506108b6565b602483634e487b7160e01b81526011600452fd5b610980915060203d602011610986575b6109788183610cfa565b810190610d33565b386107a6565b503d61096e565b6109a59060203d602011610986576109788183610cfa565b610738565b50346103a257806003193601126103a25760206001600160a01b0360025416604051908152f35b50346103a25760406003193601126103a25760ff60406020926109f2610ce4565b60043582528185526001600160a01b038383209116825284522054166040519015158152f35b50346103a257806003193601126103a25760206001600160a01b0360015416604051908152f35b50346103a257806003193601126103a25760206001600160a01b0360045416604051908152f35b50346103a25760406003193601126103a257610a80610ce4565b336001600160a01b03821603610a9c5761049890600435610e88565b6004827f6697b232000000000000000000000000000000000000000000000000000000008152fd5b50346103a25760406003193601126103a257610498600435610ae4610ce4565b90610b0061048e82600052600060205260016040600020015490565b610dee565b50346103a25760206003193601126103a2576020610b33600435600052600060205260016040600020015490565b604051908152f35b50346103a25760806003193601126103a257610b55610cc9565b50610b5e610ce4565b5060643567ffffffffffffffff81116103a557366023820112156103a557806004013567ffffffffffffffff8111610bee57604051610ba76020601f19601f8501160182610cfa565b818152366024838501011161093a57816024602094018483013701015260206040517f150b7a02000000000000000000000000000000000000000000000000000000008152f35b602483634e487b7160e01b81526041600452fd5b50346103a257806003193601126103a25760206001600160a01b0360035416604051908152f35b9050346103a55760206003193601126103a5576004357fffffffff00000000000000000000000000000000000000000000000000000000811680910361093e57602092507f7965db0b000000000000000000000000000000000000000000000000000000008114908115610c9f575b5015158152f35b7f01ffc9a70000000000000000000000000000000000000000000000000000000091501438610c98565b600435906001600160a01b0382168203610cdf57565b600080fd5b602435906001600160a01b0382168203610cdf57565b90601f601f19910116810190811067ffffffffffffffff821117610d1d57604052565b634e487b7160e01b600052604160045260246000fd5b90816020910312610cdf57516001600160a01b0381168103610cdf5790565b8115610d5c570490565b634e487b7160e01b600052601260045260246000fd5b519061ffff82168203610cdf57565b51908115158203610cdf57565b80600052600060205260406000206001600160a01b03331660005260205260ff6040600020541615610dbd5750565b7fe2517d3f000000000000000000000000000000000000000000000000000000006000523360045260245260446000fd5b80600052600060205260406000206001600160a01b03831660005260205260ff6040600020541615600014610e815780600052600060205260406000206001600160a01b0383166000526020526040600020600160ff198254161790556001600160a01b03339216907f2f8788117e7eff1d82e926ec794901d17c78024a50270940304540a733656f0d600080a4600190565b5050600090565b80600052600060205260406000206001600160a01b03831660005260205260ff60406000205416600014610e815780600052600060205260406000206001600160a01b038316600052602052604060002060ff1981541690556001600160a01b03339216907ff6391f5c32d9c69d2a47ea670b442974b53935d1edc7fd64eb21e047a839171b600080a4600190565b60018111156110505780600170010000000000000000000000000000000083101561103a575b60048268010000000000000000610fec94101561102d575b640100000000811015611020575b62010000811015611013575b610100811015611007575b6010811015610ffb575b1015610ff3575b60030260011c610f9b8184610d52565b0160011c610fa98184610d52565b0160011c610fb78184610d52565b0160011c610fc58184610d52565b0160011c610fd38184610d52565b0160011c610fe18184610d52565b0160011c8092610d52565b8111900390565b60011b610f8b565b811c9160021b91610f84565b60081c91811b91610f7a565b60101c9160081b91610f6f565b60201c9160101b91610f63565b60401c9160201b91610f55565b5050608081901c68010000000000000000610f3d565b9056fe60806040523461042457610e3f8038038061001981610429565b9283398101906080818303126104245780516001600160a01b038116919082810361042457602082015160408301519092906001600160401b038111610424578561006591830161044e565b60608201519095906001600160401b03811161042457610085920161044e565b845190946001600160401b0382116103215760035490600182811c9216801561041a575b60208310146103015781601f8493116103aa575b50602090601f831160011461034257600092610337575b50508160011b916000199060031b1c1916176003555b83516001600160401b03811161032157600454600181811c91168015610317575b602082101461030157601f811161029c575b50602094601f82116001146102355794819293949560009261022a575b50508160011b916000199060031b1c1916176004555b82156102145780610163610168926104b9565b6104b9565b670de0b6b3a7640000810290808204670de0b6b3a764000014901517156101fe5760006002548281018091116101ea576000927fddf252ad1be2c89b69c2b068fc378daa952ba7f163c4a11628f55a4df523b3ef926020926002555084845283825260408420818154019055604051908152a360405161093c90816105038239f35b634e487b7160e01b82526011600452602482fd5b634e487b7160e01b600052601160045260246000fd5b631e4fbdf760e01b600052600060045260246000fd5b01519050388061013a565b601f198216956004600052806000209160005b8881106102845750836001959697981061026b575b505050811b01600455610150565b015160001960f88460031b161c1916905538808061025d565b91926020600181928685015181550194019201610248565b60046000527f8a35acfbc15ff81a39ae7d344fd709f28e8600b4aa8c65c6b64bfe7fe36bd19b601f830160051c810191602084106102f7575b601f0160051c01905b8181106102eb575061011d565b600081556001016102de565b90915081906102d5565b634e487b7160e01b600052602260045260246000fd5b90607f169061010b565b634e487b7160e01b600052604160045260246000fd5b0151905038806100d4565b600360009081528281209350601f198516905b8181106103925750908460019594939210610379575b505050811b016003556100ea565b015160001960f88460031b161c1916905538808061036b565b92936020600181928786015181550195019301610355565b60036000529091507fc2575a0e9e593c00f959f8c92f12db2869c3395a3b0502d05e2516446f71f85b601f840160051c81019160208510610410575b90601f859493920160051c01905b81811061040157506100bd565b600081558493506001016103f4565b90915081906103e6565b91607f16916100a9565b600080fd5b6040519190601f01601f191682016001600160401b0381118382101761032157604052565b81601f82011215610424578051906001600160401b0382116103215761047d601f8301601f1916602001610429565b92828452602083830101116104245760005b8281106104a457505060206000918301015290565b8060208092840101518282870101520161048f565b600580546001600160a01b039283166001600160a01b0319821681179092559091167f8be0079c531659141344cd1fd0a4f28419497f9722a3daafe3b4186f6b6457e0600080a356fe608080604052600436101561001357600080fd5b60003560e01c90816306fdde031461066157508063095ea7b3146105db57806318160ddd146105bd57806323b872dd1461045e578063313ce5671461044257806370a0823114610408578063715018a6146103955780638da5cb5b1461036e57806395d89b41146101eb578063a9059cbb146101ba578063dd62ed3e146101625763f2fde38b146100a357600080fd5b3461015d57602060031936011261015d576001600160a01b036100c4610788565b6100cc6108c4565b16801561012e576001600160a01b03600554827fffffffffffffffffffffffff0000000000000000000000000000000000000000821617600555167f8be0079c531659141344cd1fd0a4f28419497f9722a3daafe3b4186f6b6457e0600080a3005b7f1e4fbdf700000000000000000000000000000000000000000000000000000000600052600060045260246000fd5b600080fd5b3461015d57604060031936011261015d5761017b610788565b6001600160a01b0361018b61079e565b911660005260016020526001600160a01b03604060002091166000526020526020604060002054604051908152f35b3461015d57604060031936011261015d576101e06101d6610788565b60243590336107b4565b602060405160018152f35b3461015d57600060031936011261015d57604051600090600454918260011c60018416938415610364575b60208210851461033757839482855290816000146102f55750600114610298575b5003601f01601f191681019067ffffffffffffffff821181831017610269576102658291826040528261073e565b0390f35b7f4e487b7100000000000000000000000000000000000000000000000000000000600052604160045260246000fd5b6004600090815291507f8a35acfbc15ff81a39ae7d344fd709f28e8600b4aa8c65c6b64bfe7fe36bd19b5b8183106102d95750508101602001601f19610237565b60209193508060019154838588010152019101909183926102c3565b7fffffffffffffffffffffffffffffffffffffffffffffffffffffffffffffff001660208581019190915291151560051b84019091019150601f199050610237565b6024837f4e487b710000000000000000000000000000000000000000000000000000000081526022600452fd5b90607f1690610216565b3461015d57600060031936011261015d5760206001600160a01b0360055416604051908152f35b3461015d57600060031936011261015d576103ae6108c4565b60006001600160a01b036005547fffffffffffffffffffffffff00000000000000000000000000000000000000008116600555167f8be0079c531659141344cd1fd0a4f28419497f9722a3daafe3b4186f6b6457e08280a3005b3461015d57602060031936011261015d576001600160a01b03610429610788565b1660005260006020526020604060002054604051908152f35b3461015d57600060031936011261015d57602060405160128152f35b3461015d57606060031936011261015d57610477610788565b61047f61079e565b604435906001600160a01b0383169283600052600160205260406000206001600160a01b0333166000526020526040600020547fffffffffffffffffffffffffffffffffffffffffffffffffffffffffffffffff81036104e5575b506101e093506107b4565b838110610587578415610558573315610529576101e094600052600160205260406000206001600160a01b03331660005260205283604060002091039055846104da565b7f94280d6200000000000000000000000000000000000000000000000000000000600052600060045260246000fd5b7fe602df0500000000000000000000000000000000000000000000000000000000600052600060045260246000fd5b83907ffb8f41b2000000000000000000000000000000000000000000000000000000006000523360045260245260445260646000fd5b3461015d57600060031936011261015d576020600254604051908152f35b3461015d57604060031936011261015d576105f4610788565b602435903315610558576001600160a01b031690811561052957336000526001602052604060002082600052602052806040600020556040519081527f8c5be1e5ebec7d5bd14f71427d1e84f3dd0314c0f7b2291e5b200ac8c7c3b92560203392a3602060405160018152f35b3461015d57600060031936011261015d57600090600354918260011c60018416938415610734575b60208210851461033757839482855290816000146102f557506001146106d7575003601f01601f191681019067ffffffffffffffff821181831017610269576102658291826040528261073e565b6003600090815291507fc2575a0e9e593c00f959f8c92f12db2869c3395a3b0502d05e2516446f71f85b5b8183106107185750508101602001601f19610237565b6020919350806001915483858801015201910190918392610702565b90607f1690610689565b9190916020815282519283602083015260005b848110610772575050601f19601f8460006040809697860101520116010190565b8060208092840101516040828601015201610751565b600435906001600160a01b038216820361015d57565b602435906001600160a01b038216820361015d57565b6001600160a01b0316908115610895576001600160a01b03169182156108665760008281528060205260408120548281106108335791604082827fddf252ad1be2c89b69c2b068fc378daa952ba7f163c4a11628f55a4df523b3ef958760209652828652038282205586815280845220818154019055604051908152a3565b6064937fe450d38c0000000000000000000000000000000000000000000000000000000083949352600452602452604452fd5b7fec442f0500000000000000000000000000000000000000000000000000000000600052600060045260246000fd5b7f96c6fd1e00000000000000000000000000000000000000000000000000000000600052600060045260246000fd5b6001600160a01b036005541633036108d857565b7f118cdaa7000000000000000000000000000000000000000000000000000000006000523360045260246000fdfea2646970667358221220e2ea0ca5423200e80d603ef6d7294954cba3573327aeb647ccca59f5ce5aeb4264736f6c634300081b0033a2646970667358221220dc6d8756b0decc4030806a0ef439f6af1f5c6fe54abc70ccc69d8de0f136ed5464736f6c634300081b0033",
          "opcodes": "PUSH1 0x80 DUP1 PUSH1 0x40 MSTORE CALLVALUE PUSH1 0x5D JUMPI PUSH1 0x1 DUP1 SLOAD PUSH1 0x1 PUSH1 0x1 PUSH1 0xA0 SHL SUB NOT SWAP1 DUP2 AND PUSH20 0x427BF5B37357632377ECBEC9DE3626C71A5396C1 OR SWAP1 SWAP2 SSTORE PUSH1 0x2 DUP1 SLOAD SWAP1 SWAP2 AND PUSH20 0xBFBCF9FA4F9C56B0F40A671AD40E0805A091865 OR SWAP1 SSTORE PUSH2 0x1EC8 SWAP1 DUP2 PUSH2 0x63 DUP3 CODECOPY RETURN JUMPDEST PUSH1 0x0 DUP1 REVERT INVALID PUSH1 0x80 DUP1 PUSH1 0x40 MSTORE PUSH1 0x4 CALLDATASIZE LT ISZERO PUSH2 0x13 JUMPI PUSH1 0x0 DUP1 REVERT JUMPDEST PUSH1 0x0 SWAP1 DUP2 CALLDATALOAD PUSH1 0xE0 SHR SWAP1 DUP2 PUSH4 0x1FFC9A7 EQ PUSH2 0xC29 JUMPI POP DUP1 PUSH4 0xFC63D10 EQ PUSH2 0xC02 JUMPI DUP1 PUSH4 0x150B7A02 EQ PUSH2 0xB3B JUMPI DUP1 PUSH4 0x248A9CA3 EQ PUSH2 0xB05 JUMPI DUP1 PUSH4 0x2F2FF15D EQ PUSH2 0xAC4 JUMPI DUP1 PUSH4 0x36568ABE EQ PUSH2 0xA66 JUMPI DUP1 PUSH4 0x5F64B55B EQ PUSH2 0xA3F JUMPI DUP1 PUSH4 0x7A8A1113 EQ PUSH2 0xA18 JUMPI DUP1 PUSH4 0x91D14854 EQ PUSH2 0x9D1 JUMPI DUP1 PUSH4 0x966DAE0E EQ PUSH2 0x9AA JUMPI DUP1 PUSH4 0x9A06B113 EQ PUSH2 0x6BB JUMPI DUP1 PUSH4 0x9CBF9E36 EQ PUSH2 0x4B8 JUMPI DUP1 PUSH4 0xA217FDDF EQ PUSH2 0x49C JUMPI DUP1 PUSH4 0xD547741F EQ PUSH2 0x452 JUMPI PUSH4 0xF7F23A0C EQ PUSH2 0xC6 JUMPI PUSH1 0x0 DUP1 REVERT JUMPDEST CALLVALUE PUSH2 0x3A2 JUMPI DUP1 PUSH1 0x3 NOT CALLDATASIZE ADD SLT PUSH2 0x3A2 JUMPI DUP1 PUSH1 0x20 PUSH1 0x1 PUSH1 0x1 PUSH1 0xA0 SHL SUB PUSH1 0x3 SLOAD AND PUSH1 0x44 PUSH1 0x1 PUSH1 0x1 PUSH1 0xA0 SHL SUB PUSH1 0x1 SLOAD AND PUSH1 0x40 MLOAD SWAP5 DUP6 SWAP4 DUP5 SWAP3 PUSH32 0x95EA7B300000000000000000000000000000000000000000000000000000000 DUP5 MSTORE PUSH1 0x4 DUP5 ADD MSTORE PUSH9 0x3635C9ADC5DEA00000 PUSH1 0x24 DUP5 ADD MSTORE GAS CALL DUP1 ISZERO PUSH2 0x3B1 JUMPI PUSH2 0x41B JUMPI JUMPDEST POP DUP1 PUSH1 0x20 PUSH1 0x1 PUSH1 0x1 PUSH1 0xA0 SHL SUB PUSH1 0x4 SLOAD AND PUSH1 0x44 PUSH1 0x1 PUSH1 0x1 PUSH1 0xA0 SHL SUB PUSH1 0x1 SLOAD AND PUSH1 0x40 MLOAD SWAP5 DUP6 SWAP4 DUP5 SWAP3 PUSH32 0x95EA7B300000000000000000000000000000000000000000000000000000000 DUP5 MSTORE PUSH1 0x4 DUP5 ADD MSTORE PUSH9 0x6C6B935B8BBD400000 PUSH1 0x24 DUP5 ADD MSTORE GAS CALL DUP1 ISZERO PUSH2 0x3B1 JUMPI PUSH2 0x3E4 JUMPI JUMPDEST POP PUSH1 0x1 PUSH1 0x1 PUSH1 0xA0 SHL SUB PUSH1 0x3 SLOAD AND PUSH1 0x1 PUSH1 0x1 PUSH1 0xA0 SHL SUB PUSH1 0x4 SLOAD AND SWAP1 PUSH32 0x743BC0759A0C01A2A0E0773F41F2E5A19D4F8F8FEA40B7AEDE3A810ED9F3A0F0 PUSH1 0xA0 PUSH1 0x40 MLOAD DUP4 DUP2 MSTORE DUP5 PUSH1 0x20 DUP3 ADD MSTORE PUSH2 0x1F4 PUSH1 0x40 DUP3 ADD MSTORE PUSH3 0xD89B3 NOT PUSH1 0x60 DUP3 ADD MSTORE PUSH3 0xD89B4 PUSH1 0x80 DUP3 ADD MSTORE LOG1 PUSH2 0x12C TIMESTAMP ADD DUP1 TIMESTAMP GT PUSH2 0x3D0 JUMPI PUSH1 0x40 MLOAD SWAP2 PUSH2 0x160 DUP4 ADD DUP4 DUP2 LT PUSH8 0xFFFFFFFFFFFFFFFF DUP3 GT OR PUSH2 0x3BC JUMPI SWAP1 DUP6 SWAP4 SWAP3 SWAP2 PUSH1 0x40 MSTORE DUP3 MSTORE PUSH1 0x20 DUP3 ADD SWAP4 DUP5 MSTORE PUSH1 0x40 DUP3 ADD SWAP1 PUSH2 0x1F4 DUP3 MSTORE PUSH1 0x60 DUP4 ADD PUSH3 0xD89B3 NOT DUP2 MSTORE PUSH1 0x80 DUP5 ADD PUSH3 0xD89B4 DUP2 MSTORE PUSH1 0xA0 DUP6 ADD PUSH9 0x3635C9ADC5DEA00000 DUP2 MSTORE PUSH1 0xC0 DUP7 ADD PUSH9 0x6C6B935B8BBD400000 DUP2 MSTORE PUSH1 0xE0 DUP8 ADD SWAP2 DUP9 DUP4 MSTORE PUSH2 0x100 DUP9 ADD SWAP4 DUP10 DUP6 MSTORE PUSH2 0x120 DUP10 ADD SWAP6 ADDRESS DUP8 MSTORE PUSH2 0x140 DUP11 ADD SWAP8 DUP9 MSTORE PUSH1 0x1 SLOAD PUSH1 0x1 PUSH1 0x1 PUSH1 0xA0 SHL SUB AND SWAP9 PUSH1 0x40 MLOAD SWAP13 DUP14 SWAP12 PUSH32 0x8831645600000000000000000000000000000000000000000000000000000000 DUP14 MSTORE MLOAD PUSH1 0x1 PUSH1 0x1 PUSH1 0xA0 SHL SUB AND PUSH1 0x4 DUP14 ADD MSTORE MLOAD PUSH1 0x1 PUSH1 0x1 PUSH1 0xA0 SHL SUB AND PUSH1 0x24 DUP13 ADD MSTORE MLOAD PUSH3 0xFFFFFF AND PUSH1 0x44 DUP12 ADD MSTORE MLOAD PUSH1 0x2 SIGNEXTEND PUSH1 0x64 DUP11 ADD MSTORE MLOAD PUSH1 0x2 SIGNEXTEND PUSH1 0x84 DUP10 ADD MSTORE MLOAD PUSH1 0xA4 DUP9 ADD MSTORE MLOAD PUSH1 0xC4 DUP8 ADD MSTORE MLOAD PUSH1 0xE4 DUP7 ADD MSTORE MLOAD PUSH2 0x104 DUP6 ADD MSTORE MLOAD PUSH1 0x1 PUSH1 0x1 PUSH1 0xA0 SHL SUB AND PUSH2 0x124 DUP5 ADD MSTORE MLOAD PUSH2 0x144 DUP4 ADD MSTORE DUP2 GAS SWAP4 PUSH2 0x164 SWAP3 PUSH1 0x80 SWAP6 CALL DUP1 ISZERO PUSH2 0x3B1 JUMPI PUSH2 0x362 JUMPI POP DUP1 RETURN JUMPDEST PUSH1 0x80 DUP2 RETURNDATASIZE PUSH1 0x80 GT PUSH2 0x3A9 JUMPI JUMPDEST DUP2 PUSH2 0x37B PUSH1 0x80 SWAP4 DUP4 PUSH2 0xCFA JUMP JUMPDEST DUP2 ADD SUB SLT PUSH2 0x3A5 JUMPI PUSH1 0x20 ADD MLOAD PUSH16 0xFFFFFFFFFFFFFFFFFFFFFFFFFFFFFFFF DUP2 AND SUB PUSH2 0x3A2 JUMPI DUP1 RETURN JUMPDEST DUP1 REVERT JUMPDEST POP DUP1 REVERT JUMPDEST RETURNDATASIZE SWAP2 POP PUSH2 0x36E JUMP JUMPDEST PUSH1 0x40 MLOAD RETURNDATASIZE DUP5 DUP3 RETURNDATACOPY RETURNDATASIZE SWAP1 REVERT JUMPDEST PUSH1 0x24 DUP7 PUSH4 0x4E487B71 PUSH1 0xE0 SHL DUP2 MSTORE PUSH1 0x41 PUSH1 0x4 MSTORE REVERT JUMPDEST PUSH1 0x24 DUP5 PUSH4 0x4E487B71 PUSH1 0xE0 SHL DUP2 MSTORE PUSH1 0x11 PUSH1 0x4 MSTORE REVERT JUMPDEST PUSH1 0x20 DUP2 RETURNDATASIZE PUSH1 0x20 GT PUSH2 0x413 JUMPI JUMPDEST DUP2 PUSH2 0x3FD PUSH1 0x20 SWAP4 DUP4 PUSH2 0xCFA JUMP JUMPDEST DUP2 ADD SUB SLT PUSH2 0x3A5 JUMPI PUSH2 0x40E SWAP1 PUSH2 0xD81 JUMP JUMPDEST PUSH2 0x1A9 JUMP JUMPDEST RETURNDATASIZE SWAP2 POP PUSH2 0x3F0 JUMP JUMPDEST PUSH1 0x20 DUP2 RETURNDATASIZE PUSH1 0x20 GT PUSH2 0x44A JUMPI JUMPDEST DUP2 PUSH2 0x434 PUSH1 0x20 SWAP4 DUP4 PUSH2 0xCFA JUMP JUMPDEST DUP2 ADD SUB SLT PUSH2 0x3A5 JUMPI PUSH2 0x445 SWAP1 PUSH2 0xD81 JUMP JUMPDEST PUSH2 0x13F JUMP JUMPDEST RETURNDATASIZE SWAP2 POP PUSH2 0x427 JUMP JUMPDEST POP CALLVALUE PUSH2 0x3A2 JUMPI PUSH1 0x40 PUSH1 0x3 NOT CALLDATASIZE ADD SLT PUSH2 0x3A2 JUMPI PUSH2 0x498 PUSH1 0x4 CALLDATALOAD PUSH2 0x472 PUSH2 0xCE4 JUMP JUMPDEST SWAP1 PUSH2 0x493 PUSH2 0x48E DUP3 PUSH1 0x0 MSTORE PUSH1 0x0 PUSH1 0x20 MSTORE PUSH1 0x1 PUSH1 0x40 PUSH1 0x0 KECCAK256 ADD SLOAD SWAP1 JUMP JUMPDEST PUSH2 0xD8E JUMP JUMPDEST PUSH2 0xE88 JUMP JUMPDEST POP DUP1 RETURN JUMPDEST POP CALLVALUE PUSH2 0x3A2 JUMPI DUP1 PUSH1 0x3 NOT CALLDATASIZE ADD SLT PUSH2 0x3A2 JUMPI PUSH1 0x20 SWAP1 PUSH1 0x40 MLOAD SWAP1 DUP2 MSTORE RETURN JUMPDEST POP CALLVALUE PUSH2 0x3A2 JUMPI DUP1 PUSH1 0x3 NOT CALLDATASIZE ADD SLT PUSH2 0x3A2 JUMPI PUSH1 0x40 MLOAD PUSH2 0xE3F DUP1 DUP3 ADD SWAP2 DUP1 DUP4 LT PUSH8 0xFFFFFFFFFFFFFFFF DUP5 GT OR PUSH2 0x6A7 JUMPI PUSH2 0x100 DUP2 PUSH2 0x1054 SWAP5 DUP5 DUP7 DUP4 CODECOPY ADDRESS DUP2 MSTORE PUSH10 0xD3C21BCECCEDA1000000 PUSH1 0x20 DUP3 ADD MSTORE PUSH1 0x80 PUSH1 0x40 DUP3 ADD MSTORE PUSH1 0x6 PUSH1 0x80 DUP3 ADD MSTORE PUSH32 0x544F4B454E300000000000000000000000000000000000000000000000000000 PUSH1 0xA0 DUP3 ADD MSTORE PUSH1 0xC0 PUSH1 0x60 DUP3 ADD MSTORE PUSH1 0x2 PUSH1 0xC0 DUP3 ADD MSTORE PUSH32 0x5430000000000000000000000000000000000000000000000000000000000000 PUSH1 0xE0 DUP3 ADD MSTORE SUB ADD SWAP1 DUP5 CREATE SWAP2 DUP3 ISZERO PUSH2 0x69C JUMPI PUSH1 0x40 MLOAD SWAP2 DUP1 DUP4 ADD SWAP2 DUP4 DUP4 LT PUSH8 0xFFFFFFFFFFFFFFFF DUP5 GT OR PUSH2 0x3BC JUMPI SWAP2 DUP4 SWAP2 PUSH2 0x100 SWAP4 DUP4 CODECOPY ADDRESS DUP2 MSTORE PUSH10 0xD3C21BCECCEDA1000000 PUSH1 0x20 DUP3 ADD MSTORE PUSH1 0x80 PUSH1 0x40 DUP3 ADD MSTORE PUSH1 0x6 PUSH1 0x80 DUP3 ADD MSTORE PUSH32 0x544F4B454E310000000000000000000000000000000000000000000000000000 PUSH1 0xA0 DUP3 ADD MSTORE PUSH1 0xC0 PUSH1 0x60 DUP3 ADD MSTORE PUSH1 0x2 PUSH1 0xC0 DUP3 ADD MSTORE PUSH32 0x5431000000000000000000000000000000000000000000000000000000000000 PUSH1 0xE0 DUP3 ADD MSTORE SUB ADD SWAP1 DUP4 CREATE DUP1 ISZERO PUSH2 0x3B1 JUMPI PUSH1 0x1 PUSH1 0x1 PUSH1 0xA0 SHL SUB SWAP2 SWAP1 DUP3 AND SWAP1 DUP3 AND DUP2 DUP2 LT ISZERO PUSH2 0x695 JUMPI DUP3 SWAP1 SWAP2 JUMPDEST AND PUSH32 0xFFFFFFFFFFFFFFFFFFFFFFFF0000000000000000000000000000000000000000 PUSH1 0x4 SLOAD AND OR PUSH1 0x4 SSTORE AND PUSH32 0xFFFFFFFFFFFFFFFFFFFFFFFF0000000000000000000000000000000000000000 PUSH1 0x3 SLOAD AND OR PUSH1 0x3 SSTORE DUP1 RETURN JUMPDEST DUP3 SWAP1 PUSH2 0x63E JUMP JUMPDEST PUSH1 0x40 MLOAD RETURNDATASIZE DUP6 DUP3 RETURNDATACOPY RETURNDATASIZE SWAP1 REVERT JUMPDEST PUSH1 0x24 DUP5 PUSH4 0x4E487B71 PUSH1 0xE0 SHL DUP2 MSTORE PUSH1 0x41 PUSH1 0x4 MSTORE REVERT JUMPDEST POP CALLVALUE PUSH2 0x3A2 JUMPI DUP1 PUSH1 0x3 NOT CALLDATASIZE ADD SLT PUSH2 0x3A2 JUMPI PUSH1 0x2 SLOAD PUSH1 0x3 SLOAD PUSH1 0x4 DUP1 SLOAD PUSH1 0x40 MLOAD PUSH32 0xA167129500000000000000000000000000000000000000000000000000000000 DUP2 MSTORE PUSH1 0x1 PUSH1 0x1 PUSH1 0xA0 SHL SUB SWAP4 DUP5 AND SWAP3 DUP2 ADD SWAP3 SWAP1 SWAP3 MSTORE DUP3 AND PUSH1 0x24 DUP3 ADD MSTORE PUSH2 0x1F4 PUSH1 0x44 DUP3 ADD MSTORE SWAP2 PUSH1 0x20 SWAP2 DUP4 SWAP2 PUSH1 0x64 SWAP2 DUP4 SWAP2 DUP8 SWAP2 AND GAS CALL DUP1 ISZERO PUSH2 0x3B1 JUMPI PUSH2 0x98D JUMPI JUMPDEST POP PUSH1 0x2 SLOAD PUSH1 0x3 SLOAD PUSH1 0x4 DUP1 SLOAD PUSH1 0x40 MLOAD PUSH32 0x1698EE8200000000000000000000000000000000000000000000000000000000 DUP2 MSTORE PUSH1 0x1 PUSH1 0x1 PUSH1 0xA0 SHL SUB SWAP4 DUP5 AND SWAP3 DUP2 ADD SWAP3 SWAP1 SWAP3 MSTORE DUP3 AND PUSH1 0x24 DUP3 ADD MSTORE PUSH2 0x1F4 PUSH1 0x44 DUP3 ADD MSTORE SWAP2 PUSH1 0x20 SWAP2 DUP4 SWAP2 PUSH1 0x64 SWAP2 DUP4 SWAP2 AND GAS STATICCALL SWAP1 DUP2 ISZERO PUSH2 0x3B1 JUMPI DUP3 SWAP2 PUSH2 0x95E JUMPI JUMPDEST POP PUSH2 0x7B8 PUSH8 0x1BC16D674EC80000 PUSH2 0xF17 JUMP JUMPDEST SWAP1 DUP2 PUSH1 0x60 SHL SWAP2 DUP1 DUP4 DIV PUSH13 0x1000000000000000000000000 EQ SWAP1 ISZERO OR ISZERO PUSH2 0x94A JUMPI PUSH1 0x1 PUSH1 0x1 PUSH1 0xA0 SHL SUB DUP4 SWAP2 AND PUSH1 0x40 MLOAD PUSH32 0x3850C7BD00000000000000000000000000000000000000000000000000000000 DUP2 MSTORE PUSH1 0xE0 DUP2 PUSH1 0x4 DUP2 DUP6 GAS STATICCALL DUP1 ISZERO PUSH2 0x69C JUMPI DUP4 SWAP1 PUSH2 0x8A9 JUMPI JUMPDEST PUSH1 0x1 PUSH1 0x1 PUSH1 0xA0 SHL SUB SWAP2 POP AND ISZERO PUSH2 0x833 JUMPI POP DUP1 RETURN JUMPDEST DUP1 EXTCODESIZE ISZERO PUSH2 0x3A5 JUMPI PUSH4 0x3B9ACA00 PUSH1 0x24 PUSH1 0x1 PUSH1 0x1 PUSH1 0xA0 SHL SUB SWAP5 DUP5 DUP1 SWAP5 PUSH1 0x40 MLOAD SWAP8 DUP9 SWAP6 DUP7 SWAP5 PUSH32 0xF637731D00000000000000000000000000000000000000000000000000000000 DUP7 MSTORE DIV AND PUSH1 0x4 DUP5 ADD MSTORE GAS CALL DUP1 ISZERO PUSH2 0x89C JUMPI PUSH2 0x88E JUMPI DUP1 RETURN JUMPDEST PUSH2 0x897 SWAP2 PUSH2 0xCFA JUMP JUMPDEST CODESIZE DUP2 DUP1 RETURN JUMPDEST POP PUSH1 0x40 MLOAD SWAP1 RETURNDATASIZE SWAP1 DUP3 RETURNDATACOPY RETURNDATASIZE SWAP1 REVERT JUMPDEST POP PUSH1 0xE0 DUP2 RETURNDATASIZE PUSH1 0xE0 GT PUSH2 0x942 JUMPI JUMPDEST DUP2 PUSH2 0x8C3 PUSH1 0xE0 SWAP4 DUP4 PUSH2 0xCFA JUMP JUMPDEST DUP2 ADD SUB SLT PUSH2 0x93E JUMPI DUP1 MLOAD PUSH1 0x1 PUSH1 0x1 PUSH1 0xA0 SHL SUB DUP2 AND DUP2 SUB PUSH2 0x93A JUMPI PUSH1 0x20 DUP3 ADD MLOAD DUP1 PUSH1 0x2 SIGNEXTEND SUB PUSH2 0x93A JUMPI PUSH2 0x8F7 PUSH1 0x40 DUP4 ADD PUSH2 0xD72 JUMP JUMPDEST POP PUSH2 0x904 PUSH1 0x60 DUP4 ADD PUSH2 0xD72 JUMP JUMPDEST POP PUSH2 0x911 PUSH1 0x80 DUP4 ADD PUSH2 0xD72 JUMP JUMPDEST POP PUSH1 0xA0 DUP3 ADD MLOAD PUSH1 0xFF DUP2 AND SUB PUSH2 0x93A JUMPI PUSH2 0x934 PUSH1 0xC0 PUSH1 0x1 PUSH1 0x1 PUSH1 0xA0 SHL SUB SWAP4 ADD PUSH2 0xD81 JUMP JUMPDEST POP PUSH2 0x81F JUMP JUMPDEST DUP4 DUP1 REVERT JUMPDEST DUP3 DUP1 REVERT JUMPDEST RETURNDATASIZE SWAP2 POP PUSH2 0x8B6 JUMP JUMPDEST PUSH1 0x24 DUP4 PUSH4 0x4E487B71 PUSH1 0xE0 SHL DUP2 MSTORE PUSH1 0x11 PUSH1 0x4 MSTORE REVERT JUMPDEST PUSH2 0x980 SWAP2 POP PUSH1 0x20 RETURNDATASIZE PUSH1 0x20 GT PUSH2 0x986 JUMPI JUMPDEST PUSH2 0x978 DUP2 DUP4 PUSH2 0xCFA JUMP JUMPDEST DUP2 ADD SWAP1 PUSH2 0xD33 JUMP JUMPDEST CODESIZE PUSH2 0x7A6 JUMP JUMPDEST POP RETURNDATASIZE PUSH2 0x96E JUMP JUMPDEST PUSH2 0x9A5 SWAP1 PUSH1 0x20 RETURNDATASIZE PUSH1 0x20 GT PUSH2 0x986 JUMPI PUSH2 0x978 DUP2 DUP4 PUSH2 0xCFA JUMP JUMPDEST PUSH2 0x738 JUMP JUMPDEST POP CALLVALUE PUSH2 0x3A2 JUMPI DUP1 PUSH1 0x3 NOT CALLDATASIZE ADD SLT PUSH2 0x3A2 JUMPI PUSH1 0x20 PUSH1 0x1 PUSH1 0x1 PUSH1 0xA0 SHL SUB PUSH1 0x2 SLOAD AND PUSH1 0x40 MLOAD SWAP1 DUP2 MSTORE RETURN JUMPDEST POP CALLVALUE PUSH2 0x3A2 JUMPI PUSH1 0x40 PUSH1 0x3 NOT CALLDATASIZE ADD SLT PUSH2 0x3A2 JUMPI PUSH1 0xFF PUSH1 0x40 PUSH1 0x20 SWAP3 PUSH2 0x9F2 PUSH2 0xCE4 JUMP JUMPDEST PUSH1 0x4 CALLDATALOAD DUP3 MSTORE DUP2 DUP6 MSTORE PUSH1 0x1 PUSH1 0x1 PUSH1 0xA0 SHL SUB DUP4 DUP4 KECCAK256 SWAP2 AND DUP3 MSTORE DUP5 MSTORE KECCAK256 SLOAD AND PUSH1 0x40 MLOAD SWAP1 ISZERO ISZERO DUP2 MSTORE RETURN JUMPDEST POP CALLVALUE PUSH2 0x3A2 JUMPI DUP1 PUSH1 0x3 NOT CALLDATASIZE ADD SLT PUSH2 0x3A2 JUMPI PUSH1 0x20 PUSH1 0x1 PUSH1 0x1 PUSH1 0xA0 SHL SUB PUSH1 0x1 SLOAD AND PUSH1 0x40 MLOAD SWAP1 DUP2 MSTORE RETURN JUMPDEST POP CALLVALUE PUSH2 0x3A2 JUMPI DUP1 PUSH1 0x3 NOT CALLDATASIZE ADD SLT PUSH2 0x3A2 JUMPI PUSH1 0x20 PUSH1 0x1 PUSH1 0x1 PUSH1 0xA0 SHL SUB PUSH1 0x4 SLOAD AND PUSH1 0x40 MLOAD SWAP1 DUP2 MSTORE RETURN JUMPDEST POP CALLVALUE PUSH2 0x3A2 JUMPI PUSH1 0x40 PUSH1 0x3 NOT CALLDATASIZE ADD SLT PUSH2 0x3A2 JUMPI PUSH2 0xA80 PUSH2 0xCE4 JUMP JUMPDEST CALLER PUSH1 0x1 PUSH1 0x1 PUSH1 0xA0 SHL SUB DUP3 AND SUB PUSH2 0xA9C JUMPI PUSH2 0x498 SWAP1 PUSH1 0x4 CALLDATALOAD PUSH2 0xE88 JUMP JUMPDEST PUSH1 0x4 DUP3 PUSH32 0x6697B23200000000000000000000000000000000000000000000000000000000 DUP2 MSTORE REVERT JUMPDEST POP CALLVALUE PUSH2 0x3A2 JUMPI PUSH1 0x40 PUSH1 0x3 NOT CALLDATASIZE ADD SLT PUSH2 0x3A2 JUMPI PUSH2 0x498 PUSH1 0x4 CALLDATALOAD PUSH2 0xAE4 PUSH2 0xCE4 JUMP JUMPDEST SWAP1 PUSH2 0xB00 PUSH2 0x48E DUP3 PUSH1 0x0 MSTORE PUSH1 0x0 PUSH1 0x20 MSTORE PUSH1 0x1 PUSH1 0x40 PUSH1 0x0 KECCAK256 ADD SLOAD SWAP1 JUMP JUMPDEST PUSH2 0xDEE JUMP JUMPDEST POP CALLVALUE PUSH2 0x3A2 JUMPI PUSH1 0x20 PUSH1 0x3 NOT CALLDATASIZE ADD SLT PUSH2 0x3A2 JUMPI PUSH1 0x20 PUSH2 0xB33 PUSH1 0x4 CALLDATALOAD PUSH1 0x0 MSTORE PUSH1 0x0 PUSH1 0x20 MSTORE PUSH1 0x1 PUSH1 0x40 PUSH1 0x0 KECCAK256 ADD SLOAD SWAP1 JUMP JUMPDEST PUSH1 0x40 MLOAD SWAP1 DUP2 MSTORE RETURN JUMPDEST POP CALLVALUE PUSH2 0x3A2 JUMPI PUSH1 0x80 PUSH1 0x3 NOT CALLDATASIZE ADD SLT PUSH2 0x3A2 JUMPI PUSH2 0xB55 PUSH2 0xCC9 JUMP JUMPDEST POP PUSH2 0xB5E PUSH2 0xCE4 JUMP JUMPDEST POP PUSH1 0x64 CALLDATALOAD PUSH8 0xFFFFFFFFFFFFFFFF DUP2 GT PUSH2 0x3A5 JUMPI CALLDATASIZE PUSH1 0x23 DUP3 ADD SLT ISZERO PUSH2 0x3A5 JUMPI DUP1 PUSH1 0x4 ADD CALLDATALOAD PUSH8 0xFFFFFFFFFFFFFFFF DUP2 GT PUSH2 0xBEE JUMPI PUSH1 0x40 MLOAD PUSH2 0xBA7 PUSH1 0x20 PUSH1 0x1F NOT PUSH1 0x1F DUP6 ADD AND ADD DUP3 PUSH2 0xCFA JUMP JUMPDEST DUP2 DUP2 MSTORE CALLDATASIZE PUSH1 0x24 DUP4 DUP6 ADD ADD GT PUSH2 0x93A JUMPI DUP2 PUSH1 0x24 PUSH1 0x20 SWAP5 ADD DUP5 DUP4 ADD CALLDATACOPY ADD ADD MSTORE PUSH1 0x20 PUSH1 0x40 MLOAD PUSH32 0x150B7A0200000000000000000000000000000000000000000000000000000000 DUP2 MSTORE RETURN JUMPDEST PUSH1 0x24 DUP4 PUSH4 0x4E487B71 PUSH1 0xE0 SHL DUP2 MSTORE PUSH1 0x41 PUSH1 0x4 MSTORE REVERT JUMPDEST POP CALLVALUE PUSH2 0x3A2 JUMPI DUP1 PUSH1 0x3 NOT CALLDATASIZE ADD SLT PUSH2 0x3A2 JUMPI PUSH1 0x20 PUSH1 0x1 PUSH1 0x1 PUSH1 0xA0 SHL SUB PUSH1 0x3 SLOAD AND PUSH1 0x40 MLOAD SWAP1 DUP2 MSTORE RETURN JUMPDEST SWAP1 POP CALLVALUE PUSH2 0x3A5 JUMPI PUSH1 0x20 PUSH1 0x3 NOT CALLDATASIZE ADD SLT PUSH2 0x3A5 JUMPI PUSH1 0x4 CALLDATALOAD PUSH32 0xFFFFFFFF00000000000000000000000000000000000000000000000000000000 DUP2 AND DUP1 SWAP2 SUB PUSH2 0x93E JUMPI PUSH1 0x20 SWAP3 POP PUSH32 0x7965DB0B00000000000000000000000000000000000000000000000000000000 DUP2 EQ SWAP1 DUP2 ISZERO PUSH2 0xC9F JUMPI JUMPDEST POP ISZERO ISZERO DUP2 MSTORE RETURN JUMPDEST PUSH32 0x1FFC9A700000000000000000000000000000000000000000000000000000000 SWAP2 POP EQ CODESIZE PUSH2 0xC98 JUMP JUMPDEST PUSH1 0x4 CALLDATALOAD SWAP1 PUSH1 0x1 PUSH1 0x1 PUSH1 0xA0 SHL SUB DUP3 AND DUP3 SUB PUSH2 0xCDF JUMPI JUMP JUMPDEST PUSH1 0x0 DUP1 REVERT JUMPDEST PUSH1 0x24 CALLDATALOAD SWAP1 PUSH1 0x1 PUSH1 0x1 PUSH1 0xA0 SHL SUB DUP3 AND DUP3 SUB PUSH2 0xCDF JUMPI JUMP JUMPDEST SWAP1 PUSH1 0x1F PUSH1 0x1F NOT SWAP2 ADD AND DUP2 ADD SWAP1 DUP2 LT PUSH8 0xFFFFFFFFFFFFFFFF DUP3 GT OR PUSH2 0xD1D JUMPI PUSH1 0x40 MSTORE JUMP JUMPDEST PUSH4 0x4E487B71 PUSH1 0xE0 SHL PUSH1 0x0 MSTORE PUSH1 0x41 PUSH1 0x4 MSTORE PUSH1 0x24 PUSH1 0x0 REVERT JUMPDEST SWAP1 DUP2 PUSH1 0x20 SWAP2 SUB SLT PUSH2 0xCDF JUMPI MLOAD PUSH1 0x1 PUSH1 0x1 PUSH1 0xA0 SHL SUB DUP2 AND DUP2 SUB PUSH2 0xCDF JUMPI SWAP1 JUMP JUMPDEST DUP2 ISZERO PUSH2 0xD5C JUMPI DIV SWAP1 JUMP JUMPDEST PUSH4 0x4E487B71 PUSH1 0xE0 SHL PUSH1 0x0 MSTORE PUSH1 0x12 PUSH1 0x4 MSTORE PUSH1 0x24 PUSH1 0x0 REVERT JUMPDEST MLOAD SWAP1 PUSH2 0xFFFF DUP3 AND DUP3 SUB PUSH2 0xCDF JUMPI JUMP JUMPDEST MLOAD SWAP1 DUP2 ISZERO ISZERO DUP3 SUB PUSH2 0xCDF JUMPI JUMP JUMPDEST DUP1 PUSH1 0x0 MSTORE PUSH1 0x0 PUSH1 0x20 MSTORE PUSH1 0x40 PUSH1 0x0 KECCAK256 PUSH1 0x1 PUSH1 0x1 PUSH1 0xA0 SHL SUB CALLER AND PUSH1 0x0 MSTORE PUSH1 0x20 MSTORE PUSH1 0xFF PUSH1 0x40 PUSH1 0x0 KECCAK256 SLOAD AND ISZERO PUSH2 0xDBD JUMPI POP JUMP JUMPDEST PUSH32 0xE2517D3F00000000000000000000000000000000000000000000000000000000 PUSH1 0x0 MSTORE CALLER PUSH1 0x4 MSTORE PUSH1 0x24 MSTORE PUSH1 0x44 PUSH1 0x0 REVERT JUMPDEST DUP1 PUSH1 0x0 MSTORE PUSH1 0x0 PUSH1 0x20 MSTORE PUSH1 0x40 PUSH1 0x0 KECCAK256 PUSH1 0x1 PUSH1 0x1 PUSH1 0xA0 SHL SUB DUP4 AND PUSH1 0x0 MSTORE PUSH1 0x20 MSTORE PUSH1 0xFF PUSH1 0x40 PUSH1 0x0 KECCAK256 SLOAD AND ISZERO PUSH1 0x0 EQ PUSH2 0xE81 JUMPI DUP1 PUSH1 0x0 MSTORE PUSH1 0x0 PUSH1 0x20 MSTORE PUSH1 0x40 PUSH1 0x0 KECCAK256 PUSH1 0x1 PUSH1 0x1 PUSH1 0xA0 SHL SUB DUP4 AND PUSH1 0x0 MSTORE PUSH1 0x20 MSTORE PUSH1 0x40 PUSH1 0x0 KECCAK256 PUSH1 0x1 PUSH1 0xFF NOT DUP3 SLOAD AND OR SWAP1 SSTORE PUSH1 0x1 PUSH1 0x1 PUSH1 0xA0 SHL SUB CALLER SWAP3 AND SWAP1 PUSH32 0x2F8788117E7EFF1D82E926EC794901D17C78024A50270940304540A733656F0D PUSH1 0x0 DUP1 LOG4 PUSH1 0x1 SWAP1 JUMP JUMPDEST POP POP PUSH1 0x0 SWAP1 JUMP JUMPDEST DUP1 PUSH1 0x0 MSTORE PUSH1 0x0 PUSH1 0x20 MSTORE PUSH1 0x40 PUSH1 0x0 KECCAK256 PUSH1 0x1 PUSH1 0x1 PUSH1 0xA0 SHL SUB DUP4 AND PUSH1 0x0 MSTORE PUSH1 0x20 MSTORE PUSH1 0xFF PUSH1 0x40 PUSH1 0x0 KECCAK256 SLOAD AND PUSH1 0x0 EQ PUSH2 0xE81 JUMPI DUP1 PUSH1 0x0 MSTORE PUSH1 0x0 PUSH1 0x20 MSTORE PUSH1 0x40 PUSH1 0x0 KECCAK256 PUSH1 0x1 PUSH1 0x1 PUSH1 0xA0 SHL SUB DUP4 AND PUSH1 0x0 MSTORE PUSH1 0x20 MSTORE PUSH1 0x40 PUSH1 0x0 KECCAK256 PUSH1 0xFF NOT DUP2 SLOAD AND SWAP1 SSTORE PUSH1 0x1 PUSH1 0x1 PUSH1 0xA0 SHL SUB CALLER SWAP3 AND SWAP1 PUSH32 0xF6391F5C32D9C69D2A47EA670B442974B53935D1EDC7FD64EB21E047A839171B PUSH1 0x0 DUP1 LOG4 PUSH1 0x1 SWAP1 JUMP JUMPDEST PUSH1 0x1 DUP2 GT ISZERO PUSH2 0x1050 JUMPI DUP1 PUSH1 0x1 PUSH17 0x100000000000000000000000000000000 DUP4 LT ISZERO PUSH2 0x103A JUMPI JUMPDEST PUSH1 0x4 DUP3 PUSH9 0x10000000000000000 PUSH2 0xFEC SWAP5 LT ISZERO PUSH2 0x102D JUMPI JUMPDEST PUSH5 0x100000000 DUP2 LT ISZERO PUSH2 0x1020 JUMPI JUMPDEST PUSH3 0x10000 DUP2 LT ISZERO PUSH2 0x1013 JUMPI JUMPDEST PUSH2 0x100 DUP2 LT ISZERO PUSH2 0x1007 JUMPI JUMPDEST PUSH1 0x10 DUP2 LT ISZERO PUSH2 0xFFB JUMPI JUMPDEST LT ISZERO PUSH2 0xFF3 JUMPI JUMPDEST PUSH1 0x3 MUL PUSH1 0x1 SHR PUSH2 0xF9B DUP2 DUP5 PUSH2 0xD52 JUMP JUMPDEST ADD PUSH1 0x1 SHR PUSH2 0xFA9 DUP2 DUP5 PUSH2 0xD52 JUMP JUMPDEST ADD PUSH1 0x1 SHR PUSH2 0xFB7 DUP2 DUP5 PUSH2 0xD52 JUMP JUMPDEST ADD PUSH1 0x1 SHR PUSH2 0xFC5 DUP2 DUP5 PUSH2 0xD52 JUMP JUMPDEST ADD PUSH1 0x1 SHR PUSH2 0xFD3 DUP2 DUP5 PUSH2 0xD52 JUMP JUMPDEST ADD PUSH1 0x1 SHR PUSH2 0xFE1 DUP2 DUP5 PUSH2 0xD52 JUMP JUMPDEST ADD PUSH1 0x1 SHR DUP1 SWAP3 PUSH2 0xD52 JUMP JUMPDEST DUP2 GT SWAP1 SUB SWAP1 JUMP JUMPDEST PUSH1 0x1 SHL PUSH2 0xF8B JUMP JUMPDEST DUP2 SHR SWAP2 PUSH1 0x2 SHL SWAP2 PUSH2 0xF84 JUMP JUMPDEST PUSH1 0x8 SHR SWAP2 DUP2 SHL SWAP2 PUSH2 0xF7A JUMP JUMPDEST PUSH1 0x10 SHR SWAP2 PUSH1 0x8 SHL SWAP2 PUSH2 0xF6F JUMP JUMPDEST PUSH1 0x20 SHR SWAP2 PUSH1 0x10 SHL SWAP2 PUSH2 0xF63 JUMP JUMPDEST PUSH1 0x40 SHR SWAP2 PUSH1 0x20 SHL SWAP2 PUSH2 0xF55 JUMP JUMPDEST POP POP PUSH1 0x80 DUP2 SWAP1 SHR PUSH9 0x10000000000000000 PUSH2 0xF3D JUMP JUMPDEST SWAP1 JUMP INVALID PUSH1 0x80 PUSH1 0x40 MSTORE CALLVALUE PUSH2 0x424 JUMPI PUSH2 0xE3F DUP1 CODESIZE SUB DUP1 PUSH2 0x19 DUP2 PUSH2 0x429 JUMP JUMPDEST SWAP3 DUP4 CODECOPY DUP2 ADD SWAP1 PUSH1 0x80 DUP2 DUP4 SUB SLT PUSH2 0x424 JUMPI DUP1 MLOAD PUSH1 0x1 PUSH1 0x1 PUSH1 0xA0 SHL SUB DUP2 AND SWAP2 SWAP1 DUP3 DUP2 SUB PUSH2 0x424 JUMPI PUSH1 0x20 DUP3 ADD MLOAD PUSH1 0x40 DUP4 ADD MLOAD SWAP1 SWAP3 SWAP1 PUSH1 0x1 PUSH1 0x1 PUSH1 0x40 SHL SUB DUP2 GT PUSH2 0x424 JUMPI DUP6 PUSH2 0x65 SWAP2 DUP4 ADD PUSH2 0x44E JUMP JUMPDEST PUSH1 0x60 DUP3 ADD MLOAD SWAP1 SWAP6 SWAP1 PUSH1 0x1 PUSH1 0x1 PUSH1 0x40 SHL SUB DUP2 GT PUSH2 0x424 JUMPI PUSH2 0x85 SWAP3 ADD PUSH2 0x44E JUMP JUMPDEST DUP5 MLOAD SWAP1 SWAP5 PUSH1 0x1 PUSH1 0x1 PUSH1 0x40 SHL SUB DUP3 GT PUSH2 0x321 JUMPI PUSH1 0x3 SLOAD SWAP1 PUSH1 0x1 DUP3 DUP2 SHR SWAP3 AND DUP1 ISZERO PUSH2 0x41A JUMPI JUMPDEST PUSH1 0x20 DUP4 LT EQ PUSH2 0x301 JUMPI DUP2 PUSH1 0x1F DUP5 SWAP4 GT PUSH2 0x3AA JUMPI JUMPDEST POP PUSH1 0x20 SWAP1 PUSH1 0x1F DUP4 GT PUSH1 0x1 EQ PUSH2 0x342 JUMPI PUSH1 0x0 SWAP3 PUSH2 0x337 JUMPI JUMPDEST POP POP DUP2 PUSH1 0x1 SHL SWAP2 PUSH1 0x0 NOT SWAP1 PUSH1 0x3 SHL SHR NOT AND OR PUSH1 0x3 SSTORE JUMPDEST DUP4 MLOAD PUSH1 0x1 PUSH1 0x1 PUSH1 0x40 SHL SUB DUP2 GT PUSH2 0x321 JUMPI PUSH1 0x4 SLOAD PUSH1 0x1 DUP2 DUP2 SHR SWAP2 AND DUP1 ISZERO PUSH2 0x317 JUMPI JUMPDEST PUSH1 0x20 DUP3 LT EQ PUSH2 0x301 JUMPI PUSH1 0x1F DUP2 GT PUSH2 0x29C JUMPI JUMPDEST POP PUSH1 0x20 SWAP5 PUSH1 0x1F DUP3 GT PUSH1 0x1 EQ PUSH2 0x235 JUMPI SWAP5 DUP2 SWAP3 SWAP4 SWAP5 SWAP6 PUSH1 0x0 SWAP3 PUSH2 0x22A JUMPI JUMPDEST POP POP DUP2 PUSH1 0x1 SHL SWAP2 PUSH1 0x0 NOT SWAP1 PUSH1 0x3 SHL SHR NOT AND OR PUSH1 0x4 SSTORE JUMPDEST DUP3 ISZERO PUSH2 0x214 JUMPI DUP1 PUSH2 0x163 PUSH2 0x168 SWAP3 PUSH2 0x4B9 JUMP JUMPDEST PUSH2 0x4B9 JUMP JUMPDEST PUSH8 0xDE0B6B3A7640000 DUP2 MUL SWAP1 DUP1 DUP3 DIV PUSH8 0xDE0B6B3A7640000 EQ SWAP1 ISZERO OR ISZERO PUSH2 0x1FE JUMPI PUSH1 0x0 PUSH1 0x2 SLOAD DUP3 DUP2 ADD DUP1 SWAP2 GT PUSH2 0x1EA JUMPI PUSH1 0x0 SWAP3 PUSH32 0xDDF252AD1BE2C89B69C2B068FC378DAA952BA7F163C4A11628F55A4DF523B3EF SWAP3 PUSH1 0x20 SWAP3 PUSH1 0x2 SSTORE POP DUP5 DUP5 MSTORE DUP4 DUP3 MSTORE PUSH1 0x40 DUP5 KECCAK256 DUP2 DUP2 SLOAD ADD SWAP1 SSTORE PUSH1 0x40 MLOAD SWAP1 DUP2 MSTORE LOG3 PUSH1 0x40 MLOAD PUSH2 0x93C SWAP1 DUP2 PUSH2 0x503 DUP3 CODECOPY RETURN JUMPDEST PUSH4 0x4E487B71 PUSH1 0xE0 SHL DUP3 MSTORE PUSH1 0x11 PUSH1 0x4 MSTORE PUSH1 0x24 DUP3 REVERT JUMPDEST PUSH4 0x4E487B71 PUSH1 0xE0 SHL PUSH1 0x0 MSTORE PUSH1 0x11 PUSH1 0x4 MSTORE PUSH1 0x24 PUSH1 0x0 REVERT JUMPDEST PUSH4 0x1E4FBDF7 PUSH1 0xE0 SHL PUSH1 0x0 MSTORE PUSH1 0x0 PUSH1 0x4 MSTORE PUSH1 0x24 PUSH1 0x0 REVERT JUMPDEST ADD MLOAD SWAP1 POP CODESIZE DUP1 PUSH2 0x13A JUMP JUMPDEST PUSH1 0x1F NOT DUP3 AND SWAP6 PUSH1 0x4 PUSH1 0x0 MSTORE DUP1 PUSH1 0x0 KECCAK256 SWAP2 PUSH1 0x0 JUMPDEST DUP9 DUP2 LT PUSH2 0x284 JUMPI POP DUP4 PUSH1 0x1 SWAP6 SWAP7 SWAP8 SWAP9 LT PUSH2 0x26B JUMPI JUMPDEST POP POP POP DUP2 SHL ADD PUSH1 0x4 SSTORE PUSH2 0x150 JUMP JUMPDEST ADD MLOAD PUSH1 0x0 NOT PUSH1 0xF8 DUP5 PUSH1 0x3 SHL AND SHR NOT AND SWAP1 SSTORE CODESIZE DUP1 DUP1 PUSH2 0x25D JUMP JUMPDEST SWAP2 SWAP3 PUSH1 0x20 PUSH1 0x1 DUP2 SWAP3 DUP7 DUP6 ADD MLOAD DUP2 SSTORE ADD SWAP5 ADD SWAP3 ADD PUSH2 0x248 JUMP JUMPDEST PUSH1 0x4 PUSH1 0x0 MSTORE PUSH32 0x8A35ACFBC15FF81A39AE7D344FD709F28E8600B4AA8C65C6B64BFE7FE36BD19B PUSH1 0x1F DUP4 ADD PUSH1 0x5 SHR DUP2 ADD SWAP2 PUSH1 0x20 DUP5 LT PUSH2 0x2F7 JUMPI JUMPDEST PUSH1 0x1F ADD PUSH1 0x5 SHR ADD SWAP1 JUMPDEST DUP2 DUP2 LT PUSH2 0x2EB JUMPI POP PUSH2 0x11D JUMP JUMPDEST PUSH1 0x0 DUP2 SSTORE PUSH1 0x1 ADD PUSH2 0x2DE JUMP JUMPDEST SWAP1 SWAP2 POP DUP2 SWAP1 PUSH2 0x2D5 JUMP JUMPDEST PUSH4 0x4E487B71 PUSH1 0xE0 SHL PUSH1 0x0 MSTORE PUSH1 0x22 PUSH1 0x4 MSTORE PUSH1 0x24 PUSH1 0x0 REVERT JUMPDEST SWAP1 PUSH1 0x7F AND SWAP1 PUSH2 0x10B JUMP JUMPDEST PUSH4 0x4E487B71 PUSH1 0xE0 SHL PUSH1 0x0 MSTORE PUSH1 0x41 PUSH1 0x4 MSTORE PUSH1 0x24 PUSH1 0x0 REVERT JUMPDEST ADD MLOAD SWAP1 POP CODESIZE DUP1 PUSH2 0xD4 JUMP JUMPDEST PUSH1 0x3 PUSH1 0x0 SWAP1 DUP2 MSTORE DUP3 DUP2 KECCAK256 SWAP4 POP PUSH1 0x1F NOT DUP6 AND SWAP1 JUMPDEST DUP2 DUP2 LT PUSH2 0x392 JUMPI POP SWAP1 DUP5 PUSH1 0x1 SWAP6 SWAP5 SWAP4 SWAP3 LT PUSH2 0x379 JUMPI JUMPDEST POP POP POP DUP2 SHL ADD PUSH1 0x3 SSTORE PUSH2 0xEA JUMP JUMPDEST ADD MLOAD PUSH1 0x0 NOT PUSH1 0xF8 DUP5 PUSH1 0x3 SHL AND SHR NOT AND SWAP1 SSTORE CODESIZE DUP1 DUP1 PUSH2 0x36B JUMP JUMPDEST SWAP3 SWAP4 PUSH1 0x20 PUSH1 0x1 DUP2 SWAP3 DUP8 DUP7 ADD MLOAD DUP2 SSTORE ADD SWAP6 ADD SWAP4 ADD PUSH2 0x355 JUMP JUMPDEST PUSH1 0x3 PUSH1 0x0 MSTORE SWAP1 SWAP2 POP PUSH32 0xC2575A0E9E593C00F959F8C92F12DB2869C3395A3B0502D05E2516446F71F85B PUSH1 0x1F DUP5 ADD PUSH1 0x5 SHR DUP2 ADD SWAP2 PUSH1 0x20 DUP6 LT PUSH2 0x410 JUMPI JUMPDEST SWAP1 PUSH1 0x1F DUP6 SWAP5 SWAP4 SWAP3 ADD PUSH1 0x5 SHR ADD SWAP1 JUMPDEST DUP2 DUP2 LT PUSH2 0x401 JUMPI POP PUSH2 0xBD JUMP JUMPDEST PUSH1 0x0 DUP2 SSTORE DUP5 SWAP4 POP PUSH1 0x1 ADD PUSH2 0x3F4 JUMP JUMPDEST SWAP1 SWAP2 POP DUP2 SWAP1 PUSH2 0x3E6 JUMP JUMPDEST SWAP2 PUSH1 0x7F AND SWAP2 PUSH2 0xA9 JUMP JUMPDEST PUSH1 0x0 DUP1 REVERT JUMPDEST PUSH1 0x40 MLOAD SWAP2 SWAP1 PUSH1 0x1F ADD PUSH1 0x1F NOT AND DUP3 ADD PUSH1 0x1 PUSH1 0x1 PUSH1 0x40 SHL SUB DUP2 GT DUP4 DUP3 LT OR PUSH2 0x321 JUMPI PUSH1 0x40 MSTORE JUMP JUMPDEST DUP2 PUSH1 0x1F DUP3 ADD SLT ISZERO PUSH2 0x424 JUMPI DUP1 MLOAD SWAP1 PUSH1 0x1 PUSH1 0x1 PUSH1 0x40 SHL SUB DUP3 GT PUSH2 0x321 JUMPI PUSH2 0x47D PUSH1 0x1F DUP4 ADD PUSH1 0x1F NOT AND PUSH1 0x20 ADD PUSH2 0x429 JUMP JUMPDEST SWAP3 DUP3 DUP5 MSTORE PUSH1 0x20 DUP4 DUP4 ADD ADD GT PUSH2 0x424 JUMPI PUSH1 0x0 JUMPDEST DUP3 DUP2 LT PUSH2 0x4A4 JUMPI POP POP PUSH1 0x20 PUSH1 0x0 SWAP2 DUP4 ADD ADD MSTORE SWAP1 JUMP JUMPDEST DUP1 PUSH1 0x20 DUP1 SWAP3 DUP5 ADD ADD MLOAD DUP3 DUP3 DUP8 ADD ADD MSTORE ADD PUSH2 0x48F JUMP JUMPDEST PUSH1 0x5 DUP1 SLOAD PUSH1 0x1 PUSH1 0x1 PUSH1 0xA0 SHL SUB SWAP3 DUP4 AND PUSH1 0x1 PUSH1 0x1 PUSH1 0xA0 SHL SUB NOT DUP3 AND DUP2 OR SWAP1 SWAP3 SSTORE SWAP1 SWAP2 AND PUSH32 0x8BE0079C531659141344CD1FD0A4F28419497F9722A3DAAFE3B4186F6B6457E0 PUSH1 0x0 DUP1 LOG3 JUMP INVALID PUSH1 0x80 DUP1 PUSH1 0x40 MSTORE PUSH1 0x4 CALLDATASIZE LT ISZERO PUSH2 0x13 JUMPI PUSH1 0x0 DUP1 REVERT JUMPDEST PUSH1 0x0 CALLDATALOAD PUSH1 0xE0 SHR SWAP1 DUP2 PUSH4 0x6FDDE03 EQ PUSH2 0x661 JUMPI POP DUP1 PUSH4 0x95EA7B3 EQ PUSH2 0x5DB JUMPI DUP1 PUSH4 0x18160DDD EQ PUSH2 0x5BD JUMPI DUP1 PUSH4 0x23B872DD EQ PUSH2 0x45E JUMPI DUP1 PUSH4 0x313CE567 EQ PUSH2 0x442 JUMPI DUP1 PUSH4 0x70A08231 EQ PUSH2 0x408 JUMPI DUP1 PUSH4 0x715018A6 EQ PUSH2 0x395 JUMPI DUP1 PUSH4 0x8DA5CB5B EQ PUSH2 0x36E JUMPI DUP1 PUSH4 0x95D89B41 EQ PUSH2 0x1EB JUMPI DUP1 PUSH4 0xA9059CBB EQ PUSH2 0x1BA JUMPI DUP1 PUSH4 0xDD62ED3E EQ PUSH2 0x162 JUMPI PUSH4 0xF2FDE38B EQ PUSH2 0xA3 JUMPI PUSH1 0x0 DUP1 REVERT JUMPDEST CALLVALUE PUSH2 0x15D JUMPI PUSH1 0x20 PUSH1 0x3 NOT CALLDATASIZE ADD SLT PUSH2 0x15D JUMPI PUSH1 0x1 PUSH1 0x1 PUSH1 0xA0 SHL SUB PUSH2 0xC4 PUSH2 0x788 JUMP JUMPDEST PUSH2 0xCC PUSH2 0x8C4 JUMP JUMPDEST AND DUP1 ISZERO PUSH2 0x12E JUMPI PUSH1 0x1 PUSH1 0x1 PUSH1 0xA0 SHL SUB PUSH1 0x5 SLOAD DUP3 PUSH32 0xFFFFFFFFFFFFFFFFFFFFFFFF0000000000000000000000000000000000000000 DUP3 AND OR PUSH1 0x5 SSTORE AND PUSH32 0x8BE0079C531659141344CD1FD0A4F28419497F9722A3DAAFE3B4186F6B6457E0 PUSH1 0x0 DUP1 LOG3 STOP JUMPDEST PUSH32 0x1E4FBDF700000000000000000000000000000000000000000000000000000000 PUSH1 0x0 MSTORE PUSH1 0x0 PUSH1 0x4 MSTORE PUSH1 0x24 PUSH1 0x0 REVERT JUMPDEST PUSH1 0x0 DUP1 REVERT JUMPDEST CALLVALUE PUSH2 0x15D JUMPI PUSH1 0x40 PUSH1 0x3 NOT CALLDATASIZE ADD SLT PUSH2 0x15D JUMPI PUSH2 0x17B PUSH2 0x788 JUMP JUMPDEST PUSH1 0x1 PUSH1 0x1 PUSH1 0xA0 SHL SUB PUSH2 0x18B PUSH2 0x79E JUMP JUMPDEST SWAP2 AND PUSH1 0x0 MSTORE PUSH1 0x1 PUSH1 0x20 MSTORE PUSH1 0x1 PUSH1 0x1 PUSH1 0xA0 SHL SUB PUSH1 0x40 PUSH1 0x0 KECCAK256 SWAP2 AND PUSH1 0x0 MSTORE PUSH1 0x20 MSTORE PUSH1 0x20 PUSH1 0x40 PUSH1 0x0 KECCAK256 SLOAD PUSH1 0x40 MLOAD SWAP1 DUP2 MSTORE RETURN JUMPDEST CALLVALUE PUSH2 0x15D JUMPI PUSH1 0x40 PUSH1 0x3 NOT CALLDATASIZE ADD SLT PUSH2 0x15D JUMPI PUSH2 0x1E0 PUSH2 0x1D6 PUSH2 0x788 JUMP JUMPDEST PUSH1 0x24 CALLDATALOAD SWAP1 CALLER PUSH2 0x7B4 JUMP JUMPDEST PUSH1 0x20 PUSH1 0x40 MLOAD PUSH1 0x1 DUP2 MSTORE RETURN JUMPDEST CALLVALUE PUSH2 0x15D JUMPI PUSH1 0x0 PUSH1 0x3 NOT CALLDATASIZE ADD SLT PUSH2 0x15D JUMPI PUSH1 0x40 MLOAD PUSH1 0x0 SWAP1 PUSH1 0x4 SLOAD SWAP2 DUP3 PUSH1 0x1 SHR PUSH1 0x1 DUP5 AND SWAP4 DUP5 ISZERO PUSH2 0x364 JUMPI JUMPDEST PUSH1 0x20 DUP3 LT DUP6 EQ PUSH2 0x337 JUMPI DUP4 SWAP5 DUP3 DUP6 MSTORE SWAP1 DUP2 PUSH1 0x0 EQ PUSH2 0x2F5 JUMPI POP PUSH1 0x1 EQ PUSH2 0x298 JUMPI JUMPDEST POP SUB PUSH1 0x1F ADD PUSH1 0x1F NOT AND DUP2 ADD SWAP1 PUSH8 0xFFFFFFFFFFFFFFFF DUP3 GT DUP2 DUP4 LT OR PUSH2 0x269 JUMPI PUSH2 0x265 DUP3 SWAP2 DUP3 PUSH1 0x40 MSTORE DUP3 PUSH2 0x73E JUMP JUMPDEST SUB SWAP1 RETURN JUMPDEST PUSH32 0x4E487B7100000000000000000000000000000000000000000000000000000000 PUSH1 0x0 MSTORE PUSH1 0x41 PUSH1 0x4 MSTORE PUSH1 0x24 PUSH1 0x0 REVERT JUMPDEST PUSH1 0x4 PUSH1 0x0 SWAP1 DUP2 MSTORE SWAP2 POP PUSH32 0x8A35ACFBC15FF81A39AE7D344FD709F28E8600B4AA8C65C6B64BFE7FE36BD19B JUMPDEST DUP2 DUP4 LT PUSH2 0x2D9 JUMPI POP POP DUP2 ADD PUSH1 0x20 ADD PUSH1 0x1F NOT PUSH2 0x237 JUMP JUMPDEST PUSH1 0x20 SWAP2 SWAP4 POP DUP1 PUSH1 0x1 SWAP2 SLOAD DUP4 DUP6 DUP9 ADD ADD MSTORE ADD SWAP2 ADD SWAP1 SWAP2 DUP4 SWAP3 PUSH2 0x2C3 JUMP JUMPDEST PUSH32 0xFFFFFFFFFFFFFFFFFFFFFFFFFFFFFFFFFFFFFFFFFFFFFFFFFFFFFFFFFFFFFF00 AND PUSH1 0x20 DUP6 DUP2 ADD SWAP2 SWAP1 SWAP2 MSTORE SWAP2 ISZERO ISZERO PUSH1 0x5 SHL DUP5 ADD SWAP1 SWAP2 ADD SWAP2 POP PUSH1 0x1F NOT SWAP1 POP PUSH2 0x237 JUMP JUMPDEST PUSH1 0x24 DUP4 PUSH32 0x4E487B7100000000000000000000000000000000000000000000000000000000 DUP2 MSTORE PUSH1 0x22 PUSH1 0x4 MSTORE REVERT JUMPDEST SWAP1 PUSH1 0x7F AND SWAP1 PUSH2 0x216 JUMP JUMPDEST CALLVALUE PUSH2 0x15D JUMPI PUSH1 0x0 PUSH1 0x3 NOT CALLDATASIZE ADD SLT PUSH2 0x15D JUMPI PUSH1 0x20 PUSH1 0x1 PUSH1 0x1 PUSH1 0xA0 SHL SUB PUSH1 0x5 SLOAD AND PUSH1 0x40 MLOAD SWAP1 DUP2 MSTORE RETURN JUMPDEST CALLVALUE PUSH2 0x15D JUMPI PUSH1 0x0 PUSH1 0x3 NOT CALLDATASIZE ADD SLT PUSH2 0x15D JUMPI PUSH2 0x3AE PUSH2 0x8C4 JUMP JUMPDEST PUSH1 0x0 PUSH1 0x1 PUSH1 0x1 PUSH1 0xA0 SHL SUB PUSH1 0x5 SLOAD PUSH32 0xFFFFFFFFFFFFFFFFFFFFFFFF0000000000000000000000000000000000000000 DUP2 AND PUSH1 0x5 SSTORE AND PUSH32 0x8BE0079C531659141344CD1FD0A4F28419497F9722A3DAAFE3B4186F6B6457E0 DUP3 DUP1 LOG3 STOP JUMPDEST CALLVALUE PUSH2 0x15D JUMPI PUSH1 0x20 PUSH1 0x3 NOT CALLDATASIZE ADD SLT PUSH2 0x15D JUMPI PUSH1 0x1 PUSH1 0x1 PUSH1 0xA0 SHL SUB PUSH2 0x429 PUSH2 0x788 JUMP JUMPDEST AND PUSH1 0x0 MSTORE PUSH1 0x0 PUSH1 0x20 MSTORE PUSH1 0x20 PUSH1 0x40 PUSH1 0x0 KECCAK256 SLOAD PUSH1 0x40 MLOAD SWAP1 DUP2 MSTORE RETURN JUMPDEST CALLVALUE PUSH2 0x15D JUMPI PUSH1 0x0 PUSH1 0x3 NOT CALLDATASIZE ADD SLT PUSH2 0x15D JUMPI PUSH1 0x20 PUSH1 0x40 MLOAD PUSH1 0x12 DUP2 MSTORE RETURN JUMPDEST CALLVALUE PUSH2 0x15D JUMPI PUSH1 0x60 PUSH1 0x3 NOT CALLDATASIZE ADD SLT PUSH2 0x15D JUMPI PUSH2 0x477 PUSH2 0x788 JUMP JUMPDEST PUSH2 0x47F PUSH2 0x79E JUMP JUMPDEST PUSH1 0x44 CALLDATALOAD SWAP1 PUSH1 0x1 PUSH1 0x1 PUSH1 0xA0 SHL SUB DUP4 AND SWAP3 DUP4 PUSH1 0x0 MSTORE PUSH1 0x1 PUSH1 0x20 MSTORE PUSH1 0x40 PUSH1 0x0 KECCAK256 PUSH1 0x1 PUSH1 0x1 PUSH1 0xA0 SHL SUB CALLER AND PUSH1 0x0 MSTORE PUSH1 0x20 MSTORE PUSH1 0x40 PUSH1 0x0 KECCAK256 SLOAD PUSH32 0xFFFFFFFFFFFFFFFFFFFFFFFFFFFFFFFFFFFFFFFFFFFFFFFFFFFFFFFFFFFFFFFF DUP2 SUB PUSH2 0x4E5 JUMPI JUMPDEST POP PUSH2 0x1E0 SWAP4 POP PUSH2 0x7B4 JUMP JUMPDEST DUP4 DUP2 LT PUSH2 0x587 JUMPI DUP5 ISZERO PUSH2 0x558 JUMPI CALLER ISZERO PUSH2 0x529 JUMPI PUSH2 0x1E0 SWAP5 PUSH1 0x0 MSTORE PUSH1 0x1 PUSH1 0x20 MSTORE PUSH1 0x40 PUSH1 0x0 KECCAK256 PUSH1 0x1 PUSH1 0x1 PUSH1 0xA0 SHL SUB CALLER AND PUSH1 0x0 MSTORE PUSH1 0x20 MSTORE DUP4 PUSH1 0x40 PUSH1 0x0 KECCAK256 SWAP2 SUB SWAP1 SSTORE DUP5 PUSH2 0x4DA JUMP JUMPDEST PUSH32 0x94280D6200000000000000000000000000000000000000000000000000000000 PUSH1 0x0 MSTORE PUSH1 0x0 PUSH1 0x4 MSTORE PUSH1 0x24 PUSH1 0x0 REVERT JUMPDEST PUSH32 0xE602DF0500000000000000000000000000000000000000000000000000000000 PUSH1 0x0 MSTORE PUSH1 0x0 PUSH1 0x4 MSTORE PUSH1 0x24 PUSH1 0x0 REVERT JUMPDEST DUP4 SWAP1 PUSH32 0xFB8F41B200000000000000000000000000000000000000000000000000000000 PUSH1 0x0 MSTORE CALLER PUSH1 0x4 MSTORE PUSH1 0x24 MSTORE PUSH1 0x44 MSTORE PUSH1 0x64 PUSH1 0x0 REVERT JUMPDEST CALLVALUE PUSH2 0x15D JUMPI PUSH1 0x0 PUSH1 0x3 NOT CALLDATASIZE ADD SLT PUSH2 0x15D JUMPI PUSH1 0x20 PUSH1 0x2 SLOAD PUSH1 0x40 MLOAD SWAP1 DUP2 MSTORE RETURN JUMPDEST CALLVALUE PUSH2 0x15D JUMPI PUSH1 0x40 PUSH1 0x3 NOT CALLDATASIZE ADD SLT PUSH2 0x15D JUMPI PUSH2 0x5F4 PUSH2 0x788 JUMP JUMPDEST PUSH1 0x24 CALLDATALOAD SWAP1 CALLER ISZERO PUSH2 0x558 JUMPI PUSH1 0x1 PUSH1 0x1 PUSH1 0xA0 SHL SUB AND SWAP1 DUP2 ISZERO PUSH2 0x529 JUMPI CALLER PUSH1 0x0 MSTORE PUSH1 0x1 PUSH1 0x20 MSTORE PUSH1 0x40 PUSH1 0x0 KECCAK256 DUP3 PUSH1 0x0 MSTORE PUSH1 0x20 MSTORE DUP1 PUSH1 0x40 PUSH1 0x0 KECCAK256 SSTORE PUSH1 0x40 MLOAD SWAP1 DUP2 MSTORE PUSH32 0x8C5BE1E5EBEC7D5BD14F71427D1E84F3DD0314C0F7B2291E5B200AC8C7C3B925 PUSH1 0x20 CALLER SWAP3 LOG3 PUSH1 0x20 PUSH1 0x40 MLOAD PUSH1 0x1 DUP2 MSTORE RETURN JUMPDEST CALLVALUE PUSH2 0x15D JUMPI PUSH1 0x0 PUSH1 0x3 NOT CALLDATASIZE ADD SLT PUSH2 0x15D JUMPI PUSH1 0x0 SWAP1 PUSH1 0x3 SLOAD SWAP2 DUP3 PUSH1 0x1 SHR PUSH1 0x1 DUP5 AND SWAP4 DUP5 ISZERO PUSH2 0x734 JUMPI JUMPDEST PUSH1 0x20 DUP3 LT DUP6 EQ PUSH2 0x337 JUMPI DUP4 SWAP5 DUP3 DUP6 MSTORE SWAP1 DUP2 PUSH1 0x0 EQ PUSH2 0x2F5 JUMPI POP PUSH1 0x1 EQ PUSH2 0x6D7 JUMPI POP SUB PUSH1 0x1F ADD PUSH1 0x1F NOT AND DUP2 ADD SWAP1 PUSH8 0xFFFFFFFFFFFFFFFF DUP3 GT DUP2 DUP4 LT OR PUSH2 0x269 JUMPI PUSH2 0x265 DUP3 SWAP2 DUP3 PUSH1 0x40 MSTORE DUP3 PUSH2 0x73E JUMP JUMPDEST PUSH1 0x3 PUSH1 0x0 SWAP1 DUP2 MSTORE SWAP2 POP PUSH32 0xC2575A0E9E593C00F959F8C92F12DB2869C3395A3B0502D05E2516446F71F85B JUMPDEST DUP2 DUP4 LT PUSH2 0x718 JUMPI POP POP DUP2 ADD PUSH1 0x20 ADD PUSH1 0x1F NOT PUSH2 0x237 JUMP JUMPDEST PUSH1 0x20 SWAP2 SWAP4 POP DUP1 PUSH1 0x1 SWAP2 SLOAD DUP4 DUP6 DUP9 ADD ADD MSTORE ADD SWAP2 ADD SWAP1 SWAP2 DUP4 SWAP3 PUSH2 0x702 JUMP JUMPDEST SWAP1 PUSH1 0x7F AND SWAP1 PUSH2 0x689 JUMP JUMPDEST SWAP2 SWAP1 SWAP2 PUSH1 0x20 DUP2 MSTORE DUP3 MLOAD SWAP3 DUP4 PUSH1 0x20 DUP4 ADD MSTORE PUSH1 0x0 JUMPDEST DUP5 DUP2 LT PUSH2 0x772 JUMPI POP POP PUSH1 0x1F NOT PUSH1 0x1F DUP5 PUSH1 0x0 PUSH1 0x40 DUP1 SWAP7 SWAP8 DUP7 ADD ADD MSTORE ADD AND ADD ADD SWAP1 JUMP JUMPDEST DUP1 PUSH1 0x20 DUP1 SWAP3 DUP5 ADD ADD MLOAD PUSH1 0x40 DUP3 DUP7 ADD ADD MSTORE ADD PUSH2 0x751 JUMP JUMPDEST PUSH1 0x4 CALLDATALOAD SWAP1 PUSH1 0x1 PUSH1 0x1 PUSH1 0xA0 SHL SUB DUP3 AND DUP3 SUB PUSH2 0x15D JUMPI JUMP JUMPDEST PUSH1 0x24 CALLDATALOAD SWAP1 PUSH1 0x1 PUSH1 0x1 PUSH1 0xA0 SHL SUB DUP3 AND DUP3 SUB PUSH2 0x15D JUMPI JUMP JUMPDEST PUSH1 0x1 PUSH1 0x1 PUSH1 0xA0 SHL SUB AND SWAP1 DUP2 ISZERO PUSH2 0x895 JUMPI PUSH1 0x1 PUSH1 0x1 PUSH1 0xA0 SHL SUB AND SWAP2 DUP3 ISZERO PUSH2 0x866 JUMPI PUSH1 0x0 DUP3 DUP2 MSTORE DUP1 PUSH1 0x20 MSTORE PUSH1 0x40 DUP2 KECCAK256 SLOAD DUP3 DUP2 LT PUSH2 0x833 JUMPI SWAP2 PUSH1 0x40 DUP3 DUP3 PUSH32 0xDDF252AD1BE2C89B69C2B068FC378DAA952BA7F163C4A11628F55A4DF523B3EF SWAP6 DUP8 PUSH1 0x20 SWAP7 MSTORE DUP3 DUP7 MSTORE SUB DUP3 DUP3 KECCAK256 SSTORE DUP7 DUP2 MSTORE DUP1 DUP5 MSTORE KECCAK256 DUP2 DUP2 SLOAD ADD SWAP1 SSTORE PUSH1 0x40 MLOAD SWAP1 DUP2 MSTORE LOG3 JUMP JUMPDEST PUSH1 0x64 SWAP4 PUSH32 0xE450D38C00000000000000000000000000000000000000000000000000000000 DUP4 SWAP5 SWAP4 MSTORE PUSH1 0x4 MSTORE PUSH1 0x24 MSTORE PUSH1 0x44 MSTORE REVERT JUMPDEST PUSH32 0xEC442F0500000000000000000000000000000000000000000000000000000000 PUSH1 0x0 MSTORE PUSH1 0x0 PUSH1 0x4 MSTORE PUSH1 0x24 PUSH1 0x0 REVERT JUMPDEST PUSH32 0x96C6FD1E00000000000000000000000000000000000000000000000000000000 PUSH1 0x0 MSTORE PUSH1 0x0 PUSH1 0x4 MSTORE PUSH1 0x24 PUSH1 0x0 REVERT JUMPDEST PUSH1 0x1 PUSH1 0x1 PUSH1 0xA0 SHL SUB PUSH1 0x5 SLOAD AND CALLER SUB PUSH2 0x8D8 JUMPI JUMP JUMPDEST PUSH32 0x118CDAA700000000000000000000000000000000000000000000000000000000 PUSH1 0x0 MSTORE CALLER PUSH1 0x4 MSTORE PUSH1 0x24 PUSH1 0x0 REVERT INVALID LOG2 PUSH5 0x6970667358 0x22 SLT KECCAK256 0xE2 0xEA 0xC 0xA5 TIMESTAMP ORIGIN STOP 0xE8 0xD PUSH1 0x3E 0xF6 0xD7 0x29 BLOBHASH SLOAD 0xCB LOG3 JUMPI CALLER 0x27 0xAE 0xB6 SELFBALANCE 0xCC 0xCA MSIZE CREATE2 0xCE GAS 0xEB TIMESTAMP PUSH5 0x736F6C6343 STOP ADDMOD SHL STOP CALLER LOG2 PUSH5 0x6970667358 0x22 SLT KECCAK256 0xDC PUSH14 0x8756B0DECC4030806A0EF439F6AF 0x1F TLOAD PUSH16 0xE54ABC70CCC69D8DE0F136ED5464736F PUSH13 0x634300081B0033000000000000 "
        },
        "methodIdentifiers": {
          "DEFAULT_ADMIN_ROLE()": "a217fddf",
          "createLP()": "f7f23a0c",
          "createPool()": "9a06b113",
          "createToken()": "9cbf9e36",
          "factoryAddress()": "966dae0e",
          "getRoleAdmin(bytes32)": "248a9ca3",
          "grantRole(bytes32,address)": "2f2ff15d",
          "hasRole(bytes32,address)": "91d14854",
          "onERC721Received(address,address,uint256,bytes)": "150b7a02",
          "positionManagerAddress()": "7a8a1113",
          "renounceRole(bytes32,address)": "36568abe",
          "revokeRole(bytes32,address)": "d547741f",
          "supportsInterface(bytes4)": "01ffc9a7",
          "tokenA()": "0fc63d10",
          "tokenB()": "5f64b55b"
        }
      }
    }
  }
}