{
  "contracts/MemeBuilder.sol": {
    "MemeBuilder": {
      "abi": [
        {
          "inputs": [],
          "stateMutability": "nonpayable",
          "type": "constructor"
        },
        {
          "inputs": [],
          "name": "AccessControlBadConfirmation",
          "type": "error"
        },
        {
          "inputs": [
            {
              "internalType": "address",
              "name": "account",
              "type": "address"
            },
            {
              "internalType": "bytes32",
              "name": "neededRole",
              "type": "bytes32"
            }
          ],
          "name": "AccessControlUnauthorizedAccount",
          "type": "error"
        },
        {
          "anonymous": false,
          "inputs": [
            {
              "indexed": true,
              "internalType": "address",
              "name": "user",
              "type": "address"
            },
            {
              "indexed": true,
              "internalType": "uint256",
              "name": "index",
              "type": "uint256"
            }
          ],
          "name": "NewMemeProposal",
          "type": "event"
        },
        {
          "anonymous": false,
          "inputs": [
            {
              "indexed": true,
              "internalType": "bytes32",
              "name": "role",
              "type": "bytes32"
            },
            {
              "indexed": true,
              "internalType": "bytes32",
              "name": "previousAdminRole",
              "type": "bytes32"
            },
            {
              "indexed": true,
              "internalType": "bytes32",
              "name": "newAdminRole",
              "type": "bytes32"
            }
          ],
          "name": "RoleAdminChanged",
          "type": "event"
        },
        {
          "anonymous": false,
          "inputs": [
            {
              "indexed": true,
              "internalType": "bytes32",
              "name": "role",
              "type": "bytes32"
            },
            {
              "indexed": true,
              "internalType": "address",
              "name": "account",
              "type": "address"
            },
            {
              "indexed": true,
              "internalType": "address",
              "name": "sender",
              "type": "address"
            }
          ],
          "name": "RoleGranted",
          "type": "event"
        },
        {
          "anonymous": false,
          "inputs": [
            {
              "indexed": true,
              "internalType": "bytes32",
              "name": "role",
              "type": "bytes32"
            },
            {
              "indexed": true,
              "internalType": "address",
              "name": "account",
              "type": "address"
            },
            {
              "indexed": true,
              "internalType": "address",
              "name": "sender",
              "type": "address"
            }
          ],
          "name": "RoleRevoked",
          "type": "event"
        },
        {
          "anonymous": false,
          "inputs": [
            {
              "indexed": true,
              "internalType": "uint256",
              "name": "id",
              "type": "uint256"
            }
          ],
          "name": "SetFailed",
          "type": "event"
        },
        {
          "anonymous": false,
          "inputs": [
            {
              "indexed": true,
              "internalType": "address",
              "name": "tokenAddress",
              "type": "address"
            },
            {
              "indexed": true,
              "internalType": "address",
              "name": "owner",
              "type": "address"
            },
            {
              "indexed": false,
              "internalType": "uint256",
              "name": "initialSupply",
              "type": "uint256"
            }
          ],
          "name": "TokenCreated",
          "type": "event"
        },
        {
          "anonymous": false,
          "inputs": [
            {
              "indexed": true,
              "internalType": "address",
              "name": "voter",
              "type": "address"
            },
            {
              "indexed": false,
              "internalType": "string",
              "name": "result",
              "type": "string"
            },
            {
              "indexed": true,
              "internalType": "uint256",
              "name": "id",
              "type": "uint256"
            }
          ],
          "name": "Vote",
          "type": "event"
        },
        {
          "inputs": [],
          "name": "DEFAULT_ADMIN_ROLE",
          "outputs": [
            {
              "internalType": "bytes32",
              "name": "",
              "type": "bytes32"
            }
          ],
          "stateMutability": "view",
          "type": "function"
        },
        {
          "inputs": [],
          "name": "EXECUTOR_ROLE",
          "outputs": [
            {
              "internalType": "bytes32",
              "name": "",
              "type": "bytes32"
            }
          ],
          "stateMutability": "view",
          "type": "function"
        },
        {
          "inputs": [
            {
              "internalType": "uint256[]",
              "name": "ids",
              "type": "uint256[]"
            }
          ],
          "name": "cleanMeme",
          "outputs": [],
          "stateMutability": "nonpayable",
          "type": "function"
        },
        {
          "inputs": [],
          "name": "communityDropAddress",
          "outputs": [
            {
              "internalType": "address",
              "name": "",
              "type": "address"
            }
          ],
          "stateMutability": "view",
          "type": "function"
        },
        {
          "inputs": [],
          "name": "communityTreasuryAddress",
          "outputs": [
            {
              "internalType": "address",
              "name": "",
              "type": "address"
            }
          ],
          "stateMutability": "view",
          "type": "function"
        },
        {
          "inputs": [
            {
              "internalType": "string",
              "name": "_name",
              "type": "string"
            },
            {
              "internalType": "string",
              "name": "_symbol",
              "type": "string"
            },
            {
              "internalType": "uint256",
              "name": "_supply",
              "type": "uint256"
            },
            {
              "internalType": "string",
              "name": "_memeStory",
              "type": "string"
            },
            {
              "internalType": "string",
              "name": "_logo",
              "type": "string"
            },
            {
              "components": [
                {
                  "internalType": "string",
                  "name": "X",
                  "type": "string"
                },
                {
                  "internalType": "string",
                  "name": "website",
                  "type": "string"
                }
              ],
              "internalType": "struct MemeBuilder.SocialChannel",
              "name": "_socialChannel",
              "type": "tuple"
            },
            {
              "components": [
                {
                  "internalType": "address",
                  "name": "token",
                  "type": "address"
                },
                {
                  "internalType": "uint256",
                  "name": "amount",
                  "type": "uint256"
                },
                {
                  "internalType": "uint256",
                  "name": "platformFeeRate",
                  "type": "uint256"
                },
                {
                  "internalType": "uint256",
                  "name": "communityDropRate",
                  "type": "uint256"
                },
                {
                  "internalType": "uint256",
                  "name": "liquidityRate",
                  "type": "uint256"
                },
                {
                  "internalType": "uint256",
                  "name": "investorRate",
                  "type": "uint256"
                },
                {
                  "internalType": "uint256",
                  "name": "ownerRate",
                  "type": "uint256"
                },
                {
                  "internalType": "uint256",
                  "name": "communityTreasuryRate",
                  "type": "uint256"
                }
              ],
              "internalType": "struct MemeBuilder.MemeRequirement",
              "name": "_memeRequirement",
              "type": "tuple"
            }
          ],
          "name": "createMemeProposal",
          "outputs": [],
          "stateMutability": "nonpayable",
          "type": "function"
        },
        {
          "inputs": [
            {
              "internalType": "string",
              "name": "status",
              "type": "string"
            }
          ],
          "name": "getMemeProposalsByStatus",
          "outputs": [
            {
              "components": [
                {
                  "internalType": "uint256",
                  "name": "id",
                  "type": "uint256"
                },
                {
                  "internalType": "address",
                  "name": "owner",
                  "type": "address"
                },
                {
                  "internalType": "string",
                  "name": "name",
                  "type": "string"
                },
                {
                  "internalType": "string",
                  "name": "symbol",
                  "type": "string"
                },
                {
                  "internalType": "uint256",
                  "name": "supply",
                  "type": "uint256"
                },
                {
                  "internalType": "string",
                  "name": "memeStory",
                  "type": "string"
                },
                {
                  "internalType": "string",
                  "name": "logo",
                  "type": "string"
                },
                {
                  "internalType": "string",
                  "name": "status",
                  "type": "string"
                },
                {
                  "components": [
                    {
                      "internalType": "string",
                      "name": "X",
                      "type": "string"
                    },
                    {
                      "internalType": "string",
                      "name": "website",
                      "type": "string"
                    }
                  ],
                  "internalType": "struct MemeBuilder.SocialChannel",
                  "name": "socialChannel",
                  "type": "tuple"
                },
                {
                  "components": [
                    {
                      "internalType": "address",
                      "name": "token",
                      "type": "address"
                    },
                    {
                      "internalType": "uint256",
                      "name": "amount",
                      "type": "uint256"
                    },
                    {
                      "internalType": "uint256",
                      "name": "platformFeeRate",
                      "type": "uint256"
                    },
                    {
                      "internalType": "uint256",
                      "name": "communityDropRate",
                      "type": "uint256"
                    },
                    {
                      "internalType": "uint256",
                      "name": "liquidityRate",
                      "type": "uint256"
                    },
                    {
                      "internalType": "uint256",
                      "name": "investorRate",
                      "type": "uint256"
                    },
                    {
                      "internalType": "uint256",
                      "name": "ownerRate",
                      "type": "uint256"
                    },
                    {
                      "internalType": "uint256",
                      "name": "communityTreasuryRate",
                      "type": "uint256"
                    }
                  ],
                  "internalType": "struct MemeBuilder.MemeRequirement",
                  "name": "memeRequirement",
                  "type": "tuple"
                },
                {
                  "internalType": "uint256",
                  "name": "startVotingAt",
                  "type": "uint256"
                },
                {
                  "internalType": "uint256",
                  "name": "startInvestmentAt",
                  "type": "uint256"
                },
                {
                  "internalType": "uint256",
                  "name": "startVestingAt",
                  "type": "uint256"
                },
                {
                  "internalType": "uint256",
                  "name": "voteYes",
                  "type": "uint256"
                },
                {
                  "internalType": "uint256",
                  "name": "voteNo",
                  "type": "uint256"
                },
                {
                  "internalType": "uint256",
                  "name": "risedAmount",
                  "type": "uint256"
                }
              ],
              "internalType": "struct MemeBuilder.MemeProposal[]",
              "name": "",
              "type": "tuple[]"
            }
          ],
          "stateMutability": "view",
          "type": "function"
        },
        {
          "inputs": [
            {
              "internalType": "bytes32",
              "name": "role",
              "type": "bytes32"
            }
          ],
          "name": "getRoleAdmin",
          "outputs": [
            {
              "internalType": "bytes32",
              "name": "",
              "type": "bytes32"
            }
          ],
          "stateMutability": "view",
          "type": "function"
        },
        {
          "inputs": [
            {
              "internalType": "bytes32",
              "name": "role",
              "type": "bytes32"
            },
            {
              "internalType": "address",
              "name": "account",
              "type": "address"
            }
          ],
          "name": "grantRole",
          "outputs": [],
          "stateMutability": "nonpayable",
          "type": "function"
        },
        {
          "inputs": [
            {
              "internalType": "bytes32",
              "name": "role",
              "type": "bytes32"
            },
            {
              "internalType": "address",
              "name": "account",
              "type": "address"
            }
          ],
          "name": "hasRole",
          "outputs": [
            {
              "internalType": "bool",
              "name": "",
              "type": "bool"
            }
          ],
          "stateMutability": "view",
          "type": "function"
        },
        {
          "inputs": [
            {
              "internalType": "uint256",
              "name": "id",
              "type": "uint256"
            },
            {
              "internalType": "address",
              "name": "token",
              "type": "address"
            },
            {
              "internalType": "uint256",
              "name": "amount",
              "type": "uint256"
            }
          ],
          "name": "invest",
          "outputs": [],
          "stateMutability": "nonpayable",
          "type": "function"
        },
        {
          "inputs": [],
          "name": "investorAddress",
          "outputs": [
            {
              "internalType": "address",
              "name": "",
              "type": "address"
            }
          ],
          "stateMutability": "view",
          "type": "function"
        },
        {
          "inputs": [],
          "name": "lpVaultAddress",
          "outputs": [
            {
              "internalType": "address",
              "name": "",
              "type": "address"
            }
          ],
          "stateMutability": "view",
          "type": "function"
        },
        {
          "inputs": [
            {
              "internalType": "uint256[]",
              "name": "ids",
              "type": "uint256[]"
            }
          ],
          "name": "mintMeme",
          "outputs": [],
          "stateMutability": "nonpayable",
          "type": "function"
        },
        {
          "inputs": [],
          "name": "ownerAddress",
          "outputs": [
            {
              "internalType": "address",
              "name": "",
              "type": "address"
            }
          ],
          "stateMutability": "view",
          "type": "function"
        },
        {
          "inputs": [],
          "name": "platformFeeAddress",
          "outputs": [
            {
              "internalType": "address",
              "name": "",
              "type": "address"
            }
          ],
          "stateMutability": "view",
          "type": "function"
        },
        {
          "inputs": [],
          "name": "positionManager",
          "outputs": [
            {
              "internalType": "contract INonfungiblePositionManager",
              "name": "",
              "type": "address"
            }
          ],
          "stateMutability": "view",
          "type": "function"
        },
        {
          "inputs": [],
          "name": "positionManagerAddress",
          "outputs": [
            {
              "internalType": "address",
              "name": "",
              "type": "address"
            }
          ],
          "stateMutability": "view",
          "type": "function"
        },
        {
          "inputs": [
            {
              "internalType": "bytes32",
              "name": "role",
              "type": "bytes32"
            },
            {
              "internalType": "address",
              "name": "callerConfirmation",
              "type": "address"
            }
          ],
          "name": "renounceRole",
          "outputs": [],
          "stateMutability": "nonpayable",
          "type": "function"
        },
        {
          "inputs": [
            {
              "internalType": "bytes32",
              "name": "role",
              "type": "bytes32"
            },
            {
              "internalType": "address",
              "name": "account",
              "type": "address"
            }
          ],
          "name": "revokeRole",
          "outputs": [],
          "stateMutability": "nonpayable",
          "type": "function"
        },
        {
          "inputs": [
            {
              "internalType": "uint256",
              "name": "period",
              "type": "uint256"
            }
          ],
          "name": "setInvestPeriod",
          "outputs": [],
          "stateMutability": "nonpayable",
          "type": "function"
        },
        {
          "inputs": [
            {
              "internalType": "uint256",
              "name": "voter",
              "type": "uint256"
            }
          ],
          "name": "setMinimumVoter",
          "outputs": [],
          "stateMutability": "nonpayable",
          "type": "function"
        },
        {
          "inputs": [
            {
              "internalType": "uint256",
              "name": "period",
              "type": "uint256"
            }
          ],
          "name": "setVotePeriod",
          "outputs": [],
          "stateMutability": "nonpayable",
          "type": "function"
        },
        {
          "inputs": [
            {
              "internalType": "bytes4",
              "name": "interfaceId",
              "type": "bytes4"
            }
          ],
          "name": "supportsInterface",
          "outputs": [
            {
              "internalType": "bool",
              "name": "",
              "type": "bool"
            }
          ],
          "stateMutability": "view",
          "type": "function"
        },
        {
          "inputs": [
            {
              "internalType": "uint256",
              "name": "id",
              "type": "uint256"
            },
            {
              "internalType": "enum MemeBuilder.VoteResult",
              "name": "result",
              "type": "uint8"
            }
          ],
          "name": "vote",
          "outputs": [],
          "stateMutability": "nonpayable",
          "type": "function"
        },
        {
          "inputs": [
            {
              "internalType": "uint256",
              "name": "id",
              "type": "uint256"
            }
          ],
          "name": "voteResult",
          "outputs": [
            {
              "internalType": "bool",
              "name": "",
              "type": "bool"
            }
          ],
          "stateMutability": "view",
          "type": "function"
        }
      ],
      "evm": {
        "bytecode": {
          "linkReferences": {},
          "object": "6080604052346100c657600880546001600160a01b03191673427bf5b37357632377ecbec9de3626c71a5396c117905561012c600b55610258600c556005600d55610049336100cb565b5061005333610147565b5060018054336001600160a01b0319918216811790925560028054821683179055600380548216831790556004805482168317905560058054821683179055600680548216909217909155600854600780546001600160a01b039092169190921617905560405161311f90816101e08239f35b600080fd5b6001600160a01b038116600090815260008051602061333f833981519152602052604090205460ff16610141576001600160a01b0316600081815260008051602061333f83398151915260205260408120805460ff191660011790553391906000805160206132ff8339815191528180a4600190565b50600090565b6001600160a01b038116600090815260008051602061331f833981519152602052604090205460ff16610141576001600160a01b0316600081815260008051602061331f83398151915260205260408120805460ff191660011790553391907fd8aa0f3194971a2a116679f7c2090f6939c8d4e01a2a8d7e41d55e5351469e63906000805160206132ff8339815191529080a460019056fe608080604052600436101561001357600080fd5b60003560e01c90816301ffc9a714611dd15750806307bd026514611d9657806312e228fd14611d6d578063248a9ca314611d385780632f2ff15d14611cf857806336568abe14611cb25780634c8d7e5814611c915780635b9e98b814611c6857806363a3dafe1461165557806367b1163014611634578063791b98bc1461160b5780637a8a1113146115e257806380d506b714610ce357806381c6588414610cbb57806382f85c3f14610c925780638f84aa0914610c6957806391d1485414610c1c578063943e821614610a3e578063a217fddf14610a22578063b15c401314610a01578063d547741f146109bc578063e0b3baef146108c5578063e8ca92121461089c578063ed14834f14610873578063f24a5576146103065763fecba3a51461013d57600080fd5b3461030157606036600319011261030157600435610159611e24565b60443590601361016884612004565b500154421015806102eb575b156102a657610182836121c6565b156102685761019083612004565b50600a01546001600160a01b03918216911681900361023157606460209260176101bb600096612004565b50016101c8828254612179565b905560405194859384926323b872dd60e01b845233600485015230602485015260448401525af18015610225576101fb57005b61021c9060203d60201161021e575b6102148183611e8d565b810190612186565b005b503d61020a565b6040513d6000823e3d90fd5b60405162461bcd60e51b815260206004820152600f60248201526e496e76616c6964206164647265737360881b6044820152606490fd5b60405162461bcd60e51b8152602060048201526016602482015275159bdd19481c995cdd5b1d081b9bdd081c185cdcd95960521b6044820152606490fd5b60405162461bcd60e51b815260206004820152601b60248201527f496e766573746d656e7420706572696f642068617320656e64656400000000006044820152606490fd5b5060146102f784612004565b5001544210610174565b600080fd5b34610301576020366003190112610301576004356001600160401b03811161030157610336903690600401611f43565b600a546000916020810190835b838110610838575061035484611eae565b936103626040519586611e8d565b808552610371601f1991611eae565b0160005b81811061075857505060009160005b84811061055557856040518091602082016020835281518091526040830190602060408260051b8601019301916000905b8282106103c457505050500390f35b919360019193955060208091603f1989820301855287519081518152848060a01b038383015116838201526102c06101e06104a561047161045f61044d61043161041f60408a01516102e060408b01526102e08a0190611f99565b60608a015189820360608b0152611f99565b6080890151608089015260a089015188820360a08a0152611f99565b60c088015187820360c0890152611f99565b60e087015186820360e0880152611f99565b61010086015190858103610100870152876104958351604084526040840190611f99565b9201519088818403910152611f99565b9360e0610120820151898060a01b03815116610120870152878101516101408701526040810151610160870152606081015161018087015260808101516101a087015260a08101516101c087015260c08101518487015201516102008501526101408101516102208501526101608101516102408501526101808101516102608501526101a08101516102808501526101c08101516102a0850152015191015296019201920185949391926103b5565b600761057b61056383612004565b50610574604051809481930161205d565b0382611e8d565b602081519101208351832014610594575b600101610384565b926107506001916105a486612004565b506017604051916105b483611e71565b80548352858060a01b03868201541660208401526040516105dc81610574816002860161205d565b60408401526040516105f581610574816003860161205d565b60608401526004810154608084015260405161061881610574816005860161205d565b60a084015260405161063181610574816006860161205d565b60c084015260405161064a81610574816007860161205d565b60e084015260405161065b81611e3a565b60405161066f81610574816008870161205d565b815260405161068581610574816009870161205d565b602082015261010084015260405161069c81611e55565b868060a01b03600a830154168152600b8201546020820152600c8201546040820152600d8201546060820152600e8201546080820152600f82015460a0820152601082015460c0820152601182015460e082015261012084015260128101546101408401526013810154610160840152601481015461018084015260158101546101a084015260168101546101c084015201546101e082015261073f828a611fda565b5261074a8189611fda565b5061221c565b93905061058c565b60209060405161076781611e71565b600081526000838201526060604082015260608082015260006080820152606060a0820152606060c0820152606060e08201526040516107a681611e3a565b606081526060848201526101008201526040516107c281611e55565b60008152600084820152600060408201526000606082015260006080820152600060a0820152600060c0820152600060e082015261012082015260006101408201526000610160820152600061018082015260006101a082015260006101c082015260006101e082015282828901015201610375565b600761084661056383612004565b60208151910120825184201461085f575b600101610343565b9361086b60019161221c565b949050610857565b34610301576000366003190112610301576001546040516001600160a01b039091168152602090f35b34610301576000366003190112610301576006546040516001600160a01b039091168152602090f35b34610301576108d336611ec5565b6108db61227e565b60005b815181101561021c578060076109026105636108fc60019587611fda565b51612004565b6020815191012061091161219e565b6020815191012014610924575b016108de565b60136109336108fc8386611fda565b50015442111561091e5761095061094a8285611fda565b516121c6565b61091e5760076109636108fc8386611fda565b50016109786109728254612023565b8261210a565b600c6511905253115160d21b0190556109918184611fda565b517f9968c7f52fd00a2108f0bb8fe431303663edc67cc15a995d07aad3d83d031d60600080a261091e565b346103015760403660031901126103015761021c6004356109db611e24565b906109fc6109f782600052600060205260016040600020015490565b6122f0565b6123b6565b3461030157602036600319011261030157610a1a61222b565b600435600d55005b3461030157600036600319011261030157602060405160008152f35b34610301576040366003190112610301576004356024356002811015610301576012610a6983612004565b50015442101580610c06575b15610bc157600082815260096020908152604080832033845290915290205460ff16610b86571560008115610b68576015610aaf84612004565b5001610abb815461221c565b90555b8281526009602090815260408083203384529091529020805460ff1916600117905560009015610b455750604051610af7604082611e8d565b600381526259455360e81b60208201525b7ff872c9dd43e62509c7276e545b258673a25292dbeb9756e834227c8a838186556040516020815280610b4033946020830190611f99565b0390a3005b50604051610b54604082611e8d565b60028152614e4f60f01b6020820152610b08565b6016610b7384612004565b5001610b7f815461221c565b9055610abe565b60405162461bcd60e51b8152602060048201526013602482015272566f74696e6720616c726561647920646f6e6560681b6044820152606490fd5b60405162461bcd60e51b815260206004820152601760248201527f566f74696e6720706572696f642068617320656e6465640000000000000000006044820152606490fd5b506013610c1283612004565b5001544210610a75565b3461030157604036600319011261030157610c35611e24565b600435600052600060205260406000209060018060a01b0316600052602052602060ff604060002054166040519015158152f35b34610301576000366003190112610301576004546040516001600160a01b039091168152602090f35b34610301576000366003190112610301576005546040516001600160a01b039091168152602090f35b34610301576020366003190112610301576020610cd96004356121c6565b6040519015158152f35b34610301576101c0366003190112610301576004356001600160401b03811161030157610d14903690600401611f43565b6024356001600160401b03811161030157610d33903690600401611f43565b6064356001600160401b03811161030157610d52903690600401611f43565b916084356001600160401b03811161030157610d72903690600401611f43565b60a435936001600160401b03851161030157604060031986360301126103015760405194610d9f86611e3a565b80600401356001600160401b03811161030157610dc29060043691840101611f43565b86526024810135906001600160401b038211610301576004610de79236920101611f43565b60208601526101003660c319011261030157604051610e0581611e55565b60c4356001600160a01b038116810361030157815260e43560208201526101043560408201526101243560608201526101443560808201526101643560a08201526101843560c08201526101a43560e0820152600a54600b549094610e6a8242612179565b91610e759042612179565b600c54610e8191612179565b92604051978896610e9188611e71565b8888526020880196338852604089019485526060890192835260808901604435815260a08a0191825260c08a01928352610ec961219e565b9360e08b019485526101008b019d8e526101208b019586526101408b01964288526101608c019889526101808c01998a526101a08c019a60008c526101c08d019c60008e526101e0019d60008f526801000000000000000081101561131657806001610f389201600a55612004565b9f909f6115cc57518f555160018f0180546001600160a01b0319166001600160a01b039290921691909117905551805160028f01916001600160401b038211611316578190610f9182610f8b8654612023565b86612134565b602090601f83116001146115675760009261155c575b50508160011b916000199060031b1c19161790555b51805160038e01916001600160401b038211611316578190610fe282610f8b8654612023565b602090601f83116001146114f7576000926114ec575b50508160011b916000199060031b1c19161790555b5160048c015551805160058c01916001600160401b03821161131657819061103982610f8b8654612023565b602090601f83116001146114875760009261147c575b50508160011b916000199060031b1c19161790555b51805160068b01916001600160401b03821161131657819061108a82610f8b8654612023565b602090601f83116001146114175760009261140c575b50508160011b916000199060031b1c19161790555b51805160078a01916001600160401b0382116113165781906110db82610f8b8654612023565b602090601f83116001146113a75760009261139c575b50508160011b916000199060031b1c19161790555b6008880198519889518051906001600160401b03821161131657819061113082610f8b8654612023565b602090601f83116001146113375760009261132c575b50508160011b916000199060031b1c19161790555b6020600989019901519889516001600160401b03811161131657611189816111838454612023565b84612134565b6020601f82116001146112a957908060e094939260179c9d60009261129e575b50508160011b916000199060031b1c19161790555b5160018060a01b03815116600a8b019060018060a01b03166bffffffffffffffffffffffff60a01b8254161790556020810151600b8b01556040810151600c8b01556060810151600d8b01556080810151600e8b015560a0810151600f8b015560c081015160108b01550151601189015551601288015551601387015551601486015551601585015551601684015551910155600a54600019810190811161128857337fb0d4fb8322e1c826818f956c2bb5192f545c5df3ca526655ceb58d07ab3aa19e600080a3005b634e487b7160e01b600052601160045260246000fd5b015190508d806111a9565b601f1982169083600052806000209160005b8181106112fe575091839160179d9e60e0979695600195106112e5575b505050811b0190556111be565b015160001960f88460031b161c191690558d80806112d8565b8e8301518455600190930192602092830192016112bb565b634e487b7160e01b600052604160045260246000fd5b015190508c80611146565b60008581528281209350601f198516905b818110611384575090846001959493921061136b575b505050811b01905561115b565b015160001960f88460031b161c191690558c808061135e565b92936020600181928786015181550195019301611348565b015190508c806110f1565b60008581528281209350601f198516905b8181106113f457509084600195949392106113db575b505050811b019055611106565b015160001960f88460031b161c191690558c80806113ce565b929360206001819287860151815501950193016113b8565b015190508d806110a0565b60008581528281209350601f198516905b818110611464575090846001959493921061144b575b505050811b0190556110b5565b015160001960f88460031b161c191690558d808061143e565b92936020600181928786015181550195019301611428565b015190508e8061104f565b60008581528281209350601f198516905b8181106114d457509084600195949392106114bb575b505050811b019055611064565b015160001960f88460031b161c191690558e80806114ae565b92936020600181928786015181550195019301611498565b015190503880610ff8565b60008581528281209350601f198516905b818110611544575090846001959493921061152b575b505050811b01905561100d565b015160001960f88460031b161c1916905538808061151e565b92936020600181928786015181550195019301611508565b015190503880610fa7565b60008581528281209350601f198516905b8181106115b4575090846001959493921061159b575b505050811b019055610fbc565b015160001960f88460031b161c1916905538808061158e565b92936020600181928786015181550195019301611578565b634e487b7160e01b600052600060045260246000fd5b34610301576000366003190112610301576008546040516001600160a01b039091168152602090f35b34610301576000366003190112610301576007546040516001600160a01b039091168152602090f35b346103015760203660031901126103015761164d61222b565b600435600b55005b346103015761166336611ec5565b61166b61227e565b6000610cb161243990600c6513525395115160d21b0191603c4201804211945b865181101561021c5760076116a66105636108fc848b611fda565b602081519101206040906006602083516116c08582611e8d565b828152016513525395115160d21b81522014611c2f5760046116e56108fc848b611fda565b50015488612710611707600c6116fe6108fc8886611fda565b500154846120e0565b0491612710611727600d61171e6108fc8987611fda565b500154836120e0565b049261176d601061171e6108fc89612710611753600e61174a6108fc858d611fda565b500154896120e0565b0497611767600f61174a6108fc8585611fda565b50611fda565b508b61271061178d60116117846108fc8b86611fda565b500154856120e0565b04926117aa6108fc896117a36108fc8287611fda565b5094611fda565b50908751928c8401908482106001600160401b038311176113165784936117f28f928f95600394611801978939308652602086015260808d860152600260808601910161205d565b9260608185039101520161205d565b03906000f08015611b8d578a600761181d8f8a6108fc91611fda565b500161182c6109728254612023565b556001600160a01b0316928c60176118606108fc8a61184c828287611fda565b50600a01546001600160a01b031694611fda565b5001546006549091906001600160a01b03168e611288578851906101208201908282106001600160401b03831117611316578c918b52888352602083019384528a89818501966101f4885261191d6020606088019a808c526080890193845260a08901946001865260c08a01966001885260e08b019889526101008b01998a52600060018060a01b0360075416915180968195829463095ea7b360e01b84526004840160209093929193604081019460018060a01b031681520152565b03925af18015611c09578f61197692602092611c14575b5089516007548551925163095ea7b360e01b81526001600160a01b03918216600482015260248101939093529193849290911690829060009082906044820190565b03925af18015611c0957938f9360809a999793600097936101649a97611bed575b5062ffffff60018060a01b03600754169760018060a01b039051169960018060a01b039051169b51169c519051915192519360018060a01b03905116945195519c8d9b8c9a632d73711360e01b8c5260048c015260248b015260448a0152620d89b31960648a0152620d89b460848a015260a489015260c488015260e48701526101048601526101248501526101448401525af18015611be257611b98575b50600154855163a9059cbb60e01b81526001600160a01b03909116600482015260248101919091526020816044816000875af18015611b8d5791602091611ab093611b72575b50600554865163a9059cbb60e01b81526001600160a01b039091166004820152602481019190915291829081906044820190565b03816000865af18015611b675791611b07949391602093611b4c575b50600254845163a9059cbb60e01b81526001600160a01b03909116600482015260248101929092529093849190829060009082906044820190565b03925af1908115611b4257509060019291611b24575b500161168b565b611b3b9060203d811161021e576102148183611e8d565b5088611b1d565b513d6000823e3d90fd5b611b6290843d811161021e576102148183611e8d565b611acc565b84513d6000823e3d90fd5b611b8890833d811161021e576102148183611e8d565b611a7c565b85513d6000823e3d90fd5b6080813d8211611bda575b81611bb060809383611e8d565b8101031261030157602001516fffffffffffffffffffffffffffffffff811603610301578c611a36565b3d9150611ba3565b86513d6000823e3d90fd5b611c049060203d811161021e576102148183611e8d565b611997565b8f513d6000823e3d90fd5b611c2a90833d811161021e576102148183611e8d565b611934565b5162461bcd60e51b815260206004820152601360248201527213595b5948185b1c9958591e481b5a5b9d1959606a1b6044820152606490fd5b34610301576000366003190112610301576002546040516001600160a01b039091168152602090f35b3461030157602036600319011261030157611caa61222b565b600435600c55005b3461030157604036600319011261030157611ccb611e24565b336001600160a01b03821603611ce75761021c906004356123b6565b63334bd91960e11b60005260046000fd5b346103015760403660031901126103015761021c600435611d17611e24565b90611d336109f782600052600060205260016040600020015490565b61232b565b34610301576020366003190112610301576020611d65600435600052600060205260016040600020015490565b604051908152f35b34610301576000366003190112610301576003546040516001600160a01b039091168152602090f35b346103015760003660031901126103015760206040517fd8aa0f3194971a2a116679f7c2090f6939c8d4e01a2a8d7e41d55e5351469e638152f35b34610301576020366003190112610301576004359063ffffffff60e01b821680920361030157602091637965db0b60e01b8114908115611e13575b5015158152f35b6301ffc9a760e01b14905083611e0c565b602435906001600160a01b038216820361030157565b604081019081106001600160401b0382111761131657604052565b61010081019081106001600160401b0382111761131657604052565b61020081019081106001600160401b0382111761131657604052565b90601f801991011681019081106001600160401b0382111761131657604052565b6001600160401b0381116113165760051b60200190565b602060031982011261030157600435906001600160401b0382116103015780602383011215610301578160040135611efc81611eae565b92611f0a6040519485611e8d565b8184526024602085019260051b82010192831161030157602401905b828210611f335750505090565b8135815260209182019101611f26565b81601f82011215610301578035906001600160401b0382116113165760405192611f77601f8401601f191660200185611e8d565b8284526020838301011161030157816000926020809301838601378301015290565b919082519283825260005b848110611fc5575050826000602080949584010152601f8019910116010190565b80602080928401015182828601015201611fa4565b8051821015611fee5760209160051b010190565b634e487b7160e01b600052603260045260246000fd5b600a54811015611fee57600a6000526018602060002091020190600090565b90600182811c92168015612053575b602083101461203d57565b634e487b7160e01b600052602260045260246000fd5b91607f1691612032565b6000929181549161206d83612023565b80835292600181169081156120c3575060011461208957505050565b60009081526020812093945091925b8383106120a9575060209250010190565b600181602092949394548385870101520191019190612098565b915050602093945060ff929192191683830152151560051b010190565b8181029291811591840414171561128857565b8181106120fe575050565b600081556001016120f3565b90601f8111612117575050565b61213291600052601f6020600020910160051c8101906120f3565b565b9190601f811161214357505050565b612132926000526020600020906020601f840160051c8301931061216f575b601f0160051c01906120f3565b9091508190612162565b9190820180921161128857565b90816020910312610301575180151581036103015790565b604051906121ad604083611e8d565b600a825269494e2d50524f4345535360b01b6020830152565b6121eb60156121d483612004565b50015460166121e284612004565b50015490612179565b600d54111590601661220a601561220184612004565b50015492612004565b5001541081612217575090565b905090565b60001981146112885760010190565b3360009081527fad3228b676f7d3cd4284a5443f17f1962b36e491b30a40b2405849e597ba5fb5602052604090205460ff161561226457565b63e2517d3f60e01b60005233600452600060245260446000fd5b3360009081527fdae2aa361dfd1ca020a396615627d436107c35eff9fe7738a3512819782d7069602052604090205460ff16156122b757565b63e2517d3f60e01b600052336004527fd8aa0f3194971a2a116679f7c2090f6939c8d4e01a2a8d7e41d55e5351469e6360245260446000fd5b60008181526020818152604080832033845290915290205460ff16156123135750565b63e2517d3f60e01b6000523360045260245260446000fd5b6000818152602081815260408083206001600160a01b038616845290915290205460ff166123af576000818152602081815260408083206001600160a01b0395909516808452949091528120805460ff19166001179055339291907f2f8788117e7eff1d82e926ec794901d17c78024a50270940304540a733656f0d9080a4600190565b5050600090565b6000818152602081815260408083206001600160a01b038616845290915290205460ff16156123af576000818152602081815260408083206001600160a01b0395909516808452949091528120805460ff19169055339291907ff6391f5c32d9c69d2a47ea670b442974b53935d1edc7fd64eb21e047a839171b9080a460019056fe60806040523461042457610cb18038038061001981610429565b9283398101906080818303126104245780516001600160a01b038116919082810361042457602082015160408301519092906001600160401b038111610424578561006591830161044e565b60608201519095906001600160401b03811161042457610085920161044e565b845190946001600160401b0382116103215760035490600182811c9216801561041a575b60208310146103015781601f8493116103aa575b50602090601f831160011461034257600092610337575b50508160011b916000199060031b1c1916176003555b83516001600160401b03811161032157600454600181811c91168015610317575b602082101461030157601f811161029c575b50602094601f82116001146102355794819293949560009261022a575b50508160011b916000199060031b1c1916176004555b82156102145780610163610168926104b9565b6104b9565b670de0b6b3a7640000810290808204670de0b6b3a764000014901517156101fe5760006002548281018091116101ea576000927fddf252ad1be2c89b69c2b068fc378daa952ba7f163c4a11628f55a4df523b3ef926020926002555084845283825260408420818154019055604051908152a36040516107ae90816105038239f35b634e487b7160e01b82526011600452602482fd5b634e487b7160e01b600052601160045260246000fd5b631e4fbdf760e01b600052600060045260246000fd5b01519050388061013a565b601f198216956004600052806000209160005b8881106102845750836001959697981061026b575b505050811b01600455610150565b015160001960f88460031b161c1916905538808061025d565b91926020600181928685015181550194019201610248565b60046000527f8a35acfbc15ff81a39ae7d344fd709f28e8600b4aa8c65c6b64bfe7fe36bd19b601f830160051c810191602084106102f7575b601f0160051c01905b8181106102eb575061011d565b600081556001016102de565b90915081906102d5565b634e487b7160e01b600052602260045260246000fd5b90607f169061010b565b634e487b7160e01b600052604160045260246000fd5b0151905038806100d4565b600360009081528281209350601f198516905b8181106103925750908460019594939210610379575b505050811b016003556100ea565b015160001960f88460031b161c1916905538808061036b565b92936020600181928786015181550195019301610355565b60036000529091507fc2575a0e9e593c00f959f8c92f12db2869c3395a3b0502d05e2516446f71f85b601f840160051c81019160208510610410575b90601f859493920160051c01905b81811061040157506100bd565b600081558493506001016103f4565b90915081906103e6565b91607f16916100a9565b600080fd5b6040519190601f01601f191682016001600160401b0381118382101761032157604052565b81601f82011215610424578051906001600160401b0382116103215761047d601f8301601f1916602001610429565b92828452602083830101116104245760005b8281106104a457505060206000918301015290565b8060208092840101518282870101520161048f565b600580546001600160a01b039283166001600160a01b0319821681179092559091167f8be0079c531659141344cd1fd0a4f28419497f9722a3daafe3b4186f6b6457e0600080a356fe608080604052600436101561001357600080fd5b60003560e01c90816306fdde031461054257508063095ea7b3146104bc57806318160ddd1461049e57806323b872dd146103b1578063313ce5671461039557806370a082311461035b578063715018a6146102fe5780638da5cb5b146102d557806395d89b41146101b4578063a9059cbb14610183578063dd62ed3e146101325763f2fde38b146100a357600080fd5b3461012d57602036600319011261012d576100bc61065e565b6100c461074f565b6001600160a01b0316801561011757600580546001600160a01b0319811683179091556001600160a01b03167f8be0079c531659141344cd1fd0a4f28419497f9722a3daafe3b4186f6b6457e0600080a3005b631e4fbdf760e01b600052600060045260246000fd5b600080fd5b3461012d57604036600319011261012d5761014b61065e565b610153610674565b6001600160a01b039182166000908152600160209081526040808320949093168252928352819020549051908152f35b3461012d57604036600319011261012d576101a961019f61065e565b602435903361068a565b602060405160018152f35b3461012d57600036600319011261012d5760405160006004548060011c906001811680156102cb575b6020831081146102b75782855290811561029b5750600114610244575b50819003601f01601f191681019067ffffffffffffffff82118183101761022e5761022a82918260405282610615565b0390f35b634e487b7160e01b600052604160045260246000fd5b905060046000527f8a35acfbc15ff81a39ae7d344fd709f28e8600b4aa8c65c6b64bfe7fe36bd19b6000905b828210610285575060209150820101826101fa565b6001816020925483858801015201910190610270565b90506020925060ff191682840152151560051b820101826101fa565b634e487b7160e01b84526022600452602484fd5b91607f16916101dd565b3461012d57600036600319011261012d576005546040516001600160a01b039091168152602090f35b3461012d57600036600319011261012d5761031761074f565b600580546001600160a01b031981169091556000906001600160a01b03167f8be0079c531659141344cd1fd0a4f28419497f9722a3daafe3b4186f6b6457e08280a3005b3461012d57602036600319011261012d576001600160a01b0361037c61065e565b1660005260006020526020604060002054604051908152f35b3461012d57600036600319011261012d57602060405160128152f35b3461012d57606036600319011261012d576103ca61065e565b6103d2610674565b6001600160a01b0382166000818152600160208181526040808420338552909152909120549193604435939290918101610412575b506101a9935061068a565b83811061048157841561046b573315610455576101a9946000526001602052604060002060018060a01b0333166000526020528360406000209103905584610407565b634a1406b160e11b600052600060045260246000fd5b63e602df0560e01b600052600060045260246000fd5b8390637dc7a0d960e11b6000523360045260245260445260646000fd5b3461012d57600036600319011261012d576020600254604051908152f35b3461012d57604036600319011261012d576104d561065e565b60243590331561046b576001600160a01b031690811561045557336000526001602052604060002082600052602052806040600020556040519081527f8c5be1e5ebec7d5bd14f71427d1e84f3dd0314c0f7b2291e5b200ac8c7c3b92560203392a3602060405160018152f35b3461012d57600036600319011261012d5760006003548060011c9060018116801561060b575b6020831081146102b75782855290811561029b57506001146105b45750819003601f01601f191681019067ffffffffffffffff82118183101761022e5761022a82918260405282610615565b905060036000527fc2575a0e9e593c00f959f8c92f12db2869c3395a3b0502d05e2516446f71f85b6000905b8282106105f5575060209150820101826101fa565b60018160209254838588010152019101906105e0565b91607f1691610568565b91909160208152825180602083015260005b818110610648575060409293506000838284010152601f8019910116010190565b8060208092870101516040828601015201610627565b600435906001600160a01b038216820361012d57565b602435906001600160a01b038216820361012d57565b6001600160a01b0316908115610739576001600160a01b03169182156107235760008281528060205260408120548281106107095791604082827fddf252ad1be2c89b69c2b068fc378daa952ba7f163c4a11628f55a4df523b3ef958760209652828652038282205586815280845220818154019055604051908152a3565b916064928463391434e360e21b8452600452602452604452fd5b63ec442f0560e01b600052600060045260246000fd5b634b637e8f60e11b600052600060045260246000fd5b6005546001600160a01b0316330361076357565b63118cdaa760e01b6000523360045260246000fdfea2646970667358221220f4e3154817bc6315e7cbdab2691b908aade2dce29ebc780e0606b7766a8abbc364736f6c634300081b0033a2646970667358221220324dd13d39be603419bf2b90f423e4ca4eebeee707cba6c23fb6f7d0148a71c264736f6c634300081b00332f8788117e7eff1d82e926ec794901d17c78024a50270940304540a733656f0ddae2aa361dfd1ca020a396615627d436107c35eff9fe7738a3512819782d7069ad3228b676f7d3cd4284a5443f17f1962b36e491b30a40b2405849e597ba5fb5",
          "opcodes": "PUSH1 0x80 PUSH1 0x40 MSTORE CALLVALUE PUSH2 0xC6 JUMPI PUSH1 0x8 DUP1 SLOAD PUSH1 0x1 PUSH1 0x1 PUSH1 0xA0 SHL SUB NOT AND PUSH20 0x427BF5B37357632377ECBEC9DE3626C71A5396C1 OR SWAP1 SSTORE PUSH2 0x12C PUSH1 0xB SSTORE PUSH2 0x258 PUSH1 0xC SSTORE PUSH1 0x5 PUSH1 0xD SSTORE PUSH2 0x49 CALLER PUSH2 0xCB JUMP JUMPDEST POP PUSH2 0x53 CALLER PUSH2 0x147 JUMP JUMPDEST POP PUSH1 0x1 DUP1 SLOAD CALLER PUSH1 0x1 PUSH1 0x1 PUSH1 0xA0 SHL SUB NOT SWAP2 DUP3 AND DUP2 OR SWAP1 SWAP3 SSTORE PUSH1 0x2 DUP1 SLOAD DUP3 AND DUP4 OR SWAP1 SSTORE PUSH1 0x3 DUP1 SLOAD DUP3 AND DUP4 OR SWAP1 SSTORE PUSH1 0x4 DUP1 SLOAD DUP3 AND DUP4 OR SWAP1 SSTORE PUSH1 0x5 DUP1 SLOAD DUP3 AND DUP4 OR SWAP1 SSTORE PUSH1 0x6 DUP1 SLOAD DUP3 AND SWAP1 SWAP3 OR SWAP1 SWAP2 SSTORE PUSH1 0x8 SLOAD PUSH1 0x7 DUP1 SLOAD PUSH1 0x1 PUSH1 0x1 PUSH1 0xA0 SHL SUB SWAP1 SWAP3 AND SWAP2 SWAP1 SWAP3 AND OR SWAP1 SSTORE PUSH1 0x40 MLOAD PUSH2 0x311F SWAP1 DUP2 PUSH2 0x1E0 DUP3 CODECOPY RETURN JUMPDEST PUSH1 0x0 DUP1 REVERT JUMPDEST PUSH1 0x1 PUSH1 0x1 PUSH1 0xA0 SHL SUB DUP2 AND PUSH1 0x0 SWAP1 DUP2 MSTORE PUSH1 0x0 DUP1 MLOAD PUSH1 0x20 PUSH2 0x333F DUP4 CODECOPY DUP2 MLOAD SWAP2 MSTORE PUSH1 0x20 MSTORE PUSH1 0x40 SWAP1 KECCAK256 SLOAD PUSH1 0xFF AND PUSH2 0x141 JUMPI PUSH1 0x1 PUSH1 0x1 PUSH1 0xA0 SHL SUB AND PUSH1 0x0 DUP2 DUP2 MSTORE PUSH1 0x0 DUP1 MLOAD PUSH1 0x20 PUSH2 0x333F DUP4 CODECOPY DUP2 MLOAD SWAP2 MSTORE PUSH1 0x20 MSTORE PUSH1 0x40 DUP2 KECCAK256 DUP1 SLOAD PUSH1 0xFF NOT AND PUSH1 0x1 OR SWAP1 SSTORE CALLER SWAP2 SWAP1 PUSH1 0x0 DUP1 MLOAD PUSH1 0x20 PUSH2 0x32FF DUP4 CODECOPY DUP2 MLOAD SWAP2 MSTORE DUP2 DUP1 LOG4 PUSH1 0x1 SWAP1 JUMP JUMPDEST POP PUSH1 0x0 SWAP1 JUMP JUMPDEST PUSH1 0x1 PUSH1 0x1 PUSH1 0xA0 SHL SUB DUP2 AND PUSH1 0x0 SWAP1 DUP2 MSTORE PUSH1 0x0 DUP1 MLOAD PUSH1 0x20 PUSH2 0x331F DUP4 CODECOPY DUP2 MLOAD SWAP2 MSTORE PUSH1 0x20 MSTORE PUSH1 0x40 SWAP1 KECCAK256 SLOAD PUSH1 0xFF AND PUSH2 0x141 JUMPI PUSH1 0x1 PUSH1 0x1 PUSH1 0xA0 SHL SUB AND PUSH1 0x0 DUP2 DUP2 MSTORE PUSH1 0x0 DUP1 MLOAD PUSH1 0x20 PUSH2 0x331F DUP4 CODECOPY DUP2 MLOAD SWAP2 MSTORE PUSH1 0x20 MSTORE PUSH1 0x40 DUP2 KECCAK256 DUP1 SLOAD PUSH1 0xFF NOT AND PUSH1 0x1 OR SWAP1 SSTORE CALLER SWAP2 SWAP1 PUSH32 0xD8AA0F3194971A2A116679F7C2090F6939C8D4E01A2A8D7E41D55E5351469E63 SWAP1 PUSH1 0x0 DUP1 MLOAD PUSH1 0x20 PUSH2 0x32FF DUP4 CODECOPY DUP2 MLOAD SWAP2 MSTORE SWAP1 DUP1 LOG4 PUSH1 0x1 SWAP1 JUMP INVALID PUSH1 0x80 DUP1 PUSH1 0x40 MSTORE PUSH1 0x4 CALLDATASIZE LT ISZERO PUSH2 0x13 JUMPI PUSH1 0x0 DUP1 REVERT JUMPDEST PUSH1 0x0 CALLDATALOAD PUSH1 0xE0 SHR SWAP1 DUP2 PUSH4 0x1FFC9A7 EQ PUSH2 0x1DD1 JUMPI POP DUP1 PUSH4 0x7BD0265 EQ PUSH2 0x1D96 JUMPI DUP1 PUSH4 0x12E228FD EQ PUSH2 0x1D6D JUMPI DUP1 PUSH4 0x248A9CA3 EQ PUSH2 0x1D38 JUMPI DUP1 PUSH4 0x2F2FF15D EQ PUSH2 0x1CF8 JUMPI DUP1 PUSH4 0x36568ABE EQ PUSH2 0x1CB2 JUMPI DUP1 PUSH4 0x4C8D7E58 EQ PUSH2 0x1C91 JUMPI DUP1 PUSH4 0x5B9E98B8 EQ PUSH2 0x1C68 JUMPI DUP1 PUSH4 0x63A3DAFE EQ PUSH2 0x1655 JUMPI DUP1 PUSH4 0x67B11630 EQ PUSH2 0x1634 JUMPI DUP1 PUSH4 0x791B98BC EQ PUSH2 0x160B JUMPI DUP1 PUSH4 0x7A8A1113 EQ PUSH2 0x15E2 JUMPI DUP1 PUSH4 0x80D506B7 EQ PUSH2 0xCE3 JUMPI DUP1 PUSH4 0x81C65884 EQ PUSH2 0xCBB JUMPI DUP1 PUSH4 0x82F85C3F EQ PUSH2 0xC92 JUMPI DUP1 PUSH4 0x8F84AA09 EQ PUSH2 0xC69 JUMPI DUP1 PUSH4 0x91D14854 EQ PUSH2 0xC1C JUMPI DUP1 PUSH4 0x943E8216 EQ PUSH2 0xA3E JUMPI DUP1 PUSH4 0xA217FDDF EQ PUSH2 0xA22 JUMPI DUP1 PUSH4 0xB15C4013 EQ PUSH2 0xA01 JUMPI DUP1 PUSH4 0xD547741F EQ PUSH2 0x9BC JUMPI DUP1 PUSH4 0xE0B3BAEF EQ PUSH2 0x8C5 JUMPI DUP1 PUSH4 0xE8CA9212 EQ PUSH2 0x89C JUMPI DUP1 PUSH4 0xED14834F EQ PUSH2 0x873 JUMPI DUP1 PUSH4 0xF24A5576 EQ PUSH2 0x306 JUMPI PUSH4 0xFECBA3A5 EQ PUSH2 0x13D JUMPI PUSH1 0x0 DUP1 REVERT JUMPDEST CALLVALUE PUSH2 0x301 JUMPI PUSH1 0x60 CALLDATASIZE PUSH1 0x3 NOT ADD SLT PUSH2 0x301 JUMPI PUSH1 0x4 CALLDATALOAD PUSH2 0x159 PUSH2 0x1E24 JUMP JUMPDEST PUSH1 0x44 CALLDATALOAD SWAP1 PUSH1 0x13 PUSH2 0x168 DUP5 PUSH2 0x2004 JUMP JUMPDEST POP ADD SLOAD TIMESTAMP LT ISZERO DUP1 PUSH2 0x2EB JUMPI JUMPDEST ISZERO PUSH2 0x2A6 JUMPI PUSH2 0x182 DUP4 PUSH2 0x21C6 JUMP JUMPDEST ISZERO PUSH2 0x268 JUMPI PUSH2 0x190 DUP4 PUSH2 0x2004 JUMP JUMPDEST POP PUSH1 0xA ADD SLOAD PUSH1 0x1 PUSH1 0x1 PUSH1 0xA0 SHL SUB SWAP2 DUP3 AND SWAP2 AND DUP2 SWAP1 SUB PUSH2 0x231 JUMPI PUSH1 0x64 PUSH1 0x20 SWAP3 PUSH1 0x17 PUSH2 0x1BB PUSH1 0x0 SWAP7 PUSH2 0x2004 JUMP JUMPDEST POP ADD PUSH2 0x1C8 DUP3 DUP3 SLOAD PUSH2 0x2179 JUMP JUMPDEST SWAP1 SSTORE PUSH1 0x40 MLOAD SWAP5 DUP6 SWAP4 DUP5 SWAP3 PUSH4 0x23B872DD PUSH1 0xE0 SHL DUP5 MSTORE CALLER PUSH1 0x4 DUP6 ADD MSTORE ADDRESS PUSH1 0x24 DUP6 ADD MSTORE PUSH1 0x44 DUP5 ADD MSTORE GAS CALL DUP1 ISZERO PUSH2 0x225 JUMPI PUSH2 0x1FB JUMPI STOP JUMPDEST PUSH2 0x21C SWAP1 PUSH1 0x20 RETURNDATASIZE PUSH1 0x20 GT PUSH2 0x21E JUMPI JUMPDEST PUSH2 0x214 DUP2 DUP4 PUSH2 0x1E8D JUMP JUMPDEST DUP2 ADD SWAP1 PUSH2 0x2186 JUMP JUMPDEST STOP JUMPDEST POP RETURNDATASIZE PUSH2 0x20A JUMP JUMPDEST PUSH1 0x40 MLOAD RETURNDATASIZE PUSH1 0x0 DUP3 RETURNDATACOPY RETURNDATASIZE SWAP1 REVERT JUMPDEST PUSH1 0x40 MLOAD PUSH3 0x461BCD PUSH1 0xE5 SHL DUP2 MSTORE PUSH1 0x20 PUSH1 0x4 DUP3 ADD MSTORE PUSH1 0xF PUSH1 0x24 DUP3 ADD MSTORE PUSH15 0x496E76616C69642061646472657373 PUSH1 0x88 SHL PUSH1 0x44 DUP3 ADD MSTORE PUSH1 0x64 SWAP1 REVERT JUMPDEST PUSH1 0x40 MLOAD PUSH3 0x461BCD PUSH1 0xE5 SHL DUP2 MSTORE PUSH1 0x20 PUSH1 0x4 DUP3 ADD MSTORE PUSH1 0x16 PUSH1 0x24 DUP3 ADD MSTORE PUSH22 0x159BDD19481C995CDD5B1D081B9BDD081C185CDCD959 PUSH1 0x52 SHL PUSH1 0x44 DUP3 ADD MSTORE PUSH1 0x64 SWAP1 REVERT JUMPDEST PUSH1 0x40 MLOAD PUSH3 0x461BCD PUSH1 0xE5 SHL DUP2 MSTORE PUSH1 0x20 PUSH1 0x4 DUP3 ADD MSTORE PUSH1 0x1B PUSH1 0x24 DUP3 ADD MSTORE PUSH32 0x496E766573746D656E7420706572696F642068617320656E6465640000000000 PUSH1 0x44 DUP3 ADD MSTORE PUSH1 0x64 SWAP1 REVERT JUMPDEST POP PUSH1 0x14 PUSH2 0x2F7 DUP5 PUSH2 0x2004 JUMP JUMPDEST POP ADD SLOAD TIMESTAMP LT PUSH2 0x174 JUMP JUMPDEST PUSH1 0x0 DUP1 REVERT JUMPDEST CALLVALUE PUSH2 0x301 JUMPI PUSH1 0x20 CALLDATASIZE PUSH1 0x3 NOT ADD SLT PUSH2 0x301 JUMPI PUSH1 0x4 CALLDATALOAD PUSH1 0x1 PUSH1 0x1 PUSH1 0x40 SHL SUB DUP2 GT PUSH2 0x301 JUMPI PUSH2 0x336 SWAP1 CALLDATASIZE SWAP1 PUSH1 0x4 ADD PUSH2 0x1F43 JUMP JUMPDEST PUSH1 0xA SLOAD PUSH1 0x0 SWAP2 PUSH1 0x20 DUP2 ADD SWAP1 DUP4 JUMPDEST DUP4 DUP2 LT PUSH2 0x838 JUMPI POP PUSH2 0x354 DUP5 PUSH2 0x1EAE JUMP JUMPDEST SWAP4 PUSH2 0x362 PUSH1 0x40 MLOAD SWAP6 DUP7 PUSH2 0x1E8D JUMP JUMPDEST DUP1 DUP6 MSTORE PUSH2 0x371 PUSH1 0x1F NOT SWAP2 PUSH2 0x1EAE JUMP JUMPDEST ADD PUSH1 0x0 JUMPDEST DUP2 DUP2 LT PUSH2 0x758 JUMPI POP POP PUSH1 0x0 SWAP2 PUSH1 0x0 JUMPDEST DUP5 DUP2 LT PUSH2 0x555 JUMPI DUP6 PUSH1 0x40 MLOAD DUP1 SWAP2 PUSH1 0x20 DUP3 ADD PUSH1 0x20 DUP4 MSTORE DUP2 MLOAD DUP1 SWAP2 MSTORE PUSH1 0x40 DUP4 ADD SWAP1 PUSH1 0x20 PUSH1 0x40 DUP3 PUSH1 0x5 SHL DUP7 ADD ADD SWAP4 ADD SWAP2 PUSH1 0x0 SWAP1 JUMPDEST DUP3 DUP3 LT PUSH2 0x3C4 JUMPI POP POP POP POP SUB SWAP1 RETURN JUMPDEST SWAP2 SWAP4 PUSH1 0x1 SWAP2 SWAP4 SWAP6 POP PUSH1 0x20 DUP1 SWAP2 PUSH1 0x3F NOT DUP10 DUP3 SUB ADD DUP6 MSTORE DUP8 MLOAD SWAP1 DUP2 MLOAD DUP2 MSTORE DUP5 DUP1 PUSH1 0xA0 SHL SUB DUP4 DUP4 ADD MLOAD AND DUP4 DUP3 ADD MSTORE PUSH2 0x2C0 PUSH2 0x1E0 PUSH2 0x4A5 PUSH2 0x471 PUSH2 0x45F PUSH2 0x44D PUSH2 0x431 PUSH2 0x41F PUSH1 0x40 DUP11 ADD MLOAD PUSH2 0x2E0 PUSH1 0x40 DUP12 ADD MSTORE PUSH2 0x2E0 DUP11 ADD SWAP1 PUSH2 0x1F99 JUMP JUMPDEST PUSH1 0x60 DUP11 ADD MLOAD DUP10 DUP3 SUB PUSH1 0x60 DUP12 ADD MSTORE PUSH2 0x1F99 JUMP JUMPDEST PUSH1 0x80 DUP10 ADD MLOAD PUSH1 0x80 DUP10 ADD MSTORE PUSH1 0xA0 DUP10 ADD MLOAD DUP9 DUP3 SUB PUSH1 0xA0 DUP11 ADD MSTORE PUSH2 0x1F99 JUMP JUMPDEST PUSH1 0xC0 DUP9 ADD MLOAD DUP8 DUP3 SUB PUSH1 0xC0 DUP10 ADD MSTORE PUSH2 0x1F99 JUMP JUMPDEST PUSH1 0xE0 DUP8 ADD MLOAD DUP7 DUP3 SUB PUSH1 0xE0 DUP9 ADD MSTORE PUSH2 0x1F99 JUMP JUMPDEST PUSH2 0x100 DUP7 ADD MLOAD SWAP1 DUP6 DUP2 SUB PUSH2 0x100 DUP8 ADD MSTORE DUP8 PUSH2 0x495 DUP4 MLOAD PUSH1 0x40 DUP5 MSTORE PUSH1 0x40 DUP5 ADD SWAP1 PUSH2 0x1F99 JUMP JUMPDEST SWAP3 ADD MLOAD SWAP1 DUP9 DUP2 DUP5 SUB SWAP2 ADD MSTORE PUSH2 0x1F99 JUMP JUMPDEST SWAP4 PUSH1 0xE0 PUSH2 0x120 DUP3 ADD MLOAD DUP10 DUP1 PUSH1 0xA0 SHL SUB DUP2 MLOAD AND PUSH2 0x120 DUP8 ADD MSTORE DUP8 DUP2 ADD MLOAD PUSH2 0x140 DUP8 ADD MSTORE PUSH1 0x40 DUP2 ADD MLOAD PUSH2 0x160 DUP8 ADD MSTORE PUSH1 0x60 DUP2 ADD MLOAD PUSH2 0x180 DUP8 ADD MSTORE PUSH1 0x80 DUP2 ADD MLOAD PUSH2 0x1A0 DUP8 ADD MSTORE PUSH1 0xA0 DUP2 ADD MLOAD PUSH2 0x1C0 DUP8 ADD MSTORE PUSH1 0xC0 DUP2 ADD MLOAD DUP5 DUP8 ADD MSTORE ADD MLOAD PUSH2 0x200 DUP6 ADD MSTORE PUSH2 0x140 DUP2 ADD MLOAD PUSH2 0x220 DUP6 ADD MSTORE PUSH2 0x160 DUP2 ADD MLOAD PUSH2 0x240 DUP6 ADD MSTORE PUSH2 0x180 DUP2 ADD MLOAD PUSH2 0x260 DUP6 ADD MSTORE PUSH2 0x1A0 DUP2 ADD MLOAD PUSH2 0x280 DUP6 ADD MSTORE PUSH2 0x1C0 DUP2 ADD MLOAD PUSH2 0x2A0 DUP6 ADD MSTORE ADD MLOAD SWAP2 ADD MSTORE SWAP7 ADD SWAP3 ADD SWAP3 ADD DUP6 SWAP5 SWAP4 SWAP2 SWAP3 PUSH2 0x3B5 JUMP JUMPDEST PUSH1 0x7 PUSH2 0x57B PUSH2 0x563 DUP4 PUSH2 0x2004 JUMP JUMPDEST POP PUSH2 0x574 PUSH1 0x40 MLOAD DUP1 SWAP5 DUP2 SWAP4 ADD PUSH2 0x205D JUMP JUMPDEST SUB DUP3 PUSH2 0x1E8D JUMP JUMPDEST PUSH1 0x20 DUP2 MLOAD SWAP2 ADD KECCAK256 DUP4 MLOAD DUP4 KECCAK256 EQ PUSH2 0x594 JUMPI JUMPDEST PUSH1 0x1 ADD PUSH2 0x384 JUMP JUMPDEST SWAP3 PUSH2 0x750 PUSH1 0x1 SWAP2 PUSH2 0x5A4 DUP7 PUSH2 0x2004 JUMP JUMPDEST POP PUSH1 0x17 PUSH1 0x40 MLOAD SWAP2 PUSH2 0x5B4 DUP4 PUSH2 0x1E71 JUMP JUMPDEST DUP1 SLOAD DUP4 MSTORE DUP6 DUP1 PUSH1 0xA0 SHL SUB DUP7 DUP3 ADD SLOAD AND PUSH1 0x20 DUP5 ADD MSTORE PUSH1 0x40 MLOAD PUSH2 0x5DC DUP2 PUSH2 0x574 DUP2 PUSH1 0x2 DUP7 ADD PUSH2 0x205D JUMP JUMPDEST PUSH1 0x40 DUP5 ADD MSTORE PUSH1 0x40 MLOAD PUSH2 0x5F5 DUP2 PUSH2 0x574 DUP2 PUSH1 0x3 DUP7 ADD PUSH2 0x205D JUMP JUMPDEST PUSH1 0x60 DUP5 ADD MSTORE PUSH1 0x4 DUP2 ADD SLOAD PUSH1 0x80 DUP5 ADD MSTORE PUSH1 0x40 MLOAD PUSH2 0x618 DUP2 PUSH2 0x574 DUP2 PUSH1 0x5 DUP7 ADD PUSH2 0x205D JUMP JUMPDEST PUSH1 0xA0 DUP5 ADD MSTORE PUSH1 0x40 MLOAD PUSH2 0x631 DUP2 PUSH2 0x574 DUP2 PUSH1 0x6 DUP7 ADD PUSH2 0x205D JUMP JUMPDEST PUSH1 0xC0 DUP5 ADD MSTORE PUSH1 0x40 MLOAD PUSH2 0x64A DUP2 PUSH2 0x574 DUP2 PUSH1 0x7 DUP7 ADD PUSH2 0x205D JUMP JUMPDEST PUSH1 0xE0 DUP5 ADD MSTORE PUSH1 0x40 MLOAD PUSH2 0x65B DUP2 PUSH2 0x1E3A JUMP JUMPDEST PUSH1 0x40 MLOAD PUSH2 0x66F DUP2 PUSH2 0x574 DUP2 PUSH1 0x8 DUP8 ADD PUSH2 0x205D JUMP JUMPDEST DUP2 MSTORE PUSH1 0x40 MLOAD PUSH2 0x685 DUP2 PUSH2 0x574 DUP2 PUSH1 0x9 DUP8 ADD PUSH2 0x205D JUMP JUMPDEST PUSH1 0x20 DUP3 ADD MSTORE PUSH2 0x100 DUP5 ADD MSTORE PUSH1 0x40 MLOAD PUSH2 0x69C DUP2 PUSH2 0x1E55 JUMP JUMPDEST DUP7 DUP1 PUSH1 0xA0 SHL SUB PUSH1 0xA DUP4 ADD SLOAD AND DUP2 MSTORE PUSH1 0xB DUP3 ADD SLOAD PUSH1 0x20 DUP3 ADD MSTORE PUSH1 0xC DUP3 ADD SLOAD PUSH1 0x40 DUP3 ADD MSTORE PUSH1 0xD DUP3 ADD SLOAD PUSH1 0x60 DUP3 ADD MSTORE PUSH1 0xE DUP3 ADD SLOAD PUSH1 0x80 DUP3 ADD MSTORE PUSH1 0xF DUP3 ADD SLOAD PUSH1 0xA0 DUP3 ADD MSTORE PUSH1 0x10 DUP3 ADD SLOAD PUSH1 0xC0 DUP3 ADD MSTORE PUSH1 0x11 DUP3 ADD SLOAD PUSH1 0xE0 DUP3 ADD MSTORE PUSH2 0x120 DUP5 ADD MSTORE PUSH1 0x12 DUP2 ADD SLOAD PUSH2 0x140 DUP5 ADD MSTORE PUSH1 0x13 DUP2 ADD SLOAD PUSH2 0x160 DUP5 ADD MSTORE PUSH1 0x14 DUP2 ADD SLOAD PUSH2 0x180 DUP5 ADD MSTORE PUSH1 0x15 DUP2 ADD SLOAD PUSH2 0x1A0 DUP5 ADD MSTORE PUSH1 0x16 DUP2 ADD SLOAD PUSH2 0x1C0 DUP5 ADD MSTORE ADD SLOAD PUSH2 0x1E0 DUP3 ADD MSTORE PUSH2 0x73F DUP3 DUP11 PUSH2 0x1FDA JUMP JUMPDEST MSTORE PUSH2 0x74A DUP2 DUP10 PUSH2 0x1FDA JUMP JUMPDEST POP PUSH2 0x221C JUMP JUMPDEST SWAP4 SWAP1 POP PUSH2 0x58C JUMP JUMPDEST PUSH1 0x20 SWAP1 PUSH1 0x40 MLOAD PUSH2 0x767 DUP2 PUSH2 0x1E71 JUMP JUMPDEST PUSH1 0x0 DUP2 MSTORE PUSH1 0x0 DUP4 DUP3 ADD MSTORE PUSH1 0x60 PUSH1 0x40 DUP3 ADD MSTORE PUSH1 0x60 DUP1 DUP3 ADD MSTORE PUSH1 0x0 PUSH1 0x80 DUP3 ADD MSTORE PUSH1 0x60 PUSH1 0xA0 DUP3 ADD MSTORE PUSH1 0x60 PUSH1 0xC0 DUP3 ADD MSTORE PUSH1 0x60 PUSH1 0xE0 DUP3 ADD MSTORE PUSH1 0x40 MLOAD PUSH2 0x7A6 DUP2 PUSH2 0x1E3A JUMP JUMPDEST PUSH1 0x60 DUP2 MSTORE PUSH1 0x60 DUP5 DUP3 ADD MSTORE PUSH2 0x100 DUP3 ADD MSTORE PUSH1 0x40 MLOAD PUSH2 0x7C2 DUP2 PUSH2 0x1E55 JUMP JUMPDEST PUSH1 0x0 DUP2 MSTORE PUSH1 0x0 DUP5 DUP3 ADD MSTORE PUSH1 0x0 PUSH1 0x40 DUP3 ADD MSTORE PUSH1 0x0 PUSH1 0x60 DUP3 ADD MSTORE PUSH1 0x0 PUSH1 0x80 DUP3 ADD MSTORE PUSH1 0x0 PUSH1 0xA0 DUP3 ADD MSTORE PUSH1 0x0 PUSH1 0xC0 DUP3 ADD MSTORE PUSH1 0x0 PUSH1 0xE0 DUP3 ADD MSTORE PUSH2 0x120 DUP3 ADD MSTORE PUSH1 0x0 PUSH2 0x140 DUP3 ADD MSTORE PUSH1 0x0 PUSH2 0x160 DUP3 ADD MSTORE PUSH1 0x0 PUSH2 0x180 DUP3 ADD MSTORE PUSH1 0x0 PUSH2 0x1A0 DUP3 ADD MSTORE PUSH1 0x0 PUSH2 0x1C0 DUP3 ADD MSTORE PUSH1 0x0 PUSH2 0x1E0 DUP3 ADD MSTORE DUP3 DUP3 DUP10 ADD ADD MSTORE ADD PUSH2 0x375 JUMP JUMPDEST PUSH1 0x7 PUSH2 0x846 PUSH2 0x563 DUP4 PUSH2 0x2004 JUMP JUMPDEST PUSH1 0x20 DUP2 MLOAD SWAP2 ADD KECCAK256 DUP3 MLOAD DUP5 KECCAK256 EQ PUSH2 0x85F JUMPI JUMPDEST PUSH1 0x1 ADD PUSH2 0x343 JUMP JUMPDEST SWAP4 PUSH2 0x86B PUSH1 0x1 SWAP2 PUSH2 0x221C JUMP JUMPDEST SWAP5 SWAP1 POP PUSH2 0x857 JUMP JUMPDEST CALLVALUE PUSH2 0x301 JUMPI PUSH1 0x0 CALLDATASIZE PUSH1 0x3 NOT ADD SLT PUSH2 0x301 JUMPI PUSH1 0x1 SLOAD PUSH1 0x40 MLOAD PUSH1 0x1 PUSH1 0x1 PUSH1 0xA0 SHL SUB SWAP1 SWAP2 AND DUP2 MSTORE PUSH1 0x20 SWAP1 RETURN JUMPDEST CALLVALUE PUSH2 0x301 JUMPI PUSH1 0x0 CALLDATASIZE PUSH1 0x3 NOT ADD SLT PUSH2 0x301 JUMPI PUSH1 0x6 SLOAD PUSH1 0x40 MLOAD PUSH1 0x1 PUSH1 0x1 PUSH1 0xA0 SHL SUB SWAP1 SWAP2 AND DUP2 MSTORE PUSH1 0x20 SWAP1 RETURN JUMPDEST CALLVALUE PUSH2 0x301 JUMPI PUSH2 0x8D3 CALLDATASIZE PUSH2 0x1EC5 JUMP JUMPDEST PUSH2 0x8DB PUSH2 0x227E JUMP JUMPDEST PUSH1 0x0 JUMPDEST DUP2 MLOAD DUP2 LT ISZERO PUSH2 0x21C JUMPI DUP1 PUSH1 0x7 PUSH2 0x902 PUSH2 0x563 PUSH2 0x8FC PUSH1 0x1 SWAP6 DUP8 PUSH2 0x1FDA JUMP JUMPDEST MLOAD PUSH2 0x2004 JUMP JUMPDEST PUSH1 0x20 DUP2 MLOAD SWAP2 ADD KECCAK256 PUSH2 0x911 PUSH2 0x219E JUMP JUMPDEST PUSH1 0x20 DUP2 MLOAD SWAP2 ADD KECCAK256 EQ PUSH2 0x924 JUMPI JUMPDEST ADD PUSH2 0x8DE JUMP JUMPDEST PUSH1 0x13 PUSH2 0x933 PUSH2 0x8FC DUP4 DUP7 PUSH2 0x1FDA JUMP JUMPDEST POP ADD SLOAD TIMESTAMP GT ISZERO PUSH2 0x91E JUMPI PUSH2 0x950 PUSH2 0x94A DUP3 DUP6 PUSH2 0x1FDA JUMP JUMPDEST MLOAD PUSH2 0x21C6 JUMP JUMPDEST PUSH2 0x91E JUMPI PUSH1 0x7 PUSH2 0x963 PUSH2 0x8FC DUP4 DUP7 PUSH2 0x1FDA JUMP JUMPDEST POP ADD PUSH2 0x978 PUSH2 0x972 DUP3 SLOAD PUSH2 0x2023 JUMP JUMPDEST DUP3 PUSH2 0x210A JUMP JUMPDEST PUSH1 0xC PUSH6 0x119052531151 PUSH1 0xD2 SHL ADD SWAP1 SSTORE PUSH2 0x991 DUP2 DUP5 PUSH2 0x1FDA JUMP JUMPDEST MLOAD PUSH32 0x9968C7F52FD00A2108F0BB8FE431303663EDC67CC15A995D07AAD3D83D031D60 PUSH1 0x0 DUP1 LOG2 PUSH2 0x91E JUMP JUMPDEST CALLVALUE PUSH2 0x301 JUMPI PUSH1 0x40 CALLDATASIZE PUSH1 0x3 NOT ADD SLT PUSH2 0x301 JUMPI PUSH2 0x21C PUSH1 0x4 CALLDATALOAD PUSH2 0x9DB PUSH2 0x1E24 JUMP JUMPDEST SWAP1 PUSH2 0x9FC PUSH2 0x9F7 DUP3 PUSH1 0x0 MSTORE PUSH1 0x0 PUSH1 0x20 MSTORE PUSH1 0x1 PUSH1 0x40 PUSH1 0x0 KECCAK256 ADD SLOAD SWAP1 JUMP JUMPDEST PUSH2 0x22F0 JUMP JUMPDEST PUSH2 0x23B6 JUMP JUMPDEST CALLVALUE PUSH2 0x301 JUMPI PUSH1 0x20 CALLDATASIZE PUSH1 0x3 NOT ADD SLT PUSH2 0x301 JUMPI PUSH2 0xA1A PUSH2 0x222B JUMP JUMPDEST PUSH1 0x4 CALLDATALOAD PUSH1 0xD SSTORE STOP JUMPDEST CALLVALUE PUSH2 0x301 JUMPI PUSH1 0x0 CALLDATASIZE PUSH1 0x3 NOT ADD SLT PUSH2 0x301 JUMPI PUSH1 0x20 PUSH1 0x40 MLOAD PUSH1 0x0 DUP2 MSTORE RETURN JUMPDEST CALLVALUE PUSH2 0x301 JUMPI PUSH1 0x40 CALLDATASIZE PUSH1 0x3 NOT ADD SLT PUSH2 0x301 JUMPI PUSH1 0x4 CALLDATALOAD PUSH1 0x24 CALLDATALOAD PUSH1 0x2 DUP2 LT ISZERO PUSH2 0x301 JUMPI PUSH1 0x12 PUSH2 0xA69 DUP4 PUSH2 0x2004 JUMP JUMPDEST POP ADD SLOAD TIMESTAMP LT ISZERO DUP1 PUSH2 0xC06 JUMPI JUMPDEST ISZERO PUSH2 0xBC1 JUMPI PUSH1 0x0 DUP3 DUP2 MSTORE PUSH1 0x9 PUSH1 0x20 SWAP1 DUP2 MSTORE PUSH1 0x40 DUP1 DUP4 KECCAK256 CALLER DUP5 MSTORE SWAP1 SWAP2 MSTORE SWAP1 KECCAK256 SLOAD PUSH1 0xFF AND PUSH2 0xB86 JUMPI ISZERO PUSH1 0x0 DUP2 ISZERO PUSH2 0xB68 JUMPI PUSH1 0x15 PUSH2 0xAAF DUP5 PUSH2 0x2004 JUMP JUMPDEST POP ADD PUSH2 0xABB DUP2 SLOAD PUSH2 0x221C JUMP JUMPDEST SWAP1 SSTORE JUMPDEST DUP3 DUP2 MSTORE PUSH1 0x9 PUSH1 0x20 SWAP1 DUP2 MSTORE PUSH1 0x40 DUP1 DUP4 KECCAK256 CALLER DUP5 MSTORE SWAP1 SWAP2 MSTORE SWAP1 KECCAK256 DUP1 SLOAD PUSH1 0xFF NOT AND PUSH1 0x1 OR SWAP1 SSTORE PUSH1 0x0 SWAP1 ISZERO PUSH2 0xB45 JUMPI POP PUSH1 0x40 MLOAD PUSH2 0xAF7 PUSH1 0x40 DUP3 PUSH2 0x1E8D JUMP JUMPDEST PUSH1 0x3 DUP2 MSTORE PUSH3 0x594553 PUSH1 0xE8 SHL PUSH1 0x20 DUP3 ADD MSTORE JUMPDEST PUSH32 0xF872C9DD43E62509C7276E545B258673A25292DBEB9756E834227C8A83818655 PUSH1 0x40 MLOAD PUSH1 0x20 DUP2 MSTORE DUP1 PUSH2 0xB40 CALLER SWAP5 PUSH1 0x20 DUP4 ADD SWAP1 PUSH2 0x1F99 JUMP JUMPDEST SUB SWAP1 LOG3 STOP JUMPDEST POP PUSH1 0x40 MLOAD PUSH2 0xB54 PUSH1 0x40 DUP3 PUSH2 0x1E8D JUMP JUMPDEST PUSH1 0x2 DUP2 MSTORE PUSH2 0x4E4F PUSH1 0xF0 SHL PUSH1 0x20 DUP3 ADD MSTORE PUSH2 0xB08 JUMP JUMPDEST PUSH1 0x16 PUSH2 0xB73 DUP5 PUSH2 0x2004 JUMP JUMPDEST POP ADD PUSH2 0xB7F DUP2 SLOAD PUSH2 0x221C JUMP JUMPDEST SWAP1 SSTORE PUSH2 0xABE JUMP JUMPDEST PUSH1 0x40 MLOAD PUSH3 0x461BCD PUSH1 0xE5 SHL DUP2 MSTORE PUSH1 0x20 PUSH1 0x4 DUP3 ADD MSTORE PUSH1 0x13 PUSH1 0x24 DUP3 ADD MSTORE PUSH19 0x566F74696E6720616C726561647920646F6E65 PUSH1 0x68 SHL PUSH1 0x44 DUP3 ADD MSTORE PUSH1 0x64 SWAP1 REVERT JUMPDEST PUSH1 0x40 MLOAD PUSH3 0x461BCD PUSH1 0xE5 SHL DUP2 MSTORE PUSH1 0x20 PUSH1 0x4 DUP3 ADD MSTORE PUSH1 0x17 PUSH1 0x24 DUP3 ADD MSTORE PUSH32 0x566F74696E6720706572696F642068617320656E646564000000000000000000 PUSH1 0x44 DUP3 ADD MSTORE PUSH1 0x64 SWAP1 REVERT JUMPDEST POP PUSH1 0x13 PUSH2 0xC12 DUP4 PUSH2 0x2004 JUMP JUMPDEST POP ADD SLOAD TIMESTAMP LT PUSH2 0xA75 JUMP JUMPDEST CALLVALUE PUSH2 0x301 JUMPI PUSH1 0x40 CALLDATASIZE PUSH1 0x3 NOT ADD SLT PUSH2 0x301 JUMPI PUSH2 0xC35 PUSH2 0x1E24 JUMP JUMPDEST PUSH1 0x4 CALLDATALOAD PUSH1 0x0 MSTORE PUSH1 0x0 PUSH1 0x20 MSTORE PUSH1 0x40 PUSH1 0x0 KECCAK256 SWAP1 PUSH1 0x1 DUP1 PUSH1 0xA0 SHL SUB AND PUSH1 0x0 MSTORE PUSH1 0x20 MSTORE PUSH1 0x20 PUSH1 0xFF PUSH1 0x40 PUSH1 0x0 KECCAK256 SLOAD AND PUSH1 0x40 MLOAD SWAP1 ISZERO ISZERO DUP2 MSTORE RETURN JUMPDEST CALLVALUE PUSH2 0x301 JUMPI PUSH1 0x0 CALLDATASIZE PUSH1 0x3 NOT ADD SLT PUSH2 0x301 JUMPI PUSH1 0x4 SLOAD PUSH1 0x40 MLOAD PUSH1 0x1 PUSH1 0x1 PUSH1 0xA0 SHL SUB SWAP1 SWAP2 AND DUP2 MSTORE PUSH1 0x20 SWAP1 RETURN JUMPDEST CALLVALUE PUSH2 0x301 JUMPI PUSH1 0x0 CALLDATASIZE PUSH1 0x3 NOT ADD SLT PUSH2 0x301 JUMPI PUSH1 0x5 SLOAD PUSH1 0x40 MLOAD PUSH1 0x1 PUSH1 0x1 PUSH1 0xA0 SHL SUB SWAP1 SWAP2 AND DUP2 MSTORE PUSH1 0x20 SWAP1 RETURN JUMPDEST CALLVALUE PUSH2 0x301 JUMPI PUSH1 0x20 CALLDATASIZE PUSH1 0x3 NOT ADD SLT PUSH2 0x301 JUMPI PUSH1 0x20 PUSH2 0xCD9 PUSH1 0x4 CALLDATALOAD PUSH2 0x21C6 JUMP JUMPDEST PUSH1 0x40 MLOAD SWAP1 ISZERO ISZERO DUP2 MSTORE RETURN JUMPDEST CALLVALUE PUSH2 0x301 JUMPI PUSH2 0x1C0 CALLDATASIZE PUSH1 0x3 NOT ADD SLT PUSH2 0x301 JUMPI PUSH1 0x4 CALLDATALOAD PUSH1 0x1 PUSH1 0x1 PUSH1 0x40 SHL SUB DUP2 GT PUSH2 0x301 JUMPI PUSH2 0xD14 SWAP1 CALLDATASIZE SWAP1 PUSH1 0x4 ADD PUSH2 0x1F43 JUMP JUMPDEST PUSH1 0x24 CALLDATALOAD PUSH1 0x1 PUSH1 0x1 PUSH1 0x40 SHL SUB DUP2 GT PUSH2 0x301 JUMPI PUSH2 0xD33 SWAP1 CALLDATASIZE SWAP1 PUSH1 0x4 ADD PUSH2 0x1F43 JUMP JUMPDEST PUSH1 0x64 CALLDATALOAD PUSH1 0x1 PUSH1 0x1 PUSH1 0x40 SHL SUB DUP2 GT PUSH2 0x301 JUMPI PUSH2 0xD52 SWAP1 CALLDATASIZE SWAP1 PUSH1 0x4 ADD PUSH2 0x1F43 JUMP JUMPDEST SWAP2 PUSH1 0x84 CALLDATALOAD PUSH1 0x1 PUSH1 0x1 PUSH1 0x40 SHL SUB DUP2 GT PUSH2 0x301 JUMPI PUSH2 0xD72 SWAP1 CALLDATASIZE SWAP1 PUSH1 0x4 ADD PUSH2 0x1F43 JUMP JUMPDEST PUSH1 0xA4 CALLDATALOAD SWAP4 PUSH1 0x1 PUSH1 0x1 PUSH1 0x40 SHL SUB DUP6 GT PUSH2 0x301 JUMPI PUSH1 0x40 PUSH1 0x3 NOT DUP7 CALLDATASIZE SUB ADD SLT PUSH2 0x301 JUMPI PUSH1 0x40 MLOAD SWAP5 PUSH2 0xD9F DUP7 PUSH2 0x1E3A JUMP JUMPDEST DUP1 PUSH1 0x4 ADD CALLDATALOAD PUSH1 0x1 PUSH1 0x1 PUSH1 0x40 SHL SUB DUP2 GT PUSH2 0x301 JUMPI PUSH2 0xDC2 SWAP1 PUSH1 0x4 CALLDATASIZE SWAP2 DUP5 ADD ADD PUSH2 0x1F43 JUMP JUMPDEST DUP7 MSTORE PUSH1 0x24 DUP2 ADD CALLDATALOAD SWAP1 PUSH1 0x1 PUSH1 0x1 PUSH1 0x40 SHL SUB DUP3 GT PUSH2 0x301 JUMPI PUSH1 0x4 PUSH2 0xDE7 SWAP3 CALLDATASIZE SWAP3 ADD ADD PUSH2 0x1F43 JUMP JUMPDEST PUSH1 0x20 DUP7 ADD MSTORE PUSH2 0x100 CALLDATASIZE PUSH1 0xC3 NOT ADD SLT PUSH2 0x301 JUMPI PUSH1 0x40 MLOAD PUSH2 0xE05 DUP2 PUSH2 0x1E55 JUMP JUMPDEST PUSH1 0xC4 CALLDATALOAD PUSH1 0x1 PUSH1 0x1 PUSH1 0xA0 SHL SUB DUP2 AND DUP2 SUB PUSH2 0x301 JUMPI DUP2 MSTORE PUSH1 0xE4 CALLDATALOAD PUSH1 0x20 DUP3 ADD MSTORE PUSH2 0x104 CALLDATALOAD PUSH1 0x40 DUP3 ADD MSTORE PUSH2 0x124 CALLDATALOAD PUSH1 0x60 DUP3 ADD MSTORE PUSH2 0x144 CALLDATALOAD PUSH1 0x80 DUP3 ADD MSTORE PUSH2 0x164 CALLDATALOAD PUSH1 0xA0 DUP3 ADD MSTORE PUSH2 0x184 CALLDATALOAD PUSH1 0xC0 DUP3 ADD MSTORE PUSH2 0x1A4 CALLDATALOAD PUSH1 0xE0 DUP3 ADD MSTORE PUSH1 0xA SLOAD PUSH1 0xB SLOAD SWAP1 SWAP5 PUSH2 0xE6A DUP3 TIMESTAMP PUSH2 0x2179 JUMP JUMPDEST SWAP2 PUSH2 0xE75 SWAP1 TIMESTAMP PUSH2 0x2179 JUMP JUMPDEST PUSH1 0xC SLOAD PUSH2 0xE81 SWAP2 PUSH2 0x2179 JUMP JUMPDEST SWAP3 PUSH1 0x40 MLOAD SWAP8 DUP9 SWAP7 PUSH2 0xE91 DUP9 PUSH2 0x1E71 JUMP JUMPDEST DUP9 DUP9 MSTORE PUSH1 0x20 DUP9 ADD SWAP7 CALLER DUP9 MSTORE PUSH1 0x40 DUP10 ADD SWAP5 DUP6 MSTORE PUSH1 0x60 DUP10 ADD SWAP3 DUP4 MSTORE PUSH1 0x80 DUP10 ADD PUSH1 0x44 CALLDATALOAD DUP2 MSTORE PUSH1 0xA0 DUP11 ADD SWAP2 DUP3 MSTORE PUSH1 0xC0 DUP11 ADD SWAP3 DUP4 MSTORE PUSH2 0xEC9 PUSH2 0x219E JUMP JUMPDEST SWAP4 PUSH1 0xE0 DUP12 ADD SWAP5 DUP6 MSTORE PUSH2 0x100 DUP12 ADD SWAP14 DUP15 MSTORE PUSH2 0x120 DUP12 ADD SWAP6 DUP7 MSTORE PUSH2 0x140 DUP12 ADD SWAP7 TIMESTAMP DUP9 MSTORE PUSH2 0x160 DUP13 ADD SWAP9 DUP10 MSTORE PUSH2 0x180 DUP13 ADD SWAP10 DUP11 MSTORE PUSH2 0x1A0 DUP13 ADD SWAP11 PUSH1 0x0 DUP13 MSTORE PUSH2 0x1C0 DUP14 ADD SWAP13 PUSH1 0x0 DUP15 MSTORE PUSH2 0x1E0 ADD SWAP14 PUSH1 0x0 DUP16 MSTORE PUSH9 0x10000000000000000 DUP2 LT ISZERO PUSH2 0x1316 JUMPI DUP1 PUSH1 0x1 PUSH2 0xF38 SWAP3 ADD PUSH1 0xA SSTORE PUSH2 0x2004 JUMP JUMPDEST SWAP16 SWAP1 SWAP16 PUSH2 0x15CC JUMPI MLOAD DUP16 SSTORE MLOAD PUSH1 0x1 DUP16 ADD DUP1 SLOAD PUSH1 0x1 PUSH1 0x1 PUSH1 0xA0 SHL SUB NOT AND PUSH1 0x1 PUSH1 0x1 PUSH1 0xA0 SHL SUB SWAP3 SWAP1 SWAP3 AND SWAP2 SWAP1 SWAP2 OR SWAP1 SSTORE MLOAD DUP1 MLOAD PUSH1 0x2 DUP16 ADD SWAP2 PUSH1 0x1 PUSH1 0x1 PUSH1 0x40 SHL SUB DUP3 GT PUSH2 0x1316 JUMPI DUP2 SWAP1 PUSH2 0xF91 DUP3 PUSH2 0xF8B DUP7 SLOAD PUSH2 0x2023 JUMP JUMPDEST DUP7 PUSH2 0x2134 JUMP JUMPDEST PUSH1 0x20 SWAP1 PUSH1 0x1F DUP4 GT PUSH1 0x1 EQ PUSH2 0x1567 JUMPI PUSH1 0x0 SWAP3 PUSH2 0x155C JUMPI JUMPDEST POP POP DUP2 PUSH1 0x1 SHL SWAP2 PUSH1 0x0 NOT SWAP1 PUSH1 0x3 SHL SHR NOT AND OR SWAP1 SSTORE JUMPDEST MLOAD DUP1 MLOAD PUSH1 0x3 DUP15 ADD SWAP2 PUSH1 0x1 PUSH1 0x1 PUSH1 0x40 SHL SUB DUP3 GT PUSH2 0x1316 JUMPI DUP2 SWAP1 PUSH2 0xFE2 DUP3 PUSH2 0xF8B DUP7 SLOAD PUSH2 0x2023 JUMP JUMPDEST PUSH1 0x20 SWAP1 PUSH1 0x1F DUP4 GT PUSH1 0x1 EQ PUSH2 0x14F7 JUMPI PUSH1 0x0 SWAP3 PUSH2 0x14EC JUMPI JUMPDEST POP POP DUP2 PUSH1 0x1 SHL SWAP2 PUSH1 0x0 NOT SWAP1 PUSH1 0x3 SHL SHR NOT AND OR SWAP1 SSTORE JUMPDEST MLOAD PUSH1 0x4 DUP13 ADD SSTORE MLOAD DUP1 MLOAD PUSH1 0x5 DUP13 ADD SWAP2 PUSH1 0x1 PUSH1 0x1 PUSH1 0x40 SHL SUB DUP3 GT PUSH2 0x1316 JUMPI DUP2 SWAP1 PUSH2 0x1039 DUP3 PUSH2 0xF8B DUP7 SLOAD PUSH2 0x2023 JUMP JUMPDEST PUSH1 0x20 SWAP1 PUSH1 0x1F DUP4 GT PUSH1 0x1 EQ PUSH2 0x1487 JUMPI PUSH1 0x0 SWAP3 PUSH2 0x147C JUMPI JUMPDEST POP POP DUP2 PUSH1 0x1 SHL SWAP2 PUSH1 0x0 NOT SWAP1 PUSH1 0x3 SHL SHR NOT AND OR SWAP1 SSTORE JUMPDEST MLOAD DUP1 MLOAD PUSH1 0x6 DUP12 ADD SWAP2 PUSH1 0x1 PUSH1 0x1 PUSH1 0x40 SHL SUB DUP3 GT PUSH2 0x1316 JUMPI DUP2 SWAP1 PUSH2 0x108A DUP3 PUSH2 0xF8B DUP7 SLOAD PUSH2 0x2023 JUMP JUMPDEST PUSH1 0x20 SWAP1 PUSH1 0x1F DUP4 GT PUSH1 0x1 EQ PUSH2 0x1417 JUMPI PUSH1 0x0 SWAP3 PUSH2 0x140C JUMPI JUMPDEST POP POP DUP2 PUSH1 0x1 SHL SWAP2 PUSH1 0x0 NOT SWAP1 PUSH1 0x3 SHL SHR NOT AND OR SWAP1 SSTORE JUMPDEST MLOAD DUP1 MLOAD PUSH1 0x7 DUP11 ADD SWAP2 PUSH1 0x1 PUSH1 0x1 PUSH1 0x40 SHL SUB DUP3 GT PUSH2 0x1316 JUMPI DUP2 SWAP1 PUSH2 0x10DB DUP3 PUSH2 0xF8B DUP7 SLOAD PUSH2 0x2023 JUMP JUMPDEST PUSH1 0x20 SWAP1 PUSH1 0x1F DUP4 GT PUSH1 0x1 EQ PUSH2 0x13A7 JUMPI PUSH1 0x0 SWAP3 PUSH2 0x139C JUMPI JUMPDEST POP POP DUP2 PUSH1 0x1 SHL SWAP2 PUSH1 0x0 NOT SWAP1 PUSH1 0x3 SHL SHR NOT AND OR SWAP1 SSTORE JUMPDEST PUSH1 0x8 DUP9 ADD SWAP9 MLOAD SWAP9 DUP10 MLOAD DUP1 MLOAD SWAP1 PUSH1 0x1 PUSH1 0x1 PUSH1 0x40 SHL SUB DUP3 GT PUSH2 0x1316 JUMPI DUP2 SWAP1 PUSH2 0x1130 DUP3 PUSH2 0xF8B DUP7 SLOAD PUSH2 0x2023 JUMP JUMPDEST PUSH1 0x20 SWAP1 PUSH1 0x1F DUP4 GT PUSH1 0x1 EQ PUSH2 0x1337 JUMPI PUSH1 0x0 SWAP3 PUSH2 0x132C JUMPI JUMPDEST POP POP DUP2 PUSH1 0x1 SHL SWAP2 PUSH1 0x0 NOT SWAP1 PUSH1 0x3 SHL SHR NOT AND OR SWAP1 SSTORE JUMPDEST PUSH1 0x20 PUSH1 0x9 DUP10 ADD SWAP10 ADD MLOAD SWAP9 DUP10 MLOAD PUSH1 0x1 PUSH1 0x1 PUSH1 0x40 SHL SUB DUP2 GT PUSH2 0x1316 JUMPI PUSH2 0x1189 DUP2 PUSH2 0x1183 DUP5 SLOAD PUSH2 0x2023 JUMP JUMPDEST DUP5 PUSH2 0x2134 JUMP JUMPDEST PUSH1 0x20 PUSH1 0x1F DUP3 GT PUSH1 0x1 EQ PUSH2 0x12A9 JUMPI SWAP1 DUP1 PUSH1 0xE0 SWAP5 SWAP4 SWAP3 PUSH1 0x17 SWAP13 SWAP14 PUSH1 0x0 SWAP3 PUSH2 0x129E JUMPI JUMPDEST POP POP DUP2 PUSH1 0x1 SHL SWAP2 PUSH1 0x0 NOT SWAP1 PUSH1 0x3 SHL SHR NOT AND OR SWAP1 SSTORE JUMPDEST MLOAD PUSH1 0x1 DUP1 PUSH1 0xA0 SHL SUB DUP2 MLOAD AND PUSH1 0xA DUP12 ADD SWAP1 PUSH1 0x1 DUP1 PUSH1 0xA0 SHL SUB AND PUSH12 0xFFFFFFFFFFFFFFFFFFFFFFFF PUSH1 0xA0 SHL DUP3 SLOAD AND OR SWAP1 SSTORE PUSH1 0x20 DUP2 ADD MLOAD PUSH1 0xB DUP12 ADD SSTORE PUSH1 0x40 DUP2 ADD MLOAD PUSH1 0xC DUP12 ADD SSTORE PUSH1 0x60 DUP2 ADD MLOAD PUSH1 0xD DUP12 ADD SSTORE PUSH1 0x80 DUP2 ADD MLOAD PUSH1 0xE DUP12 ADD SSTORE PUSH1 0xA0 DUP2 ADD MLOAD PUSH1 0xF DUP12 ADD SSTORE PUSH1 0xC0 DUP2 ADD MLOAD PUSH1 0x10 DUP12 ADD SSTORE ADD MLOAD PUSH1 0x11 DUP10 ADD SSTORE MLOAD PUSH1 0x12 DUP9 ADD SSTORE MLOAD PUSH1 0x13 DUP8 ADD SSTORE MLOAD PUSH1 0x14 DUP7 ADD SSTORE MLOAD PUSH1 0x15 DUP6 ADD SSTORE MLOAD PUSH1 0x16 DUP5 ADD SSTORE MLOAD SWAP2 ADD SSTORE PUSH1 0xA SLOAD PUSH1 0x0 NOT DUP2 ADD SWAP1 DUP2 GT PUSH2 0x1288 JUMPI CALLER PUSH32 0xB0D4FB8322E1C826818F956C2BB5192F545C5DF3CA526655CEB58D07AB3AA19E PUSH1 0x0 DUP1 LOG3 STOP JUMPDEST PUSH4 0x4E487B71 PUSH1 0xE0 SHL PUSH1 0x0 MSTORE PUSH1 0x11 PUSH1 0x4 MSTORE PUSH1 0x24 PUSH1 0x0 REVERT JUMPDEST ADD MLOAD SWAP1 POP DUP14 DUP1 PUSH2 0x11A9 JUMP JUMPDEST PUSH1 0x1F NOT DUP3 AND SWAP1 DUP4 PUSH1 0x0 MSTORE DUP1 PUSH1 0x0 KECCAK256 SWAP2 PUSH1 0x0 JUMPDEST DUP2 DUP2 LT PUSH2 0x12FE JUMPI POP SWAP2 DUP4 SWAP2 PUSH1 0x17 SWAP14 SWAP15 PUSH1 0xE0 SWAP8 SWAP7 SWAP6 PUSH1 0x1 SWAP6 LT PUSH2 0x12E5 JUMPI JUMPDEST POP POP POP DUP2 SHL ADD SWAP1 SSTORE PUSH2 0x11BE JUMP JUMPDEST ADD MLOAD PUSH1 0x0 NOT PUSH1 0xF8 DUP5 PUSH1 0x3 SHL AND SHR NOT AND SWAP1 SSTORE DUP14 DUP1 DUP1 PUSH2 0x12D8 JUMP JUMPDEST DUP15 DUP4 ADD MLOAD DUP5 SSTORE PUSH1 0x1 SWAP1 SWAP4 ADD SWAP3 PUSH1 0x20 SWAP3 DUP4 ADD SWAP3 ADD PUSH2 0x12BB JUMP JUMPDEST PUSH4 0x4E487B71 PUSH1 0xE0 SHL PUSH1 0x0 MSTORE PUSH1 0x41 PUSH1 0x4 MSTORE PUSH1 0x24 PUSH1 0x0 REVERT JUMPDEST ADD MLOAD SWAP1 POP DUP13 DUP1 PUSH2 0x1146 JUMP JUMPDEST PUSH1 0x0 DUP6 DUP2 MSTORE DUP3 DUP2 KECCAK256 SWAP4 POP PUSH1 0x1F NOT DUP6 AND SWAP1 JUMPDEST DUP2 DUP2 LT PUSH2 0x1384 JUMPI POP SWAP1 DUP5 PUSH1 0x1 SWAP6 SWAP5 SWAP4 SWAP3 LT PUSH2 0x136B JUMPI JUMPDEST POP POP POP DUP2 SHL ADD SWAP1 SSTORE PUSH2 0x115B JUMP JUMPDEST ADD MLOAD PUSH1 0x0 NOT PUSH1 0xF8 DUP5 PUSH1 0x3 SHL AND SHR NOT AND SWAP1 SSTORE DUP13 DUP1 DUP1 PUSH2 0x135E JUMP JUMPDEST SWAP3 SWAP4 PUSH1 0x20 PUSH1 0x1 DUP2 SWAP3 DUP8 DUP7 ADD MLOAD DUP2 SSTORE ADD SWAP6 ADD SWAP4 ADD PUSH2 0x1348 JUMP JUMPDEST ADD MLOAD SWAP1 POP DUP13 DUP1 PUSH2 0x10F1 JUMP JUMPDEST PUSH1 0x0 DUP6 DUP2 MSTORE DUP3 DUP2 KECCAK256 SWAP4 POP PUSH1 0x1F NOT DUP6 AND SWAP1 JUMPDEST DUP2 DUP2 LT PUSH2 0x13F4 JUMPI POP SWAP1 DUP5 PUSH1 0x1 SWAP6 SWAP5 SWAP4 SWAP3 LT PUSH2 0x13DB JUMPI JUMPDEST POP POP POP DUP2 SHL ADD SWAP1 SSTORE PUSH2 0x1106 JUMP JUMPDEST ADD MLOAD PUSH1 0x0 NOT PUSH1 0xF8 DUP5 PUSH1 0x3 SHL AND SHR NOT AND SWAP1 SSTORE DUP13 DUP1 DUP1 PUSH2 0x13CE JUMP JUMPDEST SWAP3 SWAP4 PUSH1 0x20 PUSH1 0x1 DUP2 SWAP3 DUP8 DUP7 ADD MLOAD DUP2 SSTORE ADD SWAP6 ADD SWAP4 ADD PUSH2 0x13B8 JUMP JUMPDEST ADD MLOAD SWAP1 POP DUP14 DUP1 PUSH2 0x10A0 JUMP JUMPDEST PUSH1 0x0 DUP6 DUP2 MSTORE DUP3 DUP2 KECCAK256 SWAP4 POP PUSH1 0x1F NOT DUP6 AND SWAP1 JUMPDEST DUP2 DUP2 LT PUSH2 0x1464 JUMPI POP SWAP1 DUP5 PUSH1 0x1 SWAP6 SWAP5 SWAP4 SWAP3 LT PUSH2 0x144B JUMPI JUMPDEST POP POP POP DUP2 SHL ADD SWAP1 SSTORE PUSH2 0x10B5 JUMP JUMPDEST ADD MLOAD PUSH1 0x0 NOT PUSH1 0xF8 DUP5 PUSH1 0x3 SHL AND SHR NOT AND SWAP1 SSTORE DUP14 DUP1 DUP1 PUSH2 0x143E JUMP JUMPDEST SWAP3 SWAP4 PUSH1 0x20 PUSH1 0x1 DUP2 SWAP3 DUP8 DUP7 ADD MLOAD DUP2 SSTORE ADD SWAP6 ADD SWAP4 ADD PUSH2 0x1428 JUMP JUMPDEST ADD MLOAD SWAP1 POP DUP15 DUP1 PUSH2 0x104F JUMP JUMPDEST PUSH1 0x0 DUP6 DUP2 MSTORE DUP3 DUP2 KECCAK256 SWAP4 POP PUSH1 0x1F NOT DUP6 AND SWAP1 JUMPDEST DUP2 DUP2 LT PUSH2 0x14D4 JUMPI POP SWAP1 DUP5 PUSH1 0x1 SWAP6 SWAP5 SWAP4 SWAP3 LT PUSH2 0x14BB JUMPI JUMPDEST POP POP POP DUP2 SHL ADD SWAP1 SSTORE PUSH2 0x1064 JUMP JUMPDEST ADD MLOAD PUSH1 0x0 NOT PUSH1 0xF8 DUP5 PUSH1 0x3 SHL AND SHR NOT AND SWAP1 SSTORE DUP15 DUP1 DUP1 PUSH2 0x14AE JUMP JUMPDEST SWAP3 SWAP4 PUSH1 0x20 PUSH1 0x1 DUP2 SWAP3 DUP8 DUP7 ADD MLOAD DUP2 SSTORE ADD SWAP6 ADD SWAP4 ADD PUSH2 0x1498 JUMP JUMPDEST ADD MLOAD SWAP1 POP CODESIZE DUP1 PUSH2 0xFF8 JUMP JUMPDEST PUSH1 0x0 DUP6 DUP2 MSTORE DUP3 DUP2 KECCAK256 SWAP4 POP PUSH1 0x1F NOT DUP6 AND SWAP1 JUMPDEST DUP2 DUP2 LT PUSH2 0x1544 JUMPI POP SWAP1 DUP5 PUSH1 0x1 SWAP6 SWAP5 SWAP4 SWAP3 LT PUSH2 0x152B JUMPI JUMPDEST POP POP POP DUP2 SHL ADD SWAP1 SSTORE PUSH2 0x100D JUMP JUMPDEST ADD MLOAD PUSH1 0x0 NOT PUSH1 0xF8 DUP5 PUSH1 0x3 SHL AND SHR NOT AND SWAP1 SSTORE CODESIZE DUP1 DUP1 PUSH2 0x151E JUMP JUMPDEST SWAP3 SWAP4 PUSH1 0x20 PUSH1 0x1 DUP2 SWAP3 DUP8 DUP7 ADD MLOAD DUP2 SSTORE ADD SWAP6 ADD SWAP4 ADD PUSH2 0x1508 JUMP JUMPDEST ADD MLOAD SWAP1 POP CODESIZE DUP1 PUSH2 0xFA7 JUMP JUMPDEST PUSH1 0x0 DUP6 DUP2 MSTORE DUP3 DUP2 KECCAK256 SWAP4 POP PUSH1 0x1F NOT DUP6 AND SWAP1 JUMPDEST DUP2 DUP2 LT PUSH2 0x15B4 JUMPI POP SWAP1 DUP5 PUSH1 0x1 SWAP6 SWAP5 SWAP4 SWAP3 LT PUSH2 0x159B JUMPI JUMPDEST POP POP POP DUP2 SHL ADD SWAP1 SSTORE PUSH2 0xFBC JUMP JUMPDEST ADD MLOAD PUSH1 0x0 NOT PUSH1 0xF8 DUP5 PUSH1 0x3 SHL AND SHR NOT AND SWAP1 SSTORE CODESIZE DUP1 DUP1 PUSH2 0x158E JUMP JUMPDEST SWAP3 SWAP4 PUSH1 0x20 PUSH1 0x1 DUP2 SWAP3 DUP8 DUP7 ADD MLOAD DUP2 SSTORE ADD SWAP6 ADD SWAP4 ADD PUSH2 0x1578 JUMP JUMPDEST PUSH4 0x4E487B71 PUSH1 0xE0 SHL PUSH1 0x0 MSTORE PUSH1 0x0 PUSH1 0x4 MSTORE PUSH1 0x24 PUSH1 0x0 REVERT JUMPDEST CALLVALUE PUSH2 0x301 JUMPI PUSH1 0x0 CALLDATASIZE PUSH1 0x3 NOT ADD SLT PUSH2 0x301 JUMPI PUSH1 0x8 SLOAD PUSH1 0x40 MLOAD PUSH1 0x1 PUSH1 0x1 PUSH1 0xA0 SHL SUB SWAP1 SWAP2 AND DUP2 MSTORE PUSH1 0x20 SWAP1 RETURN JUMPDEST CALLVALUE PUSH2 0x301 JUMPI PUSH1 0x0 CALLDATASIZE PUSH1 0x3 NOT ADD SLT PUSH2 0x301 JUMPI PUSH1 0x7 SLOAD PUSH1 0x40 MLOAD PUSH1 0x1 PUSH1 0x1 PUSH1 0xA0 SHL SUB SWAP1 SWAP2 AND DUP2 MSTORE PUSH1 0x20 SWAP1 RETURN JUMPDEST CALLVALUE PUSH2 0x301 JUMPI PUSH1 0x20 CALLDATASIZE PUSH1 0x3 NOT ADD SLT PUSH2 0x301 JUMPI PUSH2 0x164D PUSH2 0x222B JUMP JUMPDEST PUSH1 0x4 CALLDATALOAD PUSH1 0xB SSTORE STOP JUMPDEST CALLVALUE PUSH2 0x301 JUMPI PUSH2 0x1663 CALLDATASIZE PUSH2 0x1EC5 JUMP JUMPDEST PUSH2 0x166B PUSH2 0x227E JUMP JUMPDEST PUSH1 0x0 PUSH2 0xCB1 PUSH2 0x2439 SWAP1 PUSH1 0xC PUSH6 0x135253951151 PUSH1 0xD2 SHL ADD SWAP2 PUSH1 0x3C TIMESTAMP ADD DUP1 TIMESTAMP GT SWAP5 JUMPDEST DUP7 MLOAD DUP2 LT ISZERO PUSH2 0x21C JUMPI PUSH1 0x7 PUSH2 0x16A6 PUSH2 0x563 PUSH2 0x8FC DUP5 DUP12 PUSH2 0x1FDA JUMP JUMPDEST PUSH1 0x20 DUP2 MLOAD SWAP2 ADD KECCAK256 PUSH1 0x40 SWAP1 PUSH1 0x6 PUSH1 0x20 DUP4 MLOAD PUSH2 0x16C0 DUP6 DUP3 PUSH2 0x1E8D JUMP JUMPDEST DUP3 DUP2 MSTORE ADD PUSH6 0x135253951151 PUSH1 0xD2 SHL DUP2 MSTORE KECCAK256 EQ PUSH2 0x1C2F JUMPI PUSH1 0x4 PUSH2 0x16E5 PUSH2 0x8FC DUP5 DUP12 PUSH2 0x1FDA JUMP JUMPDEST POP ADD SLOAD DUP9 PUSH2 0x2710 PUSH2 0x1707 PUSH1 0xC PUSH2 0x16FE PUSH2 0x8FC DUP9 DUP7 PUSH2 0x1FDA JUMP JUMPDEST POP ADD SLOAD DUP5 PUSH2 0x20E0 JUMP JUMPDEST DIV SWAP2 PUSH2 0x2710 PUSH2 0x1727 PUSH1 0xD PUSH2 0x171E PUSH2 0x8FC DUP10 DUP8 PUSH2 0x1FDA JUMP JUMPDEST POP ADD SLOAD DUP4 PUSH2 0x20E0 JUMP JUMPDEST DIV SWAP3 PUSH2 0x176D PUSH1 0x10 PUSH2 0x171E PUSH2 0x8FC DUP10 PUSH2 0x2710 PUSH2 0x1753 PUSH1 0xE PUSH2 0x174A PUSH2 0x8FC DUP6 DUP14 PUSH2 0x1FDA JUMP JUMPDEST POP ADD SLOAD DUP10 PUSH2 0x20E0 JUMP JUMPDEST DIV SWAP8 PUSH2 0x1767 PUSH1 0xF PUSH2 0x174A PUSH2 0x8FC DUP6 DUP6 PUSH2 0x1FDA JUMP JUMPDEST POP PUSH2 0x1FDA JUMP JUMPDEST POP DUP12 PUSH2 0x2710 PUSH2 0x178D PUSH1 0x11 PUSH2 0x1784 PUSH2 0x8FC DUP12 DUP7 PUSH2 0x1FDA JUMP JUMPDEST POP ADD SLOAD DUP6 PUSH2 0x20E0 JUMP JUMPDEST DIV SWAP3 PUSH2 0x17AA PUSH2 0x8FC DUP10 PUSH2 0x17A3 PUSH2 0x8FC DUP3 DUP8 PUSH2 0x1FDA JUMP JUMPDEST POP SWAP5 PUSH2 0x1FDA JUMP JUMPDEST POP SWAP1 DUP8 MLOAD SWAP3 DUP13 DUP5 ADD SWAP1 DUP5 DUP3 LT PUSH1 0x1 PUSH1 0x1 PUSH1 0x40 SHL SUB DUP4 GT OR PUSH2 0x1316 JUMPI DUP5 SWAP4 PUSH2 0x17F2 DUP16 SWAP3 DUP16 SWAP6 PUSH1 0x3 SWAP5 PUSH2 0x1801 SWAP8 DUP10 CODECOPY ADDRESS DUP7 MSTORE PUSH1 0x20 DUP7 ADD MSTORE PUSH1 0x80 DUP14 DUP7 ADD MSTORE PUSH1 0x2 PUSH1 0x80 DUP7 ADD SWAP2 ADD PUSH2 0x205D JUMP JUMPDEST SWAP3 PUSH1 0x60 DUP2 DUP6 SUB SWAP2 ADD MSTORE ADD PUSH2 0x205D JUMP JUMPDEST SUB SWAP1 PUSH1 0x0 CREATE DUP1 ISZERO PUSH2 0x1B8D JUMPI DUP11 PUSH1 0x7 PUSH2 0x181D DUP16 DUP11 PUSH2 0x8FC SWAP2 PUSH2 0x1FDA JUMP JUMPDEST POP ADD PUSH2 0x182C PUSH2 0x972 DUP3 SLOAD PUSH2 0x2023 JUMP JUMPDEST SSTORE PUSH1 0x1 PUSH1 0x1 PUSH1 0xA0 SHL SUB AND SWAP3 DUP13 PUSH1 0x17 PUSH2 0x1860 PUSH2 0x8FC DUP11 PUSH2 0x184C DUP3 DUP3 DUP8 PUSH2 0x1FDA JUMP JUMPDEST POP PUSH1 0xA ADD SLOAD PUSH1 0x1 PUSH1 0x1 PUSH1 0xA0 SHL SUB AND SWAP5 PUSH2 0x1FDA JUMP JUMPDEST POP ADD SLOAD PUSH1 0x6 SLOAD SWAP1 SWAP2 SWAP1 PUSH1 0x1 PUSH1 0x1 PUSH1 0xA0 SHL SUB AND DUP15 PUSH2 0x1288 JUMPI DUP9 MLOAD SWAP1 PUSH2 0x120 DUP3 ADD SWAP1 DUP3 DUP3 LT PUSH1 0x1 PUSH1 0x1 PUSH1 0x40 SHL SUB DUP4 GT OR PUSH2 0x1316 JUMPI DUP13 SWAP2 DUP12 MSTORE DUP9 DUP4 MSTORE PUSH1 0x20 DUP4 ADD SWAP4 DUP5 MSTORE DUP11 DUP10 DUP2 DUP6 ADD SWAP7 PUSH2 0x1F4 DUP9 MSTORE PUSH2 0x191D PUSH1 0x20 PUSH1 0x60 DUP9 ADD SWAP11 DUP1 DUP13 MSTORE PUSH1 0x80 DUP10 ADD SWAP4 DUP5 MSTORE PUSH1 0xA0 DUP10 ADD SWAP5 PUSH1 0x1 DUP7 MSTORE PUSH1 0xC0 DUP11 ADD SWAP7 PUSH1 0x1 DUP9 MSTORE PUSH1 0xE0 DUP12 ADD SWAP9 DUP10 MSTORE PUSH2 0x100 DUP12 ADD SWAP10 DUP11 MSTORE PUSH1 0x0 PUSH1 0x1 DUP1 PUSH1 0xA0 SHL SUB PUSH1 0x7 SLOAD AND SWAP2 MLOAD DUP1 SWAP7 DUP2 SWAP6 DUP3 SWAP5 PUSH4 0x95EA7B3 PUSH1 0xE0 SHL DUP5 MSTORE PUSH1 0x4 DUP5 ADD PUSH1 0x20 SWAP1 SWAP4 SWAP3 SWAP2 SWAP4 PUSH1 0x40 DUP2 ADD SWAP5 PUSH1 0x1 DUP1 PUSH1 0xA0 SHL SUB AND DUP2 MSTORE ADD MSTORE JUMP JUMPDEST SUB SWAP3 GAS CALL DUP1 ISZERO PUSH2 0x1C09 JUMPI DUP16 PUSH2 0x1976 SWAP3 PUSH1 0x20 SWAP3 PUSH2 0x1C14 JUMPI JUMPDEST POP DUP10 MLOAD PUSH1 0x7 SLOAD DUP6 MLOAD SWAP3 MLOAD PUSH4 0x95EA7B3 PUSH1 0xE0 SHL DUP2 MSTORE PUSH1 0x1 PUSH1 0x1 PUSH1 0xA0 SHL SUB SWAP2 DUP3 AND PUSH1 0x4 DUP3 ADD MSTORE PUSH1 0x24 DUP2 ADD SWAP4 SWAP1 SWAP4 MSTORE SWAP2 SWAP4 DUP5 SWAP3 SWAP1 SWAP2 AND SWAP1 DUP3 SWAP1 PUSH1 0x0 SWAP1 DUP3 SWAP1 PUSH1 0x44 DUP3 ADD SWAP1 JUMP JUMPDEST SUB SWAP3 GAS CALL DUP1 ISZERO PUSH2 0x1C09 JUMPI SWAP4 DUP16 SWAP4 PUSH1 0x80 SWAP11 SWAP10 SWAP8 SWAP4 PUSH1 0x0 SWAP8 SWAP4 PUSH2 0x164 SWAP11 SWAP8 PUSH2 0x1BED JUMPI JUMPDEST POP PUSH3 0xFFFFFF PUSH1 0x1 DUP1 PUSH1 0xA0 SHL SUB PUSH1 0x7 SLOAD AND SWAP8 PUSH1 0x1 DUP1 PUSH1 0xA0 SHL SUB SWAP1 MLOAD AND SWAP10 PUSH1 0x1 DUP1 PUSH1 0xA0 SHL SUB SWAP1 MLOAD AND SWAP12 MLOAD AND SWAP13 MLOAD SWAP1 MLOAD SWAP2 MLOAD SWAP3 MLOAD SWAP4 PUSH1 0x1 DUP1 PUSH1 0xA0 SHL SUB SWAP1 MLOAD AND SWAP5 MLOAD SWAP6 MLOAD SWAP13 DUP14 SWAP12 DUP13 SWAP11 PUSH4 0x2D737113 PUSH1 0xE0 SHL DUP13 MSTORE PUSH1 0x4 DUP13 ADD MSTORE PUSH1 0x24 DUP12 ADD MSTORE PUSH1 0x44 DUP11 ADD MSTORE PUSH3 0xD89B3 NOT PUSH1 0x64 DUP11 ADD MSTORE PUSH3 0xD89B4 PUSH1 0x84 DUP11 ADD MSTORE PUSH1 0xA4 DUP10 ADD MSTORE PUSH1 0xC4 DUP9 ADD MSTORE PUSH1 0xE4 DUP8 ADD MSTORE PUSH2 0x104 DUP7 ADD MSTORE PUSH2 0x124 DUP6 ADD MSTORE PUSH2 0x144 DUP5 ADD MSTORE GAS CALL DUP1 ISZERO PUSH2 0x1BE2 JUMPI PUSH2 0x1B98 JUMPI JUMPDEST POP PUSH1 0x1 SLOAD DUP6 MLOAD PUSH4 0xA9059CBB PUSH1 0xE0 SHL DUP2 MSTORE PUSH1 0x1 PUSH1 0x1 PUSH1 0xA0 SHL SUB SWAP1 SWAP2 AND PUSH1 0x4 DUP3 ADD MSTORE PUSH1 0x24 DUP2 ADD SWAP2 SWAP1 SWAP2 MSTORE PUSH1 0x20 DUP2 PUSH1 0x44 DUP2 PUSH1 0x0 DUP8 GAS CALL DUP1 ISZERO PUSH2 0x1B8D JUMPI SWAP2 PUSH1 0x20 SWAP2 PUSH2 0x1AB0 SWAP4 PUSH2 0x1B72 JUMPI JUMPDEST POP PUSH1 0x5 SLOAD DUP7 MLOAD PUSH4 0xA9059CBB PUSH1 0xE0 SHL DUP2 MSTORE PUSH1 0x1 PUSH1 0x1 PUSH1 0xA0 SHL SUB SWAP1 SWAP2 AND PUSH1 0x4 DUP3 ADD MSTORE PUSH1 0x24 DUP2 ADD SWAP2 SWAP1 SWAP2 MSTORE SWAP2 DUP3 SWAP1 DUP2 SWAP1 PUSH1 0x44 DUP3 ADD SWAP1 JUMP JUMPDEST SUB DUP2 PUSH1 0x0 DUP7 GAS CALL DUP1 ISZERO PUSH2 0x1B67 JUMPI SWAP2 PUSH2 0x1B07 SWAP5 SWAP4 SWAP2 PUSH1 0x20 SWAP4 PUSH2 0x1B4C JUMPI JUMPDEST POP PUSH1 0x2 SLOAD DUP5 MLOAD PUSH4 0xA9059CBB PUSH1 0xE0 SHL DUP2 MSTORE PUSH1 0x1 PUSH1 0x1 PUSH1 0xA0 SHL SUB SWAP1 SWAP2 AND PUSH1 0x4 DUP3 ADD MSTORE PUSH1 0x24 DUP2 ADD SWAP3 SWAP1 SWAP3 MSTORE SWAP1 SWAP4 DUP5 SWAP2 SWAP1 DUP3 SWAP1 PUSH1 0x0 SWAP1 DUP3 SWAP1 PUSH1 0x44 DUP3 ADD SWAP1 JUMP JUMPDEST SUB SWAP3 GAS CALL SWAP1 DUP2 ISZERO PUSH2 0x1B42 JUMPI POP SWAP1 PUSH1 0x1 SWAP3 SWAP2 PUSH2 0x1B24 JUMPI JUMPDEST POP ADD PUSH2 0x168B JUMP JUMPDEST PUSH2 0x1B3B SWAP1 PUSH1 0x20 RETURNDATASIZE DUP2 GT PUSH2 0x21E JUMPI PUSH2 0x214 DUP2 DUP4 PUSH2 0x1E8D JUMP JUMPDEST POP DUP9 PUSH2 0x1B1D JUMP JUMPDEST MLOAD RETURNDATASIZE PUSH1 0x0 DUP3 RETURNDATACOPY RETURNDATASIZE SWAP1 REVERT JUMPDEST PUSH2 0x1B62 SWAP1 DUP5 RETURNDATASIZE DUP2 GT PUSH2 0x21E JUMPI PUSH2 0x214 DUP2 DUP4 PUSH2 0x1E8D JUMP JUMPDEST PUSH2 0x1ACC JUMP JUMPDEST DUP5 MLOAD RETURNDATASIZE PUSH1 0x0 DUP3 RETURNDATACOPY RETURNDATASIZE SWAP1 REVERT JUMPDEST PUSH2 0x1B88 SWAP1 DUP4 RETURNDATASIZE DUP2 GT PUSH2 0x21E JUMPI PUSH2 0x214 DUP2 DUP4 PUSH2 0x1E8D JUMP JUMPDEST PUSH2 0x1A7C JUMP JUMPDEST DUP6 MLOAD RETURNDATASIZE PUSH1 0x0 DUP3 RETURNDATACOPY RETURNDATASIZE SWAP1 REVERT JUMPDEST PUSH1 0x80 DUP2 RETURNDATASIZE DUP3 GT PUSH2 0x1BDA JUMPI JUMPDEST DUP2 PUSH2 0x1BB0 PUSH1 0x80 SWAP4 DUP4 PUSH2 0x1E8D JUMP JUMPDEST DUP2 ADD SUB SLT PUSH2 0x301 JUMPI PUSH1 0x20 ADD MLOAD PUSH16 0xFFFFFFFFFFFFFFFFFFFFFFFFFFFFFFFF DUP2 AND SUB PUSH2 0x301 JUMPI DUP13 PUSH2 0x1A36 JUMP JUMPDEST RETURNDATASIZE SWAP2 POP PUSH2 0x1BA3 JUMP JUMPDEST DUP7 MLOAD RETURNDATASIZE PUSH1 0x0 DUP3 RETURNDATACOPY RETURNDATASIZE SWAP1 REVERT JUMPDEST PUSH2 0x1C04 SWAP1 PUSH1 0x20 RETURNDATASIZE DUP2 GT PUSH2 0x21E JUMPI PUSH2 0x214 DUP2 DUP4 PUSH2 0x1E8D JUMP JUMPDEST PUSH2 0x1997 JUMP JUMPDEST DUP16 MLOAD RETURNDATASIZE PUSH1 0x0 DUP3 RETURNDATACOPY RETURNDATASIZE SWAP1 REVERT JUMPDEST PUSH2 0x1C2A SWAP1 DUP4 RETURNDATASIZE DUP2 GT PUSH2 0x21E JUMPI PUSH2 0x214 DUP2 DUP4 PUSH2 0x1E8D JUMP JUMPDEST PUSH2 0x1934 JUMP JUMPDEST MLOAD PUSH3 0x461BCD PUSH1 0xE5 SHL DUP2 MSTORE PUSH1 0x20 PUSH1 0x4 DUP3 ADD MSTORE PUSH1 0x13 PUSH1 0x24 DUP3 ADD MSTORE PUSH19 0x13595B5948185B1C9958591E481B5A5B9D1959 PUSH1 0x6A SHL PUSH1 0x44 DUP3 ADD MSTORE PUSH1 0x64 SWAP1 REVERT JUMPDEST CALLVALUE PUSH2 0x301 JUMPI PUSH1 0x0 CALLDATASIZE PUSH1 0x3 NOT ADD SLT PUSH2 0x301 JUMPI PUSH1 0x2 SLOAD PUSH1 0x40 MLOAD PUSH1 0x1 PUSH1 0x1 PUSH1 0xA0 SHL SUB SWAP1 SWAP2 AND DUP2 MSTORE PUSH1 0x20 SWAP1 RETURN JUMPDEST CALLVALUE PUSH2 0x301 JUMPI PUSH1 0x20 CALLDATASIZE PUSH1 0x3 NOT ADD SLT PUSH2 0x301 JUMPI PUSH2 0x1CAA PUSH2 0x222B JUMP JUMPDEST PUSH1 0x4 CALLDATALOAD PUSH1 0xC SSTORE STOP JUMPDEST CALLVALUE PUSH2 0x301 JUMPI PUSH1 0x40 CALLDATASIZE PUSH1 0x3 NOT ADD SLT PUSH2 0x301 JUMPI PUSH2 0x1CCB PUSH2 0x1E24 JUMP JUMPDEST CALLER PUSH1 0x1 PUSH1 0x1 PUSH1 0xA0 SHL SUB DUP3 AND SUB PUSH2 0x1CE7 JUMPI PUSH2 0x21C SWAP1 PUSH1 0x4 CALLDATALOAD PUSH2 0x23B6 JUMP JUMPDEST PUSH4 0x334BD919 PUSH1 0xE1 SHL PUSH1 0x0 MSTORE PUSH1 0x4 PUSH1 0x0 REVERT JUMPDEST CALLVALUE PUSH2 0x301 JUMPI PUSH1 0x40 CALLDATASIZE PUSH1 0x3 NOT ADD SLT PUSH2 0x301 JUMPI PUSH2 0x21C PUSH1 0x4 CALLDATALOAD PUSH2 0x1D17 PUSH2 0x1E24 JUMP JUMPDEST SWAP1 PUSH2 0x1D33 PUSH2 0x9F7 DUP3 PUSH1 0x0 MSTORE PUSH1 0x0 PUSH1 0x20 MSTORE PUSH1 0x1 PUSH1 0x40 PUSH1 0x0 KECCAK256 ADD SLOAD SWAP1 JUMP JUMPDEST PUSH2 0x232B JUMP JUMPDEST CALLVALUE PUSH2 0x301 JUMPI PUSH1 0x20 CALLDATASIZE PUSH1 0x3 NOT ADD SLT PUSH2 0x301 JUMPI PUSH1 0x20 PUSH2 0x1D65 PUSH1 0x4 CALLDATALOAD PUSH1 0x0 MSTORE PUSH1 0x0 PUSH1 0x20 MSTORE PUSH1 0x1 PUSH1 0x40 PUSH1 0x0 KECCAK256 ADD SLOAD SWAP1 JUMP JUMPDEST PUSH1 0x40 MLOAD SWAP1 DUP2 MSTORE RETURN JUMPDEST CALLVALUE PUSH2 0x301 JUMPI PUSH1 0x0 CALLDATASIZE PUSH1 0x3 NOT ADD SLT PUSH2 0x301 JUMPI PUSH1 0x3 SLOAD PUSH1 0x40 MLOAD PUSH1 0x1 PUSH1 0x1 PUSH1 0xA0 SHL SUB SWAP1 SWAP2 AND DUP2 MSTORE PUSH1 0x20 SWAP1 RETURN JUMPDEST CALLVALUE PUSH2 0x301 JUMPI PUSH1 0x0 CALLDATASIZE PUSH1 0x3 NOT ADD SLT PUSH2 0x301 JUMPI PUSH1 0x20 PUSH1 0x40 MLOAD PUSH32 0xD8AA0F3194971A2A116679F7C2090F6939C8D4E01A2A8D7E41D55E5351469E63 DUP2 MSTORE RETURN JUMPDEST CALLVALUE PUSH2 0x301 JUMPI PUSH1 0x20 CALLDATASIZE PUSH1 0x3 NOT ADD SLT PUSH2 0x301 JUMPI PUSH1 0x4 CALLDATALOAD SWAP1 PUSH4 0xFFFFFFFF PUSH1 0xE0 SHL DUP3 AND DUP1 SWAP3 SUB PUSH2 0x301 JUMPI PUSH1 0x20 SWAP2 PUSH4 0x7965DB0B PUSH1 0xE0 SHL DUP2 EQ SWAP1 DUP2 ISZERO PUSH2 0x1E13 JUMPI JUMPDEST POP ISZERO ISZERO DUP2 MSTORE RETURN JUMPDEST PUSH4 0x1FFC9A7 PUSH1 0xE0 SHL EQ SWAP1 POP DUP4 PUSH2 0x1E0C JUMP JUMPDEST PUSH1 0x24 CALLDATALOAD SWAP1 PUSH1 0x1 PUSH1 0x1 PUSH1 0xA0 SHL SUB DUP3 AND DUP3 SUB PUSH2 0x301 JUMPI JUMP JUMPDEST PUSH1 0x40 DUP2 ADD SWAP1 DUP2 LT PUSH1 0x1 PUSH1 0x1 PUSH1 0x40 SHL SUB DUP3 GT OR PUSH2 0x1316 JUMPI PUSH1 0x40 MSTORE JUMP JUMPDEST PUSH2 0x100 DUP2 ADD SWAP1 DUP2 LT PUSH1 0x1 PUSH1 0x1 PUSH1 0x40 SHL SUB DUP3 GT OR PUSH2 0x1316 JUMPI PUSH1 0x40 MSTORE JUMP JUMPDEST PUSH2 0x200 DUP2 ADD SWAP1 DUP2 LT PUSH1 0x1 PUSH1 0x1 PUSH1 0x40 SHL SUB DUP3 GT OR PUSH2 0x1316 JUMPI PUSH1 0x40 MSTORE JUMP JUMPDEST SWAP1 PUSH1 0x1F DUP1 NOT SWAP2 ADD AND DUP2 ADD SWAP1 DUP2 LT PUSH1 0x1 PUSH1 0x1 PUSH1 0x40 SHL SUB DUP3 GT OR PUSH2 0x1316 JUMPI PUSH1 0x40 MSTORE JUMP JUMPDEST PUSH1 0x1 PUSH1 0x1 PUSH1 0x40 SHL SUB DUP2 GT PUSH2 0x1316 JUMPI PUSH1 0x5 SHL PUSH1 0x20 ADD SWAP1 JUMP JUMPDEST PUSH1 0x20 PUSH1 0x3 NOT DUP3 ADD SLT PUSH2 0x301 JUMPI PUSH1 0x4 CALLDATALOAD SWAP1 PUSH1 0x1 PUSH1 0x1 PUSH1 0x40 SHL SUB DUP3 GT PUSH2 0x301 JUMPI DUP1 PUSH1 0x23 DUP4 ADD SLT ISZERO PUSH2 0x301 JUMPI DUP2 PUSH1 0x4 ADD CALLDATALOAD PUSH2 0x1EFC DUP2 PUSH2 0x1EAE JUMP JUMPDEST SWAP3 PUSH2 0x1F0A PUSH1 0x40 MLOAD SWAP5 DUP6 PUSH2 0x1E8D JUMP JUMPDEST DUP2 DUP5 MSTORE PUSH1 0x24 PUSH1 0x20 DUP6 ADD SWAP3 PUSH1 0x5 SHL DUP3 ADD ADD SWAP3 DUP4 GT PUSH2 0x301 JUMPI PUSH1 0x24 ADD SWAP1 JUMPDEST DUP3 DUP3 LT PUSH2 0x1F33 JUMPI POP POP POP SWAP1 JUMP JUMPDEST DUP2 CALLDATALOAD DUP2 MSTORE PUSH1 0x20 SWAP2 DUP3 ADD SWAP2 ADD PUSH2 0x1F26 JUMP JUMPDEST DUP2 PUSH1 0x1F DUP3 ADD SLT ISZERO PUSH2 0x301 JUMPI DUP1 CALLDATALOAD SWAP1 PUSH1 0x1 PUSH1 0x1 PUSH1 0x40 SHL SUB DUP3 GT PUSH2 0x1316 JUMPI PUSH1 0x40 MLOAD SWAP3 PUSH2 0x1F77 PUSH1 0x1F DUP5 ADD PUSH1 0x1F NOT AND PUSH1 0x20 ADD DUP6 PUSH2 0x1E8D JUMP JUMPDEST DUP3 DUP5 MSTORE PUSH1 0x20 DUP4 DUP4 ADD ADD GT PUSH2 0x301 JUMPI DUP2 PUSH1 0x0 SWAP3 PUSH1 0x20 DUP1 SWAP4 ADD DUP4 DUP7 ADD CALLDATACOPY DUP4 ADD ADD MSTORE SWAP1 JUMP JUMPDEST SWAP2 SWAP1 DUP3 MLOAD SWAP3 DUP4 DUP3 MSTORE PUSH1 0x0 JUMPDEST DUP5 DUP2 LT PUSH2 0x1FC5 JUMPI POP POP DUP3 PUSH1 0x0 PUSH1 0x20 DUP1 SWAP5 SWAP6 DUP5 ADD ADD MSTORE PUSH1 0x1F DUP1 NOT SWAP2 ADD AND ADD ADD SWAP1 JUMP JUMPDEST DUP1 PUSH1 0x20 DUP1 SWAP3 DUP5 ADD ADD MLOAD DUP3 DUP3 DUP7 ADD ADD MSTORE ADD PUSH2 0x1FA4 JUMP JUMPDEST DUP1 MLOAD DUP3 LT ISZERO PUSH2 0x1FEE JUMPI PUSH1 0x20 SWAP2 PUSH1 0x5 SHL ADD ADD SWAP1 JUMP JUMPDEST PUSH4 0x4E487B71 PUSH1 0xE0 SHL PUSH1 0x0 MSTORE PUSH1 0x32 PUSH1 0x4 MSTORE PUSH1 0x24 PUSH1 0x0 REVERT JUMPDEST PUSH1 0xA SLOAD DUP2 LT ISZERO PUSH2 0x1FEE JUMPI PUSH1 0xA PUSH1 0x0 MSTORE PUSH1 0x18 PUSH1 0x20 PUSH1 0x0 KECCAK256 SWAP2 MUL ADD SWAP1 PUSH1 0x0 SWAP1 JUMP JUMPDEST SWAP1 PUSH1 0x1 DUP3 DUP2 SHR SWAP3 AND DUP1 ISZERO PUSH2 0x2053 JUMPI JUMPDEST PUSH1 0x20 DUP4 LT EQ PUSH2 0x203D JUMPI JUMP JUMPDEST PUSH4 0x4E487B71 PUSH1 0xE0 SHL PUSH1 0x0 MSTORE PUSH1 0x22 PUSH1 0x4 MSTORE PUSH1 0x24 PUSH1 0x0 REVERT JUMPDEST SWAP2 PUSH1 0x7F AND SWAP2 PUSH2 0x2032 JUMP JUMPDEST PUSH1 0x0 SWAP3 SWAP2 DUP2 SLOAD SWAP2 PUSH2 0x206D DUP4 PUSH2 0x2023 JUMP JUMPDEST DUP1 DUP4 MSTORE SWAP3 PUSH1 0x1 DUP2 AND SWAP1 DUP2 ISZERO PUSH2 0x20C3 JUMPI POP PUSH1 0x1 EQ PUSH2 0x2089 JUMPI POP POP POP JUMP JUMPDEST PUSH1 0x0 SWAP1 DUP2 MSTORE PUSH1 0x20 DUP2 KECCAK256 SWAP4 SWAP5 POP SWAP2 SWAP3 JUMPDEST DUP4 DUP4 LT PUSH2 0x20A9 JUMPI POP PUSH1 0x20 SWAP3 POP ADD ADD SWAP1 JUMP JUMPDEST PUSH1 0x1 DUP2 PUSH1 0x20 SWAP3 SWAP5 SWAP4 SWAP5 SLOAD DUP4 DUP6 DUP8 ADD ADD MSTORE ADD SWAP2 ADD SWAP2 SWAP1 PUSH2 0x2098 JUMP JUMPDEST SWAP2 POP POP PUSH1 0x20 SWAP4 SWAP5 POP PUSH1 0xFF SWAP3 SWAP2 SWAP3 NOT AND DUP4 DUP4 ADD MSTORE ISZERO ISZERO PUSH1 0x5 SHL ADD ADD SWAP1 JUMP JUMPDEST DUP2 DUP2 MUL SWAP3 SWAP2 DUP2 ISZERO SWAP2 DUP5 DIV EQ OR ISZERO PUSH2 0x1288 JUMPI JUMP JUMPDEST DUP2 DUP2 LT PUSH2 0x20FE JUMPI POP POP JUMP JUMPDEST PUSH1 0x0 DUP2 SSTORE PUSH1 0x1 ADD PUSH2 0x20F3 JUMP JUMPDEST SWAP1 PUSH1 0x1F DUP2 GT PUSH2 0x2117 JUMPI POP POP JUMP JUMPDEST PUSH2 0x2132 SWAP2 PUSH1 0x0 MSTORE PUSH1 0x1F PUSH1 0x20 PUSH1 0x0 KECCAK256 SWAP2 ADD PUSH1 0x5 SHR DUP2 ADD SWAP1 PUSH2 0x20F3 JUMP JUMPDEST JUMP JUMPDEST SWAP2 SWAP1 PUSH1 0x1F DUP2 GT PUSH2 0x2143 JUMPI POP POP POP JUMP JUMPDEST PUSH2 0x2132 SWAP3 PUSH1 0x0 MSTORE PUSH1 0x20 PUSH1 0x0 KECCAK256 SWAP1 PUSH1 0x20 PUSH1 0x1F DUP5 ADD PUSH1 0x5 SHR DUP4 ADD SWAP4 LT PUSH2 0x216F JUMPI JUMPDEST PUSH1 0x1F ADD PUSH1 0x5 SHR ADD SWAP1 PUSH2 0x20F3 JUMP JUMPDEST SWAP1 SWAP2 POP DUP2 SWAP1 PUSH2 0x2162 JUMP JUMPDEST SWAP2 SWAP1 DUP3 ADD DUP1 SWAP3 GT PUSH2 0x1288 JUMPI JUMP JUMPDEST SWAP1 DUP2 PUSH1 0x20 SWAP2 SUB SLT PUSH2 0x301 JUMPI MLOAD DUP1 ISZERO ISZERO DUP2 SUB PUSH2 0x301 JUMPI SWAP1 JUMP JUMPDEST PUSH1 0x40 MLOAD SWAP1 PUSH2 0x21AD PUSH1 0x40 DUP4 PUSH2 0x1E8D JUMP JUMPDEST PUSH1 0xA DUP3 MSTORE PUSH10 0x494E2D50524F43455353 PUSH1 0xB0 SHL PUSH1 0x20 DUP4 ADD MSTORE JUMP JUMPDEST PUSH2 0x21EB PUSH1 0x15 PUSH2 0x21D4 DUP4 PUSH2 0x2004 JUMP JUMPDEST POP ADD SLOAD PUSH1 0x16 PUSH2 0x21E2 DUP5 PUSH2 0x2004 JUMP JUMPDEST POP ADD SLOAD SWAP1 PUSH2 0x2179 JUMP JUMPDEST PUSH1 0xD SLOAD GT ISZERO SWAP1 PUSH1 0x16 PUSH2 0x220A PUSH1 0x15 PUSH2 0x2201 DUP5 PUSH2 0x2004 JUMP JUMPDEST POP ADD SLOAD SWAP3 PUSH2 0x2004 JUMP JUMPDEST POP ADD SLOAD LT DUP2 PUSH2 0x2217 JUMPI POP SWAP1 JUMP JUMPDEST SWAP1 POP SWAP1 JUMP JUMPDEST PUSH1 0x0 NOT DUP2 EQ PUSH2 0x1288 JUMPI PUSH1 0x1 ADD SWAP1 JUMP JUMPDEST CALLER PUSH1 0x0 SWAP1 DUP2 MSTORE PUSH32 0xAD3228B676F7D3CD4284A5443F17F1962B36E491B30A40B2405849E597BA5FB5 PUSH1 0x20 MSTORE PUSH1 0x40 SWAP1 KECCAK256 SLOAD PUSH1 0xFF AND ISZERO PUSH2 0x2264 JUMPI JUMP JUMPDEST PUSH4 0xE2517D3F PUSH1 0xE0 SHL PUSH1 0x0 MSTORE CALLER PUSH1 0x4 MSTORE PUSH1 0x0 PUSH1 0x24 MSTORE PUSH1 0x44 PUSH1 0x0 REVERT JUMPDEST CALLER PUSH1 0x0 SWAP1 DUP2 MSTORE PUSH32 0xDAE2AA361DFD1CA020A396615627D436107C35EFF9FE7738A3512819782D7069 PUSH1 0x20 MSTORE PUSH1 0x40 SWAP1 KECCAK256 SLOAD PUSH1 0xFF AND ISZERO PUSH2 0x22B7 JUMPI JUMP JUMPDEST PUSH4 0xE2517D3F PUSH1 0xE0 SHL PUSH1 0x0 MSTORE CALLER PUSH1 0x4 MSTORE PUSH32 0xD8AA0F3194971A2A116679F7C2090F6939C8D4E01A2A8D7E41D55E5351469E63 PUSH1 0x24 MSTORE PUSH1 0x44 PUSH1 0x0 REVERT JUMPDEST PUSH1 0x0 DUP2 DUP2 MSTORE PUSH1 0x20 DUP2 DUP2 MSTORE PUSH1 0x40 DUP1 DUP4 KECCAK256 CALLER DUP5 MSTORE SWAP1 SWAP2 MSTORE SWAP1 KECCAK256 SLOAD PUSH1 0xFF AND ISZERO PUSH2 0x2313 JUMPI POP JUMP JUMPDEST PUSH4 0xE2517D3F PUSH1 0xE0 SHL PUSH1 0x0 MSTORE CALLER PUSH1 0x4 MSTORE PUSH1 0x24 MSTORE PUSH1 0x44 PUSH1 0x0 REVERT JUMPDEST PUSH1 0x0 DUP2 DUP2 MSTORE PUSH1 0x20 DUP2 DUP2 MSTORE PUSH1 0x40 DUP1 DUP4 KECCAK256 PUSH1 0x1 PUSH1 0x1 PUSH1 0xA0 SHL SUB DUP7 AND DUP5 MSTORE SWAP1 SWAP2 MSTORE SWAP1 KECCAK256 SLOAD PUSH1 0xFF AND PUSH2 0x23AF JUMPI PUSH1 0x0 DUP2 DUP2 MSTORE PUSH1 0x20 DUP2 DUP2 MSTORE PUSH1 0x40 DUP1 DUP4 KECCAK256 PUSH1 0x1 PUSH1 0x1 PUSH1 0xA0 SHL SUB SWAP6 SWAP1 SWAP6 AND DUP1 DUP5 MSTORE SWAP5 SWAP1 SWAP2 MSTORE DUP2 KECCAK256 DUP1 SLOAD PUSH1 0xFF NOT AND PUSH1 0x1 OR SWAP1 SSTORE CALLER SWAP3 SWAP2 SWAP1 PUSH32 0x2F8788117E7EFF1D82E926EC794901D17C78024A50270940304540A733656F0D SWAP1 DUP1 LOG4 PUSH1 0x1 SWAP1 JUMP JUMPDEST POP POP PUSH1 0x0 SWAP1 JUMP JUMPDEST PUSH1 0x0 DUP2 DUP2 MSTORE PUSH1 0x20 DUP2 DUP2 MSTORE PUSH1 0x40 DUP1 DUP4 KECCAK256 PUSH1 0x1 PUSH1 0x1 PUSH1 0xA0 SHL SUB DUP7 AND DUP5 MSTORE SWAP1 SWAP2 MSTORE SWAP1 KECCAK256 SLOAD PUSH1 0xFF AND ISZERO PUSH2 0x23AF JUMPI PUSH1 0x0 DUP2 DUP2 MSTORE PUSH1 0x20 DUP2 DUP2 MSTORE PUSH1 0x40 DUP1 DUP4 KECCAK256 PUSH1 0x1 PUSH1 0x1 PUSH1 0xA0 SHL SUB SWAP6 SWAP1 SWAP6 AND DUP1 DUP5 MSTORE SWAP5 SWAP1 SWAP2 MSTORE DUP2 KECCAK256 DUP1 SLOAD PUSH1 0xFF NOT AND SWAP1 SSTORE CALLER SWAP3 SWAP2 SWAP1 PUSH32 0xF6391F5C32D9C69D2A47EA670B442974B53935D1EDC7FD64EB21E047A839171B SWAP1 DUP1 LOG4 PUSH1 0x1 SWAP1 JUMP INVALID PUSH1 0x80 PUSH1 0x40 MSTORE CALLVALUE PUSH2 0x424 JUMPI PUSH2 0xCB1 DUP1 CODESIZE SUB DUP1 PUSH2 0x19 DUP2 PUSH2 0x429 JUMP JUMPDEST SWAP3 DUP4 CODECOPY DUP2 ADD SWAP1 PUSH1 0x80 DUP2 DUP4 SUB SLT PUSH2 0x424 JUMPI DUP1 MLOAD PUSH1 0x1 PUSH1 0x1 PUSH1 0xA0 SHL SUB DUP2 AND SWAP2 SWAP1 DUP3 DUP2 SUB PUSH2 0x424 JUMPI PUSH1 0x20 DUP3 ADD MLOAD PUSH1 0x40 DUP4 ADD MLOAD SWAP1 SWAP3 SWAP1 PUSH1 0x1 PUSH1 0x1 PUSH1 0x40 SHL SUB DUP2 GT PUSH2 0x424 JUMPI DUP6 PUSH2 0x65 SWAP2 DUP4 ADD PUSH2 0x44E JUMP JUMPDEST PUSH1 0x60 DUP3 ADD MLOAD SWAP1 SWAP6 SWAP1 PUSH1 0x1 PUSH1 0x1 PUSH1 0x40 SHL SUB DUP2 GT PUSH2 0x424 JUMPI PUSH2 0x85 SWAP3 ADD PUSH2 0x44E JUMP JUMPDEST DUP5 MLOAD SWAP1 SWAP5 PUSH1 0x1 PUSH1 0x1 PUSH1 0x40 SHL SUB DUP3 GT PUSH2 0x321 JUMPI PUSH1 0x3 SLOAD SWAP1 PUSH1 0x1 DUP3 DUP2 SHR SWAP3 AND DUP1 ISZERO PUSH2 0x41A JUMPI JUMPDEST PUSH1 0x20 DUP4 LT EQ PUSH2 0x301 JUMPI DUP2 PUSH1 0x1F DUP5 SWAP4 GT PUSH2 0x3AA JUMPI JUMPDEST POP PUSH1 0x20 SWAP1 PUSH1 0x1F DUP4 GT PUSH1 0x1 EQ PUSH2 0x342 JUMPI PUSH1 0x0 SWAP3 PUSH2 0x337 JUMPI JUMPDEST POP POP DUP2 PUSH1 0x1 SHL SWAP2 PUSH1 0x0 NOT SWAP1 PUSH1 0x3 SHL SHR NOT AND OR PUSH1 0x3 SSTORE JUMPDEST DUP4 MLOAD PUSH1 0x1 PUSH1 0x1 PUSH1 0x40 SHL SUB DUP2 GT PUSH2 0x321 JUMPI PUSH1 0x4 SLOAD PUSH1 0x1 DUP2 DUP2 SHR SWAP2 AND DUP1 ISZERO PUSH2 0x317 JUMPI JUMPDEST PUSH1 0x20 DUP3 LT EQ PUSH2 0x301 JUMPI PUSH1 0x1F DUP2 GT PUSH2 0x29C JUMPI JUMPDEST POP PUSH1 0x20 SWAP5 PUSH1 0x1F DUP3 GT PUSH1 0x1 EQ PUSH2 0x235 JUMPI SWAP5 DUP2 SWAP3 SWAP4 SWAP5 SWAP6 PUSH1 0x0 SWAP3 PUSH2 0x22A JUMPI JUMPDEST POP POP DUP2 PUSH1 0x1 SHL SWAP2 PUSH1 0x0 NOT SWAP1 PUSH1 0x3 SHL SHR NOT AND OR PUSH1 0x4 SSTORE JUMPDEST DUP3 ISZERO PUSH2 0x214 JUMPI DUP1 PUSH2 0x163 PUSH2 0x168 SWAP3 PUSH2 0x4B9 JUMP JUMPDEST PUSH2 0x4B9 JUMP JUMPDEST PUSH8 0xDE0B6B3A7640000 DUP2 MUL SWAP1 DUP1 DUP3 DIV PUSH8 0xDE0B6B3A7640000 EQ SWAP1 ISZERO OR ISZERO PUSH2 0x1FE JUMPI PUSH1 0x0 PUSH1 0x2 SLOAD DUP3 DUP2 ADD DUP1 SWAP2 GT PUSH2 0x1EA JUMPI PUSH1 0x0 SWAP3 PUSH32 0xDDF252AD1BE2C89B69C2B068FC378DAA952BA7F163C4A11628F55A4DF523B3EF SWAP3 PUSH1 0x20 SWAP3 PUSH1 0x2 SSTORE POP DUP5 DUP5 MSTORE DUP4 DUP3 MSTORE PUSH1 0x40 DUP5 KECCAK256 DUP2 DUP2 SLOAD ADD SWAP1 SSTORE PUSH1 0x40 MLOAD SWAP1 DUP2 MSTORE LOG3 PUSH1 0x40 MLOAD PUSH2 0x7AE SWAP1 DUP2 PUSH2 0x503 DUP3 CODECOPY RETURN JUMPDEST PUSH4 0x4E487B71 PUSH1 0xE0 SHL DUP3 MSTORE PUSH1 0x11 PUSH1 0x4 MSTORE PUSH1 0x24 DUP3 REVERT JUMPDEST PUSH4 0x4E487B71 PUSH1 0xE0 SHL PUSH1 0x0 MSTORE PUSH1 0x11 PUSH1 0x4 MSTORE PUSH1 0x24 PUSH1 0x0 REVERT JUMPDEST PUSH4 0x1E4FBDF7 PUSH1 0xE0 SHL PUSH1 0x0 MSTORE PUSH1 0x0 PUSH1 0x4 MSTORE PUSH1 0x24 PUSH1 0x0 REVERT JUMPDEST ADD MLOAD SWAP1 POP CODESIZE DUP1 PUSH2 0x13A JUMP JUMPDEST PUSH1 0x1F NOT DUP3 AND SWAP6 PUSH1 0x4 PUSH1 0x0 MSTORE DUP1 PUSH1 0x0 KECCAK256 SWAP2 PUSH1 0x0 JUMPDEST DUP9 DUP2 LT PUSH2 0x284 JUMPI POP DUP4 PUSH1 0x1 SWAP6 SWAP7 SWAP8 SWAP9 LT PUSH2 0x26B JUMPI JUMPDEST POP POP POP DUP2 SHL ADD PUSH1 0x4 SSTORE PUSH2 0x150 JUMP JUMPDEST ADD MLOAD PUSH1 0x0 NOT PUSH1 0xF8 DUP5 PUSH1 0x3 SHL AND SHR NOT AND SWAP1 SSTORE CODESIZE DUP1 DUP1 PUSH2 0x25D JUMP JUMPDEST SWAP2 SWAP3 PUSH1 0x20 PUSH1 0x1 DUP2 SWAP3 DUP7 DUP6 ADD MLOAD DUP2 SSTORE ADD SWAP5 ADD SWAP3 ADD PUSH2 0x248 JUMP JUMPDEST PUSH1 0x4 PUSH1 0x0 MSTORE PUSH32 0x8A35ACFBC15FF81A39AE7D344FD709F28E8600B4AA8C65C6B64BFE7FE36BD19B PUSH1 0x1F DUP4 ADD PUSH1 0x5 SHR DUP2 ADD SWAP2 PUSH1 0x20 DUP5 LT PUSH2 0x2F7 JUMPI JUMPDEST PUSH1 0x1F ADD PUSH1 0x5 SHR ADD SWAP1 JUMPDEST DUP2 DUP2 LT PUSH2 0x2EB JUMPI POP PUSH2 0x11D JUMP JUMPDEST PUSH1 0x0 DUP2 SSTORE PUSH1 0x1 ADD PUSH2 0x2DE JUMP JUMPDEST SWAP1 SWAP2 POP DUP2 SWAP1 PUSH2 0x2D5 JUMP JUMPDEST PUSH4 0x4E487B71 PUSH1 0xE0 SHL PUSH1 0x0 MSTORE PUSH1 0x22 PUSH1 0x4 MSTORE PUSH1 0x24 PUSH1 0x0 REVERT JUMPDEST SWAP1 PUSH1 0x7F AND SWAP1 PUSH2 0x10B JUMP JUMPDEST PUSH4 0x4E487B71 PUSH1 0xE0 SHL PUSH1 0x0 MSTORE PUSH1 0x41 PUSH1 0x4 MSTORE PUSH1 0x24 PUSH1 0x0 REVERT JUMPDEST ADD MLOAD SWAP1 POP CODESIZE DUP1 PUSH2 0xD4 JUMP JUMPDEST PUSH1 0x3 PUSH1 0x0 SWAP1 DUP2 MSTORE DUP3 DUP2 KECCAK256 SWAP4 POP PUSH1 0x1F NOT DUP6 AND SWAP1 JUMPDEST DUP2 DUP2 LT PUSH2 0x392 JUMPI POP SWAP1 DUP5 PUSH1 0x1 SWAP6 SWAP5 SWAP4 SWAP3 LT PUSH2 0x379 JUMPI JUMPDEST POP POP POP DUP2 SHL ADD PUSH1 0x3 SSTORE PUSH2 0xEA JUMP JUMPDEST ADD MLOAD PUSH1 0x0 NOT PUSH1 0xF8 DUP5 PUSH1 0x3 SHL AND SHR NOT AND SWAP1 SSTORE CODESIZE DUP1 DUP1 PUSH2 0x36B JUMP JUMPDEST SWAP3 SWAP4 PUSH1 0x20 PUSH1 0x1 DUP2 SWAP3 DUP8 DUP7 ADD MLOAD DUP2 SSTORE ADD SWAP6 ADD SWAP4 ADD PUSH2 0x355 JUMP JUMPDEST PUSH1 0x3 PUSH1 0x0 MSTORE SWAP1 SWAP2 POP PUSH32 0xC2575A0E9E593C00F959F8C92F12DB2869C3395A3B0502D05E2516446F71F85B PUSH1 0x1F DUP5 ADD PUSH1 0x5 SHR DUP2 ADD SWAP2 PUSH1 0x20 DUP6 LT PUSH2 0x410 JUMPI JUMPDEST SWAP1 PUSH1 0x1F DUP6 SWAP5 SWAP4 SWAP3 ADD PUSH1 0x5 SHR ADD SWAP1 JUMPDEST DUP2 DUP2 LT PUSH2 0x401 JUMPI POP PUSH2 0xBD JUMP JUMPDEST PUSH1 0x0 DUP2 SSTORE DUP5 SWAP4 POP PUSH1 0x1 ADD PUSH2 0x3F4 JUMP JUMPDEST SWAP1 SWAP2 POP DUP2 SWAP1 PUSH2 0x3E6 JUMP JUMPDEST SWAP2 PUSH1 0x7F AND SWAP2 PUSH2 0xA9 JUMP JUMPDEST PUSH1 0x0 DUP1 REVERT JUMPDEST PUSH1 0x40 MLOAD SWAP2 SWAP1 PUSH1 0x1F ADD PUSH1 0x1F NOT AND DUP3 ADD PUSH1 0x1 PUSH1 0x1 PUSH1 0x40 SHL SUB DUP2 GT DUP4 DUP3 LT OR PUSH2 0x321 JUMPI PUSH1 0x40 MSTORE JUMP JUMPDEST DUP2 PUSH1 0x1F DUP3 ADD SLT ISZERO PUSH2 0x424 JUMPI DUP1 MLOAD SWAP1 PUSH1 0x1 PUSH1 0x1 PUSH1 0x40 SHL SUB DUP3 GT PUSH2 0x321 JUMPI PUSH2 0x47D PUSH1 0x1F DUP4 ADD PUSH1 0x1F NOT AND PUSH1 0x20 ADD PUSH2 0x429 JUMP JUMPDEST SWAP3 DUP3 DUP5 MSTORE PUSH1 0x20 DUP4 DUP4 ADD ADD GT PUSH2 0x424 JUMPI PUSH1 0x0 JUMPDEST DUP3 DUP2 LT PUSH2 0x4A4 JUMPI POP POP PUSH1 0x20 PUSH1 0x0 SWAP2 DUP4 ADD ADD MSTORE SWAP1 JUMP JUMPDEST DUP1 PUSH1 0x20 DUP1 SWAP3 DUP5 ADD ADD MLOAD DUP3 DUP3 DUP8 ADD ADD MSTORE ADD PUSH2 0x48F JUMP JUMPDEST PUSH1 0x5 DUP1 SLOAD PUSH1 0x1 PUSH1 0x1 PUSH1 0xA0 SHL SUB SWAP3 DUP4 AND PUSH1 0x1 PUSH1 0x1 PUSH1 0xA0 SHL SUB NOT DUP3 AND DUP2 OR SWAP1 SWAP3 SSTORE SWAP1 SWAP2 AND PUSH32 0x8BE0079C531659141344CD1FD0A4F28419497F9722A3DAAFE3B4186F6B6457E0 PUSH1 0x0 DUP1 LOG3 JUMP INVALID PUSH1 0x80 DUP1 PUSH1 0x40 MSTORE PUSH1 0x4 CALLDATASIZE LT ISZERO PUSH2 0x13 JUMPI PUSH1 0x0 DUP1 REVERT JUMPDEST PUSH1 0x0 CALLDATALOAD PUSH1 0xE0 SHR SWAP1 DUP2 PUSH4 0x6FDDE03 EQ PUSH2 0x542 JUMPI POP DUP1 PUSH4 0x95EA7B3 EQ PUSH2 0x4BC JUMPI DUP1 PUSH4 0x18160DDD EQ PUSH2 0x49E JUMPI DUP1 PUSH4 0x23B872DD EQ PUSH2 0x3B1 JUMPI DUP1 PUSH4 0x313CE567 EQ PUSH2 0x395 JUMPI DUP1 PUSH4 0x70A08231 EQ PUSH2 0x35B JUMPI DUP1 PUSH4 0x715018A6 EQ PUSH2 0x2FE JUMPI DUP1 PUSH4 0x8DA5CB5B EQ PUSH2 0x2D5 JUMPI DUP1 PUSH4 0x95D89B41 EQ PUSH2 0x1B4 JUMPI DUP1 PUSH4 0xA9059CBB EQ PUSH2 0x183 JUMPI DUP1 PUSH4 0xDD62ED3E EQ PUSH2 0x132 JUMPI PUSH4 0xF2FDE38B EQ PUSH2 0xA3 JUMPI PUSH1 0x0 DUP1 REVERT JUMPDEST CALLVALUE PUSH2 0x12D JUMPI PUSH1 0x20 CALLDATASIZE PUSH1 0x3 NOT ADD SLT PUSH2 0x12D JUMPI PUSH2 0xBC PUSH2 0x65E JUMP JUMPDEST PUSH2 0xC4 PUSH2 0x74F JUMP JUMPDEST PUSH1 0x1 PUSH1 0x1 PUSH1 0xA0 SHL SUB AND DUP1 ISZERO PUSH2 0x117 JUMPI PUSH1 0x5 DUP1 SLOAD PUSH1 0x1 PUSH1 0x1 PUSH1 0xA0 SHL SUB NOT DUP2 AND DUP4 OR SWAP1 SWAP2 SSTORE PUSH1 0x1 PUSH1 0x1 PUSH1 0xA0 SHL SUB AND PUSH32 0x8BE0079C531659141344CD1FD0A4F28419497F9722A3DAAFE3B4186F6B6457E0 PUSH1 0x0 DUP1 LOG3 STOP JUMPDEST PUSH4 0x1E4FBDF7 PUSH1 0xE0 SHL PUSH1 0x0 MSTORE PUSH1 0x0 PUSH1 0x4 MSTORE PUSH1 0x24 PUSH1 0x0 REVERT JUMPDEST PUSH1 0x0 DUP1 REVERT JUMPDEST CALLVALUE PUSH2 0x12D JUMPI PUSH1 0x40 CALLDATASIZE PUSH1 0x3 NOT ADD SLT PUSH2 0x12D JUMPI PUSH2 0x14B PUSH2 0x65E JUMP JUMPDEST PUSH2 0x153 PUSH2 0x674 JUMP JUMPDEST PUSH1 0x1 PUSH1 0x1 PUSH1 0xA0 SHL SUB SWAP2 DUP3 AND PUSH1 0x0 SWAP1 DUP2 MSTORE PUSH1 0x1 PUSH1 0x20 SWAP1 DUP2 MSTORE PUSH1 0x40 DUP1 DUP4 KECCAK256 SWAP5 SWAP1 SWAP4 AND DUP3 MSTORE SWAP3 DUP4 MSTORE DUP2 SWAP1 KECCAK256 SLOAD SWAP1 MLOAD SWAP1 DUP2 MSTORE RETURN JUMPDEST CALLVALUE PUSH2 0x12D JUMPI PUSH1 0x40 CALLDATASIZE PUSH1 0x3 NOT ADD SLT PUSH2 0x12D JUMPI PUSH2 0x1A9 PUSH2 0x19F PUSH2 0x65E JUMP JUMPDEST PUSH1 0x24 CALLDATALOAD SWAP1 CALLER PUSH2 0x68A JUMP JUMPDEST PUSH1 0x20 PUSH1 0x40 MLOAD PUSH1 0x1 DUP2 MSTORE RETURN JUMPDEST CALLVALUE PUSH2 0x12D JUMPI PUSH1 0x0 CALLDATASIZE PUSH1 0x3 NOT ADD SLT PUSH2 0x12D JUMPI PUSH1 0x40 MLOAD PUSH1 0x0 PUSH1 0x4 SLOAD DUP1 PUSH1 0x1 SHR SWAP1 PUSH1 0x1 DUP2 AND DUP1 ISZERO PUSH2 0x2CB JUMPI JUMPDEST PUSH1 0x20 DUP4 LT DUP2 EQ PUSH2 0x2B7 JUMPI DUP3 DUP6 MSTORE SWAP1 DUP2 ISZERO PUSH2 0x29B JUMPI POP PUSH1 0x1 EQ PUSH2 0x244 JUMPI JUMPDEST POP DUP2 SWAP1 SUB PUSH1 0x1F ADD PUSH1 0x1F NOT AND DUP2 ADD SWAP1 PUSH8 0xFFFFFFFFFFFFFFFF DUP3 GT DUP2 DUP4 LT OR PUSH2 0x22E JUMPI PUSH2 0x22A DUP3 SWAP2 DUP3 PUSH1 0x40 MSTORE DUP3 PUSH2 0x615 JUMP JUMPDEST SUB SWAP1 RETURN JUMPDEST PUSH4 0x4E487B71 PUSH1 0xE0 SHL PUSH1 0x0 MSTORE PUSH1 0x41 PUSH1 0x4 MSTORE PUSH1 0x24 PUSH1 0x0 REVERT JUMPDEST SWAP1 POP PUSH1 0x4 PUSH1 0x0 MSTORE PUSH32 0x8A35ACFBC15FF81A39AE7D344FD709F28E8600B4AA8C65C6B64BFE7FE36BD19B PUSH1 0x0 SWAP1 JUMPDEST DUP3 DUP3 LT PUSH2 0x285 JUMPI POP PUSH1 0x20 SWAP2 POP DUP3 ADD ADD DUP3 PUSH2 0x1FA JUMP JUMPDEST PUSH1 0x1 DUP2 PUSH1 0x20 SWAP3 SLOAD DUP4 DUP6 DUP9 ADD ADD MSTORE ADD SWAP2 ADD SWAP1 PUSH2 0x270 JUMP JUMPDEST SWAP1 POP PUSH1 0x20 SWAP3 POP PUSH1 0xFF NOT AND DUP3 DUP5 ADD MSTORE ISZERO ISZERO PUSH1 0x5 SHL DUP3 ADD ADD DUP3 PUSH2 0x1FA JUMP JUMPDEST PUSH4 0x4E487B71 PUSH1 0xE0 SHL DUP5 MSTORE PUSH1 0x22 PUSH1 0x4 MSTORE PUSH1 0x24 DUP5 REVERT JUMPDEST SWAP2 PUSH1 0x7F AND SWAP2 PUSH2 0x1DD JUMP JUMPDEST CALLVALUE PUSH2 0x12D JUMPI PUSH1 0x0 CALLDATASIZE PUSH1 0x3 NOT ADD SLT PUSH2 0x12D JUMPI PUSH1 0x5 SLOAD PUSH1 0x40 MLOAD PUSH1 0x1 PUSH1 0x1 PUSH1 0xA0 SHL SUB SWAP1 SWAP2 AND DUP2 MSTORE PUSH1 0x20 SWAP1 RETURN JUMPDEST CALLVALUE PUSH2 0x12D JUMPI PUSH1 0x0 CALLDATASIZE PUSH1 0x3 NOT ADD SLT PUSH2 0x12D JUMPI PUSH2 0x317 PUSH2 0x74F JUMP JUMPDEST PUSH1 0x5 DUP1 SLOAD PUSH1 0x1 PUSH1 0x1 PUSH1 0xA0 SHL SUB NOT DUP2 AND SWAP1 SWAP2 SSTORE PUSH1 0x0 SWAP1 PUSH1 0x1 PUSH1 0x1 PUSH1 0xA0 SHL SUB AND PUSH32 0x8BE0079C531659141344CD1FD0A4F28419497F9722A3DAAFE3B4186F6B6457E0 DUP3 DUP1 LOG3 STOP JUMPDEST CALLVALUE PUSH2 0x12D JUMPI PUSH1 0x20 CALLDATASIZE PUSH1 0x3 NOT ADD SLT PUSH2 0x12D JUMPI PUSH1 0x1 PUSH1 0x1 PUSH1 0xA0 SHL SUB PUSH2 0x37C PUSH2 0x65E JUMP JUMPDEST AND PUSH1 0x0 MSTORE PUSH1 0x0 PUSH1 0x20 MSTORE PUSH1 0x20 PUSH1 0x40 PUSH1 0x0 KECCAK256 SLOAD PUSH1 0x40 MLOAD SWAP1 DUP2 MSTORE RETURN JUMPDEST CALLVALUE PUSH2 0x12D JUMPI PUSH1 0x0 CALLDATASIZE PUSH1 0x3 NOT ADD SLT PUSH2 0x12D JUMPI PUSH1 0x20 PUSH1 0x40 MLOAD PUSH1 0x12 DUP2 MSTORE RETURN JUMPDEST CALLVALUE PUSH2 0x12D JUMPI PUSH1 0x60 CALLDATASIZE PUSH1 0x3 NOT ADD SLT PUSH2 0x12D JUMPI PUSH2 0x3CA PUSH2 0x65E JUMP JUMPDEST PUSH2 0x3D2 PUSH2 0x674 JUMP JUMPDEST PUSH1 0x1 PUSH1 0x1 PUSH1 0xA0 SHL SUB DUP3 AND PUSH1 0x0 DUP2 DUP2 MSTORE PUSH1 0x1 PUSH1 0x20 DUP2 DUP2 MSTORE PUSH1 0x40 DUP1 DUP5 KECCAK256 CALLER DUP6 MSTORE SWAP1 SWAP2 MSTORE SWAP1 SWAP2 KECCAK256 SLOAD SWAP2 SWAP4 PUSH1 0x44 CALLDATALOAD SWAP4 SWAP3 SWAP1 SWAP2 DUP2 ADD PUSH2 0x412 JUMPI JUMPDEST POP PUSH2 0x1A9 SWAP4 POP PUSH2 0x68A JUMP JUMPDEST DUP4 DUP2 LT PUSH2 0x481 JUMPI DUP5 ISZERO PUSH2 0x46B JUMPI CALLER ISZERO PUSH2 0x455 JUMPI PUSH2 0x1A9 SWAP5 PUSH1 0x0 MSTORE PUSH1 0x1 PUSH1 0x20 MSTORE PUSH1 0x40 PUSH1 0x0 KECCAK256 PUSH1 0x1 DUP1 PUSH1 0xA0 SHL SUB CALLER AND PUSH1 0x0 MSTORE PUSH1 0x20 MSTORE DUP4 PUSH1 0x40 PUSH1 0x0 KECCAK256 SWAP2 SUB SWAP1 SSTORE DUP5 PUSH2 0x407 JUMP JUMPDEST PUSH4 0x4A1406B1 PUSH1 0xE1 SHL PUSH1 0x0 MSTORE PUSH1 0x0 PUSH1 0x4 MSTORE PUSH1 0x24 PUSH1 0x0 REVERT JUMPDEST PUSH4 0xE602DF05 PUSH1 0xE0 SHL PUSH1 0x0 MSTORE PUSH1 0x0 PUSH1 0x4 MSTORE PUSH1 0x24 PUSH1 0x0 REVERT JUMPDEST DUP4 SWAP1 PUSH4 0x7DC7A0D9 PUSH1 0xE1 SHL PUSH1 0x0 MSTORE CALLER PUSH1 0x4 MSTORE PUSH1 0x24 MSTORE PUSH1 0x44 MSTORE PUSH1 0x64 PUSH1 0x0 REVERT JUMPDEST CALLVALUE PUSH2 0x12D JUMPI PUSH1 0x0 CALLDATASIZE PUSH1 0x3 NOT ADD SLT PUSH2 0x12D JUMPI PUSH1 0x20 PUSH1 0x2 SLOAD PUSH1 0x40 MLOAD SWAP1 DUP2 MSTORE RETURN JUMPDEST CALLVALUE PUSH2 0x12D JUMPI PUSH1 0x40 CALLDATASIZE PUSH1 0x3 NOT ADD SLT PUSH2 0x12D JUMPI PUSH2 0x4D5 PUSH2 0x65E JUMP JUMPDEST PUSH1 0x24 CALLDATALOAD SWAP1 CALLER ISZERO PUSH2 0x46B JUMPI PUSH1 0x1 PUSH1 0x1 PUSH1 0xA0 SHL SUB AND SWAP1 DUP2 ISZERO PUSH2 0x455 JUMPI CALLER PUSH1 0x0 MSTORE PUSH1 0x1 PUSH1 0x20 MSTORE PUSH1 0x40 PUSH1 0x0 KECCAK256 DUP3 PUSH1 0x0 MSTORE PUSH1 0x20 MSTORE DUP1 PUSH1 0x40 PUSH1 0x0 KECCAK256 SSTORE PUSH1 0x40 MLOAD SWAP1 DUP2 MSTORE PUSH32 0x8C5BE1E5EBEC7D5BD14F71427D1E84F3DD0314C0F7B2291E5B200AC8C7C3B925 PUSH1 0x20 CALLER SWAP3 LOG3 PUSH1 0x20 PUSH1 0x40 MLOAD PUSH1 0x1 DUP2 MSTORE RETURN JUMPDEST CALLVALUE PUSH2 0x12D JUMPI PUSH1 0x0 CALLDATASIZE PUSH1 0x3 NOT ADD SLT PUSH2 0x12D JUMPI PUSH1 0x0 PUSH1 0x3 SLOAD DUP1 PUSH1 0x1 SHR SWAP1 PUSH1 0x1 DUP2 AND DUP1 ISZERO PUSH2 0x60B JUMPI JUMPDEST PUSH1 0x20 DUP4 LT DUP2 EQ PUSH2 0x2B7 JUMPI DUP3 DUP6 MSTORE SWAP1 DUP2 ISZERO PUSH2 0x29B JUMPI POP PUSH1 0x1 EQ PUSH2 0x5B4 JUMPI POP DUP2 SWAP1 SUB PUSH1 0x1F ADD PUSH1 0x1F NOT AND DUP2 ADD SWAP1 PUSH8 0xFFFFFFFFFFFFFFFF DUP3 GT DUP2 DUP4 LT OR PUSH2 0x22E JUMPI PUSH2 0x22A DUP3 SWAP2 DUP3 PUSH1 0x40 MSTORE DUP3 PUSH2 0x615 JUMP JUMPDEST SWAP1 POP PUSH1 0x3 PUSH1 0x0 MSTORE PUSH32 0xC2575A0E9E593C00F959F8C92F12DB2869C3395A3B0502D05E2516446F71F85B PUSH1 0x0 SWAP1 JUMPDEST DUP3 DUP3 LT PUSH2 0x5F5 JUMPI POP PUSH1 0x20 SWAP2 POP DUP3 ADD ADD DUP3 PUSH2 0x1FA JUMP JUMPDEST PUSH1 0x1 DUP2 PUSH1 0x20 SWAP3 SLOAD DUP4 DUP6 DUP9 ADD ADD MSTORE ADD SWAP2 ADD SWAP1 PUSH2 0x5E0 JUMP JUMPDEST SWAP2 PUSH1 0x7F AND SWAP2 PUSH2 0x568 JUMP JUMPDEST SWAP2 SWAP1 SWAP2 PUSH1 0x20 DUP2 MSTORE DUP3 MLOAD DUP1 PUSH1 0x20 DUP4 ADD MSTORE PUSH1 0x0 JUMPDEST DUP2 DUP2 LT PUSH2 0x648 JUMPI POP PUSH1 0x40 SWAP3 SWAP4 POP PUSH1 0x0 DUP4 DUP3 DUP5 ADD ADD MSTORE PUSH1 0x1F DUP1 NOT SWAP2 ADD AND ADD ADD SWAP1 JUMP JUMPDEST DUP1 PUSH1 0x20 DUP1 SWAP3 DUP8 ADD ADD MLOAD PUSH1 0x40 DUP3 DUP7 ADD ADD MSTORE ADD PUSH2 0x627 JUMP JUMPDEST PUSH1 0x4 CALLDATALOAD SWAP1 PUSH1 0x1 PUSH1 0x1 PUSH1 0xA0 SHL SUB DUP3 AND DUP3 SUB PUSH2 0x12D JUMPI JUMP JUMPDEST PUSH1 0x24 CALLDATALOAD SWAP1 PUSH1 0x1 PUSH1 0x1 PUSH1 0xA0 SHL SUB DUP3 AND DUP3 SUB PUSH2 0x12D JUMPI JUMP JUMPDEST PUSH1 0x1 PUSH1 0x1 PUSH1 0xA0 SHL SUB AND SWAP1 DUP2 ISZERO PUSH2 0x739 JUMPI PUSH1 0x1 PUSH1 0x1 PUSH1 0xA0 SHL SUB AND SWAP2 DUP3 ISZERO PUSH2 0x723 JUMPI PUSH1 0x0 DUP3 DUP2 MSTORE DUP1 PUSH1 0x20 MSTORE PUSH1 0x40 DUP2 KECCAK256 SLOAD DUP3 DUP2 LT PUSH2 0x709 JUMPI SWAP2 PUSH1 0x40 DUP3 DUP3 PUSH32 0xDDF252AD1BE2C89B69C2B068FC378DAA952BA7F163C4A11628F55A4DF523B3EF SWAP6 DUP8 PUSH1 0x20 SWAP7 MSTORE DUP3 DUP7 MSTORE SUB DUP3 DUP3 KECCAK256 SSTORE DUP7 DUP2 MSTORE DUP1 DUP5 MSTORE KECCAK256 DUP2 DUP2 SLOAD ADD SWAP1 SSTORE PUSH1 0x40 MLOAD SWAP1 DUP2 MSTORE LOG3 JUMP JUMPDEST SWAP2 PUSH1 0x64 SWAP3 DUP5 PUSH4 0x391434E3 PUSH1 0xE2 SHL DUP5 MSTORE PUSH1 0x4 MSTORE PUSH1 0x24 MSTORE PUSH1 0x44 MSTORE REVERT JUMPDEST PUSH4 0xEC442F05 PUSH1 0xE0 SHL PUSH1 0x0 MSTORE PUSH1 0x0 PUSH1 0x4 MSTORE PUSH1 0x24 PUSH1 0x0 REVERT JUMPDEST PUSH4 0x4B637E8F PUSH1 0xE1 SHL PUSH1 0x0 MSTORE PUSH1 0x0 PUSH1 0x4 MSTORE PUSH1 0x24 PUSH1 0x0 REVERT JUMPDEST PUSH1 0x5 SLOAD PUSH1 0x1 PUSH1 0x1 PUSH1 0xA0 SHL SUB AND CALLER SUB PUSH2 0x763 JUMPI JUMP JUMPDEST PUSH4 0x118CDAA7 PUSH1 0xE0 SHL PUSH1 0x0 MSTORE CALLER PUSH1 0x4 MSTORE PUSH1 0x24 PUSH1 0x0 REVERT INVALID LOG2 PUSH5 0x6970667358 0x22 SLT KECCAK256 DELEGATECALL 0xE3 ISZERO BASEFEE OR 0xBC PUSH4 0x15E7CBDA 0xB2 PUSH10 0x1B908AADE2DCE29EBC78 0xE MOD MOD 0xB7 PUSH23 0x6A8ABBC364736F6C634300081B0033A264697066735822 SLT KECCAK256 ORIGIN 0x4D 0xD1 RETURNDATASIZE CODECOPY 0xBE PUSH1 0x34 NOT 0xBF 0x2B SWAP1 DELEGATECALL 0x23 0xE4 0xCA 0x4E 0xEB 0xEE 0xE7 SMOD 0xCB 0xA6 0xC2 EXTCODEHASH 0xB6 0xF7 0xD0 EQ DUP11 PUSH18 0xC264736F6C634300081B00332F8788117E7E SELFDESTRUCT SAR DUP3 0xE9 0x26 0xEC PUSH26 0x4901D17C78024A50270940304540A733656F0DDAE2AA361DFD1C LOG0 KECCAK256 LOG3 SWAP7 PUSH2 0x5627 0xD4 CALLDATASIZE LT PUSH29 0x35EFF9FE7738A3512819782D7069AD3228B676F7D3CD4284A5443F17F1 SWAP7 0x2B CALLDATASIZE 0xE4 SWAP2 0xB3 EXP BLOCKHASH 0xB2 BLOCKHASH PC BLOBHASH 0xE5 SWAP8 0xBA PUSH0 0xB5 "
        },
        "methodIdentifiers": {
          "DEFAULT_ADMIN_ROLE()": "a217fddf",
          "EXECUTOR_ROLE()": "07bd0265",
          "cleanMeme(uint256[])": "e0b3baef",
          "communityDropAddress()": "5b9e98b8",
          "communityTreasuryAddress()": "82f85c3f",
          "createMemeProposal(string,string,uint256,string,string,(string,string),(address,uint256,uint256,uint256,uint256,uint256,uint256,uint256))": "80d506b7",
          "getMemeProposalsByStatus(string)": "f24a5576",
          "getRoleAdmin(bytes32)": "248a9ca3",
          "grantRole(bytes32,address)": "2f2ff15d",
          "hasRole(bytes32,address)": "91d14854",
          "invest(uint256,address,uint256)": "fecba3a5",
          "investorAddress()": "12e228fd",
          "lpVaultAddress()": "e8ca9212",
          "mintMeme(uint256[])": "63a3dafe",
          "ownerAddress()": "8f84aa09",
          "platformFeeAddress()": "ed14834f",
          "positionManager()": "791b98bc",
          "positionManagerAddress()": "7a8a1113",
          "renounceRole(bytes32,address)": "36568abe",
          "revokeRole(bytes32,address)": "d547741f",
          "setInvestPeriod(uint256)": "4c8d7e58",
          "setMinimumVoter(uint256)": "b15c4013",
          "setVotePeriod(uint256)": "67b11630",
          "supportsInterface(bytes4)": "01ffc9a7",
          "vote(uint256,uint8)": "943e8216",
          "voteResult(uint256)": "81c65884"
        }
      }
    }
  }
}