{
  "_format": "hh-sol-artifact-1",
  "contractName": "MEMEUSDT",
  "sourceName": "contracts/MemeUSDT.sol",
  "abi": [
    {
      "inputs": [],
      "stateMutability": "nonpayable",
      "type": "constructor"
    },
    {
      "inputs": [
        {
          "internalType": "address",
          "name": "spender",
          "type": "address"
        },
        {
          "internalType": "uint256",
          "name": "allowance",
          "type": "uint256"
        },
        {
          "internalType": "uint256",
          "name": "needed",
          "type": "uint256"
        }
      ],
      "name": "ERC20InsufficientAllowance",
      "type": "error"
    },
    {
      "inputs": [
        {
          "internalType": "address",
          "name": "sender",
          "type": "address"
        },
        {
          "internalType": "uint256",
          "name": "balance",
          "type": "uint256"
        },
        {
          "internalType": "uint256",
          "name": "needed",
          "type": "uint256"
        }
      ],
      "name": "ERC20InsufficientBalance",
      "type": "error"
    },
    {
      "inputs": [
        {
          "internalType": "address",
          "name": "approver",
          "type": "address"
        }
      ],
      "name": "ERC20InvalidApprover",
      "type": "error"
    },
    {
      "inputs": [
        {
          "internalType": "address",
          "name": "receiver",
          "type": "address"
        }
      ],
      "name": "ERC20InvalidReceiver",
      "type": "error"
    },
    {
      "inputs": [
        {
          "internalType": "address",
          "name": "sender",
          "type": "address"
        }
      ],
      "name": "ERC20InvalidSender",
      "type": "error"
    },
    {
      "inputs": [
        {
          "internalType": "address",
          "name": "spender",
          "type": "address"
        }
      ],
      "name": "ERC20InvalidSpender",
      "type": "error"
    },
    {
      "inputs": [],
      "name": "InvalidInitialization",
      "type": "error"
    },
    {
      "inputs": [],
      "name": "NotInitializing",
      "type": "error"
    },
    {
      "inputs": [
        {
          "internalType": "address",
          "name": "owner",
          "type": "address"
        }
      ],
      "name": "OwnableInvalidOwner",
      "type": "error"
    },
    {
      "inputs": [
        {
          "internalType": "address",
          "name": "account",
          "type": "address"
        }
      ],
      "name": "OwnableUnauthorizedAccount",
      "type": "error"
    },
    {
      "anonymous": false,
      "inputs": [
        {
          "indexed": true,
          "internalType": "address",
          "name": "owner",
          "type": "address"
        },
        {
          "indexed": true,
          "internalType": "address",
          "name": "spender",
          "type": "address"
        },
        {
          "indexed": false,
          "internalType": "uint256",
          "name": "value",
          "type": "uint256"
        }
      ],
      "name": "Approval",
      "type": "event"
    },
    {
      "anonymous": false,
      "inputs": [
        {
          "indexed": false,
          "internalType": "uint64",
          "name": "version",
          "type": "uint64"
        }
      ],
      "name": "Initialized",
      "type": "event"
    },
    {
      "anonymous": false,
      "inputs": [
        {
          "indexed": true,
          "internalType": "address",
          "name": "previousOwner",
          "type": "address"
        },
        {
          "indexed": true,
          "internalType": "address",
          "name": "newOwner",
          "type": "address"
        }
      ],
      "name": "OwnershipTransferred",
      "type": "event"
    },
    {
      "anonymous": false,
      "inputs": [
        {
          "indexed": true,
          "internalType": "address",
          "name": "from",
          "type": "address"
        },
        {
          "indexed": true,
          "internalType": "address",
          "name": "to",
          "type": "address"
        },
        {
          "indexed": false,
          "internalType": "uint256",
          "name": "value",
          "type": "uint256"
        }
      ],
      "name": "Transfer",
      "type": "event"
    },
    {
      "inputs": [
        {
          "internalType": "address",
          "name": "owner",
          "type": "address"
        },
        {
          "internalType": "address",
          "name": "spender",
          "type": "address"
        }
      ],
      "name": "allowance",
      "outputs": [
        {
          "internalType": "uint256",
          "name": "",
          "type": "uint256"
        }
      ],
      "stateMutability": "view",
      "type": "function"
    },
    {
      "inputs": [
        {
          "internalType": "address",
          "name": "spender",
          "type": "address"
        },
        {
          "internalType": "uint256",
          "name": "value",
          "type": "uint256"
        }
      ],
      "name": "approve",
      "outputs": [
        {
          "internalType": "bool",
          "name": "",
          "type": "bool"
        }
      ],
      "stateMutability": "nonpayable",
      "type": "function"
    },
    {
      "inputs": [
        {
          "internalType": "address",
          "name": "account",
          "type": "address"
        }
      ],
      "name": "balanceOf",
      "outputs": [
        {
          "internalType": "uint256",
          "name": "",
          "type": "uint256"
        }
      ],
      "stateMutability": "view",
      "type": "function"
    },
    {
      "inputs": [],
      "name": "decimals",
      "outputs": [
        {
          "internalType": "uint8",
          "name": "",
          "type": "uint8"
        }
      ],
      "stateMutability": "view",
      "type": "function"
    },
    {
      "inputs": [
        {
          "internalType": "address",
          "name": "initialOwner",
          "type": "address"
        }
      ],
      "name": "initialize",
      "outputs": [],
      "stateMutability": "nonpayable",
      "type": "function"
    },
    {
      "inputs": [
        {
          "internalType": "address",
          "name": "to",
          "type": "address"
        },
        {
          "internalType": "uint256",
          "name": "amount",
          "type": "uint256"
        }
      ],
      "name": "mint",
      "outputs": [],
      "stateMutability": "nonpayable",
      "type": "function"
    },
    {
      "inputs": [],
      "name": "name",
      "outputs": [
        {
          "internalType": "string",
          "name": "",
          "type": "string"
        }
      ],
      "stateMutability": "view",
      "type": "function"
    },
    {
      "inputs": [],
      "name": "owner",
      "outputs": [
        {
          "internalType": "address",
          "name": "",
          "type": "address"
        }
      ],
      "stateMutability": "view",
      "type": "function"
    },
    {
      "inputs": [],
      "name": "renounceOwnership",
      "outputs": [],
      "stateMutability": "nonpayable",
      "type": "function"
    },
    {
      "inputs": [],
      "name": "symbol",
      "outputs": [
        {
          "internalType": "string",
          "name": "",
          "type": "string"
        }
      ],
      "stateMutability": "view",
      "type": "function"
    },
    {
      "inputs": [],
      "name": "totalSupply",
      "outputs": [
        {
          "internalType": "uint256",
          "name": "",
          "type": "uint256"
        }
      ],
      "stateMutability": "view",
      "type": "function"
    },
    {
      "inputs": [
        {
          "internalType": "address",
          "name": "to",
          "type": "address"
        },
        {
          "internalType": "uint256",
          "name": "value",
          "type": "uint256"
        }
      ],
      "name": "transfer",
      "outputs": [
        {
          "internalType": "bool",
          "name": "",
          "type": "bool"
        }
      ],
      "stateMutability": "nonpayable",
      "type": "function"
    },
    {
      "inputs": [
        {
          "internalType": "address",
          "name": "from",
          "type": "address"
        },
        {
          "internalType": "address",
          "name": "to",
          "type": "address"
        },
        {
          "internalType": "uint256",
          "name": "value",
          "type": "uint256"
        }
      ],
      "name": "transferFrom",
      "outputs": [
        {
          "internalType": "bool",
          "name": "",
          "type": "bool"
        }
      ],
      "stateMutability": "nonpayable",
      "type": "function"
    },
    {
      "inputs": [
        {
          "internalType": "address",
          "name": "newOwner",
          "type": "address"
        }
      ],
      "name": "transferOwnership",
      "outputs": [],
      "stateMutability": "nonpayable",
      "type": "function"
    }
  ],
  "bytecode": "0x608060405234801561001057600080fd5b5061001f61002460201b60201c565b61018e565b600061003461012860201b60201c565b90508060000160089054906101000a900460ff161561007f576040517ff92ee8a900000000000000000000000000000000000000000000000000000000815260040160405180910390fd5b67ffffffffffffffff80168160000160009054906101000a900467ffffffffffffffff1667ffffffffffffffff16146101255767ffffffffffffffff8160000160006101000a81548167ffffffffffffffff021916908367ffffffffffffffff1602179055507fc7f505b2f371ae2175ee4913f4499e1f2633a7b5936321eed1cdaeb6115181d267ffffffffffffffff60405161011c9190610173565b60405180910390a15b50565b60007ff0c57e16840df040f15088dc2f81fe391c3923bec73e23a9662efc9c229c6a00905090565b600067ffffffffffffffff82169050919050565b61016d81610150565b82525050565b60006020820190506101886000830184610164565b92915050565b611b338061019d6000396000f3fe608060405234801561001057600080fd5b50600436106100ea5760003560e01c8063715018a61161008c578063a9059cbb11610066578063a9059cbb1461023b578063c4d66de81461026b578063dd62ed3e14610287578063f2fde38b146102b7576100ea565b8063715018a6146101f55780638da5cb5b146101ff57806395d89b411461021d576100ea565b806323b872dd116100c857806323b872dd1461015b578063313ce5671461018b57806340c10f19146101a957806370a08231146101c5576100ea565b806306fdde03146100ef578063095ea7b31461010d57806318160ddd1461013d575b600080fd5b6100f76102d3565b60405161010491906112b0565b60405180910390f35b6101276004803603810190610122919061136b565b610374565b60405161013491906113c6565b60405180910390f35b610145610397565b60405161015291906113f0565b60405180910390f35b6101756004803603810190610170919061140b565b6103af565b60405161018291906113c6565b60405180910390f35b6101936103de565b6040516101a0919061147a565b60405180910390f35b6101c360048036038101906101be919061136b565b6103e7565b005b6101df60048036038101906101da9190611495565b6103fd565b6040516101ec91906113f0565b60405180910390f35b6101fd610454565b005b610207610468565b60405161021491906114d1565b60405180910390f35b6102256104a0565b60405161023291906112b0565b60405180910390f35b6102556004803603810190610250919061136b565b610541565b60405161026291906113c6565b60405180910390f35b61028560048036038101906102809190611495565b610564565b005b6102a1600480360381019061029c91906114ec565b610799565b6040516102ae91906113f0565b60405180910390f35b6102d160048036038101906102cc9190611495565b61082e565b005b606060006102df6108b4565b90508060030180546102f09061155b565b80601f016020809104026020016040519081016040528092919081815260200182805461031c9061155b565b80156103695780601f1061033e57610100808354040283529160200191610369565b820191906000526020600020905b81548152906001019060200180831161034c57829003601f168201915b505050505091505090565b60008061037f6108dc565b905061038c8185856108e4565b600191505092915050565b6000806103a26108b4565b9050806002015491505090565b6000806103ba6108dc565b90506103c78582856108f6565b6103d285858561098a565b60019150509392505050565b60006012905090565b6103ef610a7e565b6103f98282610b05565b5050565b6000806104086108b4565b90508060000160008473ffffffffffffffffffffffffffffffffffffffff1673ffffffffffffffffffffffffffffffffffffffff16815260200190815260200160002054915050919050565b61045c610a7e565b6104666000610b87565b565b600080610473610c5e565b90508060000160009054906101000a900473ffffffffffffffffffffffffffffffffffffffff1691505090565b606060006104ac6108b4565b90508060040180546104bd9061155b565b80601f01602080910402602001604051908101604052809291908181526020018280546104e99061155b565b80156105365780601f1061050b57610100808354040283529160200191610536565b820191906000526020600020905b81548152906001019060200180831161051957829003601f168201915b505050505091505090565b60008061054c6108dc565b905061055981858561098a565b600191505092915050565b600061056e610c86565b905060008160000160089054906101000a900460ff1615905060008260000160009054906101000a900467ffffffffffffffff1690506000808267ffffffffffffffff161480156105bc5750825b9050600060018367ffffffffffffffff161480156105f1575060003073ffffffffffffffffffffffffffffffffffffffff163b145b9050811580156105ff575080155b15610636576040517ff92ee8a900000000000000000000000000000000000000000000000000000000815260040160405180910390fd5b60018560000160006101000a81548167ffffffffffffffff021916908367ffffffffffffffff16021790555083156106865760018560000160086101000a81548160ff0219169083151502179055505b6106fa6040518060400160405280600981526020017f4d454d45205553445400000000000000000000000000000000000000000000008152506040518060400160405280600581526020017f6d55534454000000000000000000000000000000000000000000000000000000815250610cae565b61070386610cc4565b6107353361070f6103de565b600a61071b91906116ee565b69152d02c7e14af68000006107309190611739565b610b05565b83156107915760008560000160086101000a81548160ff0219169083151502179055507fc7f505b2f371ae2175ee4913f4499e1f2633a7b5936321eed1cdaeb6115181d2600160405161078891906117d4565b60405180910390a15b505050505050565b6000806107a46108b4565b90508060010160008573ffffffffffffffffffffffffffffffffffffffff1673ffffffffffffffffffffffffffffffffffffffff16815260200190815260200160002060008473ffffffffffffffffffffffffffffffffffffffff1673ffffffffffffffffffffffffffffffffffffffff1681526020019081526020016000205491505092915050565b610836610a7e565b600073ffffffffffffffffffffffffffffffffffffffff168173ffffffffffffffffffffffffffffffffffffffff16036108a85760006040517f1e4fbdf700000000000000000000000000000000000000000000000000000000815260040161089f91906114d1565b60405180910390fd5b6108b181610b87565b50565b60007f52c63247e1f47db19d5ce0460030c497f067ca4cebf71ba98eeadabe20bace00905090565b600033905090565b6108f18383836001610cd8565b505050565b60006109028484610799565b90507fffffffffffffffffffffffffffffffffffffffffffffffffffffffffffffffff81146109845781811015610974578281836040517ffb8f41b200000000000000000000000000000000000000000000000000000000815260040161096b939291906117ef565b60405180910390fd5b61098384848484036000610cd8565b5b50505050565b600073ffffffffffffffffffffffffffffffffffffffff168373ffffffffffffffffffffffffffffffffffffffff16036109fc5760006040517f96c6fd1e0000000000000000000000000000000000000000000000000000000081526004016109f391906114d1565b60405180910390fd5b600073ffffffffffffffffffffffffffffffffffffffff168273ffffffffffffffffffffffffffffffffffffffff1603610a6e5760006040517fec442f05000000000000000000000000000000000000000000000000000000008152600401610a6591906114d1565b60405180910390fd5b610a79838383610ebe565b505050565b610a866108dc565b73ffffffffffffffffffffffffffffffffffffffff16610aa4610468565b73ffffffffffffffffffffffffffffffffffffffff1614610b0357610ac76108dc565b6040517f118cdaa7000000000000000000000000000000000000000000000000000000008152600401610afa91906114d1565b60405180910390fd5b565b600073ffffffffffffffffffffffffffffffffffffffff168273ffffffffffffffffffffffffffffffffffffffff1603610b775760006040517fec442f05000000000000000000000000000000000000000000000000000000008152600401610b6e91906114d1565b60405180910390fd5b610b8360008383610ebe565b5050565b6000610b91610c5e565b905060008160000160009054906101000a900473ffffffffffffffffffffffffffffffffffffffff169050828260000160006101000a81548173ffffffffffffffffffffffffffffffffffffffff021916908373ffffffffffffffffffffffffffffffffffffffff1602179055508273ffffffffffffffffffffffffffffffffffffffff168173ffffffffffffffffffffffffffffffffffffffff167f8be0079c531659141344cd1fd0a4f28419497f9722a3daafe3b4186f6b6457e060405160405180910390a3505050565b60007f9016d09d72d40fdae2fd8ceac6b6234c7706214fd39c1cd1e609a0528c199300905090565b60007ff0c57e16840df040f15088dc2f81fe391c3923bec73e23a9662efc9c229c6a00905090565b610cb66110fd565b610cc0828261113d565b5050565b610ccc6110fd565b610cd58161117a565b50565b6000610ce26108b4565b9050600073ffffffffffffffffffffffffffffffffffffffff168573ffffffffffffffffffffffffffffffffffffffff1603610d565760006040517fe602df05000000000000000000000000000000000000000000000000000000008152600401610d4d91906114d1565b60405180910390fd5b600073ffffffffffffffffffffffffffffffffffffffff168473ffffffffffffffffffffffffffffffffffffffff1603610dc85760006040517f94280d62000000000000000000000000000000000000000000000000000000008152600401610dbf91906114d1565b60405180910390fd5b828160010160008773ffffffffffffffffffffffffffffffffffffffff1673ffffffffffffffffffffffffffffffffffffffff16815260200190815260200160002060008673ffffffffffffffffffffffffffffffffffffffff1673ffffffffffffffffffffffffffffffffffffffff168152602001908152602001600020819055508115610eb7578373ffffffffffffffffffffffffffffffffffffffff168573ffffffffffffffffffffffffffffffffffffffff167f8c5be1e5ebec7d5bd14f71427d1e84f3dd0314c0f7b2291e5b200ac8c7c3b92585604051610eae91906113f0565b60405180910390a35b5050505050565b6000610ec86108b4565b9050600073ffffffffffffffffffffffffffffffffffffffff168473ffffffffffffffffffffffffffffffffffffffff1603610f1e5781816002016000828254610f129190611826565b92505081905550610ff7565b60008160000160008673ffffffffffffffffffffffffffffffffffffffff1673ffffffffffffffffffffffffffffffffffffffff16815260200190815260200160002054905082811015610fad578481846040517fe450d38c000000000000000000000000000000000000000000000000000000008152600401610fa4939291906117ef565b60405180910390fd5b8281038260000160008773ffffffffffffffffffffffffffffffffffffffff1673ffffffffffffffffffffffffffffffffffffffff16815260200190815260200160002081905550505b600073ffffffffffffffffffffffffffffffffffffffff168373ffffffffffffffffffffffffffffffffffffffff160361104257818160020160008282540392505081905550611092565b818160000160008573ffffffffffffffffffffffffffffffffffffffff1673ffffffffffffffffffffffffffffffffffffffff168152602001908152602001600020600082825401925050819055505b8273ffffffffffffffffffffffffffffffffffffffff168473ffffffffffffffffffffffffffffffffffffffff167fddf252ad1be2c89b69c2b068fc378daa952ba7f163c4a11628f55a4df523b3ef846040516110ef91906113f0565b60405180910390a350505050565b611105611200565b61113b576040517fd7e6bcf800000000000000000000000000000000000000000000000000000000815260040160405180910390fd5b565b6111456110fd565b600061114f6108b4565b9050828160030190816111629190611a2b565b50818160040190816111749190611a2b565b50505050565b6111826110fd565b600073ffffffffffffffffffffffffffffffffffffffff168173ffffffffffffffffffffffffffffffffffffffff16036111f45760006040517f1e4fbdf70000000000000000000000000000000000000000000000000000000081526004016111eb91906114d1565b60405180910390fd5b6111fd81610b87565b50565b600061120a610c86565b60000160089054906101000a900460ff16905090565b600081519050919050565b600082825260208201905092915050565b60005b8381101561125a57808201518184015260208101905061123f565b60008484015250505050565b6000601f19601f8301169050919050565b600061128282611220565b61128c818561122b565b935061129c81856020860161123c565b6112a581611266565b840191505092915050565b600060208201905081810360008301526112ca8184611277565b905092915050565b600080fd5b600073ffffffffffffffffffffffffffffffffffffffff82169050919050565b6000611302826112d7565b9050919050565b611312816112f7565b811461131d57600080fd5b50565b60008135905061132f81611309565b92915050565b6000819050919050565b61134881611335565b811461135357600080fd5b50565b6000813590506113658161133f565b92915050565b60008060408385031215611382576113816112d2565b5b600061139085828601611320565b92505060206113a185828601611356565b9150509250929050565b60008115159050919050565b6113c0816113ab565b82525050565b60006020820190506113db60008301846113b7565b92915050565b6113ea81611335565b82525050565b600060208201905061140560008301846113e1565b92915050565b600080600060608486031215611424576114236112d2565b5b600061143286828701611320565b935050602061144386828701611320565b925050604061145486828701611356565b9150509250925092565b600060ff82169050919050565b6114748161145e565b82525050565b600060208201905061148f600083018461146b565b92915050565b6000602082840312156114ab576114aa6112d2565b5b60006114b984828501611320565b91505092915050565b6114cb816112f7565b82525050565b60006020820190506114e660008301846114c2565b92915050565b60008060408385031215611503576115026112d2565b5b600061151185828601611320565b925050602061152285828601611320565b9150509250929050565b7f4e487b7100000000000000000000000000000000000000000000000000000000600052602260045260246000fd5b6000600282049050600182168061157357607f821691505b6020821081036115865761158561152c565b5b50919050565b7f4e487b7100000000000000000000000000000000000000000000000000000000600052601160045260246000fd5b60008160011c9050919050565b6000808291508390505b6001851115611612578086048111156115ee576115ed61158c565b5b60018516156115fd5780820291505b808102905061160b856115bb565b94506115d2565b94509492505050565b60008261162b57600190506116e7565b8161163957600090506116e7565b816001811461164f576002811461165957611688565b60019150506116e7565b60ff84111561166b5761166a61158c565b5b8360020a9150848211156116825761168161158c565b5b506116e7565b5060208310610133831016604e8410600b84101617156116bd5782820a9050838111156116b8576116b761158c565b5b6116e7565b6116ca84848460016115c8565b925090508184048111156116e1576116e061158c565b5b81810290505b9392505050565b60006116f982611335565b91506117048361145e565b92506117317fffffffffffffffffffffffffffffffffffffffffffffffffffffffffffffffff848461161b565b905092915050565b600061174482611335565b915061174f83611335565b925082820261175d81611335565b915082820484148315176117745761177361158c565b5b5092915050565b6000819050919050565b600067ffffffffffffffff82169050919050565b6000819050919050565b60006117be6117b96117b48461177b565b611799565b611785565b9050919050565b6117ce816117a3565b82525050565b60006020820190506117e960008301846117c5565b92915050565b600060608201905061180460008301866114c2565b61181160208301856113e1565b61181e60408301846113e1565b949350505050565b600061183182611335565b915061183c83611335565b92508282019050808211156118545761185361158c565b5b92915050565b7f4e487b7100000000000000000000000000000000000000000000000000000000600052604160045260246000fd5b60008190508160005260206000209050919050565b60006020601f8301049050919050565b600082821b905092915050565b6000600883026118eb7fffffffffffffffffffffffffffffffffffffffffffffffffffffffffffffffff826118ae565b6118f586836118ae565b95508019841693508086168417925050509392505050565b600061192861192361191e84611335565b611799565b611335565b9050919050565b6000819050919050565b6119428361190d565b61195661194e8261192f565b8484546118bb565b825550505050565b600090565b61196b61195e565b611976818484611939565b505050565b5b8181101561199a5761198f600082611963565b60018101905061197c565b5050565b601f8211156119df576119b081611889565b6119b98461189e565b810160208510156119c8578190505b6119dc6119d48561189e565b83018261197b565b50505b505050565b600082821c905092915050565b6000611a02600019846008026119e4565b1980831691505092915050565b6000611a1b83836119f1565b9150826002028217905092915050565b611a3482611220565b67ffffffffffffffff811115611a4d57611a4c61185a565b5b611a57825461155b565b611a6282828561199e565b600060209050601f831160018114611a955760008415611a83578287015190505b611a8d8582611a0f565b865550611af5565b601f198416611aa386611889565b60005b82811015611acb57848901518255600182019150602085019450602081019050611aa6565b86831015611ae85784890151611ae4601f8916826119f1565b8355505b6001600288020188555050505b50505050505056fea2646970667358221220336e7d6de5734adb8c32239b416be95e6aad6d56f4c48c2d49f0f139b12f21b564736f6c634300081b0033",
  "linkReferences": {},
  "deployedLinkReferences": {}
}