{
  "_format": "hh-sol-artifact-1",
  "contractName": "MemeBuilder",
  "sourceName": "contracts/MemeBuilder.sol",
  "abi": [
    {
      "inputs": [],
      "stateMutability": "nonpayable",
      "type": "constructor"
    },
    {
      "inputs": [],
      "name": "AccessControlBadConfirmation",
      "type": "error"
    },
    {
      "inputs": [
        {
          "internalType": "address",
          "name": "account",
          "type": "address"
        },
        {
          "internalType": "bytes32",
          "name": "neededRole",
          "type": "bytes32"
        }
      ],
      "name": "AccessControlUnauthorizedAccount",
      "type": "error"
    },
    {
      "anonymous": false,
      "inputs": [
        {
          "indexed": true,
          "internalType": "address",
          "name": "user",
          "type": "address"
        },
        {
          "indexed": true,
          "internalType": "uint256",
          "name": "index",
          "type": "uint256"
        }
      ],
      "name": "NewMemeProposal",
      "type": "event"
    },
    {
      "anonymous": false,
      "inputs": [
        {
          "indexed": true,
          "internalType": "bytes32",
          "name": "role",
          "type": "bytes32"
        },
        {
          "indexed": true,
          "internalType": "bytes32",
          "name": "previousAdminRole",
          "type": "bytes32"
        },
        {
          "indexed": true,
          "internalType": "bytes32",
          "name": "newAdminRole",
          "type": "bytes32"
        }
      ],
      "name": "RoleAdminChanged",
      "type": "event"
    },
    {
      "anonymous": false,
      "inputs": [
        {
          "indexed": true,
          "internalType": "bytes32",
          "name": "role",
          "type": "bytes32"
        },
        {
          "indexed": true,
          "internalType": "address",
          "name": "account",
          "type": "address"
        },
        {
          "indexed": true,
          "internalType": "address",
          "name": "sender",
          "type": "address"
        }
      ],
      "name": "RoleGranted",
      "type": "event"
    },
    {
      "anonymous": false,
      "inputs": [
        {
          "indexed": true,
          "internalType": "bytes32",
          "name": "role",
          "type": "bytes32"
        },
        {
          "indexed": true,
          "internalType": "address",
          "name": "account",
          "type": "address"
        },
        {
          "indexed": true,
          "internalType": "address",
          "name": "sender",
          "type": "address"
        }
      ],
      "name": "RoleRevoked",
      "type": "event"
    },
    {
      "anonymous": false,
      "inputs": [
        {
          "indexed": true,
          "internalType": "address",
          "name": "tokenAddress",
          "type": "address"
        },
        {
          "indexed": true,
          "internalType": "address",
          "name": "owner",
          "type": "address"
        },
        {
          "indexed": false,
          "internalType": "uint256",
          "name": "initialSupply",
          "type": "uint256"
        }
      ],
      "name": "TokenCreated",
      "type": "event"
    },
    {
      "anonymous": false,
      "inputs": [
        {
          "indexed": true,
          "internalType": "address",
          "name": "voter",
          "type": "address"
        },
        {
          "indexed": false,
          "internalType": "string",
          "name": "result",
          "type": "string"
        },
        {
          "indexed": true,
          "internalType": "uint256",
          "name": "id",
          "type": "uint256"
        }
      ],
      "name": "Vote",
      "type": "event"
    },
    {
      "inputs": [],
      "name": "DEFAULT_ADMIN_ROLE",
      "outputs": [
        {
          "internalType": "bytes32",
          "name": "",
          "type": "bytes32"
        }
      ],
      "stateMutability": "view",
      "type": "function"
    },
    {
      "inputs": [],
      "name": "EXECUTOR_ROLE",
      "outputs": [
        {
          "internalType": "bytes32",
          "name": "",
          "type": "bytes32"
        }
      ],
      "stateMutability": "view",
      "type": "function"
    },
    {
      "inputs": [],
      "name": "communityDropAddress",
      "outputs": [
        {
          "internalType": "address",
          "name": "",
          "type": "address"
        }
      ],
      "stateMutability": "view",
      "type": "function"
    },
    {
      "inputs": [],
      "name": "communityTreasuryAddress",
      "outputs": [
        {
          "internalType": "address",
          "name": "",
          "type": "address"
        }
      ],
      "stateMutability": "view",
      "type": "function"
    },
    {
      "inputs": [
        {
          "internalType": "string",
          "name": "_name",
          "type": "string"
        },
        {
          "internalType": "string",
          "name": "_symbol",
          "type": "string"
        },
        {
          "internalType": "uint256",
          "name": "_supply",
          "type": "uint256"
        },
        {
          "internalType": "string",
          "name": "_memeStory",
          "type": "string"
        },
        {
          "internalType": "string",
          "name": "_logo",
          "type": "string"
        },
        {
          "components": [
            {
              "internalType": "string",
              "name": "X",
              "type": "string"
            },
            {
              "internalType": "string",
              "name": "website",
              "type": "string"
            }
          ],
          "internalType": "struct MemeBuilder.SocialChannel",
          "name": "_socialChannel",
          "type": "tuple"
        },
        {
          "components": [
            {
              "internalType": "address",
              "name": "token",
              "type": "address"
            },
            {
              "internalType": "uint256",
              "name": "amount",
              "type": "uint256"
            },
            {
              "internalType": "uint256",
              "name": "platformFeeRate",
              "type": "uint256"
            },
            {
              "internalType": "uint256",
              "name": "communityDropRate",
              "type": "uint256"
            },
            {
              "internalType": "uint256",
              "name": "liquidityRate",
              "type": "uint256"
            },
            {
              "internalType": "uint256",
              "name": "investorRate",
              "type": "uint256"
            },
            {
              "internalType": "uint256",
              "name": "ownerRate",
              "type": "uint256"
            },
            {
              "internalType": "uint256",
              "name": "communityTreasuryRate",
              "type": "uint256"
            }
          ],
          "internalType": "struct MemeBuilder.MemeRequirement",
          "name": "_memeRequirement",
          "type": "tuple"
        }
      ],
      "name": "createMemeProposal",
      "outputs": [],
      "stateMutability": "nonpayable",
      "type": "function"
    },
    {
      "inputs": [
        {
          "internalType": "string",
          "name": "status",
          "type": "string"
        }
      ],
      "name": "getMemeProposalsByStatus",
      "outputs": [
        {
          "components": [
            {
              "internalType": "uint256",
              "name": "id",
              "type": "uint256"
            },
            {
              "internalType": "address",
              "name": "owner",
              "type": "address"
            },
            {
              "internalType": "string",
              "name": "name",
              "type": "string"
            },
            {
              "internalType": "string",
              "name": "symbol",
              "type": "string"
            },
            {
              "internalType": "uint256",
              "name": "supply",
              "type": "uint256"
            },
            {
              "internalType": "string",
              "name": "memeStory",
              "type": "string"
            },
            {
              "internalType": "string",
              "name": "logo",
              "type": "string"
            },
            {
              "internalType": "string",
              "name": "status",
              "type": "string"
            },
            {
              "components": [
                {
                  "internalType": "string",
                  "name": "X",
                  "type": "string"
                },
                {
                  "internalType": "string",
                  "name": "website",
                  "type": "string"
                }
              ],
              "internalType": "struct MemeBuilder.SocialChannel",
              "name": "socialChannel",
              "type": "tuple"
            },
            {
              "components": [
                {
                  "internalType": "address",
                  "name": "token",
                  "type": "address"
                },
                {
                  "internalType": "uint256",
                  "name": "amount",
                  "type": "uint256"
                },
                {
                  "internalType": "uint256",
                  "name": "platformFeeRate",
                  "type": "uint256"
                },
                {
                  "internalType": "uint256",
                  "name": "communityDropRate",
                  "type": "uint256"
                },
                {
                  "internalType": "uint256",
                  "name": "liquidityRate",
                  "type": "uint256"
                },
                {
                  "internalType": "uint256",
                  "name": "investorRate",
                  "type": "uint256"
                },
                {
                  "internalType": "uint256",
                  "name": "ownerRate",
                  "type": "uint256"
                },
                {
                  "internalType": "uint256",
                  "name": "communityTreasuryRate",
                  "type": "uint256"
                }
              ],
              "internalType": "struct MemeBuilder.MemeRequirement",
              "name": "memeRequirement",
              "type": "tuple"
            },
            {
              "internalType": "uint256",
              "name": "startVotingAt",
              "type": "uint256"
            },
            {
              "internalType": "uint256",
              "name": "startInvestmentAt",
              "type": "uint256"
            },
            {
              "internalType": "uint256",
              "name": "startVestingAt",
              "type": "uint256"
            },
            {
              "internalType": "uint256",
              "name": "voteYes",
              "type": "uint256"
            },
            {
              "internalType": "uint256",
              "name": "voteNo",
              "type": "uint256"
            },
            {
              "internalType": "uint256",
              "name": "risedAmount",
              "type": "uint256"
            }
          ],
          "internalType": "struct MemeBuilder.MemeProposal[]",
          "name": "",
          "type": "tuple[]"
        }
      ],
      "stateMutability": "view",
      "type": "function"
    },
    {
      "inputs": [
        {
          "internalType": "bytes32",
          "name": "role",
          "type": "bytes32"
        }
      ],
      "name": "getRoleAdmin",
      "outputs": [
        {
          "internalType": "bytes32",
          "name": "",
          "type": "bytes32"
        }
      ],
      "stateMutability": "view",
      "type": "function"
    },
    {
      "inputs": [
        {
          "internalType": "bytes32",
          "name": "role",
          "type": "bytes32"
        },
        {
          "internalType": "address",
          "name": "account",
          "type": "address"
        }
      ],
      "name": "grantRole",
      "outputs": [],
      "stateMutability": "nonpayable",
      "type": "function"
    },
    {
      "inputs": [
        {
          "internalType": "bytes32",
          "name": "role",
          "type": "bytes32"
        },
        {
          "internalType": "address",
          "name": "account",
          "type": "address"
        }
      ],
      "name": "hasRole",
      "outputs": [
        {
          "internalType": "bool",
          "name": "",
          "type": "bool"
        }
      ],
      "stateMutability": "view",
      "type": "function"
    },
    {
      "inputs": [
        {
          "internalType": "uint256",
          "name": "id",
          "type": "uint256"
        },
        {
          "internalType": "address",
          "name": "token",
          "type": "address"
        },
        {
          "internalType": "uint256",
          "name": "amount",
          "type": "uint256"
        }
      ],
      "name": "invest",
      "outputs": [],
      "stateMutability": "nonpayable",
      "type": "function"
    },
    {
      "inputs": [],
      "name": "investorAddress",
      "outputs": [
        {
          "internalType": "address",
          "name": "",
          "type": "address"
        }
      ],
      "stateMutability": "view",
      "type": "function"
    },
    {
      "inputs": [],
      "name": "lpVaultAddress",
      "outputs": [
        {
          "internalType": "address",
          "name": "",
          "type": "address"
        }
      ],
      "stateMutability": "view",
      "type": "function"
    },
    {
      "inputs": [
        {
          "internalType": "uint256[]",
          "name": "ids",
          "type": "uint256[]"
        }
      ],
      "name": "mintMeme",
      "outputs": [],
      "stateMutability": "nonpayable",
      "type": "function"
    },
    {
      "inputs": [],
      "name": "ownerAddress",
      "outputs": [
        {
          "internalType": "address",
          "name": "",
          "type": "address"
        }
      ],
      "stateMutability": "view",
      "type": "function"
    },
    {
      "inputs": [],
      "name": "platformFeeAddress",
      "outputs": [
        {
          "internalType": "address",
          "name": "",
          "type": "address"
        }
      ],
      "stateMutability": "view",
      "type": "function"
    },
    {
      "inputs": [],
      "name": "positionManager",
      "outputs": [
        {
          "internalType": "contract INonfungiblePositionManager",
          "name": "",
          "type": "address"
        }
      ],
      "stateMutability": "view",
      "type": "function"
    },
    {
      "inputs": [],
      "name": "positionManagerAddress",
      "outputs": [
        {
          "internalType": "address",
          "name": "",
          "type": "address"
        }
      ],
      "stateMutability": "view",
      "type": "function"
    },
    {
      "inputs": [
        {
          "internalType": "bytes32",
          "name": "role",
          "type": "bytes32"
        },
        {
          "internalType": "address",
          "name": "callerConfirmation",
          "type": "address"
        }
      ],
      "name": "renounceRole",
      "outputs": [],
      "stateMutability": "nonpayable",
      "type": "function"
    },
    {
      "inputs": [
        {
          "internalType": "bytes32",
          "name": "role",
          "type": "bytes32"
        },
        {
          "internalType": "address",
          "name": "account",
          "type": "address"
        }
      ],
      "name": "revokeRole",
      "outputs": [],
      "stateMutability": "nonpayable",
      "type": "function"
    },
    {
      "inputs": [
        {
          "internalType": "uint256",
          "name": "period",
          "type": "uint256"
        }
      ],
      "name": "setInvestPeriod",
      "outputs": [],
      "stateMutability": "nonpayable",
      "type": "function"
    },
    {
      "inputs": [
        {
          "internalType": "uint256",
          "name": "voter",
          "type": "uint256"
        }
      ],
      "name": "setMinimumVoter",
      "outputs": [],
      "stateMutability": "nonpayable",
      "type": "function"
    },
    {
      "inputs": [
        {
          "internalType": "uint256",
          "name": "period",
          "type": "uint256"
        }
      ],
      "name": "setVotePeriod",
      "outputs": [],
      "stateMutability": "nonpayable",
      "type": "function"
    },
    {
      "inputs": [
        {
          "internalType": "bytes4",
          "name": "interfaceId",
          "type": "bytes4"
        }
      ],
      "name": "supportsInterface",
      "outputs": [
        {
          "internalType": "bool",
          "name": "",
          "type": "bool"
        }
      ],
      "stateMutability": "view",
      "type": "function"
    },
    {
      "inputs": [
        {
          "internalType": "uint256",
          "name": "id",
          "type": "uint256"
        },
        {
          "internalType": "enum MemeBuilder.VoteResult",
          "name": "result",
          "type": "uint8"
        }
      ],
      "name": "vote",
      "outputs": [],
      "stateMutability": "nonpayable",
      "type": "function"
    },
    {
      "inputs": [
        {
          "internalType": "uint256",
          "name": "id",
          "type": "uint256"
        }
      ],
      "name": "voteResult",
      "outputs": [
        {
          "internalType": "bool",
          "name": "",
          "type": "bool"
        }
      ],
      "stateMutability": "view",
      "type": "function"
    }
  ],
  "bytecode": "0x6080604052346100c657600880546001600160a01b03191673427bf5b37357632377ecbec9de3626c71a5396c117905561012c600b55610258600c556005600d55610049336100cb565b5061005333610147565b5060018054336001600160a01b0319918216811790925560028054821683179055600380548216831790556004805482168317905560058054821683179055600680548216909217909155600854600780546001600160a01b039092169190921617905560405161311a90816101e08239f35b600080fd5b6001600160a01b038116600090815260008051602061333a833981519152602052604090205460ff16610141576001600160a01b0316600081815260008051602061333a83398151915260205260408120805460ff191660011790553391906000805160206132fa8339815191528180a4600190565b50600090565b6001600160a01b038116600090815260008051602061331a833981519152602052604090205460ff16610141576001600160a01b0316600081815260008051602061331a83398151915260205260408120805460ff191660011790553391907fd8aa0f3194971a2a116679f7c2090f6939c8d4e01a2a8d7e41d55e5351469e63906000805160206132fa8339815191529080a460019056fe60a080604052600436101561001357600080fd5b60003560e01c90816301ffc9a714611f0c5750806307bd026514611ed157806312e228fd14611ea8578063248a9ca314611e735780632f2ff15d14611e3357806336568abe14611ded5780634c8d7e5814611dcc5780635b9e98b814611da357806363a3dafe1461163957806367b1163014611618578063791b98bc146115ef5780637a8a1113146115c657806380d506b714610c7557806381c6588414610c4d57806382f85c3f14610c245780638f84aa0914610bfb57806391d1485414610bae578063943e82161461093c578063a217fddf14610920578063b15c4013146108ff578063d547741f146108ba578063e8ca921214610891578063ed14834f14610868578063f24a5576146102fb5763fecba3a51461013257600080fd5b346102f65760603660031901126102f65760043561014e611f5f565b60443590601361015d846120c1565b500154421015806102e0575b1561029b5761017783612233565b1561025d57610185836120c1565b50600a01546001600160a01b03918216911681900361022657606460209260176101b06000966120c1565b50016101bd82825461220e565b905560405194859384926323b872dd60e01b845233600485015230602485015260448401525af1801561021a576101f057005b6102119060203d602011610213575b6102098183611fc8565b81019061221b565b005b503d6101ff565b6040513d6000823e3d90fd5b60405162461bcd60e51b815260206004820152600f60248201526e496e76616c6964206164647265737360881b6044820152606490fd5b60405162461bcd60e51b8152602060048201526016602482015275159bdd19481c995cdd5b1d081b9bdd081c185cdcd95960521b6044820152606490fd5b60405162461bcd60e51b815260206004820152601b60248201527f496e766573746d656e7420706572696f642068617320656e64656400000000006044820152606490fd5b5060146102ec846120c1565b5001544210610169565b600080fd5b346102f65760203660031901126102f6576004356001600160401b0381116102f65761032b903690600401612000565b600a546000916020810190835b83811061082d575061034984611fe9565b936103576040519586611fc8565b808552610366601f1991611fe9565b0160005b81811061074d57505060009160005b84811061054a57856040518091602082016020835281518091526040830190602060408260051b8601019301916000905b8282106103b957505050500390f35b919360019193955060208091603f1989820301855287519081518152848060a01b038383015116838201526102c06101e061049a61046661045461044261042661041460408a01516102e060408b01526102e08a0190612056565b60608a015189820360608b0152612056565b6080890151608089015260a089015188820360a08a0152612056565b60c088015187820360c0890152612056565b60e087015186820360e0880152612056565b610100860151908581036101008701528761048a8351604084526040840190612056565b9201519088818403910152612056565b9360e0610120820151898060a01b03815116610120870152878101516101408701526040810151610160870152606081015161018087015260808101516101a087015260a08101516101c087015260c08101518487015201516102008501526101408101516102208501526101608101516102408501526101808101516102608501526101a08101516102808501526101c08101516102a0850152015191015296019201920185949391926103aa565b6007610570610558836120c1565b50610569604051809481930161211a565b0382611fc8565b602081519101208351832014610589575b600101610379565b92610745600191610599866120c1565b506017604051916105a983611fac565b80548352858060a01b03868201541660208401526040516105d181610569816002860161211a565b60408401526040516105ea81610569816003860161211a565b60608401526004810154608084015260405161060d81610569816005860161211a565b60a084015260405161062681610569816006860161211a565b60c084015260405161063f81610569816007860161211a565b60e084015260405161065081611f75565b60405161066481610569816008870161211a565b815260405161067a81610569816009870161211a565b602082015261010084015260405161069181611f90565b868060a01b03600a830154168152600b8201546020820152600c8201546040820152600d8201546060820152600e8201546080820152600f82015460a0820152601082015460c0820152601182015460e082015261012084015260128101546101408401526013810154610160840152601481015461018084015260158101546101a084015260168101546101c084015201546101e0820152610734828a612097565b5261073f8189612097565b50612289565b939050610581565b60209060405161075c81611fac565b600081526000838201526060604082015260608082015260006080820152606060a0820152606060c0820152606060e082015260405161079b81611f75565b606081526060848201526101008201526040516107b781611f90565b60008152600084820152600060408201526000606082015260006080820152600060a0820152600060c0820152600060e082015261012082015260006101408201526000610160820152600061018082015260006101a082015260006101c082015260006101e08201528282890101520161036a565b600761083b610558836120c1565b602081519101208251842014610854575b600101610338565b93610860600191612289565b94905061084c565b346102f65760003660031901126102f6576001546040516001600160a01b039091168152602090f35b346102f65760003660031901126102f6576006546040516001600160a01b039091168152602090f35b346102f65760403660031901126102f6576102116004356108d9611f5f565b906108fa6108f582600052600060205260016040600020015490565b6122eb565b6123b1565b346102f65760203660031901126102f657610918612298565b600435600d55005b346102f65760003660031901126102f657602060405160008152f35b346102f65760403660031901126102f65760043560243560028110156102f6576012610967836120c1565b50015442101580610b98575b15610b53576007610986610558846120c1565b60208151910120906040916006602084516109a18682611fc8565b8281520165564f54494e4760d01b81522003610b165760008381526009602090815283822033835290528290205460ff16610adc571560008115610abe5760156109ea856120c1565b50016109f68154612289565b90555b838152600960209081528382203383529052829020805460ff1916600117905560009015610a7b57507ff872c9dd43e62509c7276e545b258673a25292dbeb9756e834227c8a838186558151610a4f8382611fc8565b600381526259455360e81b6020820152915b516020815280610a7633946020830190612056565b0390a3005b507ff872c9dd43e62509c7276e545b258673a25292dbeb9756e834227c8a838186558151610aa98382611fc8565b60028152614e4f60f01b602082015291610a61565b6016610ac9856120c1565b5001610ad58154612289565b90556109f9565b815162461bcd60e51b8152602060048201526013602482015272566f74696e6720616c726561647920646f6e6560681b6044820152606490fd5b815162461bcd60e51b815260206004820152601660248201527550726f706f73616c206973206e6f7420766f74696e6760501b6044820152606490fd5b60405162461bcd60e51b815260206004820152601760248201527f566f74696e6720706572696f642068617320656e6465640000000000000000006044820152606490fd5b506013610ba4836120c1565b5001544210610973565b346102f65760403660031901126102f657610bc7611f5f565b600435600052600060205260406000209060018060a01b0316600052602052602060ff604060002054166040519015158152f35b346102f65760003660031901126102f6576004546040516001600160a01b039091168152602090f35b346102f65760003660031901126102f6576005546040516001600160a01b039091168152602090f35b346102f65760203660031901126102f6576020610c6b600435612233565b6040519015158152f35b346102f6576101c03660031901126102f6576004356001600160401b0381116102f657610ca6903690600401612000565b6024356001600160401b0381116102f657610cc5903690600401612000565b906064356001600160401b0381116102f657610ce5903690600401612000565b906084356001600160401b0381116102f657610d05903690600401612000565b9060a435906001600160401b0382116102f657604060031983360301126102f65760405191610d3383611f75565b80600401356001600160401b0381116102f657610d569060043691840101612000565b83526024810135906001600160401b0382116102f6576004610d7b9236920101612000565b60208301526101003660c31901126102f65760405192610d9a84611f90565b60c4356001600160a01b03811681036102f657845260e43560208501526101043560408501526101243560608501526101443560808501526101643560a08501526101843560c08501526101a43560e0850152600a5490600b54610e14610e0b610e04834261220e565b924261220e565b600c549061220e565b9160405197610e2289611fac565b8489526020890199338b5260408a0196875260608a015260443560808a015260a089015260c08801526040958651610e5a8882611fc8565b600a815269494e2d50524f4345535360b01b602082015260e089015261010088019586526101208801524261014088015261016087015261018086015260006101a086015260006101c086015260006101e0860152680100000000000000008110156112ee57806001610ed09201600a556120c1565b9590956115b05784518655516001860180546001600160a01b0319166001600160a01b0392909216919091179055518051906001600160401b0382116112ee578190610f2c82610f2360028a01546120e0565b60028a016121c7565b602090601f831160011461153f57600092611534575b50508160011b916000199060031b1c19161760028501555b6003840160608401518051906001600160401b0382116112ee578190610f8a82610f8486546120e0565b866121c7565b602090601f83116001146114cf576000926114c4575b50508160011b916000199060031b1c19161790555b608083015160048501556005840160a08401518051906001600160401b0382116112ee578190610fe982610f8486546120e0565b602090601f831160011461145f57600092611454575b50508160011b916000199060031b1c19161790555b6006840160c08401518051906001600160401b0382116112ee57819061103e82610f8486546120e0565b602090601f83116001146113ef576000926113e4575b50508160011b916000199060031b1c19161790555b6007840160e08401518051906001600160401b0382116112ee57819061109382610f8486546120e0565b602090601f831160011461137f57600092611374575b50508160011b916000199060031b1c19161790555b518051805160088601916001600160401b0382116112ee5781906110e682610f8486546120e0565b602090601f831160011461130f57600092611304575b50508160011b916000199060031b1c19161790555b60200151805160098501916001600160401b0382116112ee5761113e8261113885546120e0565b856121c7565b602090601f831160011461127d57928260e0936101e0969360179896600092611272575b50508160011b916000199060031b1c19161790555b6101208301518051600a88810180546001600160a01b0319166001600160a01b0393909316929092179091556020820151600b89015591810151600c8801556060810151600d8801556080810151600e88015560a0810151600f88015560c08101516010880155919091015160118601556101408201516012860155610160820151601386015561018082015160148601556101a082015160158601556101c08201516016860155910151919092015554600019810190811161125c57337fb0d4fb8322e1c826818f956c2bb5192f545c5df3ca526655ceb58d07ab3aa19e600080a3005b634e487b7160e01b600052601160045260246000fd5b015190508980611162565b90601f1983169184600052816000209260005b8181106112d65750936101e0969360179896936001938360e098106112bd575b505050811b019055611177565b015160001960f88460031b161c191690558980806112b0565b92936020600181928786015181550195019301611290565b634e487b7160e01b600052604160045260246000fd5b0151905087806110fc565b60008581528281209350601f198516905b81811061135c5750908460019594939210611343575b505050811b019055611111565b015160001960f88460031b161c19169055878080611336565b92936020600181928786015181550195019301611320565b0151905087806110a9565b60008581528281209350601f198516905b8181106113cc57509084600195949392106113b3575b505050811b0190556110be565b015160001960f88460031b161c191690558780806113a6565b92936020600181928786015181550195019301611390565b015190508780611054565b60008581528281209350601f198516905b81811061143c5750908460019594939210611423575b505050811b019055611069565b015160001960f88460031b161c19169055878080611416565b92936020600181928786015181550195019301611400565b015190508780610fff565b60008581528281209350601f198516905b8181106114ac5750908460019594939210611493575b505050811b019055611014565b015160001960f88460031b161c19169055878080611486565b92936020600181928786015181550195019301611470565b015190508780610fa0565b60008581528281209350601f198516905b81811061151c5750908460019594939210611503575b505050811b019055610fb5565b015160001960f88460031b161c191690558780806114f6565b929360206001819287860151815501950193016114e0565b015190508680610f42565b92506002870160005280600020906000935b601f1984168510611595576001945083601f1981161061157c575b505050811b016002850155610f5a565b015160001960f88460031b161c1916905586808061156c565b81810151835560209485019460019093019290910190611551565b634e487b7160e01b600052600060045260246000fd5b346102f65760003660031901126102f6576008546040516001600160a01b039091168152602090f35b346102f65760003660031901126102f6576007546040516001600160a01b039091168152602090f35b346102f65760203660031901126102f657611631612298565b600435600b55005b346102f65760203660031901126102f6576004356001600160401b0381116102f657366023820112156102f65780600401359061167582611fe9565b916116836040519384611fc8565b8083526024602084019160051b830101913683116102f657602401905b828210611d93573360009081527fdae2aa361dfd1ca020a396615627d436107c35eff9fe7738a3512819782d70696020526040902054849060ff1615611d5a576040608052600c6513525395115160d21b019042603c01610cb161243460005b845181101561021157600761173361172161171b8489612097565b516120c1565b5061056960805151809481930161211a565b60208151910120600660206080515161174e60805182611fc8565b828152016513525395115160d21b81522014611d1e5761176e8186612097565b51611778906120c1565b5060040154906117888187612097565b51611792906120c1565b50600c01546117a1908361219d565b6127109004916117b18288612097565b516117bb906120c1565b50600d01546117ca908261219d565b61271090046117d98389612097565b516117e3906120c1565b50600e01546117f2908361219d565b612710900491611802848a612097565b5161180c906120c1565b50600f015461181b908261219d565b50611826848a612097565b51611830906120c1565b506010015461183f908261219d565b5061184a848a612097565b51611854906120c1565b5060110154611863908261219d565b612710900490611873858b612097565b5161187d906120c1565b5090611889868c612097565b51611893906120c1565b509060805151928a8401908482106001600160401b038311176112ee5784936118dc6003926118eb958f8f8939308652602086015260808051860152600260808601910161211a565b9260608185039101520161211a565b03906000f08015611c375789908b600761190861171b8986612097565b500161191481546120e0565b601f8111611cfc575b50556001600160a01b031693601761195161171b8861193d828288612097565b50600a01546001600160a01b031695612097565b5001546006546001600160a01b03169290428c1061125c57608051519161012083018381106001600160401b038211176112ee578d93611a17938a9260805152828252602082019384526080518201956101f487526060830198888a5260808401928352602060a085019960018b5260c08601966001885260e08701938452610100870194855260018060a01b0360075416600060805151809c8195829463095ea7b360e01b84526004840160209093929193604081019460018060a01b031681520152565b03925af1968715611c3757611a6f97611ce0575b50855160075484516080515163095ea7b360e01b81526001600160a01b0392831660048201526024810191909152986020928a921690829060009082906044820190565b03925af1948515611c375760809961016498600097611cc4575b5062ffffff60018060a01b03600754169660018060a01b039051169860018060a01b039051169a51169b519451905191519260018060a01b039051169351948b51519c8d9b8c9a632d73711360e01b8c5260048c015260248b015260448a0152620d89b31960648a0152620d89b460848a015260a489015260c488015260e48701526101048601526101248501526101448401525af18015611c3757611c7a575b506001546080515163a9059cbb60e01b81526001600160a01b03909116600482015260248101959095526020856044816000875af1908115611c3757611ba895602092611c5f575b506005546080515163a9059cbb60e01b81526001600160a01b039091166004820152602481019190915294859081906044820190565b03816000865af1918215611c3757611bff94602093611c44575b506002546080515163a9059cbb60e01b81526001600160a01b03909116600482015260248101929092529093849190829060009082906044820190565b03925af1918215611c3757600192611c19575b5001611700565b611c309060203d8111610213576102098183611fc8565b5087611c12565b608051513d6000823e3d90fd5b611c5a90843d8111610213576102098183611fc8565b611bc2565b611c7590833d8111610213576102098183611fc8565b611b72565b6080813d8211611cbc575b81611c9260809383611fc8565b810103126102f657602001516fffffffffffffffffffffffffffffffff8116036102f6578a611b2a565b3d9150611c85565b611cdb9060203d8111610213576102098183611fc8565b611a89565b611cf79060203d8111610213576102098183611fc8565b611a2b565b611d189082600052601f6020600020910160051c8101906121b0565b8e61191d565b6080515162461bcd60e51b815260206004820152601360248201527213595b5948185b1c9958591e481b5a5b9d1959606a1b6044820152606490fd5b63e2517d3f60e01b600052336004527fd8aa0f3194971a2a116679f7c2090f6939c8d4e01a2a8d7e41d55e5351469e6360245260446000fd5b81358152602091820191016116a0565b346102f65760003660031901126102f6576002546040516001600160a01b039091168152602090f35b346102f65760203660031901126102f657611de5612298565b600435600c55005b346102f65760403660031901126102f657611e06611f5f565b336001600160a01b03821603611e2257610211906004356123b1565b63334bd91960e11b60005260046000fd5b346102f65760403660031901126102f657610211600435611e52611f5f565b90611e6e6108f582600052600060205260016040600020015490565b612326565b346102f65760203660031901126102f6576020611ea0600435600052600060205260016040600020015490565b604051908152f35b346102f65760003660031901126102f6576003546040516001600160a01b039091168152602090f35b346102f65760003660031901126102f65760206040517fd8aa0f3194971a2a116679f7c2090f6939c8d4e01a2a8d7e41d55e5351469e638152f35b346102f65760203660031901126102f6576004359063ffffffff60e01b82168092036102f657602091637965db0b60e01b8114908115611f4e575b5015158152f35b6301ffc9a760e01b14905083611f47565b602435906001600160a01b03821682036102f657565b604081019081106001600160401b038211176112ee57604052565b61010081019081106001600160401b038211176112ee57604052565b61020081019081106001600160401b038211176112ee57604052565b90601f801991011681019081106001600160401b038211176112ee57604052565b6001600160401b0381116112ee5760051b60200190565b81601f820112156102f6578035906001600160401b0382116112ee5760405192612034601f8401601f191660200185611fc8565b828452602083830101116102f657816000926020809301838601378301015290565b919082519283825260005b848110612082575050826000602080949584010152601f8019910116010190565b80602080928401015182828601015201612061565b80518210156120ab5760209160051b010190565b634e487b7160e01b600052603260045260246000fd5b600a548110156120ab57600a6000526018602060002091020190600090565b90600182811c92168015612110575b60208310146120fa57565b634e487b7160e01b600052602260045260246000fd5b91607f16916120ef565b6000929181549161212a836120e0565b8083529260018116908115612180575060011461214657505050565b60009081526020812093945091925b838310612166575060209250010190565b600181602092949394548385870101520191019190612155565b915050602093945060ff929192191683830152151560051b010190565b8181029291811591840414171561125c57565b8181106121bb575050565b600081556001016121b0565b9190601f81116121d657505050565b612202926000526020600020906020601f840160051c83019310612204575b601f0160051c01906121b0565b565b90915081906121f5565b9190820180921161125c57565b908160209103126102f6575180151581036102f65790565b6122586015612241836120c1565b500154601661224f846120c1565b5001549061220e565b600d541115906016612277601561226e846120c1565b500154926120c1565b5001541081612284575090565b905090565b600019811461125c5760010190565b3360009081527fad3228b676f7d3cd4284a5443f17f1962b36e491b30a40b2405849e597ba5fb5602052604090205460ff16156122d157565b63e2517d3f60e01b60005233600452600060245260446000fd5b60008181526020818152604080832033845290915290205460ff161561230e5750565b63e2517d3f60e01b6000523360045260245260446000fd5b6000818152602081815260408083206001600160a01b038616845290915290205460ff166123aa576000818152602081815260408083206001600160a01b0395909516808452949091528120805460ff19166001179055339291907f2f8788117e7eff1d82e926ec794901d17c78024a50270940304540a733656f0d9080a4600190565b5050600090565b6000818152602081815260408083206001600160a01b038616845290915290205460ff16156123aa576000818152602081815260408083206001600160a01b0395909516808452949091528120805460ff19169055339291907ff6391f5c32d9c69d2a47ea670b442974b53935d1edc7fd64eb21e047a839171b9080a460019056fe60806040523461042457610cb18038038061001981610429565b9283398101906080818303126104245780516001600160a01b038116919082810361042457602082015160408301519092906001600160401b038111610424578561006591830161044e565b60608201519095906001600160401b03811161042457610085920161044e565b845190946001600160401b0382116103215760035490600182811c9216801561041a575b60208310146103015781601f8493116103aa575b50602090601f831160011461034257600092610337575b50508160011b916000199060031b1c1916176003555b83516001600160401b03811161032157600454600181811c91168015610317575b602082101461030157601f811161029c575b50602094601f82116001146102355794819293949560009261022a575b50508160011b916000199060031b1c1916176004555b82156102145780610163610168926104b9565b6104b9565b670de0b6b3a7640000810290808204670de0b6b3a764000014901517156101fe5760006002548281018091116101ea576000927fddf252ad1be2c89b69c2b068fc378daa952ba7f163c4a11628f55a4df523b3ef926020926002555084845283825260408420818154019055604051908152a36040516107ae90816105038239f35b634e487b7160e01b82526011600452602482fd5b634e487b7160e01b600052601160045260246000fd5b631e4fbdf760e01b600052600060045260246000fd5b01519050388061013a565b601f198216956004600052806000209160005b8881106102845750836001959697981061026b575b505050811b01600455610150565b015160001960f88460031b161c1916905538808061025d565b91926020600181928685015181550194019201610248565b60046000527f8a35acfbc15ff81a39ae7d344fd709f28e8600b4aa8c65c6b64bfe7fe36bd19b601f830160051c810191602084106102f7575b601f0160051c01905b8181106102eb575061011d565b600081556001016102de565b90915081906102d5565b634e487b7160e01b600052602260045260246000fd5b90607f169061010b565b634e487b7160e01b600052604160045260246000fd5b0151905038806100d4565b600360009081528281209350601f198516905b8181106103925750908460019594939210610379575b505050811b016003556100ea565b015160001960f88460031b161c1916905538808061036b565b92936020600181928786015181550195019301610355565b60036000529091507fc2575a0e9e593c00f959f8c92f12db2869c3395a3b0502d05e2516446f71f85b601f840160051c81019160208510610410575b90601f859493920160051c01905b81811061040157506100bd565b600081558493506001016103f4565b90915081906103e6565b91607f16916100a9565b600080fd5b6040519190601f01601f191682016001600160401b0381118382101761032157604052565b81601f82011215610424578051906001600160401b0382116103215761047d601f8301601f1916602001610429565b92828452602083830101116104245760005b8281106104a457505060206000918301015290565b8060208092840101518282870101520161048f565b600580546001600160a01b039283166001600160a01b0319821681179092559091167f8be0079c531659141344cd1fd0a4f28419497f9722a3daafe3b4186f6b6457e0600080a356fe608080604052600436101561001357600080fd5b60003560e01c90816306fdde031461054257508063095ea7b3146104bc57806318160ddd1461049e57806323b872dd146103b1578063313ce5671461039557806370a082311461035b578063715018a6146102fe5780638da5cb5b146102d557806395d89b41146101b4578063a9059cbb14610183578063dd62ed3e146101325763f2fde38b146100a357600080fd5b3461012d57602036600319011261012d576100bc61065e565b6100c461074f565b6001600160a01b0316801561011757600580546001600160a01b0319811683179091556001600160a01b03167f8be0079c531659141344cd1fd0a4f28419497f9722a3daafe3b4186f6b6457e0600080a3005b631e4fbdf760e01b600052600060045260246000fd5b600080fd5b3461012d57604036600319011261012d5761014b61065e565b610153610674565b6001600160a01b039182166000908152600160209081526040808320949093168252928352819020549051908152f35b3461012d57604036600319011261012d576101a961019f61065e565b602435903361068a565b602060405160018152f35b3461012d57600036600319011261012d5760405160006004548060011c906001811680156102cb575b6020831081146102b75782855290811561029b5750600114610244575b50819003601f01601f191681019067ffffffffffffffff82118183101761022e5761022a82918260405282610615565b0390f35b634e487b7160e01b600052604160045260246000fd5b905060046000527f8a35acfbc15ff81a39ae7d344fd709f28e8600b4aa8c65c6b64bfe7fe36bd19b6000905b828210610285575060209150820101826101fa565b6001816020925483858801015201910190610270565b90506020925060ff191682840152151560051b820101826101fa565b634e487b7160e01b84526022600452602484fd5b91607f16916101dd565b3461012d57600036600319011261012d576005546040516001600160a01b039091168152602090f35b3461012d57600036600319011261012d5761031761074f565b600580546001600160a01b031981169091556000906001600160a01b03167f8be0079c531659141344cd1fd0a4f28419497f9722a3daafe3b4186f6b6457e08280a3005b3461012d57602036600319011261012d576001600160a01b0361037c61065e565b1660005260006020526020604060002054604051908152f35b3461012d57600036600319011261012d57602060405160128152f35b3461012d57606036600319011261012d576103ca61065e565b6103d2610674565b6001600160a01b0382166000818152600160208181526040808420338552909152909120549193604435939290918101610412575b506101a9935061068a565b83811061048157841561046b573315610455576101a9946000526001602052604060002060018060a01b0333166000526020528360406000209103905584610407565b634a1406b160e11b600052600060045260246000fd5b63e602df0560e01b600052600060045260246000fd5b8390637dc7a0d960e11b6000523360045260245260445260646000fd5b3461012d57600036600319011261012d576020600254604051908152f35b3461012d57604036600319011261012d576104d561065e565b60243590331561046b576001600160a01b031690811561045557336000526001602052604060002082600052602052806040600020556040519081527f8c5be1e5ebec7d5bd14f71427d1e84f3dd0314c0f7b2291e5b200ac8c7c3b92560203392a3602060405160018152f35b3461012d57600036600319011261012d5760006003548060011c9060018116801561060b575b6020831081146102b75782855290811561029b57506001146105b45750819003601f01601f191681019067ffffffffffffffff82118183101761022e5761022a82918260405282610615565b905060036000527fc2575a0e9e593c00f959f8c92f12db2869c3395a3b0502d05e2516446f71f85b6000905b8282106105f5575060209150820101826101fa565b60018160209254838588010152019101906105e0565b91607f1691610568565b91909160208152825180602083015260005b818110610648575060409293506000838284010152601f8019910116010190565b8060208092870101516040828601015201610627565b600435906001600160a01b038216820361012d57565b602435906001600160a01b038216820361012d57565b6001600160a01b0316908115610739576001600160a01b03169182156107235760008281528060205260408120548281106107095791604082827fddf252ad1be2c89b69c2b068fc378daa952ba7f163c4a11628f55a4df523b3ef958760209652828652038282205586815280845220818154019055604051908152a3565b916064928463391434e360e21b8452600452602452604452fd5b63ec442f0560e01b600052600060045260246000fd5b634b637e8f60e11b600052600060045260246000fd5b6005546001600160a01b0316330361076357565b63118cdaa760e01b6000523360045260246000fdfea2646970667358221220f4e3154817bc6315e7cbdab2691b908aade2dce29ebc780e0606b7766a8abbc364736f6c634300081b0033a26469706673582212203d0c8feff5d49df2b1d03a6559c7717033a5b3e8dde98111e48ab7943cbbaee964736f6c634300081b00332f8788117e7eff1d82e926ec794901d17c78024a50270940304540a733656f0ddae2aa361dfd1ca020a396615627d436107c35eff9fe7738a3512819782d7069ad3228b676f7d3cd4284a5443f17f1962b36e491b30a40b2405849e597ba5fb5",
  "linkReferences": {},
  "deployedLinkReferences": {}
}