{
  "_format": "hh-sol-artifact-1",
  "contractName": "MemeBuilder",
  "sourceName": "contracts/MemeBuilder.sol",
  "abi": [
    {
      "inputs": [],
      "stateMutability": "nonpayable",
      "type": "constructor"
    },
    {
      "inputs": [],
      "name": "AccessControlBadConfirmation",
      "type": "error"
    },
    {
      "inputs": [
        {
          "internalType": "address",
          "name": "account",
          "type": "address"
        },
        {
          "internalType": "bytes32",
          "name": "neededRole",
          "type": "bytes32"
        }
      ],
      "name": "AccessControlUnauthorizedAccount",
      "type": "error"
    },
    {
      "anonymous": false,
      "inputs": [
        {
          "indexed": true,
          "internalType": "address",
          "name": "user",
          "type": "address"
        },
        {
          "indexed": true,
          "internalType": "uint256",
          "name": "index",
          "type": "uint256"
        }
      ],
      "name": "NewMemeProposal",
      "type": "event"
    },
    {
      "anonymous": false,
      "inputs": [
        {
          "indexed": true,
          "internalType": "bytes32",
          "name": "role",
          "type": "bytes32"
        },
        {
          "indexed": true,
          "internalType": "bytes32",
          "name": "previousAdminRole",
          "type": "bytes32"
        },
        {
          "indexed": true,
          "internalType": "bytes32",
          "name": "newAdminRole",
          "type": "bytes32"
        }
      ],
      "name": "RoleAdminChanged",
      "type": "event"
    },
    {
      "anonymous": false,
      "inputs": [
        {
          "indexed": true,
          "internalType": "bytes32",
          "name": "role",
          "type": "bytes32"
        },
        {
          "indexed": true,
          "internalType": "address",
          "name": "account",
          "type": "address"
        },
        {
          "indexed": true,
          "internalType": "address",
          "name": "sender",
          "type": "address"
        }
      ],
      "name": "RoleGranted",
      "type": "event"
    },
    {
      "anonymous": false,
      "inputs": [
        {
          "indexed": true,
          "internalType": "bytes32",
          "name": "role",
          "type": "bytes32"
        },
        {
          "indexed": true,
          "internalType": "address",
          "name": "account",
          "type": "address"
        },
        {
          "indexed": true,
          "internalType": "address",
          "name": "sender",
          "type": "address"
        }
      ],
      "name": "RoleRevoked",
      "type": "event"
    },
    {
      "anonymous": false,
      "inputs": [
        {
          "indexed": true,
          "internalType": "uint256",
          "name": "id",
          "type": "uint256"
        }
      ],
      "name": "SetFailed",
      "type": "event"
    },
    {
      "anonymous": false,
      "inputs": [
        {
          "indexed": true,
          "internalType": "address",
          "name": "tokenAddress",
          "type": "address"
        },
        {
          "indexed": true,
          "internalType": "address",
          "name": "owner",
          "type": "address"
        },
        {
          "indexed": false,
          "internalType": "uint256",
          "name": "initialSupply",
          "type": "uint256"
        }
      ],
      "name": "TokenCreated",
      "type": "event"
    },
    {
      "anonymous": false,
      "inputs": [
        {
          "indexed": true,
          "internalType": "address",
          "name": "voter",
          "type": "address"
        },
        {
          "indexed": false,
          "internalType": "string",
          "name": "result",
          "type": "string"
        },
        {
          "indexed": true,
          "internalType": "uint256",
          "name": "id",
          "type": "uint256"
        }
      ],
      "name": "Vote",
      "type": "event"
    },
    {
      "inputs": [],
      "name": "DEFAULT_ADMIN_ROLE",
      "outputs": [
        {
          "internalType": "bytes32",
          "name": "",
          "type": "bytes32"
        }
      ],
      "stateMutability": "view",
      "type": "function"
    },
    {
      "inputs": [],
      "name": "EXECUTOR_ROLE",
      "outputs": [
        {
          "internalType": "bytes32",
          "name": "",
          "type": "bytes32"
        }
      ],
      "stateMutability": "view",
      "type": "function"
    },
    {
      "inputs": [
        {
          "internalType": "uint256[]",
          "name": "ids",
          "type": "uint256[]"
        }
      ],
      "name": "cleanMeme",
      "outputs": [],
      "stateMutability": "nonpayable",
      "type": "function"
    },
    {
      "inputs": [],
      "name": "communityTreasuryAddress",
      "outputs": [
        {
          "internalType": "address",
          "name": "",
          "type": "address"
        }
      ],
      "stateMutability": "view",
      "type": "function"
    },
    {
      "inputs": [
        {
          "internalType": "string",
          "name": "_name",
          "type": "string"
        },
        {
          "internalType": "string",
          "name": "_symbol",
          "type": "string"
        },
        {
          "internalType": "uint256",
          "name": "_supply",
          "type": "uint256"
        },
        {
          "internalType": "string",
          "name": "_memeStory",
          "type": "string"
        },
        {
          "internalType": "string",
          "name": "_logo",
          "type": "string"
        },
        {
          "components": [
            {
              "internalType": "string",
              "name": "X",
              "type": "string"
            },
            {
              "internalType": "string",
              "name": "website",
              "type": "string"
            },
            {
              "internalType": "string",
              "name": "telegram",
              "type": "string"
            }
          ],
          "internalType": "struct MemeBuilder.SocialChannel",
          "name": "_socialChannel",
          "type": "tuple"
        },
        {
          "components": [
            {
              "internalType": "address",
              "name": "token",
              "type": "address"
            },
            {
              "internalType": "uint256",
              "name": "amount",
              "type": "uint256"
            },
            {
              "internalType": "uint256",
              "name": "liquidityRate",
              "type": "uint256"
            },
            {
              "internalType": "uint256",
              "name": "investorRate",
              "type": "uint256"
            },
            {
              "internalType": "uint256",
              "name": "ownerRate",
              "type": "uint256"
            },
            {
              "internalType": "uint256",
              "name": "communityTreasuryRate",
              "type": "uint256"
            }
          ],
          "internalType": "struct MemeBuilder.MemeRequirement",
          "name": "_memeRequirement",
          "type": "tuple"
        }
      ],
      "name": "createMemeProposal",
      "outputs": [],
      "stateMutability": "nonpayable",
      "type": "function"
    },
    {
      "inputs": [],
      "name": "factoryAddress",
      "outputs": [
        {
          "internalType": "address",
          "name": "",
          "type": "address"
        }
      ],
      "stateMutability": "view",
      "type": "function"
    },
    {
      "inputs": [
        {
          "internalType": "uint256",
          "name": "_page",
          "type": "uint256"
        },
        {
          "internalType": "uint256",
          "name": "_pageSize",
          "type": "uint256"
        }
      ],
      "name": "getInvestingProposals",
      "outputs": [
        {
          "components": [
            {
              "internalType": "uint256",
              "name": "id",
              "type": "uint256"
            },
            {
              "internalType": "address",
              "name": "owner",
              "type": "address"
            },
            {
              "internalType": "string",
              "name": "name",
              "type": "string"
            },
            {
              "internalType": "string",
              "name": "symbol",
              "type": "string"
            },
            {
              "internalType": "uint256",
              "name": "supply",
              "type": "uint256"
            },
            {
              "internalType": "string",
              "name": "memeStory",
              "type": "string"
            },
            {
              "internalType": "string",
              "name": "logo",
              "type": "string"
            },
            {
              "internalType": "string",
              "name": "status",
              "type": "string"
            },
            {
              "components": [
                {
                  "internalType": "string",
                  "name": "X",
                  "type": "string"
                },
                {
                  "internalType": "string",
                  "name": "website",
                  "type": "string"
                },
                {
                  "internalType": "string",
                  "name": "telegram",
                  "type": "string"
                }
              ],
              "internalType": "struct MemeBuilder.SocialChannel",
              "name": "socialChannel",
              "type": "tuple"
            },
            {
              "components": [
                {
                  "internalType": "address",
                  "name": "token",
                  "type": "address"
                },
                {
                  "internalType": "uint256",
                  "name": "amount",
                  "type": "uint256"
                },
                {
                  "internalType": "uint256",
                  "name": "liquidityRate",
                  "type": "uint256"
                },
                {
                  "internalType": "uint256",
                  "name": "investorRate",
                  "type": "uint256"
                },
                {
                  "internalType": "uint256",
                  "name": "ownerRate",
                  "type": "uint256"
                },
                {
                  "internalType": "uint256",
                  "name": "communityTreasuryRate",
                  "type": "uint256"
                }
              ],
              "internalType": "struct MemeBuilder.MemeRequirement",
              "name": "memeRequirement",
              "type": "tuple"
            },
            {
              "internalType": "uint256",
              "name": "startVotingAt",
              "type": "uint256"
            },
            {
              "internalType": "uint256",
              "name": "startInvestmentAt",
              "type": "uint256"
            },
            {
              "internalType": "uint256",
              "name": "startVestingAt",
              "type": "uint256"
            },
            {
              "internalType": "uint256",
              "name": "voteYes",
              "type": "uint256"
            },
            {
              "internalType": "uint256",
              "name": "voteNo",
              "type": "uint256"
            },
            {
              "internalType": "uint256",
              "name": "risedAmount",
              "type": "uint256"
            },
            {
              "internalType": "uint256",
              "name": "minimumVoter",
              "type": "uint256"
            },
            {
              "internalType": "uint256",
              "name": "minimumInvestmentAmount",
              "type": "uint256"
            },
            {
              "internalType": "uint256",
              "name": "maximumInvestmentAmount",
              "type": "uint256"
            }
          ],
          "internalType": "struct MemeBuilder.MemeProposal[]",
          "name": "",
          "type": "tuple[]"
        }
      ],
      "stateMutability": "view",
      "type": "function"
    },
    {
      "inputs": [
        {
          "internalType": "string",
          "name": "status",
          "type": "string"
        }
      ],
      "name": "getMemeProposalsByStatus",
      "outputs": [
        {
          "components": [
            {
              "internalType": "uint256",
              "name": "id",
              "type": "uint256"
            },
            {
              "internalType": "address",
              "name": "owner",
              "type": "address"
            },
            {
              "internalType": "string",
              "name": "name",
              "type": "string"
            },
            {
              "internalType": "string",
              "name": "symbol",
              "type": "string"
            },
            {
              "internalType": "uint256",
              "name": "supply",
              "type": "uint256"
            },
            {
              "internalType": "string",
              "name": "memeStory",
              "type": "string"
            },
            {
              "internalType": "string",
              "name": "logo",
              "type": "string"
            },
            {
              "internalType": "string",
              "name": "status",
              "type": "string"
            },
            {
              "components": [
                {
                  "internalType": "string",
                  "name": "X",
                  "type": "string"
                },
                {
                  "internalType": "string",
                  "name": "website",
                  "type": "string"
                },
                {
                  "internalType": "string",
                  "name": "telegram",
                  "type": "string"
                }
              ],
              "internalType": "struct MemeBuilder.SocialChannel",
              "name": "socialChannel",
              "type": "tuple"
            },
            {
              "components": [
                {
                  "internalType": "address",
                  "name": "token",
                  "type": "address"
                },
                {
                  "internalType": "uint256",
                  "name": "amount",
                  "type": "uint256"
                },
                {
                  "internalType": "uint256",
                  "name": "liquidityRate",
                  "type": "uint256"
                },
                {
                  "internalType": "uint256",
                  "name": "investorRate",
                  "type": "uint256"
                },
                {
                  "internalType": "uint256",
                  "name": "ownerRate",
                  "type": "uint256"
                },
                {
                  "internalType": "uint256",
                  "name": "communityTreasuryRate",
                  "type": "uint256"
                }
              ],
              "internalType": "struct MemeBuilder.MemeRequirement",
              "name": "memeRequirement",
              "type": "tuple"
            },
            {
              "internalType": "uint256",
              "name": "startVotingAt",
              "type": "uint256"
            },
            {
              "internalType": "uint256",
              "name": "startInvestmentAt",
              "type": "uint256"
            },
            {
              "internalType": "uint256",
              "name": "startVestingAt",
              "type": "uint256"
            },
            {
              "internalType": "uint256",
              "name": "voteYes",
              "type": "uint256"
            },
            {
              "internalType": "uint256",
              "name": "voteNo",
              "type": "uint256"
            },
            {
              "internalType": "uint256",
              "name": "risedAmount",
              "type": "uint256"
            },
            {
              "internalType": "uint256",
              "name": "minimumVoter",
              "type": "uint256"
            },
            {
              "internalType": "uint256",
              "name": "minimumInvestmentAmount",
              "type": "uint256"
            },
            {
              "internalType": "uint256",
              "name": "maximumInvestmentAmount",
              "type": "uint256"
            }
          ],
          "internalType": "struct MemeBuilder.MemeProposal[]",
          "name": "",
          "type": "tuple[]"
        }
      ],
      "stateMutability": "view",
      "type": "function"
    },
    {
      "inputs": [
        {
          "internalType": "uint256",
          "name": "_page",
          "type": "uint256"
        },
        {
          "internalType": "uint256",
          "name": "_pageSize",
          "type": "uint256"
        }
      ],
      "name": "getMentedMemes",
      "outputs": [
        {
          "components": [
            {
              "internalType": "uint256",
              "name": "id",
              "type": "uint256"
            },
            {
              "internalType": "address",
              "name": "owner",
              "type": "address"
            },
            {
              "internalType": "string",
              "name": "name",
              "type": "string"
            },
            {
              "internalType": "string",
              "name": "symbol",
              "type": "string"
            },
            {
              "internalType": "uint256",
              "name": "supply",
              "type": "uint256"
            },
            {
              "internalType": "string",
              "name": "memeStory",
              "type": "string"
            },
            {
              "internalType": "string",
              "name": "logo",
              "type": "string"
            },
            {
              "internalType": "string",
              "name": "status",
              "type": "string"
            },
            {
              "components": [
                {
                  "internalType": "string",
                  "name": "X",
                  "type": "string"
                },
                {
                  "internalType": "string",
                  "name": "website",
                  "type": "string"
                },
                {
                  "internalType": "string",
                  "name": "telegram",
                  "type": "string"
                }
              ],
              "internalType": "struct MemeBuilder.SocialChannel",
              "name": "socialChannel",
              "type": "tuple"
            },
            {
              "components": [
                {
                  "internalType": "address",
                  "name": "token",
                  "type": "address"
                },
                {
                  "internalType": "uint256",
                  "name": "amount",
                  "type": "uint256"
                },
                {
                  "internalType": "uint256",
                  "name": "liquidityRate",
                  "type": "uint256"
                },
                {
                  "internalType": "uint256",
                  "name": "investorRate",
                  "type": "uint256"
                },
                {
                  "internalType": "uint256",
                  "name": "ownerRate",
                  "type": "uint256"
                },
                {
                  "internalType": "uint256",
                  "name": "communityTreasuryRate",
                  "type": "uint256"
                }
              ],
              "internalType": "struct MemeBuilder.MemeRequirement",
              "name": "memeRequirement",
              "type": "tuple"
            },
            {
              "internalType": "uint256",
              "name": "startVotingAt",
              "type": "uint256"
            },
            {
              "internalType": "uint256",
              "name": "startInvestmentAt",
              "type": "uint256"
            },
            {
              "internalType": "uint256",
              "name": "startVestingAt",
              "type": "uint256"
            },
            {
              "internalType": "uint256",
              "name": "voteYes",
              "type": "uint256"
            },
            {
              "internalType": "uint256",
              "name": "voteNo",
              "type": "uint256"
            },
            {
              "internalType": "uint256",
              "name": "risedAmount",
              "type": "uint256"
            },
            {
              "internalType": "uint256",
              "name": "minimumVoter",
              "type": "uint256"
            },
            {
              "internalType": "uint256",
              "name": "minimumInvestmentAmount",
              "type": "uint256"
            },
            {
              "internalType": "uint256",
              "name": "maximumInvestmentAmount",
              "type": "uint256"
            }
          ],
          "internalType": "struct MemeBuilder.MemeProposal[]",
          "name": "",
          "type": "tuple[]"
        }
      ],
      "stateMutability": "view",
      "type": "function"
    },
    {
      "inputs": [
        {
          "internalType": "uint256",
          "name": "_page",
          "type": "uint256"
        },
        {
          "internalType": "uint256",
          "name": "_pageSize",
          "type": "uint256"
        },
        {
          "internalType": "address",
          "name": "_address",
          "type": "address"
        }
      ],
      "name": "getMyInvestedProposals",
      "outputs": [
        {
          "components": [
            {
              "internalType": "uint256",
              "name": "id",
              "type": "uint256"
            },
            {
              "internalType": "address",
              "name": "owner",
              "type": "address"
            },
            {
              "internalType": "string",
              "name": "name",
              "type": "string"
            },
            {
              "internalType": "string",
              "name": "symbol",
              "type": "string"
            },
            {
              "internalType": "uint256",
              "name": "supply",
              "type": "uint256"
            },
            {
              "internalType": "string",
              "name": "memeStory",
              "type": "string"
            },
            {
              "internalType": "string",
              "name": "logo",
              "type": "string"
            },
            {
              "internalType": "string",
              "name": "status",
              "type": "string"
            },
            {
              "components": [
                {
                  "internalType": "string",
                  "name": "X",
                  "type": "string"
                },
                {
                  "internalType": "string",
                  "name": "website",
                  "type": "string"
                },
                {
                  "internalType": "string",
                  "name": "telegram",
                  "type": "string"
                }
              ],
              "internalType": "struct MemeBuilder.SocialChannel",
              "name": "socialChannel",
              "type": "tuple"
            },
            {
              "components": [
                {
                  "internalType": "address",
                  "name": "token",
                  "type": "address"
                },
                {
                  "internalType": "uint256",
                  "name": "amount",
                  "type": "uint256"
                },
                {
                  "internalType": "uint256",
                  "name": "liquidityRate",
                  "type": "uint256"
                },
                {
                  "internalType": "uint256",
                  "name": "investorRate",
                  "type": "uint256"
                },
                {
                  "internalType": "uint256",
                  "name": "ownerRate",
                  "type": "uint256"
                },
                {
                  "internalType": "uint256",
                  "name": "communityTreasuryRate",
                  "type": "uint256"
                }
              ],
              "internalType": "struct MemeBuilder.MemeRequirement",
              "name": "memeRequirement",
              "type": "tuple"
            },
            {
              "internalType": "uint256",
              "name": "startVotingAt",
              "type": "uint256"
            },
            {
              "internalType": "uint256",
              "name": "startInvestmentAt",
              "type": "uint256"
            },
            {
              "internalType": "uint256",
              "name": "startVestingAt",
              "type": "uint256"
            },
            {
              "internalType": "uint256",
              "name": "voteYes",
              "type": "uint256"
            },
            {
              "internalType": "uint256",
              "name": "voteNo",
              "type": "uint256"
            },
            {
              "internalType": "uint256",
              "name": "risedAmount",
              "type": "uint256"
            },
            {
              "internalType": "uint256",
              "name": "minimumVoter",
              "type": "uint256"
            },
            {
              "internalType": "uint256",
              "name": "minimumInvestmentAmount",
              "type": "uint256"
            },
            {
              "internalType": "uint256",
              "name": "maximumInvestmentAmount",
              "type": "uint256"
            }
          ],
          "internalType": "struct MemeBuilder.MemeProposal[]",
          "name": "",
          "type": "tuple[]"
        }
      ],
      "stateMutability": "view",
      "type": "function"
    },
    {
      "inputs": [
        {
          "internalType": "uint256",
          "name": "_page",
          "type": "uint256"
        },
        {
          "internalType": "uint256",
          "name": "_pageSize",
          "type": "uint256"
        },
        {
          "internalType": "address",
          "name": "owner",
          "type": "address"
        }
      ],
      "name": "getMyProposals",
      "outputs": [
        {
          "components": [
            {
              "internalType": "uint256",
              "name": "id",
              "type": "uint256"
            },
            {
              "internalType": "address",
              "name": "owner",
              "type": "address"
            },
            {
              "internalType": "string",
              "name": "name",
              "type": "string"
            },
            {
              "internalType": "string",
              "name": "symbol",
              "type": "string"
            },
            {
              "internalType": "uint256",
              "name": "supply",
              "type": "uint256"
            },
            {
              "internalType": "string",
              "name": "memeStory",
              "type": "string"
            },
            {
              "internalType": "string",
              "name": "logo",
              "type": "string"
            },
            {
              "internalType": "string",
              "name": "status",
              "type": "string"
            },
            {
              "components": [
                {
                  "internalType": "string",
                  "name": "X",
                  "type": "string"
                },
                {
                  "internalType": "string",
                  "name": "website",
                  "type": "string"
                },
                {
                  "internalType": "string",
                  "name": "telegram",
                  "type": "string"
                }
              ],
              "internalType": "struct MemeBuilder.SocialChannel",
              "name": "socialChannel",
              "type": "tuple"
            },
            {
              "components": [
                {
                  "internalType": "address",
                  "name": "token",
                  "type": "address"
                },
                {
                  "internalType": "uint256",
                  "name": "amount",
                  "type": "uint256"
                },
                {
                  "internalType": "uint256",
                  "name": "liquidityRate",
                  "type": "uint256"
                },
                {
                  "internalType": "uint256",
                  "name": "investorRate",
                  "type": "uint256"
                },
                {
                  "internalType": "uint256",
                  "name": "ownerRate",
                  "type": "uint256"
                },
                {
                  "internalType": "uint256",
                  "name": "communityTreasuryRate",
                  "type": "uint256"
                }
              ],
              "internalType": "struct MemeBuilder.MemeRequirement",
              "name": "memeRequirement",
              "type": "tuple"
            },
            {
              "internalType": "uint256",
              "name": "startVotingAt",
              "type": "uint256"
            },
            {
              "internalType": "uint256",
              "name": "startInvestmentAt",
              "type": "uint256"
            },
            {
              "internalType": "uint256",
              "name": "startVestingAt",
              "type": "uint256"
            },
            {
              "internalType": "uint256",
              "name": "voteYes",
              "type": "uint256"
            },
            {
              "internalType": "uint256",
              "name": "voteNo",
              "type": "uint256"
            },
            {
              "internalType": "uint256",
              "name": "risedAmount",
              "type": "uint256"
            },
            {
              "internalType": "uint256",
              "name": "minimumVoter",
              "type": "uint256"
            },
            {
              "internalType": "uint256",
              "name": "minimumInvestmentAmount",
              "type": "uint256"
            },
            {
              "internalType": "uint256",
              "name": "maximumInvestmentAmount",
              "type": "uint256"
            }
          ],
          "internalType": "struct MemeBuilder.MemeProposal[]",
          "name": "",
          "type": "tuple[]"
        }
      ],
      "stateMutability": "view",
      "type": "function"
    },
    {
      "inputs": [
        {
          "internalType": "uint256",
          "name": "_page",
          "type": "uint256"
        },
        {
          "internalType": "uint256",
          "name": "_pageSize",
          "type": "uint256"
        },
        {
          "internalType": "address",
          "name": "_address",
          "type": "address"
        }
      ],
      "name": "getMyVotedProposals",
      "outputs": [
        {
          "components": [
            {
              "internalType": "uint256",
              "name": "id",
              "type": "uint256"
            },
            {
              "internalType": "address",
              "name": "owner",
              "type": "address"
            },
            {
              "internalType": "string",
              "name": "name",
              "type": "string"
            },
            {
              "internalType": "string",
              "name": "symbol",
              "type": "string"
            },
            {
              "internalType": "uint256",
              "name": "supply",
              "type": "uint256"
            },
            {
              "internalType": "string",
              "name": "memeStory",
              "type": "string"
            },
            {
              "internalType": "string",
              "name": "logo",
              "type": "string"
            },
            {
              "internalType": "string",
              "name": "status",
              "type": "string"
            },
            {
              "components": [
                {
                  "internalType": "string",
                  "name": "X",
                  "type": "string"
                },
                {
                  "internalType": "string",
                  "name": "website",
                  "type": "string"
                },
                {
                  "internalType": "string",
                  "name": "telegram",
                  "type": "string"
                }
              ],
              "internalType": "struct MemeBuilder.SocialChannel",
              "name": "socialChannel",
              "type": "tuple"
            },
            {
              "components": [
                {
                  "internalType": "address",
                  "name": "token",
                  "type": "address"
                },
                {
                  "internalType": "uint256",
                  "name": "amount",
                  "type": "uint256"
                },
                {
                  "internalType": "uint256",
                  "name": "liquidityRate",
                  "type": "uint256"
                },
                {
                  "internalType": "uint256",
                  "name": "investorRate",
                  "type": "uint256"
                },
                {
                  "internalType": "uint256",
                  "name": "ownerRate",
                  "type": "uint256"
                },
                {
                  "internalType": "uint256",
                  "name": "communityTreasuryRate",
                  "type": "uint256"
                }
              ],
              "internalType": "struct MemeBuilder.MemeRequirement",
              "name": "memeRequirement",
              "type": "tuple"
            },
            {
              "internalType": "uint256",
              "name": "startVotingAt",
              "type": "uint256"
            },
            {
              "internalType": "uint256",
              "name": "startInvestmentAt",
              "type": "uint256"
            },
            {
              "internalType": "uint256",
              "name": "startVestingAt",
              "type": "uint256"
            },
            {
              "internalType": "uint256",
              "name": "voteYes",
              "type": "uint256"
            },
            {
              "internalType": "uint256",
              "name": "voteNo",
              "type": "uint256"
            },
            {
              "internalType": "uint256",
              "name": "risedAmount",
              "type": "uint256"
            },
            {
              "internalType": "uint256",
              "name": "minimumVoter",
              "type": "uint256"
            },
            {
              "internalType": "uint256",
              "name": "minimumInvestmentAmount",
              "type": "uint256"
            },
            {
              "internalType": "uint256",
              "name": "maximumInvestmentAmount",
              "type": "uint256"
            }
          ],
          "internalType": "struct MemeBuilder.MemeProposal[]",
          "name": "",
          "type": "tuple[]"
        }
      ],
      "stateMutability": "view",
      "type": "function"
    },
    {
      "inputs": [
        {
          "internalType": "bytes32",
          "name": "role",
          "type": "bytes32"
        }
      ],
      "name": "getRoleAdmin",
      "outputs": [
        {
          "internalType": "bytes32",
          "name": "",
          "type": "bytes32"
        }
      ],
      "stateMutability": "view",
      "type": "function"
    },
    {
      "inputs": [
        {
          "internalType": "uint256",
          "name": "_page",
          "type": "uint256"
        },
        {
          "internalType": "uint256",
          "name": "_pageSize",
          "type": "uint256"
        }
      ],
      "name": "getVotingProposals",
      "outputs": [
        {
          "components": [
            {
              "internalType": "uint256",
              "name": "id",
              "type": "uint256"
            },
            {
              "internalType": "address",
              "name": "owner",
              "type": "address"
            },
            {
              "internalType": "string",
              "name": "name",
              "type": "string"
            },
            {
              "internalType": "string",
              "name": "symbol",
              "type": "string"
            },
            {
              "internalType": "uint256",
              "name": "supply",
              "type": "uint256"
            },
            {
              "internalType": "string",
              "name": "memeStory",
              "type": "string"
            },
            {
              "internalType": "string",
              "name": "logo",
              "type": "string"
            },
            {
              "internalType": "string",
              "name": "status",
              "type": "string"
            },
            {
              "components": [
                {
                  "internalType": "string",
                  "name": "X",
                  "type": "string"
                },
                {
                  "internalType": "string",
                  "name": "website",
                  "type": "string"
                },
                {
                  "internalType": "string",
                  "name": "telegram",
                  "type": "string"
                }
              ],
              "internalType": "struct MemeBuilder.SocialChannel",
              "name": "socialChannel",
              "type": "tuple"
            },
            {
              "components": [
                {
                  "internalType": "address",
                  "name": "token",
                  "type": "address"
                },
                {
                  "internalType": "uint256",
                  "name": "amount",
                  "type": "uint256"
                },
                {
                  "internalType": "uint256",
                  "name": "liquidityRate",
                  "type": "uint256"
                },
                {
                  "internalType": "uint256",
                  "name": "investorRate",
                  "type": "uint256"
                },
                {
                  "internalType": "uint256",
                  "name": "ownerRate",
                  "type": "uint256"
                },
                {
                  "internalType": "uint256",
                  "name": "communityTreasuryRate",
                  "type": "uint256"
                }
              ],
              "internalType": "struct MemeBuilder.MemeRequirement",
              "name": "memeRequirement",
              "type": "tuple"
            },
            {
              "internalType": "uint256",
              "name": "startVotingAt",
              "type": "uint256"
            },
            {
              "internalType": "uint256",
              "name": "startInvestmentAt",
              "type": "uint256"
            },
            {
              "internalType": "uint256",
              "name": "startVestingAt",
              "type": "uint256"
            },
            {
              "internalType": "uint256",
              "name": "voteYes",
              "type": "uint256"
            },
            {
              "internalType": "uint256",
              "name": "voteNo",
              "type": "uint256"
            },
            {
              "internalType": "uint256",
              "name": "risedAmount",
              "type": "uint256"
            },
            {
              "internalType": "uint256",
              "name": "minimumVoter",
              "type": "uint256"
            },
            {
              "internalType": "uint256",
              "name": "minimumInvestmentAmount",
              "type": "uint256"
            },
            {
              "internalType": "uint256",
              "name": "maximumInvestmentAmount",
              "type": "uint256"
            }
          ],
          "internalType": "struct MemeBuilder.MemeProposal[]",
          "name": "",
          "type": "tuple[]"
        }
      ],
      "stateMutability": "view",
      "type": "function"
    },
    {
      "inputs": [
        {
          "internalType": "bytes32",
          "name": "role",
          "type": "bytes32"
        },
        {
          "internalType": "address",
          "name": "account",
          "type": "address"
        }
      ],
      "name": "grantRole",
      "outputs": [],
      "stateMutability": "nonpayable",
      "type": "function"
    },
    {
      "inputs": [
        {
          "internalType": "uint256",
          "name": "id",
          "type": "uint256"
        },
        {
          "internalType": "address",
          "name": "voter",
          "type": "address"
        }
      ],
      "name": "hasAlreadyVoted",
      "outputs": [
        {
          "internalType": "bool",
          "name": "",
          "type": "bool"
        }
      ],
      "stateMutability": "view",
      "type": "function"
    },
    {
      "inputs": [
        {
          "internalType": "bytes32",
          "name": "role",
          "type": "bytes32"
        },
        {
          "internalType": "address",
          "name": "account",
          "type": "address"
        }
      ],
      "name": "hasRole",
      "outputs": [
        {
          "internalType": "bool",
          "name": "",
          "type": "bool"
        }
      ],
      "stateMutability": "view",
      "type": "function"
    },
    {
      "inputs": [
        {
          "internalType": "uint256",
          "name": "id",
          "type": "uint256"
        },
        {
          "internalType": "address",
          "name": "token",
          "type": "address"
        },
        {
          "internalType": "uint256",
          "name": "amount",
          "type": "uint256"
        }
      ],
      "name": "invest",
      "outputs": [],
      "stateMutability": "nonpayable",
      "type": "function"
    },
    {
      "inputs": [],
      "name": "investPeriod",
      "outputs": [
        {
          "internalType": "uint256",
          "name": "",
          "type": "uint256"
        }
      ],
      "stateMutability": "view",
      "type": "function"
    },
    {
      "inputs": [
        {
          "internalType": "uint256",
          "name": "id",
          "type": "uint256"
        }
      ],
      "name": "isVoteResultPassed",
      "outputs": [
        {
          "internalType": "bool",
          "name": "",
          "type": "bool"
        }
      ],
      "stateMutability": "view",
      "type": "function"
    },
    {
      "inputs": [],
      "name": "lpVaultAddress",
      "outputs": [
        {
          "internalType": "address",
          "name": "",
          "type": "address"
        }
      ],
      "stateMutability": "view",
      "type": "function"
    },
    {
      "inputs": [],
      "name": "minimumVoter",
      "outputs": [
        {
          "internalType": "uint256",
          "name": "",
          "type": "uint256"
        }
      ],
      "stateMutability": "view",
      "type": "function"
    },
    {
      "inputs": [
        {
          "internalType": "uint256[]",
          "name": "ids",
          "type": "uint256[]"
        }
      ],
      "name": "mint",
      "outputs": [],
      "stateMutability": "nonpayable",
      "type": "function"
    },
    {
      "inputs": [
        {
          "internalType": "address",
          "name": "",
          "type": "address"
        },
        {
          "internalType": "address",
          "name": "",
          "type": "address"
        },
        {
          "internalType": "uint256",
          "name": "",
          "type": "uint256"
        },
        {
          "internalType": "bytes",
          "name": "",
          "type": "bytes"
        }
      ],
      "name": "onERC721Received",
      "outputs": [
        {
          "internalType": "bytes4",
          "name": "",
          "type": "bytes4"
        }
      ],
      "stateMutability": "nonpayable",
      "type": "function"
    },
    {
      "inputs": [],
      "name": "positionManagerAddress",
      "outputs": [
        {
          "internalType": "address",
          "name": "",
          "type": "address"
        }
      ],
      "stateMutability": "view",
      "type": "function"
    },
    {
      "inputs": [],
      "name": "releaseTokenTime",
      "outputs": [
        {
          "internalType": "uint256",
          "name": "",
          "type": "uint256"
        }
      ],
      "stateMutability": "view",
      "type": "function"
    },
    {
      "inputs": [
        {
          "internalType": "bytes32",
          "name": "role",
          "type": "bytes32"
        },
        {
          "internalType": "address",
          "name": "callerConfirmation",
          "type": "address"
        }
      ],
      "name": "renounceRole",
      "outputs": [],
      "stateMutability": "nonpayable",
      "type": "function"
    },
    {
      "inputs": [
        {
          "internalType": "bytes32",
          "name": "role",
          "type": "bytes32"
        },
        {
          "internalType": "address",
          "name": "account",
          "type": "address"
        }
      ],
      "name": "revokeRole",
      "outputs": [],
      "stateMutability": "nonpayable",
      "type": "function"
    },
    {
      "inputs": [
        {
          "internalType": "address",
          "name": "addr",
          "type": "address"
        }
      ],
      "name": "setCommunityTreasuryContract",
      "outputs": [],
      "stateMutability": "nonpayable",
      "type": "function"
    },
    {
      "inputs": [
        {
          "internalType": "address",
          "name": "addr",
          "type": "address"
        }
      ],
      "name": "setFactoryAddress",
      "outputs": [],
      "stateMutability": "nonpayable",
      "type": "function"
    },
    {
      "inputs": [
        {
          "internalType": "uint256",
          "name": "period",
          "type": "uint256"
        }
      ],
      "name": "setInvestPeriod",
      "outputs": [],
      "stateMutability": "nonpayable",
      "type": "function"
    },
    {
      "inputs": [
        {
          "internalType": "address",
          "name": "addr",
          "type": "address"
        }
      ],
      "name": "setLPVaultContract",
      "outputs": [],
      "stateMutability": "nonpayable",
      "type": "function"
    },
    {
      "inputs": [
        {
          "internalType": "uint256",
          "name": "voter",
          "type": "uint256"
        }
      ],
      "name": "setMinimumVoter",
      "outputs": [],
      "stateMutability": "nonpayable",
      "type": "function"
    },
    {
      "inputs": [
        {
          "internalType": "address",
          "name": "addr",
          "type": "address"
        }
      ],
      "name": "setPositionManagerAddress",
      "outputs": [],
      "stateMutability": "nonpayable",
      "type": "function"
    },
    {
      "inputs": [
        {
          "internalType": "uint256",
          "name": "duration",
          "type": "uint256"
        }
      ],
      "name": "setReleaseTokenTime",
      "outputs": [],
      "stateMutability": "nonpayable",
      "type": "function"
    },
    {
      "inputs": [
        {
          "internalType": "address",
          "name": "addr",
          "type": "address"
        }
      ],
      "name": "setVestingContract",
      "outputs": [],
      "stateMutability": "nonpayable",
      "type": "function"
    },
    {
      "inputs": [
        {
          "internalType": "uint256",
          "name": "period",
          "type": "uint256"
        }
      ],
      "name": "setVotePeriod",
      "outputs": [],
      "stateMutability": "nonpayable",
      "type": "function"
    },
    {
      "inputs": [
        {
          "internalType": "uint256",
          "name": "_voteRate",
          "type": "uint256"
        }
      ],
      "name": "setVoterRate",
      "outputs": [],
      "stateMutability": "nonpayable",
      "type": "function"
    },
    {
      "inputs": [
        {
          "internalType": "bytes4",
          "name": "interfaceId",
          "type": "bytes4"
        }
      ],
      "name": "supportsInterface",
      "outputs": [
        {
          "internalType": "bool",
          "name": "",
          "type": "bool"
        }
      ],
      "stateMutability": "view",
      "type": "function"
    },
    {
      "inputs": [],
      "name": "vestingAddress",
      "outputs": [
        {
          "internalType": "address",
          "name": "",
          "type": "address"
        }
      ],
      "stateMutability": "view",
      "type": "function"
    },
    {
      "inputs": [
        {
          "internalType": "uint256",
          "name": "id",
          "type": "uint256"
        },
        {
          "internalType": "enum MemeBuilder.VoteResult",
          "name": "result",
          "type": "uint8"
        }
      ],
      "name": "vote",
      "outputs": [],
      "stateMutability": "nonpayable",
      "type": "function"
    },
    {
      "inputs": [],
      "name": "votePeriod",
      "outputs": [
        {
          "internalType": "uint256",
          "name": "",
          "type": "uint256"
        }
      ],
      "stateMutability": "view",
      "type": "function"
    },
    {
      "inputs": [],
      "name": "voterRate",
      "outputs": [
        {
          "internalType": "uint256",
          "name": "",
          "type": "uint256"
        }
      ],
      "stateMutability": "view",
      "type": "function"
    }
  ],
  "bytecode": "0x60806040523461009057600480546001600160a01b031990811673427bf5b37357632377ecbec9de3626c71a5396c11790915560058054909116730bfbcf9fa4f9c56b0f40a671ad40e0805a09186517905562093a80600a5561012c600b819055600c556001600d556064600e5561007633610095565b5061008033610111565b5060405161471390816101aa8239f35b600080fd5b6001600160a01b03811660009081526000805160206148fd833981519152602052604090205460ff1661010b576001600160a01b031660008181526000805160206148fd83398151915260205260408120805460ff191660011790553391906000805160206148bd8339815191528180a4600190565b50600090565b6001600160a01b03811660009081526000805160206148dd833981519152602052604090205460ff1661010b576001600160a01b031660008181526000805160206148dd83398151915260205260408120805460ff191660011790553391907fd8aa0f3194971a2a116679f7c2090f6939c8d4e01a2a8d7e41d55e5351469e63906000805160206148bd8339815191529080a460019056fe6080604052600436101561001257600080fd5b60003560e01c806301ffc9a7146102c2578063033488b2146102bd57806307bd0265146102b85780630f71b0fb14610236578063150b7a02146102b3578063248a9ca3146102ae5780632f2ff15d146102a9578063364e74eb146102a457806336568abe1461029f578063368d0e781461029a578063440810101461029557806345d096a0146102905780634c8d7e581461028b57806367b116301461028657806373eb901614610281578063749915691461027c5780637a8a11131461027757806382f85c3f1461027257806382f88e081461026d57806383c17c551461026857806390a935651461026357806391d148541461025e5780639209302c14610259578063943e821614610254578063966dae0e1461024f578063a0aba8b91461024a578063a217fddf14610245578063a4fe92d114610240578063a78135871461023b578063a9f73ae314610236578063ae667e3514610231578063b02936451461022c578063b15c401314610227578063c06909ec14610222578063c14bfd291461021d578063c77c738714610218578063d547741f14610213578063e0b3baef1461020e578063e78eb30814610209578063e8ca921214610204578063f24a5576146101ff578063f8e93ef9146101fa5763fecba3a5146101f557600080fd5b611dae565b61172a565b611666565b61163f565b611621565b611540565b611466565b61143f565b6113f4565b6113cc565b6113ab565b61130b565b6112ea565b61065c565b6112cc565b6111f5565b6111d9565b6111bb565b611194565b611024565b610fd3565b610f7c565b610f2b565b610eda565b610e89565b610e62565b610e3b565b610dea565b610cbc565b610c9b565b610c7a565b610c59565b610b8d565b6109cf565b61096c565b61094e565b610904565b6108cf565b61084b565b610391565b610373565b34610363576020600319360112610363576004357fffffffff00000000000000000000000000000000000000000000000000000000811680910361036357807f7965db0b0000000000000000000000000000000000000000000000000000000060209214908115610339575b506040519015158152f35b7f01ffc9a7000000000000000000000000000000000000000000000000000000009150143861032e565b600080fd5b600091031261036357565b34610363576000600319360112610363576020600d54604051908152f35b346103635760006003193601126103635760206040517fd8aa0f3194971a2a116679f7c2090f6939c8d4e01a2a8d7e41d55e5351469e638152f35b6001600160a01b0381160361036357565b60031960609101126103635760043590602435906044356103fd816103cc565b90565b919082519283825260005b84811061042c575050601f19601f8460006020809697860101520116010190565b8060208092840101518282860101520161040b565b6103fd91604061046f61045d8451606085526060850190610400565b60208501518482036020860152610400565b920151906040818403910152610400565b602081016020825282518091526040820191602060408360051b8301019401926000915b8383106104b357505050505090565b9091929394602080827fffffffffffffffffffffffffffffffffffffffffffffffffffffffffffffffc085600195030186528851908151815261050483830151848301906001600160a01b03169052565b6102e061024061059a61058661057461056261054661053460408a015161030060408b01526103008a0190610400565b60608a015189820360608b0152610400565b6080890151608089015260a089015188820360a08a0152610400565b60c088015187820360c0890152610400565b60e087015186820360e0880152610400565b610100860151858203610100870152610441565b936105ea61012082015161012086019060a080916001600160a01b038151168452602081015160208501526040810151604085015260608101516060850152608081015160808501520151910152565b6101408101516101e08501526101608101516102008501526101808101516102208501526101a0810151828501526101c08101516102608501526101e08101516102808501526102008101516102a08501526102208101516102c08501520151910152970193019301919392906104a4565b346103635761066a366103dd565b61067382611f82565b91610680816000956120a7565b91600954925b8381106106a3575b8585526040518061069f8782610480565b0390f35b6106dd826106c56106b3846120d0565b50546000526007602052604060002090565b906001600160a01b0316600052602052604060002090565b546106eb575b600101610686565b94828110156107665761075e60019161070c610706896120d0565b50612291565b61071f6107188a6120d0565b5054612ddc565b61020082015261073760206101208301510151612e07565b61024083015261022082015261074d82896123ad565b5261075881886123ad565b506123c1565b9590506106e3565b9461068e565b634e487b7160e01b600052604160045260246000fd5b6060810190811067ffffffffffffffff82111761079e57604052565b61076c565b60c0810190811067ffffffffffffffff82111761079e57604052565b90601f601f19910116810190811067ffffffffffffffff82111761079e57604052565b604051906107f2610260836107bf565b565b604051906107f2610160836107bf565b92919267ffffffffffffffff821161079e576040519161082e601f8201601f1916602001846107bf565b829481845281830111610363578281602093846000960137010152565b34610363576080600319360112610363576108676004356103cc565b6108726024356103cc565b60643567ffffffffffffffff81116103635736602382011215610363576108a3903690602481600401359101610804565b506040517f150b7a02000000000000000000000000000000000000000000000000000000008152602090f35b346103635760206003193601126103635760206108fc600435600052600060205260016040600020015490565b604051908152f35b346103635760406003193601126103635761094c602435600435610927826103cc565b61094761094282600052600060205260016040600020015490565b612eff565b612f4d565b005b34610363576000600319360112610363576020600a54604051908152f35b346103635760406003193601126103635760043560243561098c816103cc565b336001600160a01b038216036109a55761094c91612ff1565b7f6697b2320000000000000000000000000000000000000000000000000000000060005260046000fd5b34610363576109dd366103dd565b6109e682611f82565b916109f3816000956120a7565b6001600160a01b036009549316905b838110610a1a578585526040518061069f8782610480565b610a46610a3a6001610a2b846120d0565b5001546001600160a01b031690565b6001600160a01b031690565b8214610a55575b600101610a02565b948281101561076657610a7060019161070c610706896120d0565b959050610a4d565b9080601f83011215610363578160206103fd93359101610804565b91906060838203126103635760405190610aac82610782565b8193803567ffffffffffffffff81116103635782610acb918301610a78565b8352602081013567ffffffffffffffff81116103635782610aed918301610a78565b602084015260408101359167ffffffffffffffff831161036357604092610b149201610a78565b910152565b7fffffffffffffffffffffffffffffffffffffffffffffffffffffffffffffff3c60c09101126103635760405190610b50826107a3565b8160c435610b5d816103cc565b815260e435602082015261010435604082015261012435606082015261014435608082015260a061016435910152565b34610363576101806003193601126103635760043567ffffffffffffffff811161036357610bbf903690600401610a78565b60243567ffffffffffffffff811161036357610bdf903690600401610a78565b906044359160643567ffffffffffffffff811161036357610c04903690600401610a78565b60843567ffffffffffffffff811161036357610c24903690600401610a78565b9060a4359467ffffffffffffffff861161036357610c4961094c963690600401610a93565b93610c5336610b19565b9561285f565b3461036357602060031936011261036357600435610c75612e3a565b600a55005b3461036357602060031936011261036357600435610c96612e3a565b600c55005b3461036357602060031936011261036357600435610cb7612e3a565b600b55005b3461036357604060031936011261036357600435602435610cdc81611f82565b90610ce9816000946120a7565b90600954915b828110610d08575b8484526040518061069f8682610480565b610d1d6007610d16836120d0565b50016121ce565b60208151910120610d2c6123ec565b602081519101201480610dd4575b80610dbb575b610d4d575b600101610cef565b9381811015610db557610dad600191610d68610706886120d0565b610d74610718896120d0565b610200820152610d8c60206101208301510151612e07565b610240830152610220820152610da282886123ad565b5261075881876123ad565b949050610d45565b93610cf7565b50610dcf610dc8826120d0565b5054612ac7565b610d40565b506013610de0826120d0565b5001544210610d3a565b34610363576020600319360112610363576001600160a01b03600435610e0f816103cc565b610e17612e3a565b1673ffffffffffffffffffffffffffffffffffffffff196001541617600155600080f35b346103635760006003193601126103635760206001600160a01b0360045416604051908152f35b346103635760006003193601126103635760206001600160a01b0360025416604051908152f35b34610363576020600319360112610363576001600160a01b03600435610eae816103cc565b610eb6612e3a565b1673ffffffffffffffffffffffffffffffffffffffff196003541617600355600080f35b34610363576020600319360112610363576001600160a01b03600435610eff816103cc565b610f07612e3a565b1673ffffffffffffffffffffffffffffffffffffffff196005541617600555600080f35b34610363576020600319360112610363576001600160a01b03600435610f50816103cc565b610f58612e3a565b1673ffffffffffffffffffffffffffffffffffffffff196004541617600455600080f35b3461036357604060031936011261036357602060ff610fc7602435600435610fa3826103cc565b600052600084526040600020906001600160a01b0316600052602052604060002090565b54166040519015158152f35b34610363576020600319360112610363576001600160a01b03600435610ff8816103cc565b611000612e3a565b1673ffffffffffffffffffffffffffffffffffffffff196002541617600255600080f35b3461036357604060031936011261036357600435602435600281101561036357601161104f836120d0565b50015442101580611179575b6110649061294f565b6110ac6110a76110a361109c611084866000526006602052604060002090565b336001600160a01b0316600052602052604060002090565b5460ff1690565b1590565b61299a565b6110b5816129e5565b61110c60018214918260001461115b5760146110d0856120d0565b50016110dc81546123c1565b90555b6111076110fa336106c5876000526006602052604060002090565b600160ff19825416179055565b6129e5565b1561114e57611119612a40565b7ff872c9dd43e62509c7276e545b258673a25292dbeb9756e834227c8a8381865560405180611149339482612a7b565b0390a3005b611156612a05565b611119565b6015611166856120d0565b500161117281546123c1565b90556110df565b506110646012611188846120d0565b5001544210905061105b565b346103635760006003193601126103635760206001600160a01b0360055416604051908152f35b34610363576000600319360112610363576020600c54604051908152f35b3461036357600060031936011261036357602060405160008152f35b346103635760406003193601126103635760043560243561121581611f82565b90611222816000946120a7565b90600954915b828110611240578484526040518061069f8682610480565b61124e6007610d16836120d0565b6020815191012061125d6123ec565b6020815191012014806112b6575b806112a1575b61127e575b600101611228565b9381811015610db557611299600191610d68610706886120d0565b949050611276565b506112b16110a3610dc8836120d0565b611271565b5060126112c2826120d0565b500154421061126b565b34610363576000600319360112610363576020600b54604051908152f35b3461036357602060031936011261036357600435611306612e3a565b600e55005b346103635760406003193601126103635760043560243561132b81611f82565b90611338816000946120a7565b90600954915b828110611356578484526040518061069f8682610480565b6113646007610d16836120d0565b60208151910120611373612a8c565b6020815191012014611388575b60010161133e565b9381811015610db5576113a3600191610d68610706886120d0565b949050611380565b34610363576020600319360112610363576004356113c7612e3a565b600d55005b346103635760206003193601126103635760206113ea600435612ac7565b6040519015158152f35b3461036357604060031936011261036357602060ff610fc760243560043561141b826103cc565b600052600684526040600020906001600160a01b0316600052602052604060002090565b346103635760006003193601126103635760206001600160a01b0360015416604051908152f35b346103635760406003193601126103635761094c602435600435611489826103cc565b6114a461094282600052600060205260016040600020015490565b612ff1565b67ffffffffffffffff811161079e5760051b60200190565b6020600319820112610363576004359067ffffffffffffffff821161036357806023830112156103635781600401356114f9816114a9565b9261150760405194856107bf565b8184526024602085019260051b82010192831161036357602401905b8282106115305750505090565b8135815260209182019101611523565b346103635761154e366114c1565b611556612e8d565b60005b815181101561094c578061157d6007610d16611577600195876123ad565b516120d0565b6020815191012061158c6123ec565b602081519101201461159f575b01611559565b60126115ae61157783866123ad565b500154421115611599576115ce6110a36115c883866123ad565b51612ac7565b15611599576115ec60076115e561157784876123ad565b5001612b1d565b6115f681846123ad565b517f9968c7f52fd00a2108f0bb8fe431303663edc67cc15a995d07aad3d83d031d60600080a2611599565b34610363576000600319360112610363576020600e54604051908152f35b346103635760006003193601126103635760206001600160a01b0360035416604051908152f35b346103635760206003193601126103635760043567ffffffffffffffff811161036357611697903690600401610a78565b600954906116a482611f82565b9060009060208101825b8581106116c6578385526040518061069f8782610480565b60076116ec6116d4836120d0565b506116e5604051809481930161214a565b03826107bf565b602081519101208351832014611705575b6001016116ae565b92611722600191611718610706876120d0565b61074d82896123ad565b9390506116fd565b3461036357611738366114c1565b611740612e8d565b61389f610e3f60005b835181101561094c5761175c81856123ad565b51611766906120d0565b506016015461177582866123ad565b5161177f906120d0565b50600c0154111561178f90612b55565b61179981856123ad565b516117a3906120d0565b506007016117b0906121ce565b805190602001206117bf612a8c565b8051906020012014156117d190612ba0565b6117db81856123ad565b516117e5906120d0565b50600401546117f482866123ad565b516117fe906120d0565b506016015461180d83876123ad565b51611817906120d0565b50600d015461182690836120a7565b61271090049361183684886123ad565b51611840906120d0565b50600e015461184f90846120a7565b61271090049261185f85896123ad565b51611869906120d0565b50600f015461187890826120a7565b612710900496611888868a6123ad565b51611892906120d0565b50601001546118a190836120a7565b6127109004916118b1878b6123ad565b516118bb906120d0565b50906118c7888c6123ad565b516118d1906120d0565b506040519286840184811067ffffffffffffffff82111761079e57849360026003611905958b8a8939019301913090612c0b565b03906000f08015611bf05761191a878b6123ad565b51611924906120d0565b5060070161193190612c50565b6001600160a01b0316968085611947898d6123ad565b51611951906120d0565b50600b01546001600160a01b03169161196a928b61311a565b84611975888c6123ad565b5161197f906120d0565b50600b01546001600160a01b031691611998928a61346a565b506002546040517f095ea7b30000000000000000000000000000000000000000000000000000000081526001600160a01b0390911660048201526024810183905287816044815a602094600091f18015611bf057611d92575b50611a0a610a3a610a3a6002546001600160a01b031690565b91611a15878b6123ad565b51833b15610363576040517f8dbdbe6d000000000000000000000000000000000000000000000000000000008152600481019190915260248101919091526001600160a01b0388166044820152916000908390606490829084905af1918215611bf0578992611d7d575b5060005b611aa1611a9088856123ad565b516000526008602052604060002090565b54811015611bf557611af6611b26611b18611b1288611b0d611b078d6106c5611aed611ada8b611ad58f86611a90916123ad565b612ca3565b90546001600160a01b039160031b1c1690565b9889928d6123ad565b516000526007602052604060002090565b5461207e565b612beb565b896120a7565b670de0b6b3a7640000900490565b90611b3f610a3a610a3a6001546001600160a01b031690565b611b4c8a600a54976123ad565b5192813b15610363576040517f1559014f0000000000000000000000000000000000000000000000000000000081526001600160a01b039384166004820152928c1660248401526044830152426064830152608482019590955260a481019190915292600090849060c490829084905af1908115611bf0578a93600192611bd5575b5001611a83565b80611be46000611bea936107bf565b80610368565b38611bce565b612c44565b509694939195925050611c16610a3a610a3a6001546001600160a01b031690565b93611c296001610a2b611577878c6123ad565b94600a5490611c38868b6123ad565b5196813b156103635760008094611caf6040519a8b96879586947f1559014f0000000000000000000000000000000000000000000000000000000086528c429260048801926001600160a01b0360a09592989796938160c087019a1686521660208501526040840152606083015260808201520152565b03925af1918215611bf057611d2094602093611d68575b506001546001600160a01b031660006040518097819582947fa9059cbb00000000000000000000000000000000000000000000000000000000845260048401602090939291936001600160a01b0360408201951681520152565b03925af1918215611bf057600192611d3a575b5001611749565b611d5a9060203d8111611d61575b611d5281836107bf565b810190612c8f565b5038611d33565b503d611d48565b80611be46000611d77936107bf565b38611cc6565b80611be46000611d8c936107bf565b38611a7f565b611da99060203d8111611d6157611d5281836107bf565b6119f1565b34610363576060600319360112610363576024356001600160a01b03600435611dd6836103cc565b611e2060443593611de683612ac7565b80611f17575b611df590612cbb565b611e06611e0184612ac7565b612d06565b83611e15600b610a2b866120d0565b911693168314612d51565b6016611e2b826120d0565b5001611e388482546123df565b90556040517f23b872dd0000000000000000000000000000000000000000000000000000000081523360048201523060248201526044810184905291602090839060649082906000905af1908115611bf057611ed492611ecc92611efa575b50611eb0336106c5836000526007602052604060002090565b5415611ed8575b6106c533916000526007602052604060002090565b9182546123df565b9055005b611ef533611ef0836000526008602052604060002090565b612d9c565b611eb7565b611f129060203d602011611d6157611d5281836107bf565b611e97565b50611df56013611f26856120d0565b50015442109050611dec565b60405190611f3f82610782565b60606040838281528260208201520152565b60405190611f5e826107a3565b600060a0838281528260208201528260408201528260608201528260808201520152565b90611f8c826114a9565b611f9960405191826107bf565b828152601f19611fa982946114a9565b019060005b828110611fba57505050565b602090611fc56107e2565b600081526000838201526060604082015260608082015260006080820152606060a0820152606060c0820152606060e0820152612000611f32565b61010082015261200e611f51565b61012082015260006101408201526000610160820152600061018082015260006101a082015260006101c082015260006101e082015260006102008201526000610220820152600061024082015282828501015201611fae565b634e487b7160e01b600052601160045260246000fd5b90670de0b6b3a7640000820291808304670de0b6b3a764000014901517156120a257565b612068565b818102929181159184041417156120a257565b634e487b7160e01b600052603260045260246000fd5b6009548110156120ef576009600052601a602060002091020190600090565b6120ba565b80548210156120ef57600052601a602060002091020190600090565b90600182811c92168015612140575b602083101461212a57565b634e487b7160e01b600052602260045260246000fd5b91607f169161211f565b6000929181549161215a83612110565b80835292600181169081156121b0575060011461217657505050565b60009081526020812093945091925b838310612196575060209250010190565b600181602092949394548385870101520191019190612185565b9050602094955060ff1991509291921683830152151560051b010190565b906107f26121e2926040519384809261214a565b03836107bf565b906002604080516121f981610782565b61223e8195835161220e816116e5818561214a565b83528351612223816116e5816001860161214a565b60208401526122378451809681930161214a565b03846107bf565b0152565b9060405161224f816107a3565b60a0600582946001600160a01b038154168452600181015460208501526002810154604085015260038101546060850152600481015460808501520154910152565b90601961229c6107e2565b92805484526122c86122b860018301546001600160a01b031690565b6001600160a01b03166020860152565b6122d4600282016121ce565b60408501526122e5600382016121ce565b606085015260048101546080850152612300600582016121ce565b60a0850152612311600682016121ce565b60c0850152612322600782016121ce565b60e0850152612333600882016121e9565b610100850152612345600b8201612242565b61012085015260118101546101408501526012810154610160850152601381015461018085015260148101546101a085015260158101546101c085015260168101546101e0850152601781015461020085015260188101546102208501520154610240830152565b80518210156120ef5760209160051b010190565b60001981146120a25760010190565b9061012c82018092116120a257565b919082018092116120a257565b604051906123fb6040836107bf565b600a82527f494e2d50524f43455353000000000000000000000000000000000000000000006020830152565b818110612432575050565b60008155600101612427565b90601f811161244b575050565b6107f291600052601f6020600020910160051c810190612427565b9190601f811161247557505050565b6107f2926000526020600020906020601f840160051c830193106124a1575b601f0160051c0190612427565b9091508190612494565b919091825167ffffffffffffffff811161079e576124d3816124cd8454612110565b84612466565b6020601f8211600114612513578190612504939495600092612508575b50506000198260011b9260031b1c19161790565b9055565b0151905038806124f0565b601f1982169061252884600052602060002090565b9160005b8181106125645750958360019596971061254b575b505050811b019055565b015160001960f88460031b161c19169055388080612541565b9192602060018192868b01518155019401920161252c565b919091825192835167ffffffffffffffff811161079e576125a7816125a18554612110565b85612466565b6020601f82116001146125fc57916125df826040936002956107f298996000926125085750506000198260011b9260031b1c19161790565b84555b6125f36020820151600186016124ab565b015191016124ab565b601f1982169561261185600052602060002090565b9660005b81811061265a5750926107f29697600295936001938360409710612641575b505050811b0184556125e2565b015160001960f88460031b161c19169055388080612634565b83830151895560019098019760209384019301612615565b9060a06005916126af6001600160a01b0382511685906001600160a01b031673ffffffffffffffffffffffffffffffffffffffff19825416179055565b602081015160018501556040810151600285015560608101516003850155608081015160048501550151910155565b6009546801000000000000000081101561079e57806001612704920160095560096120f4565b91909161283a576102408160199251845561275861272c60208301516001600160a01b031690565b60018601906001600160a01b031673ffffffffffffffffffffffffffffffffffffffff19825416179055565b6127696040820151600286016124ab565b61277a6060820151600386016124ab565b6080810151600485015561279560a0820151600586016124ab565b6127a660c0820151600686016124ab565b6127b760e0820151600786016124ab565b6127c96101008201516008860161257c565b6127db610120820151600b8601612672565b6101408101516011850155610160810151601285015561018081015160138501556101a081015160148501556101c081015160158501556101e08101516016850155610200810151601785015561022081015160188501550151910155565b634e487b7160e01b600052600060045260246000fd5b9060001982019182116120a257565b9361291c969295919360095496600b549561289061288761288089426123df565b98426123df565b600c54906123df565b976128996107e2565b998a523360208b015260408a01526060890152608088015260a087015260c08601526128c36123ec565b60e08601526101008501526101208401524261014084015261016083015261018082015260006101a082015260006101c082015260006101e08201526000610200820152600061022082015260006102408201526126de565b612927600954612850565b337fb0d4fb8322e1c826818f956c2bb5192f545c5df3ca526655ceb58d07ab3aa19e600080a3565b1561295657565b606460405162461bcd60e51b815260206004820152601760248201527f566f74696e6720706572696f642068617320656e6465640000000000000000006044820152fd5b156129a157565b606460405162461bcd60e51b815260206004820152601360248201527f566f74696e6720616c726561647920646f6e65000000000000000000000000006044820152fd5b600211156129ef57565b634e487b7160e01b600052602160045260246000fd5b60405190612a146040836107bf565b600282527f4e4f0000000000000000000000000000000000000000000000000000000000006020830152565b60405190612a4f6040836107bf565b600382527f59455300000000000000000000000000000000000000000000000000000000006020830152565b9060206103fd928181520190610400565b60405190612a9b6040836107bf565b600682527f4d494e54454400000000000000000000000000000000000000000000000000006020830152565b6014612ad2826120d0565b5001546015612ae0836120d0565b50015481018091116120a257600d541115906015612b0b6014612b02846120d0565b500154926120d0565b5001541081612b18575090565b905090565b612b30612b2a8254612110565b8261243e565b7f4641494c4544000000000000000000000000000000000000000000000000000c9055565b15612b5c57565b606460405162461bcd60e51b815260206004820152601860248201527f4e6f7420656e6f7567682072616973656420616d6f756e7400000000000000006044820152fd5b15612ba757565b606460405162461bcd60e51b815260206004820152601360248201527f4d656d6520616c7265616479206d696e746564000000000000000000000000006044820152fd5b8115612bf5570490565b634e487b7160e01b600052601260045260246000fd5b926103fd94926001600160a01b03612c3693168552602085015260806040850152608084019061214a565b91606081840391015261214a565b6040513d6000823e3d90fd5b612c5d612b2a8254612110565b7f4d494e544544000000000000000000000000000000000000000000000000000c9055565b5190811515820361036357565b90816020910312610363576103fd90612c82565b80548210156120ef5760005260206000200190600090565b15612cc257565b606460405162461bcd60e51b815260206004820152601b60248201527f496e766573746d656e7420706572696f642068617320656e64656400000000006044820152fd5b15612d0d57565b606460405162461bcd60e51b815260206004820152601660248201527f566f746520726573756c74206e6f7420706173736564000000000000000000006044820152fd5b15612d5857565b606460405162461bcd60e51b815260206004820152600f60248201527f496e76616c6964206164647265737300000000000000000000000000000000006044820152fd5b80546801000000000000000081101561079e57612dbe91600182018155612ca3565b6001600160a01b0380839493549260031b9316831b921b1916179055565b612710612e02600c612df6670de0b6b3a7640000946120d0565b500154600e54906120a7565b040490565b612710612e20670de0b6b3a764000092600e54906120a7565b0404908160011b91808304600214811517156120a2579190565b3360009081527fad3228b676f7d3cd4284a5443f17f1962b36e491b30a40b2405849e597ba5fb5602052604090205460ff1615612e7357565b63e2517d3f60e01b60005233600452600060245260446000fd5b3360009081527fdae2aa361dfd1ca020a396615627d436107c35eff9fe7738a3512819782d7069602052604090205460ff1615612ec657565b63e2517d3f60e01b600052336004527fd8aa0f3194971a2a116679f7c2090f6939c8d4e01a2a8d7e41d55e5351469e6360245260446000fd5b80600052600060205260ff612f2b336040600020906001600160a01b0316600052602052604060002090565b541615612f355750565b63e2517d3f60e01b6000523360045260245260446000fd5b80600052600060205260ff612f79836040600020906001600160a01b0316600052602052604060002090565b5416612fea57806000526000602052612fa9826040600020906001600160a01b0316600052602052604060002090565b600160ff198254161790556001600160a01b03339216907f2f8788117e7eff1d82e926ec794901d17c78024a50270940304540a733656f0d600080a4600190565b5050600090565b80600052600060205260ff61301d836040600020906001600160a01b0316600052602052604060002090565b541615612fea5780600052600060205261304e826040600020906001600160a01b0316600052602052604060002090565b60ff1981541690556001600160a01b03339216907ff6391f5c32d9c69d2a47ea670b442974b53935d1edc7fd64eb21e047a839171b600080a4600190565b9081602091031261036357516103fd816103cc565b519061ffff8216820361036357565b908160e09103126103635780516130c6816103cc565b9160208201518060020b810361036357916130e3604082016130a1565b916130f0606083016130a1565b916130fd608082016130a1565b9160a082015160ff811681036103635760c06103fd919301612c82565b92919092613136610a3a610a3a6005546001600160a01b031690565b6040517fa16712950000000000000000000000000000000000000000000000000000000081526001600160a01b038381166004830152861660248201526101f460448201529490602090869060649082906000905af1918215611bf05761320d95602093613371575b506131b8610a3a610a3a6005546001600160a01b031690565b906040518097819482937f1698ee82000000000000000000000000000000000000000000000000000000008452600484016040906001600160a01b036101f49395948160608401971683521660208201520152565b03915afa928315611bf057600093613331575b50818161323b61324193611b0d6001600160a01b039661207e565b5061367c565b91166040517f3850c7bd00000000000000000000000000000000000000000000000000000000815260e081600481855afa8015611bf0576001600160a01b03916000916132fc575b501615613294575050565b803b15610363576040517ff637731d0000000000000000000000000000000000000000000000000000000081526001600160a01b039290921660048301526000908290602490829084905af18015611bf0576132ed5750565b80611be460006107f2936107bf565b61331e915060e03d60e01161332a575b61331681836107bf565b8101906130b0565b50505050505038613289565b503d61330c565b613241919350916133616001600160a01b039360203d60201161336a575b61335981836107bf565b81019061308c565b93915091613220565b503d61334f565b61338790843d861161336a5761335981836107bf565b61319f565b91908260809103126103635781519160208101516fffffffffffffffffffffffffffffffff8116810361036357916060604083015192015190565b81516001600160a01b03168152610160810192916101409081906020818101516001600160a01b03169085015260408181015162ffffff169085015260608181015160020b9085015260808181015160020b9085015260a081015160a085015260c081015160c085015260e081015160e08501526101008101516101008501526134636101208201516101208601906001600160a01b03169052565b0151910152565b6134cf9293916020856134856004546001600160a01b031690565b60405196879283927f095ea7b300000000000000000000000000000000000000000000000000000000845260048401602090939291936001600160a01b0360408201951681520152565b038160006001600160a01b0387165af1938415611bf0576135059461365f575b506020836134856004546001600160a01b031690565b038160006001600160a01b0386165af1928315611bf0576000956080956135fd95613642575b50613553613538426123d0565b936122b86135446107f4565b6001600160a01b039097168752565b6101f460408501527ffffffffffffffffffffffffffffffffffffffffffffffffffffffffffff2764c6060850152620d89b48487015260a084015260c083015260e082018590526101008201859052306101208301526101408201526135c7610a3a610a3a6004546001600160a01b031690565b906040519485809481937f88316456000000000000000000000000000000000000000000000000000000008352600483016133c7565b03925af1908115611bf057600091613613575090565b613635915060803d60801161363b575b61362d81836107bf565b81019061338c565b50505090565b503d613623565b61365a9060203d602011611d6157611d5281836107bf565b61352b565b6136779060203d602011611d6157611d5281836107bf565b6134ef565b9081156136e557670de0b6b3a7640000810290808204670de0b6b3a764000014901517156120a2576136b6916136b191612beb565b613729565b8060601b908082046c0100000000000000000000000014901517156120a2576103fd90633b9aca009004610a3a565b606460405162461bcd60e51b815260206004820152601e60248201527f537570706c7941206d7573742062652067726561746572207468616e203000006044820152fd5b60018111156103fd5780600170010000000000000000000000000000000083101561385c575b6138026137f86137ee6137e46137da6137d06137bf6138099760048a6801000000000000000061380e9c101561384f575b640100000000811015613842575b62010000811015613835575b610100811015613828575b601081101561381b575b1015613813575b60030260011c90565b6137c9818b612beb565b0160011c90565b6137c9818a612beb565b6137c98189612beb565b6137c98188612beb565b6137c98187612beb565b6137c98186612beb565b8093612beb565b821190565b900390565b60011b6137b6565b60041c9160021b916137af565b60081c9160041b916137a5565b60101c9160081b9161379a565b60201c9160101b9161378e565b60401c9160201b91613780565b505061380e6138096138026137f86137ee6137e46137da6137d06137bf6138838a60801c90565b985068010000000000000000975061374f965050505050505056fe60806040523461042457610e3f8038038061001981610429565b9283398101906080818303126104245780516001600160a01b038116919082810361042457602082015160408301519092906001600160401b038111610424578561006591830161044e565b60608201519095906001600160401b03811161042457610085920161044e565b845190946001600160401b0382116103215760035490600182811c9216801561041a575b60208310146103015781601f8493116103aa575b50602090601f831160011461034257600092610337575b50508160011b916000199060031b1c1916176003555b83516001600160401b03811161032157600454600181811c91168015610317575b602082101461030157601f811161029c575b50602094601f82116001146102355794819293949560009261022a575b50508160011b916000199060031b1c1916176004555b82156102145780610163610168926104b9565b6104b9565b670de0b6b3a7640000810290808204670de0b6b3a764000014901517156101fe5760006002548281018091116101ea576000927fddf252ad1be2c89b69c2b068fc378daa952ba7f163c4a11628f55a4df523b3ef926020926002555084845283825260408420818154019055604051908152a360405161093c90816105038239f35b634e487b7160e01b82526011600452602482fd5b634e487b7160e01b600052601160045260246000fd5b631e4fbdf760e01b600052600060045260246000fd5b01519050388061013a565b601f198216956004600052806000209160005b8881106102845750836001959697981061026b575b505050811b01600455610150565b015160001960f88460031b161c1916905538808061025d565b91926020600181928685015181550194019201610248565b60046000527f8a35acfbc15ff81a39ae7d344fd709f28e8600b4aa8c65c6b64bfe7fe36bd19b601f830160051c810191602084106102f7575b601f0160051c01905b8181106102eb575061011d565b600081556001016102de565b90915081906102d5565b634e487b7160e01b600052602260045260246000fd5b90607f169061010b565b634e487b7160e01b600052604160045260246000fd5b0151905038806100d4565b600360009081528281209350601f198516905b8181106103925750908460019594939210610379575b505050811b016003556100ea565b015160001960f88460031b161c1916905538808061036b565b92936020600181928786015181550195019301610355565b60036000529091507fc2575a0e9e593c00f959f8c92f12db2869c3395a3b0502d05e2516446f71f85b601f840160051c81019160208510610410575b90601f859493920160051c01905b81811061040157506100bd565b600081558493506001016103f4565b90915081906103e6565b91607f16916100a9565b600080fd5b6040519190601f01601f191682016001600160401b0381118382101761032157604052565b81601f82011215610424578051906001600160401b0382116103215761047d601f8301601f1916602001610429565b92828452602083830101116104245760005b8281106104a457505060206000918301015290565b8060208092840101518282870101520161048f565b600580546001600160a01b039283166001600160a01b0319821681179092559091167f8be0079c531659141344cd1fd0a4f28419497f9722a3daafe3b4186f6b6457e0600080a356fe608080604052600436101561001357600080fd5b60003560e01c90816306fdde031461066157508063095ea7b3146105db57806318160ddd146105bd57806323b872dd1461045e578063313ce5671461044257806370a0823114610408578063715018a6146103955780638da5cb5b1461036e57806395d89b41146101eb578063a9059cbb146101ba578063dd62ed3e146101625763f2fde38b146100a357600080fd5b3461015d57602060031936011261015d576001600160a01b036100c4610788565b6100cc6108c4565b16801561012e576001600160a01b03600554827fffffffffffffffffffffffff0000000000000000000000000000000000000000821617600555167f8be0079c531659141344cd1fd0a4f28419497f9722a3daafe3b4186f6b6457e0600080a3005b7f1e4fbdf700000000000000000000000000000000000000000000000000000000600052600060045260246000fd5b600080fd5b3461015d57604060031936011261015d5761017b610788565b6001600160a01b0361018b61079e565b911660005260016020526001600160a01b03604060002091166000526020526020604060002054604051908152f35b3461015d57604060031936011261015d576101e06101d6610788565b60243590336107b4565b602060405160018152f35b3461015d57600060031936011261015d57604051600090600454918260011c60018416938415610364575b60208210851461033757839482855290816000146102f55750600114610298575b5003601f01601f191681019067ffffffffffffffff821181831017610269576102658291826040528261073e565b0390f35b7f4e487b7100000000000000000000000000000000000000000000000000000000600052604160045260246000fd5b6004600090815291507f8a35acfbc15ff81a39ae7d344fd709f28e8600b4aa8c65c6b64bfe7fe36bd19b5b8183106102d95750508101602001601f19610237565b60209193508060019154838588010152019101909183926102c3565b7fffffffffffffffffffffffffffffffffffffffffffffffffffffffffffffff001660208581019190915291151560051b84019091019150601f199050610237565b6024837f4e487b710000000000000000000000000000000000000000000000000000000081526022600452fd5b90607f1690610216565b3461015d57600060031936011261015d5760206001600160a01b0360055416604051908152f35b3461015d57600060031936011261015d576103ae6108c4565b60006001600160a01b036005547fffffffffffffffffffffffff00000000000000000000000000000000000000008116600555167f8be0079c531659141344cd1fd0a4f28419497f9722a3daafe3b4186f6b6457e08280a3005b3461015d57602060031936011261015d576001600160a01b03610429610788565b1660005260006020526020604060002054604051908152f35b3461015d57600060031936011261015d57602060405160128152f35b3461015d57606060031936011261015d57610477610788565b61047f61079e565b604435906001600160a01b0383169283600052600160205260406000206001600160a01b0333166000526020526040600020547fffffffffffffffffffffffffffffffffffffffffffffffffffffffffffffffff81036104e5575b506101e093506107b4565b838110610587578415610558573315610529576101e094600052600160205260406000206001600160a01b03331660005260205283604060002091039055846104da565b7f94280d6200000000000000000000000000000000000000000000000000000000600052600060045260246000fd5b7fe602df0500000000000000000000000000000000000000000000000000000000600052600060045260246000fd5b83907ffb8f41b2000000000000000000000000000000000000000000000000000000006000523360045260245260445260646000fd5b3461015d57600060031936011261015d576020600254604051908152f35b3461015d57604060031936011261015d576105f4610788565b602435903315610558576001600160a01b031690811561052957336000526001602052604060002082600052602052806040600020556040519081527f8c5be1e5ebec7d5bd14f71427d1e84f3dd0314c0f7b2291e5b200ac8c7c3b92560203392a3602060405160018152f35b3461015d57600060031936011261015d57600090600354918260011c60018416938415610734575b60208210851461033757839482855290816000146102f557506001146106d7575003601f01601f191681019067ffffffffffffffff821181831017610269576102658291826040528261073e565b6003600090815291507fc2575a0e9e593c00f959f8c92f12db2869c3395a3b0502d05e2516446f71f85b5b8183106107185750508101602001601f19610237565b6020919350806001915483858801015201910190918392610702565b90607f1690610689565b9190916020815282519283602083015260005b848110610772575050601f19601f8460006040809697860101520116010190565b8060208092840101516040828601015201610751565b600435906001600160a01b038216820361015d57565b602435906001600160a01b038216820361015d57565b6001600160a01b0316908115610895576001600160a01b03169182156108665760008281528060205260408120548281106108335791604082827fddf252ad1be2c89b69c2b068fc378daa952ba7f163c4a11628f55a4df523b3ef958760209652828652038282205586815280845220818154019055604051908152a3565b6064937fe450d38c0000000000000000000000000000000000000000000000000000000083949352600452602452604452fd5b7fec442f0500000000000000000000000000000000000000000000000000000000600052600060045260246000fd5b7f96c6fd1e00000000000000000000000000000000000000000000000000000000600052600060045260246000fd5b6001600160a01b036005541633036108d857565b7f118cdaa7000000000000000000000000000000000000000000000000000000006000523360045260246000fdfea2646970667358221220e2ea0ca5423200e80d603ef6d7294954cba3573327aeb647ccca59f5ce5aeb4264736f6c634300081b0033a2646970667358221220697eeada8b52cb994b6adcd00a4d912c950ededff256e99a98694980743d3b5e64736f6c634300081b00332f8788117e7eff1d82e926ec794901d17c78024a50270940304540a733656f0ddae2aa361dfd1ca020a396615627d436107c35eff9fe7738a3512819782d7069ad3228b676f7d3cd4284a5443f17f1962b36e491b30a40b2405849e597ba5fb5",
  "linkReferences": {},
  "deployedLinkReferences": {}
}