{
  "_format": "hh-sol-artifact-1",
  "contractName": "MemeBuilder",
  "sourceName": "contracts/MemeBuilder.sol",
  "abi": [
    {
      "inputs": [],
      "stateMutability": "nonpayable",
      "type": "constructor"
    },
    {
      "inputs": [],
      "name": "AccessControlBadConfirmation",
      "type": "error"
    },
    {
      "inputs": [
        {
          "internalType": "address",
          "name": "account",
          "type": "address"
        },
        {
          "internalType": "bytes32",
          "name": "neededRole",
          "type": "bytes32"
        }
      ],
      "name": "AccessControlUnauthorizedAccount",
      "type": "error"
    },
    {
      "anonymous": false,
      "inputs": [
        {
          "indexed": true,
          "internalType": "address",
          "name": "user",
          "type": "address"
        },
        {
          "indexed": true,
          "internalType": "uint256",
          "name": "index",
          "type": "uint256"
        }
      ],
      "name": "NewMemeProposal",
      "type": "event"
    },
    {
      "anonymous": false,
      "inputs": [
        {
          "indexed": true,
          "internalType": "bytes32",
          "name": "role",
          "type": "bytes32"
        },
        {
          "indexed": true,
          "internalType": "bytes32",
          "name": "previousAdminRole",
          "type": "bytes32"
        },
        {
          "indexed": true,
          "internalType": "bytes32",
          "name": "newAdminRole",
          "type": "bytes32"
        }
      ],
      "name": "RoleAdminChanged",
      "type": "event"
    },
    {
      "anonymous": false,
      "inputs": [
        {
          "indexed": true,
          "internalType": "bytes32",
          "name": "role",
          "type": "bytes32"
        },
        {
          "indexed": true,
          "internalType": "address",
          "name": "account",
          "type": "address"
        },
        {
          "indexed": true,
          "internalType": "address",
          "name": "sender",
          "type": "address"
        }
      ],
      "name": "RoleGranted",
      "type": "event"
    },
    {
      "anonymous": false,
      "inputs": [
        {
          "indexed": true,
          "internalType": "bytes32",
          "name": "role",
          "type": "bytes32"
        },
        {
          "indexed": true,
          "internalType": "address",
          "name": "account",
          "type": "address"
        },
        {
          "indexed": true,
          "internalType": "address",
          "name": "sender",
          "type": "address"
        }
      ],
      "name": "RoleRevoked",
      "type": "event"
    },
    {
      "anonymous": false,
      "inputs": [
        {
          "indexed": true,
          "internalType": "uint256",
          "name": "id",
          "type": "uint256"
        }
      ],
      "name": "SetFailed",
      "type": "event"
    },
    {
      "anonymous": false,
      "inputs": [
        {
          "indexed": true,
          "internalType": "address",
          "name": "tokenAddress",
          "type": "address"
        },
        {
          "indexed": true,
          "internalType": "address",
          "name": "owner",
          "type": "address"
        },
        {
          "indexed": false,
          "internalType": "uint256",
          "name": "initialSupply",
          "type": "uint256"
        }
      ],
      "name": "TokenCreated",
      "type": "event"
    },
    {
      "anonymous": false,
      "inputs": [
        {
          "indexed": true,
          "internalType": "address",
          "name": "voter",
          "type": "address"
        },
        {
          "indexed": false,
          "internalType": "string",
          "name": "result",
          "type": "string"
        },
        {
          "indexed": true,
          "internalType": "uint256",
          "name": "id",
          "type": "uint256"
        }
      ],
      "name": "Vote",
      "type": "event"
    },
    {
      "inputs": [],
      "name": "DEFAULT_ADMIN_ROLE",
      "outputs": [
        {
          "internalType": "bytes32",
          "name": "",
          "type": "bytes32"
        }
      ],
      "stateMutability": "view",
      "type": "function"
    },
    {
      "inputs": [],
      "name": "EXECUTOR_ROLE",
      "outputs": [
        {
          "internalType": "bytes32",
          "name": "",
          "type": "bytes32"
        }
      ],
      "stateMutability": "view",
      "type": "function"
    },
    {
      "inputs": [
        {
          "internalType": "uint256[]",
          "name": "ids",
          "type": "uint256[]"
        }
      ],
      "name": "cleanMeme",
      "outputs": [],
      "stateMutability": "nonpayable",
      "type": "function"
    },
    {
      "inputs": [],
      "name": "communityTreasuryAddress",
      "outputs": [
        {
          "internalType": "address",
          "name": "",
          "type": "address"
        }
      ],
      "stateMutability": "view",
      "type": "function"
    },
    {
      "inputs": [
        {
          "internalType": "string",
          "name": "_name",
          "type": "string"
        },
        {
          "internalType": "string",
          "name": "_symbol",
          "type": "string"
        },
        {
          "internalType": "uint256",
          "name": "_supply",
          "type": "uint256"
        },
        {
          "internalType": "string",
          "name": "_memeStory",
          "type": "string"
        },
        {
          "internalType": "string",
          "name": "_logo",
          "type": "string"
        },
        {
          "components": [
            {
              "internalType": "string",
              "name": "X",
              "type": "string"
            },
            {
              "internalType": "string",
              "name": "website",
              "type": "string"
            },
            {
              "internalType": "string",
              "name": "telegram",
              "type": "string"
            }
          ],
          "internalType": "struct MemeBuilder.SocialChannel",
          "name": "_socialChannel",
          "type": "tuple"
        },
        {
          "components": [
            {
              "internalType": "address",
              "name": "token",
              "type": "address"
            },
            {
              "internalType": "uint256",
              "name": "amount",
              "type": "uint256"
            },
            {
              "internalType": "uint256",
              "name": "liquidityRate",
              "type": "uint256"
            },
            {
              "internalType": "uint256",
              "name": "investorRate",
              "type": "uint256"
            },
            {
              "internalType": "uint256",
              "name": "ownerRate",
              "type": "uint256"
            },
            {
              "internalType": "uint256",
              "name": "communityTreasuryRate",
              "type": "uint256"
            }
          ],
          "internalType": "struct MemeBuilder.MemeRequirement",
          "name": "_memeRequirement",
          "type": "tuple"
        }
      ],
      "name": "createMemeProposal",
      "outputs": [],
      "stateMutability": "nonpayable",
      "type": "function"
    },
    {
      "inputs": [],
      "name": "factoryAddress",
      "outputs": [
        {
          "internalType": "address",
          "name": "",
          "type": "address"
        }
      ],
      "stateMutability": "view",
      "type": "function"
    },
    {
      "inputs": [
        {
          "internalType": "uint256",
          "name": "_page",
          "type": "uint256"
        },
        {
          "internalType": "uint256",
          "name": "_pageSize",
          "type": "uint256"
        }
      ],
      "name": "getInvestingProposals",
      "outputs": [
        {
          "components": [
            {
              "internalType": "uint256",
              "name": "id",
              "type": "uint256"
            },
            {
              "internalType": "address",
              "name": "owner",
              "type": "address"
            },
            {
              "internalType": "string",
              "name": "name",
              "type": "string"
            },
            {
              "internalType": "string",
              "name": "symbol",
              "type": "string"
            },
            {
              "internalType": "uint256",
              "name": "supply",
              "type": "uint256"
            },
            {
              "internalType": "string",
              "name": "memeStory",
              "type": "string"
            },
            {
              "internalType": "string",
              "name": "logo",
              "type": "string"
            },
            {
              "internalType": "string",
              "name": "status",
              "type": "string"
            },
            {
              "components": [
                {
                  "internalType": "string",
                  "name": "X",
                  "type": "string"
                },
                {
                  "internalType": "string",
                  "name": "website",
                  "type": "string"
                },
                {
                  "internalType": "string",
                  "name": "telegram",
                  "type": "string"
                }
              ],
              "internalType": "struct MemeBuilder.SocialChannel",
              "name": "socialChannel",
              "type": "tuple"
            },
            {
              "components": [
                {
                  "internalType": "address",
                  "name": "token",
                  "type": "address"
                },
                {
                  "internalType": "uint256",
                  "name": "amount",
                  "type": "uint256"
                },
                {
                  "internalType": "uint256",
                  "name": "liquidityRate",
                  "type": "uint256"
                },
                {
                  "internalType": "uint256",
                  "name": "investorRate",
                  "type": "uint256"
                },
                {
                  "internalType": "uint256",
                  "name": "ownerRate",
                  "type": "uint256"
                },
                {
                  "internalType": "uint256",
                  "name": "communityTreasuryRate",
                  "type": "uint256"
                }
              ],
              "internalType": "struct MemeBuilder.MemeRequirement",
              "name": "memeRequirement",
              "type": "tuple"
            },
            {
              "internalType": "uint256",
              "name": "startVotingAt",
              "type": "uint256"
            },
            {
              "internalType": "uint256",
              "name": "startInvestmentAt",
              "type": "uint256"
            },
            {
              "internalType": "uint256",
              "name": "startVestingAt",
              "type": "uint256"
            },
            {
              "internalType": "uint256",
              "name": "voteYes",
              "type": "uint256"
            },
            {
              "internalType": "uint256",
              "name": "voteNo",
              "type": "uint256"
            },
            {
              "internalType": "uint256",
              "name": "risedAmount",
              "type": "uint256"
            },
            {
              "internalType": "uint256",
              "name": "minimumVoter",
              "type": "uint256"
            },
            {
              "internalType": "uint256",
              "name": "minimumInvestmentAmount",
              "type": "uint256"
            },
            {
              "internalType": "uint256",
              "name": "maximumInvestmentAmount",
              "type": "uint256"
            }
          ],
          "internalType": "struct MemeBuilder.MemeProposal[]",
          "name": "",
          "type": "tuple[]"
        }
      ],
      "stateMutability": "view",
      "type": "function"
    },
    {
      "inputs": [
        {
          "internalType": "string",
          "name": "status",
          "type": "string"
        }
      ],
      "name": "getMemeProposalsByStatus",
      "outputs": [
        {
          "components": [
            {
              "internalType": "uint256",
              "name": "id",
              "type": "uint256"
            },
            {
              "internalType": "address",
              "name": "owner",
              "type": "address"
            },
            {
              "internalType": "string",
              "name": "name",
              "type": "string"
            },
            {
              "internalType": "string",
              "name": "symbol",
              "type": "string"
            },
            {
              "internalType": "uint256",
              "name": "supply",
              "type": "uint256"
            },
            {
              "internalType": "string",
              "name": "memeStory",
              "type": "string"
            },
            {
              "internalType": "string",
              "name": "logo",
              "type": "string"
            },
            {
              "internalType": "string",
              "name": "status",
              "type": "string"
            },
            {
              "components": [
                {
                  "internalType": "string",
                  "name": "X",
                  "type": "string"
                },
                {
                  "internalType": "string",
                  "name": "website",
                  "type": "string"
                },
                {
                  "internalType": "string",
                  "name": "telegram",
                  "type": "string"
                }
              ],
              "internalType": "struct MemeBuilder.SocialChannel",
              "name": "socialChannel",
              "type": "tuple"
            },
            {
              "components": [
                {
                  "internalType": "address",
                  "name": "token",
                  "type": "address"
                },
                {
                  "internalType": "uint256",
                  "name": "amount",
                  "type": "uint256"
                },
                {
                  "internalType": "uint256",
                  "name": "liquidityRate",
                  "type": "uint256"
                },
                {
                  "internalType": "uint256",
                  "name": "investorRate",
                  "type": "uint256"
                },
                {
                  "internalType": "uint256",
                  "name": "ownerRate",
                  "type": "uint256"
                },
                {
                  "internalType": "uint256",
                  "name": "communityTreasuryRate",
                  "type": "uint256"
                }
              ],
              "internalType": "struct MemeBuilder.MemeRequirement",
              "name": "memeRequirement",
              "type": "tuple"
            },
            {
              "internalType": "uint256",
              "name": "startVotingAt",
              "type": "uint256"
            },
            {
              "internalType": "uint256",
              "name": "startInvestmentAt",
              "type": "uint256"
            },
            {
              "internalType": "uint256",
              "name": "startVestingAt",
              "type": "uint256"
            },
            {
              "internalType": "uint256",
              "name": "voteYes",
              "type": "uint256"
            },
            {
              "internalType": "uint256",
              "name": "voteNo",
              "type": "uint256"
            },
            {
              "internalType": "uint256",
              "name": "risedAmount",
              "type": "uint256"
            },
            {
              "internalType": "uint256",
              "name": "minimumVoter",
              "type": "uint256"
            },
            {
              "internalType": "uint256",
              "name": "minimumInvestmentAmount",
              "type": "uint256"
            },
            {
              "internalType": "uint256",
              "name": "maximumInvestmentAmount",
              "type": "uint256"
            }
          ],
          "internalType": "struct MemeBuilder.MemeProposal[]",
          "name": "",
          "type": "tuple[]"
        }
      ],
      "stateMutability": "view",
      "type": "function"
    },
    {
      "inputs": [
        {
          "internalType": "uint256",
          "name": "_page",
          "type": "uint256"
        },
        {
          "internalType": "uint256",
          "name": "_pageSize",
          "type": "uint256"
        }
      ],
      "name": "getMentedMemes",
      "outputs": [
        {
          "components": [
            {
              "internalType": "uint256",
              "name": "id",
              "type": "uint256"
            },
            {
              "internalType": "address",
              "name": "owner",
              "type": "address"
            },
            {
              "internalType": "string",
              "name": "name",
              "type": "string"
            },
            {
              "internalType": "string",
              "name": "symbol",
              "type": "string"
            },
            {
              "internalType": "uint256",
              "name": "supply",
              "type": "uint256"
            },
            {
              "internalType": "string",
              "name": "memeStory",
              "type": "string"
            },
            {
              "internalType": "string",
              "name": "logo",
              "type": "string"
            },
            {
              "internalType": "string",
              "name": "status",
              "type": "string"
            },
            {
              "components": [
                {
                  "internalType": "string",
                  "name": "X",
                  "type": "string"
                },
                {
                  "internalType": "string",
                  "name": "website",
                  "type": "string"
                },
                {
                  "internalType": "string",
                  "name": "telegram",
                  "type": "string"
                }
              ],
              "internalType": "struct MemeBuilder.SocialChannel",
              "name": "socialChannel",
              "type": "tuple"
            },
            {
              "components": [
                {
                  "internalType": "address",
                  "name": "token",
                  "type": "address"
                },
                {
                  "internalType": "uint256",
                  "name": "amount",
                  "type": "uint256"
                },
                {
                  "internalType": "uint256",
                  "name": "liquidityRate",
                  "type": "uint256"
                },
                {
                  "internalType": "uint256",
                  "name": "investorRate",
                  "type": "uint256"
                },
                {
                  "internalType": "uint256",
                  "name": "ownerRate",
                  "type": "uint256"
                },
                {
                  "internalType": "uint256",
                  "name": "communityTreasuryRate",
                  "type": "uint256"
                }
              ],
              "internalType": "struct MemeBuilder.MemeRequirement",
              "name": "memeRequirement",
              "type": "tuple"
            },
            {
              "internalType": "uint256",
              "name": "startVotingAt",
              "type": "uint256"
            },
            {
              "internalType": "uint256",
              "name": "startInvestmentAt",
              "type": "uint256"
            },
            {
              "internalType": "uint256",
              "name": "startVestingAt",
              "type": "uint256"
            },
            {
              "internalType": "uint256",
              "name": "voteYes",
              "type": "uint256"
            },
            {
              "internalType": "uint256",
              "name": "voteNo",
              "type": "uint256"
            },
            {
              "internalType": "uint256",
              "name": "risedAmount",
              "type": "uint256"
            },
            {
              "internalType": "uint256",
              "name": "minimumVoter",
              "type": "uint256"
            },
            {
              "internalType": "uint256",
              "name": "minimumInvestmentAmount",
              "type": "uint256"
            },
            {
              "internalType": "uint256",
              "name": "maximumInvestmentAmount",
              "type": "uint256"
            }
          ],
          "internalType": "struct MemeBuilder.MemeProposal[]",
          "name": "",
          "type": "tuple[]"
        }
      ],
      "stateMutability": "view",
      "type": "function"
    },
    {
      "inputs": [
        {
          "internalType": "uint256",
          "name": "_page",
          "type": "uint256"
        },
        {
          "internalType": "uint256",
          "name": "_pageSize",
          "type": "uint256"
        },
        {
          "internalType": "address",
          "name": "_address",
          "type": "address"
        }
      ],
      "name": "getMyInvestedProposals",
      "outputs": [
        {
          "components": [
            {
              "internalType": "uint256",
              "name": "id",
              "type": "uint256"
            },
            {
              "internalType": "address",
              "name": "owner",
              "type": "address"
            },
            {
              "internalType": "string",
              "name": "name",
              "type": "string"
            },
            {
              "internalType": "string",
              "name": "symbol",
              "type": "string"
            },
            {
              "internalType": "uint256",
              "name": "supply",
              "type": "uint256"
            },
            {
              "internalType": "string",
              "name": "memeStory",
              "type": "string"
            },
            {
              "internalType": "string",
              "name": "logo",
              "type": "string"
            },
            {
              "internalType": "string",
              "name": "status",
              "type": "string"
            },
            {
              "components": [
                {
                  "internalType": "string",
                  "name": "X",
                  "type": "string"
                },
                {
                  "internalType": "string",
                  "name": "website",
                  "type": "string"
                },
                {
                  "internalType": "string",
                  "name": "telegram",
                  "type": "string"
                }
              ],
              "internalType": "struct MemeBuilder.SocialChannel",
              "name": "socialChannel",
              "type": "tuple"
            },
            {
              "components": [
                {
                  "internalType": "address",
                  "name": "token",
                  "type": "address"
                },
                {
                  "internalType": "uint256",
                  "name": "amount",
                  "type": "uint256"
                },
                {
                  "internalType": "uint256",
                  "name": "liquidityRate",
                  "type": "uint256"
                },
                {
                  "internalType": "uint256",
                  "name": "investorRate",
                  "type": "uint256"
                },
                {
                  "internalType": "uint256",
                  "name": "ownerRate",
                  "type": "uint256"
                },
                {
                  "internalType": "uint256",
                  "name": "communityTreasuryRate",
                  "type": "uint256"
                }
              ],
              "internalType": "struct MemeBuilder.MemeRequirement",
              "name": "memeRequirement",
              "type": "tuple"
            },
            {
              "internalType": "uint256",
              "name": "startVotingAt",
              "type": "uint256"
            },
            {
              "internalType": "uint256",
              "name": "startInvestmentAt",
              "type": "uint256"
            },
            {
              "internalType": "uint256",
              "name": "startVestingAt",
              "type": "uint256"
            },
            {
              "internalType": "uint256",
              "name": "voteYes",
              "type": "uint256"
            },
            {
              "internalType": "uint256",
              "name": "voteNo",
              "type": "uint256"
            },
            {
              "internalType": "uint256",
              "name": "risedAmount",
              "type": "uint256"
            },
            {
              "internalType": "uint256",
              "name": "minimumVoter",
              "type": "uint256"
            },
            {
              "internalType": "uint256",
              "name": "minimumInvestmentAmount",
              "type": "uint256"
            },
            {
              "internalType": "uint256",
              "name": "maximumInvestmentAmount",
              "type": "uint256"
            }
          ],
          "internalType": "struct MemeBuilder.MemeProposal[]",
          "name": "",
          "type": "tuple[]"
        }
      ],
      "stateMutability": "view",
      "type": "function"
    },
    {
      "inputs": [
        {
          "internalType": "uint256",
          "name": "_page",
          "type": "uint256"
        },
        {
          "internalType": "uint256",
          "name": "_pageSize",
          "type": "uint256"
        },
        {
          "internalType": "address",
          "name": "owner",
          "type": "address"
        }
      ],
      "name": "getMyProposals",
      "outputs": [
        {
          "components": [
            {
              "internalType": "uint256",
              "name": "id",
              "type": "uint256"
            },
            {
              "internalType": "address",
              "name": "owner",
              "type": "address"
            },
            {
              "internalType": "string",
              "name": "name",
              "type": "string"
            },
            {
              "internalType": "string",
              "name": "symbol",
              "type": "string"
            },
            {
              "internalType": "uint256",
              "name": "supply",
              "type": "uint256"
            },
            {
              "internalType": "string",
              "name": "memeStory",
              "type": "string"
            },
            {
              "internalType": "string",
              "name": "logo",
              "type": "string"
            },
            {
              "internalType": "string",
              "name": "status",
              "type": "string"
            },
            {
              "components": [
                {
                  "internalType": "string",
                  "name": "X",
                  "type": "string"
                },
                {
                  "internalType": "string",
                  "name": "website",
                  "type": "string"
                },
                {
                  "internalType": "string",
                  "name": "telegram",
                  "type": "string"
                }
              ],
              "internalType": "struct MemeBuilder.SocialChannel",
              "name": "socialChannel",
              "type": "tuple"
            },
            {
              "components": [
                {
                  "internalType": "address",
                  "name": "token",
                  "type": "address"
                },
                {
                  "internalType": "uint256",
                  "name": "amount",
                  "type": "uint256"
                },
                {
                  "internalType": "uint256",
                  "name": "liquidityRate",
                  "type": "uint256"
                },
                {
                  "internalType": "uint256",
                  "name": "investorRate",
                  "type": "uint256"
                },
                {
                  "internalType": "uint256",
                  "name": "ownerRate",
                  "type": "uint256"
                },
                {
                  "internalType": "uint256",
                  "name": "communityTreasuryRate",
                  "type": "uint256"
                }
              ],
              "internalType": "struct MemeBuilder.MemeRequirement",
              "name": "memeRequirement",
              "type": "tuple"
            },
            {
              "internalType": "uint256",
              "name": "startVotingAt",
              "type": "uint256"
            },
            {
              "internalType": "uint256",
              "name": "startInvestmentAt",
              "type": "uint256"
            },
            {
              "internalType": "uint256",
              "name": "startVestingAt",
              "type": "uint256"
            },
            {
              "internalType": "uint256",
              "name": "voteYes",
              "type": "uint256"
            },
            {
              "internalType": "uint256",
              "name": "voteNo",
              "type": "uint256"
            },
            {
              "internalType": "uint256",
              "name": "risedAmount",
              "type": "uint256"
            },
            {
              "internalType": "uint256",
              "name": "minimumVoter",
              "type": "uint256"
            },
            {
              "internalType": "uint256",
              "name": "minimumInvestmentAmount",
              "type": "uint256"
            },
            {
              "internalType": "uint256",
              "name": "maximumInvestmentAmount",
              "type": "uint256"
            }
          ],
          "internalType": "struct MemeBuilder.MemeProposal[]",
          "name": "",
          "type": "tuple[]"
        }
      ],
      "stateMutability": "view",
      "type": "function"
    },
    {
      "inputs": [
        {
          "internalType": "uint256",
          "name": "_page",
          "type": "uint256"
        },
        {
          "internalType": "uint256",
          "name": "_pageSize",
          "type": "uint256"
        },
        {
          "internalType": "address",
          "name": "_address",
          "type": "address"
        }
      ],
      "name": "getMyVotedProposals",
      "outputs": [
        {
          "components": [
            {
              "internalType": "uint256",
              "name": "id",
              "type": "uint256"
            },
            {
              "internalType": "address",
              "name": "owner",
              "type": "address"
            },
            {
              "internalType": "string",
              "name": "name",
              "type": "string"
            },
            {
              "internalType": "string",
              "name": "symbol",
              "type": "string"
            },
            {
              "internalType": "uint256",
              "name": "supply",
              "type": "uint256"
            },
            {
              "internalType": "string",
              "name": "memeStory",
              "type": "string"
            },
            {
              "internalType": "string",
              "name": "logo",
              "type": "string"
            },
            {
              "internalType": "string",
              "name": "status",
              "type": "string"
            },
            {
              "components": [
                {
                  "internalType": "string",
                  "name": "X",
                  "type": "string"
                },
                {
                  "internalType": "string",
                  "name": "website",
                  "type": "string"
                },
                {
                  "internalType": "string",
                  "name": "telegram",
                  "type": "string"
                }
              ],
              "internalType": "struct MemeBuilder.SocialChannel",
              "name": "socialChannel",
              "type": "tuple"
            },
            {
              "components": [
                {
                  "internalType": "address",
                  "name": "token",
                  "type": "address"
                },
                {
                  "internalType": "uint256",
                  "name": "amount",
                  "type": "uint256"
                },
                {
                  "internalType": "uint256",
                  "name": "liquidityRate",
                  "type": "uint256"
                },
                {
                  "internalType": "uint256",
                  "name": "investorRate",
                  "type": "uint256"
                },
                {
                  "internalType": "uint256",
                  "name": "ownerRate",
                  "type": "uint256"
                },
                {
                  "internalType": "uint256",
                  "name": "communityTreasuryRate",
                  "type": "uint256"
                }
              ],
              "internalType": "struct MemeBuilder.MemeRequirement",
              "name": "memeRequirement",
              "type": "tuple"
            },
            {
              "internalType": "uint256",
              "name": "startVotingAt",
              "type": "uint256"
            },
            {
              "internalType": "uint256",
              "name": "startInvestmentAt",
              "type": "uint256"
            },
            {
              "internalType": "uint256",
              "name": "startVestingAt",
              "type": "uint256"
            },
            {
              "internalType": "uint256",
              "name": "voteYes",
              "type": "uint256"
            },
            {
              "internalType": "uint256",
              "name": "voteNo",
              "type": "uint256"
            },
            {
              "internalType": "uint256",
              "name": "risedAmount",
              "type": "uint256"
            },
            {
              "internalType": "uint256",
              "name": "minimumVoter",
              "type": "uint256"
            },
            {
              "internalType": "uint256",
              "name": "minimumInvestmentAmount",
              "type": "uint256"
            },
            {
              "internalType": "uint256",
              "name": "maximumInvestmentAmount",
              "type": "uint256"
            }
          ],
          "internalType": "struct MemeBuilder.MemeProposal[]",
          "name": "",
          "type": "tuple[]"
        }
      ],
      "stateMutability": "view",
      "type": "function"
    },
    {
      "inputs": [
        {
          "internalType": "bytes32",
          "name": "role",
          "type": "bytes32"
        }
      ],
      "name": "getRoleAdmin",
      "outputs": [
        {
          "internalType": "bytes32",
          "name": "",
          "type": "bytes32"
        }
      ],
      "stateMutability": "view",
      "type": "function"
    },
    {
      "inputs": [
        {
          "internalType": "uint256",
          "name": "_page",
          "type": "uint256"
        },
        {
          "internalType": "uint256",
          "name": "_pageSize",
          "type": "uint256"
        }
      ],
      "name": "getVotingProposals",
      "outputs": [
        {
          "components": [
            {
              "internalType": "uint256",
              "name": "id",
              "type": "uint256"
            },
            {
              "internalType": "address",
              "name": "owner",
              "type": "address"
            },
            {
              "internalType": "string",
              "name": "name",
              "type": "string"
            },
            {
              "internalType": "string",
              "name": "symbol",
              "type": "string"
            },
            {
              "internalType": "uint256",
              "name": "supply",
              "type": "uint256"
            },
            {
              "internalType": "string",
              "name": "memeStory",
              "type": "string"
            },
            {
              "internalType": "string",
              "name": "logo",
              "type": "string"
            },
            {
              "internalType": "string",
              "name": "status",
              "type": "string"
            },
            {
              "components": [
                {
                  "internalType": "string",
                  "name": "X",
                  "type": "string"
                },
                {
                  "internalType": "string",
                  "name": "website",
                  "type": "string"
                },
                {
                  "internalType": "string",
                  "name": "telegram",
                  "type": "string"
                }
              ],
              "internalType": "struct MemeBuilder.SocialChannel",
              "name": "socialChannel",
              "type": "tuple"
            },
            {
              "components": [
                {
                  "internalType": "address",
                  "name": "token",
                  "type": "address"
                },
                {
                  "internalType": "uint256",
                  "name": "amount",
                  "type": "uint256"
                },
                {
                  "internalType": "uint256",
                  "name": "liquidityRate",
                  "type": "uint256"
                },
                {
                  "internalType": "uint256",
                  "name": "investorRate",
                  "type": "uint256"
                },
                {
                  "internalType": "uint256",
                  "name": "ownerRate",
                  "type": "uint256"
                },
                {
                  "internalType": "uint256",
                  "name": "communityTreasuryRate",
                  "type": "uint256"
                }
              ],
              "internalType": "struct MemeBuilder.MemeRequirement",
              "name": "memeRequirement",
              "type": "tuple"
            },
            {
              "internalType": "uint256",
              "name": "startVotingAt",
              "type": "uint256"
            },
            {
              "internalType": "uint256",
              "name": "startInvestmentAt",
              "type": "uint256"
            },
            {
              "internalType": "uint256",
              "name": "startVestingAt",
              "type": "uint256"
            },
            {
              "internalType": "uint256",
              "name": "voteYes",
              "type": "uint256"
            },
            {
              "internalType": "uint256",
              "name": "voteNo",
              "type": "uint256"
            },
            {
              "internalType": "uint256",
              "name": "risedAmount",
              "type": "uint256"
            },
            {
              "internalType": "uint256",
              "name": "minimumVoter",
              "type": "uint256"
            },
            {
              "internalType": "uint256",
              "name": "minimumInvestmentAmount",
              "type": "uint256"
            },
            {
              "internalType": "uint256",
              "name": "maximumInvestmentAmount",
              "type": "uint256"
            }
          ],
          "internalType": "struct MemeBuilder.MemeProposal[]",
          "name": "",
          "type": "tuple[]"
        }
      ],
      "stateMutability": "view",
      "type": "function"
    },
    {
      "inputs": [
        {
          "internalType": "uint256",
          "name": "_page",
          "type": "uint256"
        },
        {
          "internalType": "uint256",
          "name": "_pageSize",
          "type": "uint256"
        }
      ],
      "name": "getWaitingMintProposals",
      "outputs": [
        {
          "components": [
            {
              "internalType": "uint256",
              "name": "id",
              "type": "uint256"
            },
            {
              "internalType": "address",
              "name": "owner",
              "type": "address"
            },
            {
              "internalType": "string",
              "name": "name",
              "type": "string"
            },
            {
              "internalType": "string",
              "name": "symbol",
              "type": "string"
            },
            {
              "internalType": "uint256",
              "name": "supply",
              "type": "uint256"
            },
            {
              "internalType": "string",
              "name": "memeStory",
              "type": "string"
            },
            {
              "internalType": "string",
              "name": "logo",
              "type": "string"
            },
            {
              "internalType": "string",
              "name": "status",
              "type": "string"
            },
            {
              "components": [
                {
                  "internalType": "string",
                  "name": "X",
                  "type": "string"
                },
                {
                  "internalType": "string",
                  "name": "website",
                  "type": "string"
                },
                {
                  "internalType": "string",
                  "name": "telegram",
                  "type": "string"
                }
              ],
              "internalType": "struct MemeBuilder.SocialChannel",
              "name": "socialChannel",
              "type": "tuple"
            },
            {
              "components": [
                {
                  "internalType": "address",
                  "name": "token",
                  "type": "address"
                },
                {
                  "internalType": "uint256",
                  "name": "amount",
                  "type": "uint256"
                },
                {
                  "internalType": "uint256",
                  "name": "liquidityRate",
                  "type": "uint256"
                },
                {
                  "internalType": "uint256",
                  "name": "investorRate",
                  "type": "uint256"
                },
                {
                  "internalType": "uint256",
                  "name": "ownerRate",
                  "type": "uint256"
                },
                {
                  "internalType": "uint256",
                  "name": "communityTreasuryRate",
                  "type": "uint256"
                }
              ],
              "internalType": "struct MemeBuilder.MemeRequirement",
              "name": "memeRequirement",
              "type": "tuple"
            },
            {
              "internalType": "uint256",
              "name": "startVotingAt",
              "type": "uint256"
            },
            {
              "internalType": "uint256",
              "name": "startInvestmentAt",
              "type": "uint256"
            },
            {
              "internalType": "uint256",
              "name": "startVestingAt",
              "type": "uint256"
            },
            {
              "internalType": "uint256",
              "name": "voteYes",
              "type": "uint256"
            },
            {
              "internalType": "uint256",
              "name": "voteNo",
              "type": "uint256"
            },
            {
              "internalType": "uint256",
              "name": "risedAmount",
              "type": "uint256"
            },
            {
              "internalType": "uint256",
              "name": "minimumVoter",
              "type": "uint256"
            },
            {
              "internalType": "uint256",
              "name": "minimumInvestmentAmount",
              "type": "uint256"
            },
            {
              "internalType": "uint256",
              "name": "maximumInvestmentAmount",
              "type": "uint256"
            }
          ],
          "internalType": "struct MemeBuilder.MemeProposal[]",
          "name": "",
          "type": "tuple[]"
        }
      ],
      "stateMutability": "view",
      "type": "function"
    },
    {
      "inputs": [
        {
          "internalType": "bytes32",
          "name": "role",
          "type": "bytes32"
        },
        {
          "internalType": "address",
          "name": "account",
          "type": "address"
        }
      ],
      "name": "grantRole",
      "outputs": [],
      "stateMutability": "nonpayable",
      "type": "function"
    },
    {
      "inputs": [
        {
          "internalType": "uint256",
          "name": "id",
          "type": "uint256"
        },
        {
          "internalType": "address",
          "name": "voter",
          "type": "address"
        }
      ],
      "name": "hasAlreadyVoted",
      "outputs": [
        {
          "internalType": "bool",
          "name": "",
          "type": "bool"
        }
      ],
      "stateMutability": "view",
      "type": "function"
    },
    {
      "inputs": [
        {
          "internalType": "bytes32",
          "name": "role",
          "type": "bytes32"
        },
        {
          "internalType": "address",
          "name": "account",
          "type": "address"
        }
      ],
      "name": "hasRole",
      "outputs": [
        {
          "internalType": "bool",
          "name": "",
          "type": "bool"
        }
      ],
      "stateMutability": "view",
      "type": "function"
    },
    {
      "inputs": [
        {
          "internalType": "uint256",
          "name": "id",
          "type": "uint256"
        },
        {
          "internalType": "address",
          "name": "token",
          "type": "address"
        },
        {
          "internalType": "uint256",
          "name": "amount",
          "type": "uint256"
        }
      ],
      "name": "invest",
      "outputs": [],
      "stateMutability": "nonpayable",
      "type": "function"
    },
    {
      "inputs": [],
      "name": "investPeriod",
      "outputs": [
        {
          "internalType": "uint256",
          "name": "",
          "type": "uint256"
        }
      ],
      "stateMutability": "view",
      "type": "function"
    },
    {
      "inputs": [],
      "name": "investmentRate",
      "outputs": [
        {
          "internalType": "uint256",
          "name": "",
          "type": "uint256"
        }
      ],
      "stateMutability": "view",
      "type": "function"
    },
    {
      "inputs": [
        {
          "internalType": "uint256",
          "name": "id",
          "type": "uint256"
        }
      ],
      "name": "isReadyToMint",
      "outputs": [
        {
          "internalType": "bool",
          "name": "",
          "type": "bool"
        }
      ],
      "stateMutability": "view",
      "type": "function"
    },
    {
      "inputs": [
        {
          "internalType": "uint256",
          "name": "id",
          "type": "uint256"
        }
      ],
      "name": "isVoteResultPassed",
      "outputs": [
        {
          "internalType": "bool",
          "name": "",
          "type": "bool"
        }
      ],
      "stateMutability": "view",
      "type": "function"
    },
    {
      "inputs": [],
      "name": "lpVaultAddress",
      "outputs": [
        {
          "internalType": "address",
          "name": "",
          "type": "address"
        }
      ],
      "stateMutability": "view",
      "type": "function"
    },
    {
      "inputs": [],
      "name": "minimumVoter",
      "outputs": [
        {
          "internalType": "uint256",
          "name": "",
          "type": "uint256"
        }
      ],
      "stateMutability": "view",
      "type": "function"
    },
    {
      "inputs": [
        {
          "internalType": "uint256[]",
          "name": "ids",
          "type": "uint256[]"
        }
      ],
      "name": "mint",
      "outputs": [],
      "stateMutability": "nonpayable",
      "type": "function"
    },
    {
      "inputs": [
        {
          "internalType": "address",
          "name": "",
          "type": "address"
        },
        {
          "internalType": "address",
          "name": "",
          "type": "address"
        },
        {
          "internalType": "uint256",
          "name": "",
          "type": "uint256"
        },
        {
          "internalType": "bytes",
          "name": "",
          "type": "bytes"
        }
      ],
      "name": "onERC721Received",
      "outputs": [
        {
          "internalType": "bytes4",
          "name": "",
          "type": "bytes4"
        }
      ],
      "stateMutability": "nonpayable",
      "type": "function"
    },
    {
      "inputs": [],
      "name": "positionManagerAddress",
      "outputs": [
        {
          "internalType": "address",
          "name": "",
          "type": "address"
        }
      ],
      "stateMutability": "view",
      "type": "function"
    },
    {
      "inputs": [],
      "name": "releaseTokenTime",
      "outputs": [
        {
          "internalType": "uint256",
          "name": "",
          "type": "uint256"
        }
      ],
      "stateMutability": "view",
      "type": "function"
    },
    {
      "inputs": [
        {
          "internalType": "bytes32",
          "name": "role",
          "type": "bytes32"
        },
        {
          "internalType": "address",
          "name": "callerConfirmation",
          "type": "address"
        }
      ],
      "name": "renounceRole",
      "outputs": [],
      "stateMutability": "nonpayable",
      "type": "function"
    },
    {
      "inputs": [
        {
          "internalType": "bytes32",
          "name": "role",
          "type": "bytes32"
        },
        {
          "internalType": "address",
          "name": "account",
          "type": "address"
        }
      ],
      "name": "revokeRole",
      "outputs": [],
      "stateMutability": "nonpayable",
      "type": "function"
    },
    {
      "inputs": [
        {
          "internalType": "address",
          "name": "addr",
          "type": "address"
        }
      ],
      "name": "setCommunityTreasuryContract",
      "outputs": [],
      "stateMutability": "nonpayable",
      "type": "function"
    },
    {
      "inputs": [
        {
          "internalType": "address",
          "name": "addr",
          "type": "address"
        }
      ],
      "name": "setFactoryAddress",
      "outputs": [],
      "stateMutability": "nonpayable",
      "type": "function"
    },
    {
      "inputs": [
        {
          "internalType": "uint256",
          "name": "period",
          "type": "uint256"
        }
      ],
      "name": "setInvestPeriod",
      "outputs": [],
      "stateMutability": "nonpayable",
      "type": "function"
    },
    {
      "inputs": [
        {
          "internalType": "uint256",
          "name": "value",
          "type": "uint256"
        }
      ],
      "name": "setInvestmentRate",
      "outputs": [],
      "stateMutability": "nonpayable",
      "type": "function"
    },
    {
      "inputs": [
        {
          "internalType": "address",
          "name": "addr",
          "type": "address"
        }
      ],
      "name": "setLPVaultContract",
      "outputs": [],
      "stateMutability": "nonpayable",
      "type": "function"
    },
    {
      "inputs": [
        {
          "internalType": "uint256",
          "name": "voter",
          "type": "uint256"
        }
      ],
      "name": "setMinimumVoter",
      "outputs": [],
      "stateMutability": "nonpayable",
      "type": "function"
    },
    {
      "inputs": [
        {
          "internalType": "address",
          "name": "addr",
          "type": "address"
        }
      ],
      "name": "setPositionManagerAddress",
      "outputs": [],
      "stateMutability": "nonpayable",
      "type": "function"
    },
    {
      "inputs": [
        {
          "internalType": "uint256",
          "name": "duration",
          "type": "uint256"
        }
      ],
      "name": "setReleaseTokenTime",
      "outputs": [],
      "stateMutability": "nonpayable",
      "type": "function"
    },
    {
      "inputs": [
        {
          "internalType": "address",
          "name": "addr",
          "type": "address"
        }
      ],
      "name": "setVestingContract",
      "outputs": [],
      "stateMutability": "nonpayable",
      "type": "function"
    },
    {
      "inputs": [
        {
          "internalType": "uint256",
          "name": "period",
          "type": "uint256"
        }
      ],
      "name": "setVotePeriod",
      "outputs": [],
      "stateMutability": "nonpayable",
      "type": "function"
    },
    {
      "inputs": [
        {
          "internalType": "uint256",
          "name": "_voteRate",
          "type": "uint256"
        }
      ],
      "name": "setVoterRate",
      "outputs": [],
      "stateMutability": "nonpayable",
      "type": "function"
    },
    {
      "inputs": [
        {
          "internalType": "bytes4",
          "name": "interfaceId",
          "type": "bytes4"
        }
      ],
      "name": "supportsInterface",
      "outputs": [
        {
          "internalType": "bool",
          "name": "",
          "type": "bool"
        }
      ],
      "stateMutability": "view",
      "type": "function"
    },
    {
      "inputs": [],
      "name": "vestingAddress",
      "outputs": [
        {
          "internalType": "address",
          "name": "",
          "type": "address"
        }
      ],
      "stateMutability": "view",
      "type": "function"
    },
    {
      "inputs": [
        {
          "internalType": "uint256",
          "name": "id",
          "type": "uint256"
        },
        {
          "internalType": "enum MemeBuilder.VoteResult",
          "name": "result",
          "type": "uint8"
        }
      ],
      "name": "vote",
      "outputs": [],
      "stateMutability": "nonpayable",
      "type": "function"
    },
    {
      "inputs": [],
      "name": "votePeriod",
      "outputs": [
        {
          "internalType": "uint256",
          "name": "",
          "type": "uint256"
        }
      ],
      "stateMutability": "view",
      "type": "function"
    },
    {
      "inputs": [],
      "name": "voterRate",
      "outputs": [
        {
          "internalType": "uint256",
          "name": "",
          "type": "uint256"
        }
      ],
      "stateMutability": "view",
      "type": "function"
    }
  ],
  "bytecode": "0x60806040523461009557600480546001600160a01b031990811673427bf5b37357632377ecbec9de3626c71a5396c11790915560058054909116730bfbcf9fa4f9c56b0f40a671ad40e0805a09186517905562093a80600a5561012c600b819055600c556001600d556064600e819055600f5561007b3361009a565b5061008533610116565b5060405161482890816101af8239f35b600080fd5b6001600160a01b0381166000908152600080516020614a17833981519152602052604090205460ff16610110576001600160a01b03166000818152600080516020614a1783398151915260205260408120805460ff191660011790553391906000805160206149d78339815191528180a4600190565b50600090565b6001600160a01b03811660009081526000805160206149f7833981519152602052604090205460ff16610110576001600160a01b031660008181526000805160206149f783398151915260205260408120805460ff191660011790553391907fd8aa0f3194971a2a116679f7c2090f6939c8d4e01a2a8d7e41d55e5351469e63906000805160206149d78339815191529080a460019056fe6080604052600436101561001257600080fd5b60003560e01c806301ffc9a714610302578063033488b2146102fd57806307bd0265146102f85780630be7c32c146102f35780630f71b0fb14610262578063150b7a02146102ee578063248a9ca3146102e95780632f2ff15d146102e4578063364e74eb146102df57806336568abe146102da578063368d0e78146102d557806338ef1d60146102d057806344081010146102cb57806345d096a0146102c65780634c8d7e58146102c157806356fe6184146102bc57806367b11630146102b757806373eb9016146102b257806374991569146102ad5780637a8a1113146102a85780637f87183e146102a357806382f85c3f1461029e57806382f88e081461029957806383c17c551461029457806390a935651461028f57806391d148541461028a5780639209302c14610285578063943e821614610280578063966dae0e1461027b578063a0aba8b914610276578063a217fddf14610271578063a4fe92d11461026c578063a781358714610267578063a9f73ae314610262578063ae667e351461025d578063b029364514610258578063b15c401314610253578063c06909ec1461024e578063c14bfd2914610249578063c77c738714610244578063d547741f1461023f578063e0b3baef1461023a578063e78eb30814610235578063e8ca921214610230578063f24a55761461022b578063f8e93ef9146102265763fecba3a51461022157600080fd5b611fec565b61189e565b6117da565b6117b3565b611795565b6116b4565b6115da565b6115b3565b611568565b61154a565b611529565b611489565b611468565b6106ba565b61144a565b611373565b611357565b611339565b611312565b6111a2565b611151565b6110fa565b6110a9565b611058565b611007565b610fe0565b610f09565b610ee2565b610e91565b610d63565b610d42565b610d21565b610d00565b610cdf565b610c13565b610ad6565b610a2d565b6109ca565b6109ac565b610962565b61092d565b6108a9565b61040c565b6103d1565b6103b3565b346103a35760206003193601126103a3576004357fffffffff0000000000000000000000000000000000000000000000000000000081168091036103a357807f7965db0b0000000000000000000000000000000000000000000000000000000060209214908115610379575b506040519015158152f35b7f01ffc9a7000000000000000000000000000000000000000000000000000000009150143861036e565b600080fd5b60009103126103a357565b346103a35760006003193601126103a3576020600d54604051908152f35b346103a35760006003193601126103a35760206040517fd8aa0f3194971a2a116679f7c2090f6939c8d4e01a2a8d7e41d55e5351469e638152f35b346103a35760006003193601126103a3576020600f54604051908152f35b6001600160a01b038116036103a357565b60031960609101126103a357600435906024359060443561045b8161042a565b90565b919082519283825260005b84811061048a575050601f19601f8460006020809697860101520116010190565b80602080928401015182828601015201610469565b61045b9160406104cd6104bb845160608552606085019061045e565b6020850151848203602086015261045e565b92015190604081840391015261045e565b602081016020825282518091526040820191602060408360051b8301019401926000915b83831061051157505050505090565b9091929394602080827fffffffffffffffffffffffffffffffffffffffffffffffffffffffffffffffc085600195030186528851908151815261056283830151848301906001600160a01b03169052565b6102e06102406105f86105e46105d26105c06105a461059260408a015161030060408b01526103008a019061045e565b60608a015189820360608b015261045e565b6080890151608089015260a089015188820360a08a015261045e565b60c088015187820360c089015261045e565b60e087015186820360e088015261045e565b61010086015185820361010087015261049f565b9361064861012082015161012086019060a080916001600160a01b038151168452602081015160208501526040810151604085015260608101516060850152608081015160808501520151910152565b6101408101516101e08501526101608101516102008501526101808101516102208501526101a0810151828501526101c08101516102608501526101e08101516102808501526102008101516102a08501526102208101516102c0850152015191015297019301930191939290610502565b346103a3576106c83661043b565b6106d1826121c0565b916106de816000956122e5565b91600954925b838110610701575b858552604051806106fd87826104de565b0390f35b61073b826107236107118461230e565b50546000526007602052604060002090565b906001600160a01b0316600052602052604060002090565b54610749575b6001016106e4565b94828110156107c4576107bc60019161076a6107648961230e565b506124cf565b61077d6107768a61230e565b5054613032565b6102008201526107956020610120830151015161305d565b6102408301526102208201526107ab82896125eb565b526107b681886125eb565b506125ff565b959050610741565b946106ec565b634e487b7160e01b600052604160045260246000fd5b6060810190811067ffffffffffffffff8211176107fc57604052565b6107ca565b60c0810190811067ffffffffffffffff8211176107fc57604052565b90601f601f19910116810190811067ffffffffffffffff8211176107fc57604052565b604051906108506102608361081d565b565b604051906108506101608361081d565b92919267ffffffffffffffff82116107fc576040519161088c601f8201601f19166020018461081d565b8294818452818301116103a3578281602093846000960137010152565b346103a35760806003193601126103a3576108c560043561042a565b6108d060243561042a565b60643567ffffffffffffffff81116103a357366023820112156103a357610901903690602481600401359101610862565b506040517f150b7a02000000000000000000000000000000000000000000000000000000008152602090f35b346103a35760206003193601126103a357602061095a600435600052600060205260016040600020015490565b604051908152f35b346103a35760406003193601126103a3576109aa6024356004356109858261042a565b6109a56109a082600052600060205260016040600020015490565b61314b565b613199565b005b346103a35760006003193601126103a3576020600a54604051908152f35b346103a35760406003193601126103a3576004356024356109ea8161042a565b336001600160a01b03821603610a03576109aa9161323d565b7f6697b2320000000000000000000000000000000000000000000000000000000060005260046000fd5b346103a357610a3b3661043b565b610a44826121c0565b91610a51816000956122e5565b6001600160a01b036009549316905b838110610a7857858552604051806106fd87826104de565b610aa4610a986001610a898461230e565b5001546001600160a01b031690565b6001600160a01b031690565b8214610ab3575b600101610a60565b94828110156107c457610ace60019161076a6107648961230e565b959050610aab565b346103a35760206003193601126103a3576020610af460043561260e565b6040519015158152f35b9080601f830112156103a35781602061045b93359101610862565b91906060838203126103a35760405190610b32826107e0565b8193803567ffffffffffffffff81116103a35782610b51918301610afe565b8352602081013567ffffffffffffffff81116103a35782610b73918301610afe565b602084015260408101359167ffffffffffffffff83116103a357604092610b9a9201610afe565b910152565b7fffffffffffffffffffffffffffffffffffffffffffffffffffffffffffffff3c60c09101126103a35760405190610bd682610801565b8160c435610be38161042a565b815260e435602082015261010435604082015261012435606082015261014435608082015260a061016435910152565b346103a3576101806003193601126103a35760043567ffffffffffffffff81116103a357610c45903690600401610afe565b60243567ffffffffffffffff81116103a357610c65903690600401610afe565b906044359160643567ffffffffffffffff81116103a357610c8a903690600401610afe565b60843567ffffffffffffffff81116103a357610caa903690600401610afe565b9060a4359467ffffffffffffffff86116103a357610ccf6109aa963690600401610b19565b93610cd936610b9f565b95612abe565b346103a35760206003193601126103a357600435610cfb613086565b600a55005b346103a35760206003193601126103a357600435610d1c613086565b600c55005b346103a35760206003193601126103a357600435610d3d613086565b600f55005b346103a35760206003193601126103a357600435610d5e613086565b600b55005b346103a35760406003193601126103a357600435602435610d83816121c0565b90610d90816000946122e5565b90600954915b828110610daf575b848452604051806106fd86826104de565b610dc46007610dbd8361230e565b500161240c565b60208151910120610dd361264b565b602081519101201480610e7b575b80610e62575b610df4575b600101610d96565b9381811015610e5c57610e54600191610e0f6107648861230e565b610e1b6107768961230e565b610200820152610e336020610120830151015161305d565b610240830152610220820152610e4982886125eb565b526107b681876125eb565b949050610dec565b93610d9e565b50610e76610e6f8261230e565b5054612d26565b610de7565b506013610e878261230e565b5001544210610de1565b346103a35760206003193601126103a3576001600160a01b03600435610eb68161042a565b610ebe613086565b1673ffffffffffffffffffffffffffffffffffffffff196001541617600155600080f35b346103a35760006003193601126103a35760206001600160a01b0360045416604051908152f35b346103a35760406003193601126103a357600435602435610f29816121c0565b90610f36816000946122e5565b90600954915b828110610f5457848452604051806106fd86826104de565b610f626007610dbd8361230e565b60208151910120610f7161264b565b602081519101201480610fce575b80610fb5575b610f92575b600101610f3c565b9381811015610e5c57610fad600191610e0f6107648861230e565b949050610f8a565b50610fc9610fc28261230e565b505461260e565b610f85565b50610fdb610e6f8261230e565b610f7f565b346103a35760006003193601126103a35760206001600160a01b0360025416604051908152f35b346103a35760206003193601126103a3576001600160a01b0360043561102c8161042a565b611034613086565b1673ffffffffffffffffffffffffffffffffffffffff196003541617600355600080f35b346103a35760206003193601126103a3576001600160a01b0360043561107d8161042a565b611085613086565b1673ffffffffffffffffffffffffffffffffffffffff196005541617600555600080f35b346103a35760206003193601126103a3576001600160a01b036004356110ce8161042a565b6110d6613086565b1673ffffffffffffffffffffffffffffffffffffffff196004541617600455600080f35b346103a35760406003193601126103a357602060ff6111456024356004356111218261042a565b600052600084526040600020906001600160a01b0316600052602052604060002090565b54166040519015158152f35b346103a35760206003193601126103a3576001600160a01b036004356111768161042a565b61117e613086565b1673ffffffffffffffffffffffffffffffffffffffff196002541617600255600080f35b346103a35760406003193601126103a35760043560243560028110156103a35760116111cd8361230e565b500154421015806112f7575b6111e290612bae565b61122a61122561122161121a611202866000526006602052604060002090565b336001600160a01b0316600052602052604060002090565b5460ff1690565b1590565b612bf9565b61123381612c44565b61128a6001821491826000146112d957601461124e8561230e565b500161125a81546125ff565b90555b61128561127833610723876000526006602052604060002090565b600160ff19825416179055565b612c44565b156112cc57611297612c9f565b7ff872c9dd43e62509c7276e545b258673a25292dbeb9756e834227c8a83818655604051806112c7339482612cda565b0390a3005b6112d4612c64565b611297565b60156112e48561230e565b50016112f081546125ff565b905561125d565b506111e260126113068461230e565b500154421090506111d9565b346103a35760006003193601126103a35760206001600160a01b0360055416604051908152f35b346103a35760006003193601126103a3576020600c54604051908152f35b346103a35760006003193601126103a357602060405160008152f35b346103a35760406003193601126103a357600435602435611393816121c0565b906113a0816000946122e5565b90600954915b8281106113be57848452604051806106fd86826104de565b6113cc6007610dbd8361230e565b602081519101206113db61264b565b602081519101201480611434575b8061141f575b6113fc575b6001016113a6565b9381811015610e5c57611417600191610e0f6107648861230e565b9490506113f4565b5061142f611221610e6f8361230e565b6113ef565b5060126114408261230e565b50015442106113e9565b346103a35760006003193601126103a3576020600b54604051908152f35b346103a35760206003193601126103a357600435611484613086565b600e55005b346103a35760406003193601126103a3576004356024356114a9816121c0565b906114b6816000946122e5565b90600954915b8281106114d457848452604051806106fd86826104de565b6114e26007610dbd8361230e565b602081519101206114f1612ceb565b6020815191012014611506575b6001016114bc565b9381811015610e5c57611521600191610e0f6107648861230e565b9490506114fe565b346103a35760206003193601126103a357600435611545613086565b600d55005b346103a35760206003193601126103a3576020610af4600435612d26565b346103a35760406003193601126103a357602060ff61114560243560043561158f8261042a565b600052600684526040600020906001600160a01b0316600052602052604060002090565b346103a35760006003193601126103a35760206001600160a01b0360015416604051908152f35b346103a35760406003193601126103a3576109aa6024356004356115fd8261042a565b6116186109a082600052600060205260016040600020015490565b61323d565b67ffffffffffffffff81116107fc5760051b60200190565b60206003198201126103a3576004359067ffffffffffffffff82116103a357806023830112156103a357816004013561166d8161161d565b9261167b604051948561081d565b8184526024602085019260051b8201019283116103a357602401905b8282106116a45750505090565b8135815260209182019101611697565b346103a3576116c236611635565b6116ca6130d9565b60005b81518110156109aa57806116f16007610dbd6116eb600195876125eb565b5161230e565b6020815191012061170061264b565b6020815191012014611713575b016116cd565b60126117226116eb83866125eb565b50015442111561170d5761174261122161173c83866125eb565b51612d26565b1561170d5761176060076117596116eb84876125eb565b5001612d73565b61176a81846125eb565b517f9968c7f52fd00a2108f0bb8fe431303663edc67cc15a995d07aad3d83d031d60600080a261170d565b346103a35760006003193601126103a3576020600e54604051908152f35b346103a35760006003193601126103a35760206001600160a01b0360035416604051908152f35b346103a35760206003193601126103a35760043567ffffffffffffffff81116103a35761180b903690600401610afe565b60095490611818826121c0565b9060009060208101825b85811061183a57838552604051806106fd87826104de565b60076118606118488361230e565b506118596040518094819301612388565b038261081d565b602081519101208351832014611879575b600101611822565b9261189660019161188c6107648761230e565b6107ab82896125eb565b939050611871565b346103a3576118ac36611635565b6118b46130d9565b6139eb610e0860005b83518110156109aa576118d081856125eb565b516118da9061230e565b50601601546118e982866125eb565b516118f39061230e565b50600c0154111561190390612dab565b61190d81856125eb565b516119179061230e565b506007016119249061240c565b80519060200120611933612ceb565b80519060200120141561194590612df6565b61194f81856125eb565b516119599061230e565b506004015461196882866125eb565b516119729061230e565b506016015461198183876125eb565b5161198b9061230e565b50600d015461199a90836122e5565b6127109004936119aa84886125eb565b516119b49061230e565b50600e01546119c390846122e5565b6127109004926119d385896125eb565b516119dd9061230e565b50600f01546119ec90826122e5565b6127109004966119fc868a6125eb565b51611a069061230e565b5060100154611a1590836122e5565b612710900491611a25878b6125eb565b51611a2f9061230e565b5090611a3b888c6125eb565b51611a459061230e565b506040519286840184811067ffffffffffffffff8211176107fc57849360026003611a79958b8a8939019301913090612e61565b03906000f0968715611df657611b0b611ac0600b610a896116eb8b8f9d6001600160a01b03908f6007611ab26116eb86611ab9946125eb565b5001612ea6565b169d6125eb565b916020818b611ad76004546001600160a01b031690565b600060405180978195829463095ea7b360e01b845260048401602090939291936001600160a01b0360408201951681520152565b03925af1918215611df657611b6692611fd0575b50602087611b356004546001600160a01b031690565b604051948592839263095ea7b360e01b845260048401602090939291936001600160a01b0360408201951681520152565b038160006001600160a01b0388165af1928315611df657611b958883838e8397611b9b99611fb4575b50613366565b8a6136a8565b50611be5602083611bb46002546001600160a01b031690565b604051938492839263095ea7b360e01b845260048401602090939291936001600160a01b0360408201951681520152565b038160008c5af18015611df657611f98575b50611c10610a98610a986002546001600160a01b031690565b91611c1b878b6125eb565b51833b156103a3576040517f8dbdbe6d000000000000000000000000000000000000000000000000000000008152600481019190915260248101919091526001600160a01b0388166044820152916000908390606490829084905af1918215611df6578992611f83575b5060005b611ca7611c9688856125eb565b516000526008602052604060002090565b54811015611dfb57611cfc611d2c611d1e611d1888611d13611d0d8d610723611cf3611ce08b611cdb8f86611c96916125eb565b612ef9565b90546001600160a01b039160031b1c1690565b9889928d6125eb565b516000526007602052604060002090565b546122bc565b612e41565b896122e5565b670de0b6b3a7640000900490565b90611d45610a98610a986001546001600160a01b031690565b611d528a600a54976125eb565b5192813b156103a3576040517f1559014f0000000000000000000000000000000000000000000000000000000081526001600160a01b039384166004820152928c1660248401526044830152426064830152608482019590955260a481019190915292600090849060c490829084905af1908115611df6578a93600192611ddb575b5001611c89565b80611dea6000611df09361081d565b806103a8565b38611dd4565b612e9a565b509694939195925050611e1c610a98610a986001546001600160a01b031690565b93611e2f6001610a896116eb878c6125eb565b94600a5490611e3e868b6125eb565b5196813b156103a35760008094611eb56040519a8b96879586947f1559014f0000000000000000000000000000000000000000000000000000000086528c429260048801926001600160a01b0360a09592989796938160c087019a1686521660208501526040840152606083015260808201520152565b03925af1918215611df657611f2694602093611f6e575b506001546001600160a01b031660006040518097819582947fa9059cbb00000000000000000000000000000000000000000000000000000000845260048401602090939291936001600160a01b0360408201951681520152565b03925af1918215611df657600192611f40575b50016118bd565b611f609060203d8111611f67575b611f58818361081d565b810190612ee5565b5038611f39565b503d611f4e565b80611dea6000611f7d9361081d565b38611ecc565b80611dea6000611f929361081d565b38611c85565b611faf9060203d8111611f6757611f58818361081d565b611bf7565b611fcb9060203d8111611f6757611f58818361081d565b611b8f565b611fe79060203d8111611f6757611f58818361081d565b611b1f565b346103a35760606003193601126103a3576024356001600160a01b036004356120148361042a565b61205e6044359361202483612d26565b80612155575b61203390612f11565b61204461203f84612d26565b612f5c565b83612053600b610a898661230e565b911693168314612fa7565b60166120698261230e565b500161207684825461263e565b90556040517f23b872dd0000000000000000000000000000000000000000000000000000000081523360048201523060248201526044810184905291602090839060649082906000905af1908115611df6576121129261210a92612138575b506120ee33610723836000526007602052604060002090565b5415612116575b61072333916000526007602052604060002090565b91825461263e565b9055005b6121333361212e836000526008602052604060002090565b612ff2565b6120f5565b6121509060203d602011611f6757611f58818361081d565b6120d5565b5061203360136121648561230e565b5001544210905061202a565b6040519061217d826107e0565b60606040838281528260208201520152565b6040519061219c82610801565b600060a0838281528260208201528260408201528260608201528260808201520152565b906121ca8261161d565b6121d7604051918261081d565b828152601f196121e7829461161d565b019060005b8281106121f857505050565b602090612203610840565b600081526000838201526060604082015260608082015260006080820152606060a0820152606060c0820152606060e082015261223e612170565b61010082015261224c61218f565b61012082015260006101408201526000610160820152600061018082015260006101a082015260006101c082015260006101e0820152600061020082015260006102208201526000610240820152828285010152016121ec565b634e487b7160e01b600052601160045260246000fd5b90670de0b6b3a7640000820291808304670de0b6b3a764000014901517156122e057565b6122a6565b818102929181159184041417156122e057565b634e487b7160e01b600052603260045260246000fd5b60095481101561232d576009600052601a602060002091020190600090565b6122f8565b805482101561232d57600052601a602060002091020190600090565b90600182811c9216801561237e575b602083101461236857565b634e487b7160e01b600052602260045260246000fd5b91607f169161235d565b600092918154916123988361234e565b80835292600181169081156123ee57506001146123b457505050565b60009081526020812093945091925b8383106123d4575060209250010190565b6001816020929493945483858701015201910191906123c3565b9050602094955060ff1991509291921683830152151560051b010190565b906108506124209260405193848092612388565b038361081d565b90600260408051612437816107e0565b61247c8195835161244c816118598185612388565b83528351612461816118598160018601612388565b602084015261247584518096819301612388565b038461081d565b0152565b9060405161248d81610801565b60a0600582946001600160a01b038154168452600181015460208501526002810154604085015260038101546060850152600481015460808501520154910152565b9060196124da610840565b92805484526125066124f660018301546001600160a01b031690565b6001600160a01b03166020860152565b6125126002820161240c565b60408501526125236003820161240c565b60608501526004810154608085015261253e6005820161240c565b60a085015261254f6006820161240c565b60c08501526125606007820161240c565b60e085015261257160088201612427565b610100850152612583600b8201612480565b61012085015260118101546101408501526012810154610160850152601381015461018085015260148101546101a085015260158101546101c085015260168101546101e0850152601781015461020085015260188101546102208501520154610240830152565b805182101561232d5760209160051b010190565b60001981146122e05760010190565b600c612627601661261e8461230e565b5001549261230e565b500154111590565b9061012c82018092116122e057565b919082018092116122e057565b6040519061265a60408361081d565b600a82527f494e2d50524f43455353000000000000000000000000000000000000000000006020830152565b818110612691575050565b60008155600101612686565b90601f81116126aa575050565b61085091600052601f6020600020910160051c810190612686565b9190601f81116126d457505050565b610850926000526020600020906020601f840160051c83019310612700575b601f0160051c0190612686565b90915081906126f3565b919091825167ffffffffffffffff81116107fc576127328161272c845461234e565b846126c5565b6020601f8211600114612772578190612763939495600092612767575b50506000198260011b9260031b1c19161790565b9055565b01519050388061274f565b601f1982169061278784600052602060002090565b9160005b8181106127c3575095836001959697106127aa575b505050811b019055565b015160001960f88460031b161c191690553880806127a0565b9192602060018192868b01518155019401920161278b565b919091825192835167ffffffffffffffff81116107fc5761280681612800855461234e565b856126c5565b6020601f821160011461285b579161283e8260409360029561085098996000926127675750506000198260011b9260031b1c19161790565b84555b61285260208201516001860161270a565b0151910161270a565b601f1982169561287085600052602060002090565b9660005b8181106128b957509261085096976002959360019383604097106128a0575b505050811b018455612841565b015160001960f88460031b161c19169055388080612893565b83830151895560019098019760209384019301612874565b9060a060059161290e6001600160a01b0382511685906001600160a01b031673ffffffffffffffffffffffffffffffffffffffff19825416179055565b602081015160018501556040810151600285015560608101516003850155608081015160048501550151910155565b600954680100000000000000008110156107fc5780600161296392016009556009612332565b919091612a9957610240816019925184556129b761298b60208301516001600160a01b031690565b60018601906001600160a01b031673ffffffffffffffffffffffffffffffffffffffff19825416179055565b6129c860408201516002860161270a565b6129d960608201516003860161270a565b608081015160048501556129f460a08201516005860161270a565b612a0560c08201516006860161270a565b612a1660e08201516007860161270a565b612a28610100820151600886016127db565b612a3a610120820151600b86016128d1565b6101408101516011850155610160810151601285015561018081015160138501556101a081015160148501556101c081015160158501556101e08101516016850155610200810151601785015561022081015160188501550151910155565b634e487b7160e01b600052600060045260246000fd5b9060001982019182116122e057565b93612b7b969295919360095496600b5495612aef612ae6612adf894261263e565b984261263e565b600c549061263e565b97612af8610840565b998a523360208b015260408a01526060890152608088015260a087015260c0860152612b2261264b565b60e08601526101008501526101208401524261014084015261016083015261018082015260006101a082015260006101c082015260006101e082015260006102008201526000610220820152600061024082015261293d565b612b86600954612aaf565b337fb0d4fb8322e1c826818f956c2bb5192f545c5df3ca526655ceb58d07ab3aa19e600080a3565b15612bb557565b606460405162461bcd60e51b815260206004820152601760248201527f566f74696e6720706572696f642068617320656e6465640000000000000000006044820152fd5b15612c0057565b606460405162461bcd60e51b815260206004820152601360248201527f566f74696e6720616c726561647920646f6e65000000000000000000000000006044820152fd5b60021115612c4e57565b634e487b7160e01b600052602160045260246000fd5b60405190612c7360408361081d565b600282527f4e4f0000000000000000000000000000000000000000000000000000000000006020830152565b60405190612cae60408361081d565b600382527f59455300000000000000000000000000000000000000000000000000000000006020830152565b90602061045b92818152019061045e565b60405190612cfa60408361081d565b600682527f4d494e54454400000000000000000000000000000000000000000000000000006020830152565b6014612d318261230e565b5001546015612d3f8361230e565b50015481018091116122e057600d541115906015612d61601461261e8461230e565b5001541081612d6e575090565b905090565b612d86612d80825461234e565b8261269d565b7f4641494c4544000000000000000000000000000000000000000000000000000c9055565b15612db257565b606460405162461bcd60e51b815260206004820152601860248201527f4e6f7420656e6f7567682072616973656420616d6f756e7400000000000000006044820152fd5b15612dfd57565b606460405162461bcd60e51b815260206004820152601360248201527f4d656d6520616c7265616479206d696e746564000000000000000000000000006044820152fd5b8115612e4b570490565b634e487b7160e01b600052601260045260246000fd5b9261045b94926001600160a01b03612e8c931685526020850152608060408501526080840190612388565b916060818403910152612388565b6040513d6000823e3d90fd5b612eb3612d80825461234e565b7f4d494e544544000000000000000000000000000000000000000000000000000c9055565b519081151582036103a357565b908160209103126103a35761045b90612ed8565b805482101561232d5760005260206000200190600090565b15612f1857565b606460405162461bcd60e51b815260206004820152601b60248201527f496e766573746d656e7420706572696f642068617320656e64656400000000006044820152fd5b15612f6357565b606460405162461bcd60e51b815260206004820152601660248201527f566f746520726573756c74206e6f7420706173736564000000000000000000006044820152fd5b15612fae57565b606460405162461bcd60e51b815260206004820152600f60248201527f496e76616c6964206164647265737300000000000000000000000000000000006044820152fd5b8054680100000000000000008110156107fc5761301491600182018155612ef9565b6001600160a01b0380839493549260031b9316831b921b1916179055565b612710613058600c61304c670de0b6b3a76400009461230e565b500154600e54906122e5565b040490565b61306d61271091600f54906122e5565b04908160011b91808304600214811517156122e0579190565b3360009081527fad3228b676f7d3cd4284a5443f17f1962b36e491b30a40b2405849e597ba5fb5602052604090205460ff16156130bf57565b63e2517d3f60e01b60005233600452600060245260446000fd5b3360009081527fdae2aa361dfd1ca020a396615627d436107c35eff9fe7738a3512819782d7069602052604090205460ff161561311257565b63e2517d3f60e01b600052336004527fd8aa0f3194971a2a116679f7c2090f6939c8d4e01a2a8d7e41d55e5351469e6360245260446000fd5b80600052600060205260ff613177336040600020906001600160a01b0316600052602052604060002090565b5416156131815750565b63e2517d3f60e01b6000523360045260245260446000fd5b80600052600060205260ff6131c5836040600020906001600160a01b0316600052602052604060002090565b5416613236578060005260006020526131f5826040600020906001600160a01b0316600052602052604060002090565b600160ff198254161790556001600160a01b03339216907f2f8788117e7eff1d82e926ec794901d17c78024a50270940304540a733656f0d600080a4600190565b5050600090565b80600052600060205260ff613269836040600020906001600160a01b0316600052602052604060002090565b5416156132365780600052600060205261329a826040600020906001600160a01b0316600052602052604060002090565b60ff1981541690556001600160a01b03339216907ff6391f5c32d9c69d2a47ea670b442974b53935d1edc7fd64eb21e047a839171b600080a4600190565b908160209103126103a3575161045b8161042a565b519061ffff821682036103a357565b908160e09103126103a35780516133128161042a565b9160208201518060020b81036103a3579161332f604082016132ed565b9161333c606083016132ed565b91613349608082016132ed565b9160a082015160ff811681036103a35760c061045b919301612ed8565b92919092613382610a98610a986005546001600160a01b031690565b6040517fa16712950000000000000000000000000000000000000000000000000000000081526001600160a01b038381166004830152861660248201526101f460448201529490602090869060649082906000905af1918215611df657613459956020936135af575b50613404610a98610a986005546001600160a01b031690565b906040518097819482937f1698ee82000000000000000000000000000000000000000000000000000000008452600484016040906001600160a01b036101f49395948160608401971683521660208201520152565b03915afa928315611df65760009361356f575b506001600160a01b039161347f916137c8565b91166040517f3850c7bd00000000000000000000000000000000000000000000000000000000815260e081600481855afa8015611df6576001600160a01b039160009161353a575b5016156134d2575050565b803b156103a3576040517ff637731d0000000000000000000000000000000000000000000000000000000081526001600160a01b039290921660048301526000908290602490829084905af18015611df65761352b5750565b80611dea60006108509361081d565b61355c915060e03d60e011613568575b613554818361081d565b8101906132fc565b505050505050386134c7565b503d61354a565b61347f9193509161359f6001600160a01b039360203d6020116135a8575b613597818361081d565b8101906132d8565b9391509161346c565b503d61358d565b6135c590843d86116135a857613597818361081d565b6133eb565b91908260809103126103a35781519160208101516fffffffffffffffffffffffffffffffff811681036103a357916060604083015192015190565b81516001600160a01b03168152610160810192916101409081906020818101516001600160a01b03169085015260408181015162ffffff169085015260608181015160020b9085015260808181015160020b9085015260a081015160a085015260c081015160c085015260e081015160e08501526101008101516101008501526136a16101208201516101208601906001600160a01b03169052565b0151910152565b613783916000946080946136d96136be4261262f565b936124f66136ca610852565b6001600160a01b039097168752565b6101f460408501527ffffffffffffffffffffffffffffffffffffffffffffffffffffffffffff2764c6060850152620d89b48487015260a084015260c083015260e0820185905261010082018590523061012083015261014082015261374d610a98610a986004546001600160a01b031690565b906040519485809481937f8831645600000000000000000000000000000000000000000000000000000000835260048301613605565b03925af1908115611df657600091613799575090565b6137bb915060803d6080116137c1575b6137b3818361081d565b8101906135ca565b50505090565b503d6137a9565b90811561383157670de0b6b3a7640000810290808204670de0b6b3a764000014901517156122e057613802916137fd91612e41565b613875565b8060601b908082046c0100000000000000000000000014901517156122e05761045b90633b9aca009004610a98565b606460405162461bcd60e51b815260206004820152601e60248201527f537570706c7941206d7573742062652067726561746572207468616e203000006044820152fd5b600181111561045b578060017001000000000000000000000000000000008310156139a8575b61394e61394461393a61393061392661391c61390b6139559760048a6801000000000000000061395a9c101561399b575b64010000000081101561398e575b62010000811015613981575b610100811015613974575b6010811015613967575b101561395f575b60030260011c90565b613915818b612e41565b0160011c90565b613915818a612e41565b6139158189612e41565b6139158188612e41565b6139158187612e41565b6139158186612e41565b8093612e41565b821190565b900390565b60011b613902565b60041c9160021b916138fb565b60081c9160041b916138f1565b60101c9160081b916138e6565b60201c9160101b916138da565b60401c9160201b916138cc565b505061395a61395561394e61394461393a61393061392661391c61390b6139cf8a60801c90565b985068010000000000000000975061389b965050505050505056fe6080604052346103ed57610e0880380380610019816103f2565b9283398101906080818303126103ed5780516001600160a01b03811691908281036103ed57602082015160408301519092906001600160401b0381116103ed5785610065918301610417565b60608201519095906001600160401b0381116103ed576100859201610417565b845190946001600160401b0382116102ea5760035490600182811c921680156103e3575b60208310146102ca5781601f849311610373575b50602090601f831160011461030b57600092610300575b50508160011b916000199060031b1c1916176003555b83516001600160401b0381116102ea57600454600181811c911680156102e0575b60208210146102ca57601f8111610265575b50602094601f82116001146101fe579481929394956000926101f3575b50508160011b916000199060031b1c1916176004555b82156101dd578061016361016892610482565b610482565b60006002548281018091116101c9576000927fddf252ad1be2c89b69c2b068fc378daa952ba7f163c4a11628f55a4df523b3ef926020926002555084845283825260408420818154019055604051908152a360405161093c90816104cc8239f35b634e487b7160e01b82526011600452602482fd5b631e4fbdf760e01b600052600060045260246000fd5b01519050388061013a565b601f198216956004600052806000209160005b88811061024d57508360019596979810610234575b505050811b01600455610150565b015160001960f88460031b161c19169055388080610226565b91926020600181928685015181550194019201610211565b60046000527f8a35acfbc15ff81a39ae7d344fd709f28e8600b4aa8c65c6b64bfe7fe36bd19b601f830160051c810191602084106102c0575b601f0160051c01905b8181106102b4575061011d565b600081556001016102a7565b909150819061029e565b634e487b7160e01b600052602260045260246000fd5b90607f169061010b565b634e487b7160e01b600052604160045260246000fd5b0151905038806100d4565b600360009081528281209350601f198516905b81811061035b5750908460019594939210610342575b505050811b016003556100ea565b015160001960f88460031b161c19169055388080610334565b9293602060018192878601518155019501930161031e565b60036000529091507fc2575a0e9e593c00f959f8c92f12db2869c3395a3b0502d05e2516446f71f85b601f840160051c810191602085106103d9575b90601f859493920160051c01905b8181106103ca57506100bd565b600081558493506001016103bd565b90915081906103af565b91607f16916100a9565b600080fd5b6040519190601f01601f191682016001600160401b038111838210176102ea57604052565b81601f820112156103ed578051906001600160401b0382116102ea57610446601f8301601f19166020016103f2565b92828452602083830101116103ed5760005b82811061046d57505060206000918301015290565b80602080928401015182828701015201610458565b600580546001600160a01b039283166001600160a01b0319821681179092559091167f8be0079c531659141344cd1fd0a4f28419497f9722a3daafe3b4186f6b6457e0600080a356fe608080604052600436101561001357600080fd5b60003560e01c90816306fdde031461066157508063095ea7b3146105db57806318160ddd146105bd57806323b872dd1461045e578063313ce5671461044257806370a0823114610408578063715018a6146103955780638da5cb5b1461036e57806395d89b41146101eb578063a9059cbb146101ba578063dd62ed3e146101625763f2fde38b146100a357600080fd5b3461015d57602060031936011261015d576001600160a01b036100c4610788565b6100cc6108c4565b16801561012e576001600160a01b03600554827fffffffffffffffffffffffff0000000000000000000000000000000000000000821617600555167f8be0079c531659141344cd1fd0a4f28419497f9722a3daafe3b4186f6b6457e0600080a3005b7f1e4fbdf700000000000000000000000000000000000000000000000000000000600052600060045260246000fd5b600080fd5b3461015d57604060031936011261015d5761017b610788565b6001600160a01b0361018b61079e565b911660005260016020526001600160a01b03604060002091166000526020526020604060002054604051908152f35b3461015d57604060031936011261015d576101e06101d6610788565b60243590336107b4565b602060405160018152f35b3461015d57600060031936011261015d57604051600090600454918260011c60018416938415610364575b60208210851461033757839482855290816000146102f55750600114610298575b5003601f01601f191681019067ffffffffffffffff821181831017610269576102658291826040528261073e565b0390f35b7f4e487b7100000000000000000000000000000000000000000000000000000000600052604160045260246000fd5b6004600090815291507f8a35acfbc15ff81a39ae7d344fd709f28e8600b4aa8c65c6b64bfe7fe36bd19b5b8183106102d95750508101602001601f19610237565b60209193508060019154838588010152019101909183926102c3565b7fffffffffffffffffffffffffffffffffffffffffffffffffffffffffffffff001660208581019190915291151560051b84019091019150601f199050610237565b6024837f4e487b710000000000000000000000000000000000000000000000000000000081526022600452fd5b90607f1690610216565b3461015d57600060031936011261015d5760206001600160a01b0360055416604051908152f35b3461015d57600060031936011261015d576103ae6108c4565b60006001600160a01b036005547fffffffffffffffffffffffff00000000000000000000000000000000000000008116600555167f8be0079c531659141344cd1fd0a4f28419497f9722a3daafe3b4186f6b6457e08280a3005b3461015d57602060031936011261015d576001600160a01b03610429610788565b1660005260006020526020604060002054604051908152f35b3461015d57600060031936011261015d57602060405160128152f35b3461015d57606060031936011261015d57610477610788565b61047f61079e565b604435906001600160a01b0383169283600052600160205260406000206001600160a01b0333166000526020526040600020547fffffffffffffffffffffffffffffffffffffffffffffffffffffffffffffffff81036104e5575b506101e093506107b4565b838110610587578415610558573315610529576101e094600052600160205260406000206001600160a01b03331660005260205283604060002091039055846104da565b7f94280d6200000000000000000000000000000000000000000000000000000000600052600060045260246000fd5b7fe602df0500000000000000000000000000000000000000000000000000000000600052600060045260246000fd5b83907ffb8f41b2000000000000000000000000000000000000000000000000000000006000523360045260245260445260646000fd5b3461015d57600060031936011261015d576020600254604051908152f35b3461015d57604060031936011261015d576105f4610788565b602435903315610558576001600160a01b031690811561052957336000526001602052604060002082600052602052806040600020556040519081527f8c5be1e5ebec7d5bd14f71427d1e84f3dd0314c0f7b2291e5b200ac8c7c3b92560203392a3602060405160018152f35b3461015d57600060031936011261015d57600090600354918260011c60018416938415610734575b60208210851461033757839482855290816000146102f557506001146106d7575003601f01601f191681019067ffffffffffffffff821181831017610269576102658291826040528261073e565b6003600090815291507fc2575a0e9e593c00f959f8c92f12db2869c3395a3b0502d05e2516446f71f85b5b8183106107185750508101602001601f19610237565b6020919350806001915483858801015201910190918392610702565b90607f1690610689565b9190916020815282519283602083015260005b848110610772575050601f19601f8460006040809697860101520116010190565b8060208092840101516040828601015201610751565b600435906001600160a01b038216820361015d57565b602435906001600160a01b038216820361015d57565b6001600160a01b0316908115610895576001600160a01b03169182156108665760008281528060205260408120548281106108335791604082827fddf252ad1be2c89b69c2b068fc378daa952ba7f163c4a11628f55a4df523b3ef958760209652828652038282205586815280845220818154019055604051908152a3565b6064937fe450d38c0000000000000000000000000000000000000000000000000000000083949352600452602452604452fd5b7fec442f0500000000000000000000000000000000000000000000000000000000600052600060045260246000fd5b7f96c6fd1e00000000000000000000000000000000000000000000000000000000600052600060045260246000fd5b6001600160a01b036005541633036108d857565b7f118cdaa7000000000000000000000000000000000000000000000000000000006000523360045260246000fdfea2646970667358221220037aa7e11795c0150546560ca1f35005c1ad9ba8650b12a7c1b112e7d0b0fc7c64736f6c634300081b0033a26469706673582212200deec8ff29b959679120d2ec5ac3d47fd79991870e0d941d5326cc107cc0977c64736f6c634300081b00332f8788117e7eff1d82e926ec794901d17c78024a50270940304540a733656f0ddae2aa361dfd1ca020a396615627d436107c35eff9fe7738a3512819782d7069ad3228b676f7d3cd4284a5443f17f1962b36e491b30a40b2405849e597ba5fb5",
  "linkReferences": {},
  "deployedLinkReferences": {}
}